:020000040800F2
:100000000000012011C3000885B3000881B3000877
:100010007DB3000879B3000875B300080000000044
:100020000000000000000000000000006DB30008A8
:1000300071B300080000000069B3000859B300085C
:1000400061C3000861C3000861C3000815B300085C
:1000500061C3000861C3000861C3000861C30008F0
:1000600061C3000801B3000861C3000861C3000850
:10007000F5B20008E9B2000861C3000861C30008D6
:10008000DDB20008D1B2000861C3000861C30008F6
:1000900061C3000861C3000861C3000861C30008B0
:1000A00061C3000861C3000861C3000861C30008A0
:1000B00061C30008000000000000000061C30008E8
:1000C00061C30008ADB2000861C3000861C3000845
:1000D00061C3000861C30008CDAF000861C3000818
:1000E000B9AF000829B400080000000000000000BB
:1000F0000000000000000000000000000000000000
:100100000000000061C300080000000061C3000897
:10011000000000000000000061C3000861C3000887
:1001200061C3000861C3000861C3000861C300081F
:1001300061C3000800000000000000000000000093
:1001400061C3000861C3000861C30008000000002B
:1001500061C3000861C3000861C3000861C30008EF
:1001600061C3000861C3000861C30008000000000B
:1001700061C3000861C30008000000000000000027
:1001800061C3000861C3000861C3000800000000EB
:1001900010B5054C237833B9044B13B10448AFF3C1
:1001A00000800123237010BD980300200000000090
:1001B000502C010808B5034B1BB103490348AFF3AA
:1001C000008008BD000000009C030020502C0108A6
:1001D000F0B40568294F064601E0581C06D1EC69C9
:1001E00031EA0400F9D10020F0BC70473868801A69
:1001F000834227D333B328684407F0D5E869000564
:10020000EDD54FF400632B6255E8003F23F4D07323
:1002100045E80032002AF7D1326802F1080353E8BA
:10022000003F23F0010302F1080040E800310029FB
:10023000F3D12023B36786F87410F3670320C6F860
:100240008030D1E755E8003F23F4D07345E8003211
:10025000002AF7D1326802F1080353E8003F23F087
:10026000010302F1080040E800310029F3D1202306
:10027000B36786F874100320F367B5E7B403002072
:1002800009494A68D36823F0A003D360086804E0F2
:100290000B681B1AB3F57A7F04D8D3689B06F7D591
:1002A0000020704703207047B40300200B4A30B48D
:1002B000411E00F18B054FF0FF3011F8014F08236C
:1002C0006040C4074CBF82EA50004008013BF8D1AF
:1002D0008D42F2D1C04330BC704700BF2083B8EDDF
:1002E0000288438843EA02430B607047DFF880C00E
:1002F0002DE9F04F023802390CF1E2090CF1E40B60
:100300004FF0000A40F6DE1830F8025F31F8024F75
:10031000A54220D09CF800400BEBC404658825B3AF
:100320006768002607EB850E47F6FF7557F8044B04
:10033000A4B2A54228BF2546A64238BF2646BE45E0
:10034000F4D17600B6B26D00B24538BFB246ADB258
:10035000A84528BFA8460CF1010CCC45D4D1A2F881
:100360000080A3F800A0BDE8F08F4FF6FE75EFE720
:10037000682C01082DE9F04F054687B0002405EBF5
:10038000410E02900592104604910393AEF1120EB5
:10039000AA1EA4460194A246A346012740F2EE29D4
:1003A00014E0BBF1000F2ED1534532DD9A460124F3
:1003B000019E7642B342BCBFA8EB050301938C4576
:1003C00038BF8C46964500F1020027D0558A32F896
:1003D000021F6B1A03F50046B6F5803F38BF038055
:1003E00088462CBF002711884B45DADC564E9A45CB
:1003F000B8BF9A46B342DBDA002C0ABF0027A346F7
:100400004FF0010BD4E7534505DD9A465C460027C3
:10041000CEE70124CCE75C460027C9E72FB94FF0AF
:10042000000B584607B0BDE8F08F002CF7D0BBF1A9
:10043000000FF4D0049A059ECDF810C00023CDF82B
:1004400014A0A2F11C08123699469E461F469C46EF
:100450009A4636F9023F03EB830203EB420334462C
:1004600030460A2130F9025D34F9022F01FB0533D1
:1004700001FB02330139F5D1734561DC4B4501DAEB
:100480009946BA4601374745E3D14CF250339E4571
:1004900060465446DDF810C0DDF814A0BFDD2B4BDC
:1004A0009945BCDABAF1000FB9D0019B002BB6D048
:1004B000029B119A1B884FEACC0CDB0042B16345CA
:1004C00004D2D94351446144B1FBFAF1119A11604D
:1004D000109A002AA5D0039A002AA2D002460299B7
:1004E0000E3231F81210B3EBC10F4FEAC10005D242
:1004F000DB4353440344B3FBFAF3D21A2046029B76
:100500000E3033F81030BCEBC30F4FEAC30106D9ED
:10051000019C631E63445B1AB3FBF4F3C01A002A08
:10052000FFF67DAF0028FFF67AAF82423FF777AF44
:10053000109BA0EB020AC3F800A0039B1A6070E7AF
:100540009E46BC469EE700BF12FDFFFFB03CFFFF8A
:10055000034B9B6A13B1DB6802491847704700BF21
:10056000B4030020A489010870B4124E124D00F1AA
:10057000BC04002143680B44024640F8043F126863
:100580009A1AB24209DD50F8042CA3F5C9237E3B28
:10059000A1F5C92103607E399A1AAA4206DA03F549
:1005A000C9237E3301F5C92103607E318442E1D144
:1005B00070BC70473F240300C1DBFCFF2DE9F04F06
:1005C000DFF8C09000234FF0010A4FF00F0E4FF0FC
:1005D00090475D00032101FA05F503F0070189004A
:1005E000DA0803F003040AFA03FC0EFA01F623F01A
:1005F0000301920001F18041A4001CEA000802F10D
:10060000904201F5803103F101030EFA04F434D075
:10061000D1F808B01BEA040F1CD1D9F800B02BEABE
:10062000080BC9F800B0D9F804B02BEA080BC9F8D8
:1006300004B0D9F80CB02BEA080BC9F80CB0D9F803
:1006400008B02BEA0808C9F80880D1F8088028EA21
:1006500004048C60396829433960116A21EA060173
:100660001162BA6822EA0502BA607A6822EA0C02CC
:100670007A60FA6822EA0505FD6030FA03F2A8D133
:10068000BDE8F08F00040140F0B4314B314E1B68DF
:10069000056882B000248DF803403468376803EBA6
:1006A0008303C4F16404C3EBC30322441B0D02FBA8
:1006B00003F30193AB6819420AD12CE0019C019B22
:1006C000013B0193AB68002C08BF0022194222D0E5
:1006D000B1F5C06F05D12B7BDBB28DF803309DF8EF
:1006E00003303368DB1B9A42E8D86B68426823F01A
:1006F000E003B2F5827F6B601AD0836AB3F5005FC6
:100700000DD00122002380F85D2080F85C300320AA
:1007100002B0F0BC7047002002B0F0BC70472B68FC
:1007200023F400532B602B6843F400532B60E8E75D
:100730008368B3F5004F02D0B3F5806FDDD12B682D
:1007400023F040032B60836AB3F5005FD9D1E6E75D
:1007500000000020B403002070B4294D294B2A6802
:100760001B6804682E68C2F16402114483B0C3F3AD
:10077000CB3301FB03F30193A3681A060DD52B6855
:100780009B1B8B420DD2019A019B013B0193A368F5
:10079000002A08BF00211B06F1D4002003B070BC62
:1007A00070476368426823F0E003B2F5827F6360BC
:1007B00016D0836AB3F5005F09D00122002380F8C8
:1007C0005D2080F85C30032003B070BC7047236864
:1007D00023F400532360236843F400532360ECE7C1
:1007E0008368B3F5004F02D0B3F5806FE1D1236881
:1007F00023F040032360836AB3F5005FDDD1E6E7B1
:10080000B403002000000020836910B50446BBB18A
:100810000D4B93F82C204AB963697BB10A4B0B4A04
:100820001B6C0B4900209847002010BD1B6C094A27
:100830000749012098476369002BEFD1012010BDC3
:10084000C369002BE4D1E7E7B4030020207001085E
:1008500004700108E86F0108704700BFD0E90F235A
:10086000816B0069184700BF00688368184700BFA4
:10087000FAE700BF70B40169B0F8422090F8383050
:1008800031F81220032B08BF82F4004240F2E51336
:1008900003FB02F31B0C826CA3F589739BB21380DC
:1008A000828F31F812204AB1B0F8402031F812207E
:1008B000012A03D9C26C0124147002E0C26C002426
:1008C0001470C48F428F31F8145031F81240B0F9CF
:1008D000441040F2E51202FB05F2120CC2F58972D7
:1008E00013441BB2002BB8BF5B42D0E914651BB2A6
:1008F000A4F1010200689942B2FA82F24FEA521260
:10090000ACBF00230123327042682B7070BC1047CB
:1009100070B50446806978B1E36943B10F4B93F831
:100920002C2022B11B6C0E4A0E49012098472068EA
:10093000BDE8704083681847084D0B4A2B6C094985
:100940009847E3693BB195F82C3023B12B6C044AEE
:10095000044901209847002070BD00BFB403002067
:100960007470010864700108487001080068C36869
:10097000184700BFFAE700BFF8E700BF2DE9F047CE
:10098000C26DD0F8188006690023A8F8023004462A
:100990001D46137000F14C07994657F8043B03B30A
:1009A000B3F838C0B3F89000B3F89210B3F8D82079
:1009B00006EB400006EB410106EB420206EB4C0C55
:1009C000C3E91301C3F8A420C3F814C088F8005089
:1009D0001868D3F8DC20416883F8E490C3F8E0207D
:1009E00088470135EDB2042DD7D12068BDE8F04726
:1009F00043681847054B064A064910B41C6C9B6CAB
:100A0000A44602205DF8044B604700BFB4030020F9
:100A1000EC86010884700108024B9B6A0BB15B6A8B
:100A200018477047B4030020024B9B6A0BB11B6A46
:100A300018477047B4030020024B9B6A0BB15B69F7
:100A400018477047B4030020024B9B6A0BB11B6828
:100A500018477047B4030020184BDFF864C02DE935
:100A6000F0419E6C73185C1EA6460022ACFB00751C
:100A7000ED0805EB8507A0EB470780463037B8F156
:100A8000090F28460EF8017F154602F10102EDD844
:100A9000002098541046184403EB550314F8015FE6
:100AA00010F8017D27709C420570F7D11144481C55
:100AB0002C22002372543354BDE8F081B40300208B
:100AC000CDCCCCCC10B5074A92F82C40012C82B08A
:100AD00006D90091146C0449044A03460220A04739
:100AE00002B010BDB40300208470010888700108B2
:100AF00030B5084C94F82C50012D83B007D9CDE9BE
:100B000000120346246C044A04490220A04703B0A3
:100B100030BD00BFB40300209C7001088470010840
:100B200010B5074A92F82C40012C82B006D90091EA
:100B3000146C0449044A03460220A04702B010BDC9
:100B4000B403002084700108B470010810B5074A8E
:100B500092F82C40012C82B006D90091146C044903
:100B6000044A03460220A04702B010BDB40300208F
:100B700084700108C870010830B5084C94F82C50F6
:100B8000012D83B007D9CDE900120346246C044A35
:100B900004490220A04703B030BD00BFB4030020C9
:100BA000DC70010884700108074A92F82C100129B2
:100BB00009D910B4146C0549054A0346A44602201D
:100BC0005DF8044B60477047B4030020847001084F
:100BD000F470010852B101EB8202043850F8043F6E
:100BE0004B801B0C0B8004319142F7D1704700BF42
:100BF00030B583B000EB42000D4601A91C46FFF75B
:100C00006FFB019A22F00F0204B12A4300920146C1
:100C100001226846FFF7DEFF03B030BD2DE9F04F3B
:100C200087B0BDF84070DDF844A003EBC7077B88B0
:100C300083B381460E4601EB020800254FF0010BFD
:100C40007A6852F82540620092B2B242C4F3017051
:100C50001DD342451BDA01280CD0022836D0E8B15A
:100C6000324B334A1B6C334900209847002007B0B1
:100C7000BDE8F08FBAF10003A2EB060218BF012312
:100C800092B2C4F303414846FFF7B2FF7B880135B7
:100C9000AB42D5D8012007B0BDE8F08FC4F3445370
:100CA0000BFA03FC921BE24591B21ED30CF1FF3309
:100CB0001E4A0193CDF800A0146C1F4A03900B4606
:100CC0001C49A047039807B0BDE8F08F921BBAFA01
:100CD0008AF35B0992B2C4F303414846FFF788FFE9
:100CE0007B880135AB42ABD8D4E709EB410004A9BE
:100CF0000393FFF7F5FA039B4FF0FF32C3F1200394
:100D0000C4F3044422FA03F3049AA34022EA030240
:100D10000AFA04F40146144305A801220594FFF7DA
:100D200059FF7B880135AB428AD8B3E7B403002072
:100D3000487101083C710108047101082DE9F04F68
:100D4000C2F51D669A461B68164C0E36B34298BF14
:100D50009EB2154B054688BFB6B2500803EB800023
:100D600083B0174672088846023DFFF733FF04F14F
:100D7000E10904F1E40B7D2301E014F8013F35F8AB
:100D8000022F3946CDE9003240465B463246FFF736
:100D900045FF4C4501D00028EFD1CAF8006003B0F0
:100DA000BDE8F08F682C0108045C01082DE9F04FC4
:100DB00002EB420C00EB8C0C8DB000268346824681
:100DC00080466746B14603A84FEA890586469FEDEF
:100DD000577A43466AB19C192C44D4ED007A1C46DC
:100DE000D4ED006A0C3367EEA67ABB4237EE277A61
:100DF000F1D104350C2DAEEC017AE8D109F10109ED
:100E0000B9F1030F00F1100008F10408A6F104067F
:100E100007F10407D8D19DED046ADDED055ADDED3B
:100E2000086A68460BF10C04DFED407A53463AB18C
:100E30001D4695ED007A0C33634577EE877AF7D13E
:100E40000AF1040AA245E0EC017A0CF1040CEBD1A2
:100E5000DDED037AF5EE407AF1EE10FA10D0B7EE40
:100E6000007A87EE274ADDED077A66EE044A26EE21
:100E7000245A77EEC57AF5EE407AF1EE10FA06D1F3
:100E800000200023CBF800300DB0BDE8F08FC7EE96
:100E9000272A65EE843A25EEA47A66EE237A9DED44
:100EA0000B5A76EEE77A36EEC77A67EEA27A65EEEF
:100EB000A36A75EE666A27EE275A76EEC56AF5EEE6
:100EC000406AF1EE10FADBD09DED005A9DED013A3B
:100ED0009DED022A64EE854A63EE853A73EE644A1C
:100EE000012067EEA47A002372EE677A77EEE33A88
:100EF000C3EEA67A27EE277AC1ED027A34EEC77ADE
:100F000065EEA75A67EE227A26EE276AC1ED017ACE
:100F100035EE466A76EE655A25EE844A81ED004A42
:100F2000CBF800300DB0BDE8F08F00BF000000002E
:100F30000028B8BF404270B4BABF00B201240024F8
:100F400000293FDB884238DB0022034668B30846AD
:100F5000002643F628450004B0FBF3F1A9424AD924
:100F600046F2D633994236D948F67203994244D9AB
:100F70004AF64943994242D94DF2A303994240D9D6
:100F80004FF24B73994298BF052025D94FF24C750B
:100F900048F233234CF2A340491B03FB01F100EB61
:100FA000114016B1C0F5C9301F3014B1C0F5493039
:100FB0003F3002B1404270BC70470B46C1B9124885
:100FC0000A46F2E7494209B288424FF00102BCDA10
:100FD0000B461646BDE701200C4B03EBC00503EBA7
:100FE0008003D5F87808D3F8AC38D5F87458D3E72F
:100FF00000220126ADE70020EEE70220ECE7032007
:10100000EAE70420E8E700BF1F920100682C01080E
:101010002DE9F04F1E4EDFF88480814615460FCE35
:1010200091B002AC0FC40FCE0FC40FCE0FC496E820
:10103000030098F82C30012B84E8030007D9D8F876
:101040004040144A144900954B460220A047DFF85F
:1010500050B0DFF844A002AC10AE02E00834B44255
:1010600013D0A3881D42F9D098F82C30012B5A4692
:101070004B4651464FF00200F0D9276800970834DC
:10108000D8F84070B847B442EBD111B0BDE8F08F4A
:1010900030350108D8710108F4710108B40300204B
:1010A0000872010830B50A4C94F82C50012D85B017
:1010B0000BD9CDE901120346A1F58C7080B20090E6
:1010C000246C044A04490220A04705B030BD00BF8B
:1010D000B40300201C720108F471010830B5034606
:1010E000A1F16204104814F0010FA5B285B090F888
:1010F0002C400CD1012C08D9CDE901126D080095C6
:10110000046C0A4A0A490220A04705B030BD012CF0
:10111000FBD9CDE901126D080095046C054A04491C
:101120000220A04705B030BDB4030020447201087E
:10113000F47101087C72010830B5094C94F82C5008
:10114000012D83B009D97D3989B2CDE9001203465A
:10115000246C044A04490220A04703B030BD00BFFC
:10116000B4030020B4720108F471010810B50849F5
:1011700091F82C40012C82B008D902F00F020092A5
:101180000C6C044A044903460220A04702B010BD7B
:10119000B4030020E4720108F471010830B5094C71
:1011A00094F82C50012D83B009D92C3989B2CDE99E
:1011B00000120346246C044A04490220A04703B0ED
:1011C00030BD00BFB403002004730108F4710108AE
:1011D00030B50C4C94F82C50012D83B010D9114629
:1011E000094D246C094A11F4006F03460848C1F305
:1011F0000A0118BF2846CDE9000106490220A04790
:1012000003B030BDB4030020347301083C730108FF
:101210002C730108F471010810B4084C248E49089D
:1012200064088C4228BF0C46023C24F001040430C0
:1012300010601C605DF8044B704700BFB4030020D1
:10124000F8B50688002A14BF4FF480524FF40052BC
:10125000B6F59C6F38BF4FF49C66B24205460F4608
:101260001C4623D2134B144A1B6C14490020984788
:101270004FF0000E1249134A134BE360C4E9011208
:101280000FCD203676004FF0000CA4F802C004F118
:10129000300C24F8106B0FC495E80F0007C497E8D2
:1012A000030023808CE803007046F8BD4FF0010E68
:1012B000E0E700BFB4030020507301087073010819
:1012C0000100020003001B001C0020000368D0F88E
:1012D000E820C0F8F0205A681846104710B1024BB9
:1012E0009B6B1847704700BFB40300202DE9F04105
:1012F00007680446C7B1D7F8980080B100F14C05E3
:1013000000F15C064FF0000855F8040B18B1FFF728
:10131000E5FF45F8048CB542F6D1D7F89800FFF701
:10132000DDFF3846FFF7DAFF2046BDE8F041D5E79C
:10133000DFF864C02DE9F047DCF844501DB12B46BE
:10134000BDE8F047184712B35200A1F10208A2F11C
:1013500002090E469A4607464944444634F8025F5D
:101360006DBA8C422580F9D1DCF83C4038463146D4
:10137000A047BAF1000F01D1BDE8F0874E4438F81C
:10138000023F5BBAB045A8F80030F8D1F4E7BDE8F9
:10139000F047DCF83C301847B403002070B5012555
:1013A00084B041F4A0430446164603A92A4601A886
:1013B000ADF808300196ADF80A50FFF70BFC204657
:1013C00002A900230422FFF7B3FF04B070BD00BFE1
:1013D0002DE9F04782B01D4643F44053BDF8284044
:1013E000ADF8003000278A46914669460123032262
:1013F0008046ADF80270ADF80470FFF799FFBDF9B3
:10140000046004FA0AF1714001EA090445F48055C8
:1014100040463B46694674400222ADF80050ADF8A4
:101420000240FFF785FF02B0BDE8F08730B583B01A
:101430000025294600957B23FF220446FFF7C8FFBD
:101440000121204600918B230222FFF7C1FF009566
:1014500020468B2380220721FFF7BAFF03B030BD5F
:1014600030B583B041F4805415460023022201A90F
:10147000ADF80440ADF80650FFF75AFF03B030BD99
:1014800030B583B041F4405114460025ADF800104A
:10149000012303226946ADF80250ADF80450FFF76E
:1014A00047FFBDF80430238003B030BD2DE9F04F75
:1014B000324F2DED028B97F82C30012BA3B006464E
:1014C00004D93B6C2E4A2F49022098472E49DFF859
:1014D000C0B0DFF8B0A0782204A80EF047FA0122CD
:1014E000D5213046FFF7BCFF04AC0DF18808A58874
:1014F000B4F80690A9444D452EDA08EE106A06E0CD
:10150000BDF80E2098470135ADB2A94522DD18EE91
:10151000100A29460DF10E02FFF7B2FFA36818EE7C
:10152000100A2946002BEBD197F82C30012B5A4694
:1015300018EE103A51464FF00200E4D9BDF80EC043
:10154000CDF804C02668009601353E6CADB2B047B8
:10155000A945DCDC18EE106A0C34A045C7D197F819
:101560002C30012B04D93B6C084A064902209847CD
:1015700023B0BDEC028BBDE8F08F00BFB4030020A8
:1015800084730108F4710108683501081C740108AE
:1015900008740108F0B585B00024012907461646F5
:1015A000ADF80E4038D0022933D0224B22491D6CB1
:1015B000224A03462046A84721460DF10E0238462E
:1015C000FFF75EFFBDF80E30738003F00705012DB5
:1015D000358024D013F0060F0BD16DB9154A009752
:1015E000146C1549164A2846A0472C46204605B0DB
:1015F000F0BD023D012DF9D90E4A0097146C0E4939
:10160000104A0020A04700210C462046318005B03A
:10161000F0BD32210124D0E70C463321CDE7054A45
:101620000097146C0449084A0020A0470024204673
:1016300005B0F0BDB40300207474010858740108AB
:101640008C740108F0740108BC740108F0B583B013
:101650000024012907461646ADF8064019D0022994
:1016600009D01A4B1A4A1D6C1A4903462046A8474E
:10167000204603B0F0BD46210DF106023846FFF7C3
:10168000FFFEBDF80650842475B1BEB9012003B039
:10169000F0BD45210DF106023846FFF7F1FEBDF819
:1016A00006508324002DF0D1084B0B4A1C6C0949CD
:1016B00028463B46A047284603B0F0BD38462146A1
:1016C0000022FFF7CDFE3046D3E700BFB403002071
:1016D00058740108747401082475010870B582B04B
:1016E0000DF106020E4600241C210546ADF8064009
:1016F000FFF7C6FEBDF8062012F400620CD12846A2
:101700001B21FFF7ADFE284646F400621B21FFF7C0
:10171000A7FE012002B070BD044B054A1E6C0549AE
:1017200020462B46B047204602B070BDB4030020CF
:10173000587501087474010870B582B00DF1060285
:10174000002437210546ADF80640FFF799FEBDF8A5
:10175000063003F0C003B3B90DF1060200241C21CA
:101760002846ADF80640FFF78BFEBDF806301B0596
:1017700015D50E4B0E4A1E6C0E4920462B46B0471F
:10178000204602B070BD094B93F82C20002AE3D00C
:101790001C6C094A07492B460120A047DCE7284674
:1017A000FFF744FE012002B070BD00BFB40300206B
:1017B000B47501087474010888750108F0B40C4D03
:1017C0002F8E9E1CB7EB460F05D22B6C094A0A4997
:1017D000F0BC00201847144641F4A041013B1180A1
:1017E0005380214626F000420023F0BCA0E500BF54
:1017F000B4030020E47501080476010810B582B036
:10180000044601AA0121FFF7C5FE2046002201215E
:10181000FFF71CFFBDF80430022B08D00549064A2B
:101820000C6C06490020A047002002B010BD01202A
:1018300002B010BDB40300201876010860760108DC
:1018400070B504460D46FEF731FDD4F88C30984251
:101850000CBF0126002607D0094B0A4A1B6C0A4917
:1018600000209847304670BD228840F2E51303FB04
:1018700002F31B0CA3F589732B80304670BD00BFAB
:10188000B4030020807601089C76010810B520B1D1
:101890000B4B02689A42044607D00A4B0A4A1B6C5B
:1018A0000A49BDE810400020184700690023236062
:1018B00008B1FFF713FD2046BDE810400EE500BF5C
:1018C0000EB03713B4030020A47601089C760108FB
:1018D00010B520B10C4B02689A42044607D00B4B5E
:1018E0000B4A1B6C0B49BDE81040002018474068AC
:1018F00018B1C36898470023636000232360204623
:10190000BDE81040EAE400BF0DB03713B403002077
:10191000BC760108D876010870B48C8893680E896B
:101920008D79CA799A70003C18BF01249E801C7082
:101930005D70986070BC704708B5044B044A1B6C1E
:10194000044900209847002008BD00BFB4030020D0
:10195000E47601080486010870B520B10B4B0446FB
:101960000068984207D00A4B0A4A1B6C0A49BDE836
:10197000704000201847042A0D46164602D1FFF792
:10198000DBFF10B104EB0614A57470BD0FB0371364
:10199000B4030020FC7601080486010808B518B1DC
:1019A000064B02689A4207D0054B064A1B6C064953
:1019B00000209847002008BD043008BD0FB0371341
:1019C000B4030020FC7601080486010818B1064B18
:1019D00002689A4205D0054B054A1B6C0549002058
:1019E000184780F8541070470FB03713B403002025
:1019F000FC7601080486010818B1064B02689A4279
:101A000005D0054B054A1B6C05490020184780F896
:101A1000531070470FB03713B4030020FC76010851
:101A20000486010818B1064A0168914205D0054BA9
:101A3000054A1B6C054900201847002202604DE44E
:101A40000FB03713B4030020FC76010804860108A8
:101A500028B1007BA0F10800B0FA80F0400970477F
:101A600069B158B188420AD0836853B15A6822B12B
:101A7000116001204A6059607047012070470020C2
:101A800070478160C1E9003101207047D8B1026818
:101A9000D2B110B4D0E90143A3420CD2591E0A447A
:101AA00003E001339C42836008D012F8011F202913
:101AB000F7D99C4202D05DF8044B7047013C84602A
:101AC0005DF8044B704770471046704770B4421E73
:101AD000C11C002012F8013FA3F13004E5B2092D2A
:101AE000A3F1410604D8204491420AD00001F1E755
:101AF000052EA3F16104A3F1370504D891422844CF
:101B0000F4D170BC7047052C02D8573B1844EBE762
:101B10000020F6E72DE9F04F93681668F45C9046D4
:101B2000222C03F10102814683B006EB020506EB8D
:101B300003001AD1D8F80470BA4216D28A462C464D
:101B4000002203E00134A31BBB420ED22378222BD8
:101B500015D05C2BF6D10134A31BBB4205D2013456
:101B6000A31BBB4202F10102F0D325B1D8F800005B
:101B7000281AC8F80800002003B0BDE8F08F231A27
:101B8000C2F101001844D8F81030984707460028E1
:101B9000EBD0A54280F09980DFF890B13A4605E09D
:101BA00002F8013B0135A54280F090802B785C2B38
:101BB000F6D1611B00291ADD6E78752E17D85B2EC1
:101BC00038D9A6F15C03192B11D8DFE803F03710E0
:101BD000101010102D1010102710101010101010D1
:101BE000211010101B10150D052901922BDCD8F8BF
:101BF000143038469847B9E7092302F8013B02231D
:101C00001D44D0E70D2302F8013B02231D44CAE71F
:101C10000A2302F8013B02231D44C4E70C2302F807
:101C2000013B02231D44BEE7082302F8013B0223C7
:101C30001D44B8E7222E01D02F2ED8D1022302F85E
:101C4000016B1D44AFE7A81CFFF740FFA0F55C4304
:101C5000B3F5806F0646CAD3A0F55843B3F5806F3D
:101C6000019A42D2AB1DE31A052BC0DDAB795C2B88
:101C7000BDD1EB79752BBAD105F10800FFF726FF2E
:101C8000A0F55C43B3F5806FB1D20BEA8626C0F3B2
:101C900009003043019A00F580360C234FF0040E02
:101CA0004FF0F00C0320104406F03F0161F07F017B
:101CB00000F8011990424FEA9616F5D14CEA060653
:101CC000F6B216701D4472446DE73A4610230021A7
:101CD0001170C9F80030CAF80070D8F80030E31A63
:101CE0000133C8F80830012046E77F2804D8C6B27F
:101CF00006234FF0010EE4E7B0F5006F06D206238D
:101D00004FF0020E4FF0C00C0120CCE7B0F5803F41
:101D100006D206234FF0030E4FF0E00C0220C2E77C
:101D2000B0F5881FBFF463AF0623B7E700FC0F00D0
:101D300018B370B5114E044625462468EB68D805E3
:101D40001A460CD4A86828B1FFF7F2FFEB68D90552
:101D50001A4604D4286970B1B3689847EA689305B5
:101D600003D4286A08B1B3689847B36828469847EF
:101D7000002CE1D170BD1A46F1E770470000002049
:101D80000278142A01D001207047F8B51E461B685E
:101D90005BB10F4635460024696855F8083F384660
:101DA0009847336801349C42F6D30120F8BD00BF48
:101DB000836A1B6E704700BF0368806A1A6812F05E
:101DC000200227D10368A0F85A2053E8002F22F4FC
:101DD000807243E800210029F7D103F1080252E89C
:101DE000002F22F0010203F1080C4CE80021002929
:101DF000F3D103F1080252E8002F22F0400203F170
:101E0000080C4CE800210029F3D12022C267026EA1
:101E1000012A01D0036E704753E8002F22F0100210
:101E200043E800210029F5D053E8002F22F01002EA
:101E300043E800210029EFD1ECE700BF704700BF65
:101E40000368816A1B6813F0200317D10A68A1F8A0
:101E5000523002F1080353E8003F23F0800302F1FF
:101E6000080040E800310029F3D152E8003F43F078
:101E7000400342E800310029F7D17047044B03F1D9
:101E80004C02914204BF002283F8D020704700BF6B
:101E9000B4030020836A19684A6822F0030210B470
:101EA0004A601A6E012442F010021A6683F85D40FF
:101EB0005DF8044B704700BF704700BF704700BF1C
:101EC00070B503681B4D2E681B689B062ED4846A70
:101ED0002268536823F020035360204632464FF4B3
:101EE000C051FEF7D1FB58B931462046FEF734FC0D
:101EF00030B932464FF4C0612046FEF7C5FB38B119
:101F0000236E43F020032366236E43F020032366F1
:101F100021684B68002223F0030301204B60E28715
:101F2000A4F8462084F85D00236E13B9012385F8D8
:101F3000D13070BDB403002038B52E4A036815684F
:101F40001B689B061FD4846A2368A268586820F027
:101F500020005860C2B15968606821F00101B0F5F5
:101F6000827F596035D029462046FEF7F5FBC8B977
:101F70006368B3F5827F1CD001230022A4F84620B9
:101F800084F85D30236E38BD6268B2F5827F5A688E
:101F900027D022F001025A6029462046FEF7DCFBDA
:101FA0000028E5D0236E43F0200323662023236618
:101FB000E2E7A368B3F5004F02D0B3F5806FDBD141
:101FC0002A464FF4C0612046FEF75EFB0028D3D0BE
:101FD000E8E7B2F5004F08D11A6822F040021A6013
:101FE000C1E722F003025A60BDE7B2F5806FF3D07B
:101FF000B9E700BFB4030020444AD36830B49C075B
:1020000008D0D368046803F00303A34247D001203B
:1020100030BC70470368022B52D0032B49D0012BF0
:10202000F5D112689207F2D5384D4468EA6822F07B
:1020300073021343013C43EA0413EB60334C344A0C
:10204000236823F080632360156803E013685B1B3B
:10205000022B39D823681B01F8D4002937D1D0E9E5
:1020600002532169DB0621F0784121F4FE4143EA65
:1020700005230B43236125490B6843F080630B6004
:10208000146803E013681B1B022B1DD80B681B018F
:10209000F8D582690B6913430B610020B8E7002B68
:1020A000B5D0D3684268C3F3021301339342AED173
:1020B000C4E71468A403B7D412685203A7D5B3E7E2
:1020C00012685505A3D5AFE7032030BC704701293E
:1020D00023690DD04169856823F0C06323F4FE4372
:1020E000490843EA0523013943EA41632361C2E712
:1020F0000169856823F4C00323F4FE43490843EAD9
:102100000523013943EA41532361B4E7001002403B
:10211000B4030020064A074B92680749C2F3022223
:102120001344086893F8783903F01F03D8407047C8
:1021300000100240682C01080000002000283ED05A
:102140000268204913688A4223F00103F0B4136047
:1021500024D91D4B1D491E4E1E4C06641344A1FB81
:1021600003131B099B0003F01C050121A940002754
:1021700043641760716023680F22AA4023EA0203B8
:1021800023600023C36380F8243080F82530C0E941
:102190000B33C0E90D33F0BC184670470E4B0B49AA
:1021A0000E4E0F4C06641344A1FB03131B099B0046
:1021B00003F01C050121A94000274364D9E7012051
:1021C000704700BF07040240F8FBFDBFCDCCCCCC6C
:1021D00000040240A8040240F8FFFDBF00000240D6
:1021E000A80002400DF0A0BB0DF0A6BB50B138B561
:1021F0000446006828B1A568284409F04DF9284430
:10220000A06038BD704700BF30B5044683B080B1D0
:1022100009F042F9084B421C5B680192104698474E
:10222000054618B1019A21460DF0A0FB284603B0DF
:1022300030BD0546FAE700BF0000002020B319B307
:10224000F8B51446E2B19042054619D00846FFF7AA
:10225000DBFF0646A0B1E36823F400779B0504D4B6
:10226000206A10B10C4B9B689847AB682662E76008
:1022700063B15A6832B11460012062605C60F8BDDD
:102280000020F8BD0120F8BD00207047AC6001209F
:10229000C4E90034F8BD00BF00000020CEE700BF55
:1022A0002DE9F84F164C0A9E278E043A043F520837
:1022B0007F0897420D468146984628BF174601F190
:1022C000040A0024331BBB4228BF3B466FEA84410B
:1022D0005A1E6FEA91419B466A8029805A0008EB9A
:1022E000440150461C440DF041FB0BF10202002357
:1022F00029464846FFF71CF8A642E3D8BDE8F88F08
:10230000B403002038B138B5B0FBF1F301FB130181
:1023100019B1104638BD104670470A4C94F82C305D
:10232000012B05D9256CA36C074A08490220A84750
:10233000074BA26C03CB1B7810601372516009220B
:10234000104638BDB4030020EC86010884700108F3
:10235000147701081B4B2DE9F0411B4E05460C4636
:1023600003CBB26C1B78137210605160FCB12C1956
:1023700005F1FF38013CC5F1010509222D27122185
:1023800005EB0800FFF7BEFF18F9013F002B0146DF
:1023900004DAB36C1F5498F900300131002BB8BF38
:1023A0005B42D8B2FEF758FBA0450246E7D196F84B
:1023B0002C30012B03D9BDE8F041FEF71BBBBDE873
:1023C000F08100BF14770108B4030020F8B5134B67
:1023D000134E07460D4603CBB26C1B781372106088
:1023E00051608DB17D197C1E013DC7F101070922A5
:1023F00016213819FFF786FF014614F8010FFEF782
:102400002BFBAC420246F3D196F82C30012B03D9BA
:10241000BDE8F840FEF7EEBAF8BD00BF147701083A
:10242000B40300201A4B2DE9F0411A4E04460D4624
:1024300003CBB26C1B78137210605160EDB1023C9B
:102440004FF0000809222D270C214046FFF75AFFC4
:1024500034F9023F002B08F10108014604DAB36C9D
:102460001F54B4F900300131002BB8BF5B4298B261
:10247000FEF7F2FA45450246E6D196F82C30012BDC
:1024800003D9BDE8F041FEF7B5BABDE8F08100BF61
:1024900014770108B4030020F8B5124B124E05461C
:1024A0000F4603CBB26C1B781372106051607FB182
:1024B000023D002409220F212046FFF723FF014699
:1024C00035F8020FFEF7C8FA0134A7420246F2D1EE
:1024D00096F82C30012B03D9BDE8F840FEF78ABAF4
:1024E000F8BD00BF14770108B4030020194B2DE993
:1024F000F041194E04460D4603CBB26C1B781372A3
:1025000010605160E5B1043C4FF0000809222D270E
:1025100007214046FFF7F6FE54F8043F002B08F170
:102520000108014603DAB36C1F542368013183EAC2
:10253000E370A0EBE370FEF78FFA45450246E7D162
:1025400096F82C30012B03D9BDE8F041FEF752BAC2
:10255000BDE8F08114770108B4030020F8B5124BF0
:10256000124E05460F4603CBB26C1B7813721060F7
:1025700051607FB1043D0024092208212046FFF765
:10258000C1FE014655F8040FFEF766FA0134A74272
:102590000246F2D196F82C30012B03D9BDE8F84061
:1025A000FEF728BAF8BD00BF14770108B403002075
:1025B00070B5044600B30668CEB14368CBB90029B4
:1025C0001ADBA268013111448B4218D223699BB9EE
:1025D000B1F1804F16D2236A4D00D3B1304629465F
:1025E0009847064618B3A368C4E900651E44304600
:1025F00070BD82689342E2D80026304670BD164412
:10260000304670BD0029F7DB236A6FF00045002BD0
:10261000E4D1A36928469847064640B1A2682168DC
:1026200001320DF0A3F9E36920689847DBE7E3691D
:1026300020689847C4E90066D9E700BF2DE9F04F4C
:10264000254C85B00026CDE90266B4F830800192B1
:102650008946002B3AD04FEA58088346A8F104086F
:102660009A460D461F4626E0019B48F200019A1942
:102670002980631E4FF00001E9806A80AB80620010
:10268000002105F108000AF0BBFC29460123584649
:10269000221DFEF74DFE02AB03CB26446960286085
:1026A00009EB460559F81600696802AB564503C3A5
:1026B000A7EB04070AD2B845444628BF3C46B845B4
:1026C000D2D200E0013CE307FCD4CDE709F10800D9
:1026D00005B0BDE8F08F00BFB403002070B5094E0F
:1026E000736B05469847044628B12A4600210AF034
:1026F00087FC204670BD336C034A04499847204646
:1027000070BD00BFB40300202077010830770108B6
:102710002DE9F04F02EBC30689B07388129F4BB3CB
:102720008046894600254FF0010B736853F8254019
:10273000C4F3017001280CD0022833D0F0B1344B1F
:10274000344A1B6C344900209847002009B0BDE88A
:10275000F08FA3B2194659F8232022F00F0217B1C7
:10276000C4F3034422434046FEF718FE7388013544
:102770009D42DAD3012009B0BDE8F08FC4F3445A7A
:102780000BFA0AF39F4216D3214A0097013B0193AB
:1027900021490390A3B2146C204AA047039809B0C2
:1027A000BDE8F08FA3B2194659F8232022F00F029A
:1027B000002FD8D1D4E7A3B243F4204C03930522D1
:1027C000012305A9ADF81800CDF81A004046ADF870
:1027D00014C0ADF816B0FEF7ABFD04A90DF11A0058
:1027E000FDF77EFDCAF1200A4FF0FF33C4F3044425
:1027F00023FA0AFA049B03990AFA04FA23EA0A0262
:1028000007FA04F422434046FEF7C8FDAEE700BFD6
:10281000B4030020787701083C7101084077010873
:1028200010B5034628209847044618B128220021F5
:102830000AF0E6FB204610BD70B5154B82B0054688
:10284000586801911646FFF7EBFF0199044640B125
:1028500010233046E360FFF7D7FC0199206106465C
:1028600080B128462246FFF7E9FC054620B1201E2C
:1028700018BF012002B070BD2046FFF759FA284664
:1028800002B070BD2046FFF753FA34460199E8E7DD
:102890000000002008B5044B5868FFF7C1FF08B1DD
:1028A0004023C36008BD00BF0000002008B5044BF2
:1028B0005868FFF7B5FF08B12023C36008BD00BF0B
:1028C0000000002030B50E4B83B0054658680191DA
:1028D000FFF7A6FF0199044608B12023C3602846EC
:1028E0002246FFF7ABFC054610B1204603B030BDD1
:1028F0002046FFF71DFA2C46204603B030BD00BF2E
:10290000000000202DE9F041234C80466068164607
:102910001F460D46FFF784FF044670B10823C360CD
:10292000C0E906671AA3D3E900233046394609F007
:102930005BFA60B16FF0004363612946404622466E
:10294000FFF77CFC0546A0B12046BDE8F081134BA3
:1029500000223046394609F03DFA88B14FF0004375
:102960002946636140462246FFF768FC0546002879
:10297000EAD120462C46FFF7DBF92046BDE8F0817E
:102980003046394609F05AFA6061D6E7AFF3008065
:102990000000C0FFFFFFDF41000000200000E0C199
:1029A00038B5044610460D4608F02EFF02460B4689
:1029B00020462946FFF7A6FF003818BF012038BD82
:1029C00038B5044610460D4608F00EFF02460B4689
:1029D00020462946FFF796FF003818BF012038BD72
:1029E00070B50E4B82B00646586801911546FFF748
:1029F00017FF0199044608B10135C56030462246EB
:102A0000FFF71CFC054610B1204602B070BD204601
:102A1000FFF78EF92C46204602B070BD0000002062
:102A2000002833D038B584680D469CB1E268910720
:102A30002846D3B210D0A2F10202B2FA82F2216A81
:102A40005209FFF7CDFF003818BF012070B124688C
:102A5000002CEBD1012038BD102B204608D1226973
:102A6000216A2846FFF7E8FE0028F0D1002038BD93
:102A7000FEF7EEFF0028F9D0D4E90623216A2846A4
:102A8000FFF740FF003818BF0120DFE70120704743
:102A90002DE9F04F2DED048B90F838308DB0079074
:102AA0000393002B00F0E7800798828F0469C38F9F
:102AB000B0F84C5034F91210099502465B00408F73
:102AC00008900193002D00F0D6801046526C836C64
:102AD000B0F84E50B0F840B0DFED708ADFF8C88132
:102AE0000A95D318029300220901DB4305920B914A
:102AF00004939146B6EE009A029A6949134681FB07
:102B00000331D317C3EBA10101EB4101B2EBC101CA
:102B1000029A48BF1831002A09B2C0F2B580604855
:102B200080FB0202C3EBA20212B20B9B120482FBD7
:102B30000356002D76F1000304DA4FF6FF73ED180B
:102B400046F10006089B19442A0C34F9111042EA98
:102B50000642A2EB011207EE902AF8EEE79A69EE20
:102B6000A89AB0EE690A0FF0B1F9B0EE408AB0EE63
:102B7000690A0FF019FABBF1000F6BD0079A136DB9
:102B8000B2F842A093F800E006930020054647F60D
:102B9000FF7709E0DDF80CE0E25201351FFA85FC11
:102BA000E3455044718052D9019A09EB50039BB21E
:102BB00002EB8303E618E25E07EE902AB6F90220E4
:102BC00006EE902AF8EEE77AF8EEE66A27EE887AC3
:102BD00026EE806A67EE807A66EE886A37EE467A7D
:102BE00077EEA67AB5EEC07AF1EE10FAF5EEC07A7D
:102BF0004CBF37EE497A37EE097AF1EE10FA4CBF46
:102C000077EEC97A77EE897ABDEEC77AFDEEE77A7C
:102C100017EE10CA17EE901A17EE102AC445B8BF67
:102C200042464145B8BF4146BA42A8BF3A46B942BA
:102C3000A8BF3946BEF1000FAED19445AAD117EE18
:102C400090CABCEB010E18BF4FF0010EA4E7069B23
:102C500083F800E0059B029A01331FFA83F91146BD
:102C60000593049A0A9B1944D31A0493099B029171
:102C70004B453FF641AF079B186843680DB0BDEC6C
:102C8000048BBDE8F04F1847049B1A46054BA3FB85
:102C900002326FEA121212B247E700BF000080371B
:102CA000ABAAAA2AABAAAAAA0080FFFFF8B5956929
:102CB0002B78B5F802E0144602EB43030F46B3F855
:102CC000446063690146720003EB4E000EF084F825
:102CD000E26D698813780E446E8003B93B791370F6
:102CE000F8BD00BF2DE9F04F2DED0C8B82469DB055
:102CF00090F84E4090F84C000C90042CBAF8480024
:102D00000A90059190461F461AD8DAED107AF5EE32
:102D1000C07AF1EE10FA00F1E9819AF85630DFF846
:102D2000C090002B00F0EB819AF84B30002B00F0A4
:102D3000E681274AD9F8403026490020984707E025
:102D4000DFF89C90244AD9F8403022490020984767
:102D5000DAED117A99ED357AF5EEC07AF1EE10FAE6
:102D6000B8EE478A40DDC8EE278AF6EE007A78EEA4
:102D7000A78A0A9B002B3CD107939AF84A3001930B
:102D8000002B3ED19AF85030022B41F0EA809AF89D
:102D90004E40012C00F0C6820024329A019B14712F
:102DA000A8F8AC41002B32D09AF84F30012B00F03C
:102DB000AD87022B00F09987002B00F0B587D9F87A
:102DC0004030064A034900209847002301931EE043
:102DD000E4770108BC770108A0770108A078010812
:102DE000B4030020000000000A9B5FED028A002B64
:102DF000C2D09AF84E3007939AF84A300193002BCC
:102E0000C0D0329A002313710193A8F8AC31059C0D
:102E1000002C4AD02389B4F88610B4F88420B4F882
:102E20008200A8F804109B00B4F88810A8F80220CB
:102E30009BB203F13002A8F800006088A8F80610E1
:102E4000A188A8F8080092B2E088A8F80A10618961
:102E5000A8F80C005F2A208CA8F80E10618CA8F846
:102E60001210A8F8100040F22282C649A1FB02010C
:102E7000890901EB4101A2EB411189B200201A46F8
:102E800005460B4601210324A8F814300023A8F8B6
:102E90001620A8F81810A8F81C50A8F81E00A8F8CA
:102EA0002010A8F81A40A8F8223001990022012326
:102EB0007A80BA817B81002901F043801546069211
:102EC000039207F10E0308F13E029FEDAFAADFED7A
:102ED000AFAADFEDAF9A9FEDAF9ACDF808A0D34629
:102EE000CDF8109008F146060992CDF82080BA4638
:102EF0009946079AEBB29A4200F25881099A002348
:102F0000A9F80030A9F8083022F815300135042D51
:102F100009F102090BF1100B06F15606E9D15746EB
:102F20000A9AB9897B89BDF81800DDF82080DDF8A0
:102F30001090DDF808A0029011FB02F189B20B4459
:102F40009BB25A1C1FFA82FEB8F8ACC1BCF1010F4B
:102F500004D1039A0A9800FB02F203929AF85220D5
:102F6000BAF854009AF853509AF85640A8F89E219F
:102F7000039A4FF6FF7B5A454FEA500628BF5A4640
:102F80000338A8F8A801033E0298A8F8AA6185F0C2
:102F9000010592B2A8F8A651A8F8A001A8F8A421AA
:102FA000B981BB80A7F806E0002C00F060814133B6
:102FB00040213B8039810124059BA8F8C04113B111
:102FC0009B89A8F8C231019B002B40F05A81329AAC
:102FD000DAED105A002313600C9BA8F8B2310A9B5B
:102FE000012B40F24881BAF848300122023BA8F890
:102FF000AE31A8F8B0219FED687A9FED686A28EE9F
:10300000077AF1EE007AC7EE066A68EE277AF5EEE7
:10301000405A87EE867AC8EE067AB6EE006A76EEF9
:10302000866A37EE067AFCEEE66A77EE867A16EE68
:10303000902ABCEEC77AF1EE10FAFCEEE77AA8F817
:10304000B82117EE102A14BF01230023A8F8B621D7
:10305000A8F8383017EE902A019BA8F8B421002B6D
:1030600000F0F180F5EE405AF1EE10FA0CD0C8EE07
:10307000257A37EE866AFCEEC67A17EE903A1A0C7D
:10308000A8F83C30A8F83A20DAED117A9AF84A30DC
:103090009AF84B20A8F83030F5EE407AF1EE10FAAD
:1030A00014BF01230023A8F83220A8F82A3008D042
:1030B000FCEEE87A17EE903A1A0CA8F82E30A8F831
:1030C0002C209AF851300198A8F8BE31012140F225
:1030D000FF7240F60103A8F82410A8F8BA21A8F856
:1030E000BC311DB0BDEC0C8BBDE8F08FDFF8B890A3
:1030F0002B4AD9F840302B490020984728E69AED12
:10310000117AD9ED356AB5EEC07AF1EE10FAB8EE63
:10311000668A16DDC8EE078AF6EE007A78EEA78A90
:1031200000F1F98018EE900A08F06EFF012908BF3F
:10313000002880F0F0809AF84A30002B40F0E280BE
:1031400008E000F1E6809AF84A30002B40F0CD808C
:10315000DFED0F8A9AF84F109AF850200A9800284D
:1031600014BF204600209142079000F2FD83002BFF
:1031700040F00387022A00F0FC86329A1371A8F807
:10318000AC3111E6ABAAAAAA2549123ECDCC4C3EE1
:10319000000000008FC2753D000096430024744972
:1031A000D0770108BC770108B4030020099A0123F5
:1031B00022F81530029BBBF8082093F84C8040F2AF
:1031C000FF1140F2FF33B8F1000F18BF0B46E2B118
:1031D0009A421AD89BF80D30002B6CD19BF80F3017
:1031E0009BF80E00002840F05383012B00F0B280C2
:1031F000DDF810904F4AD9F840304F49DDF8208073
:103200005746DDF808A098470CE0DDF810904B4ACF
:10321000D9F840304849DDF8208000205746DDF8D5
:1032200008A098470A9AB9897B89BDF818000290CE
:1032300011FB02F189B20B449BB25A1C1FFA82FEA9
:103240000022019280E6DAED117A9AF84A309AF873
:103250004B20A8F83030F5EE407AF1EE10FA14BFAA
:1032600001230023A8F83220A8F82A3029E73C815E
:10327000A7F800E0A0E60023A8F8AE31A8F8B03126
:10328000B9E69AF84D10072927D82D4B9FED2D9AB6
:103290000B4493F8A439A8F8A231329B83ED009A2D
:1032A000079B002B40F03284DAED105A94E603209D
:1032B00001250021E7E59BF80F30022B90D1DDF8C6
:1032C0001090214AD9F840301B49DDF820800020B9
:1032D0005746DDF808A09847A4E7329ADAED105A6D
:1032E000002313600023019376E6B5EE407AF1EEF9
:1032F00010FA05D1F5EE407AF1EE10FA40F0838530
:10330000DFED108AD9F84030104A0B490020984769
:103310002FE5DFED0C8AD9F840300D4A0649002030
:10332000984726E59AF80F30013B012B3FF635AD63
:1033300032E500BF1C790108BC770108E07801087C
:10334000682C010800000000F078010824780108CA
:1033500010780108B84BBBF8067003EB8000182FFB
:10336000D0F880390E93BBF804300D9340F21283ED
:1033700007EB870303EB031303EB032307EB430381
:10338000C3F3CC0242EA43339BB240F6AA229342F3
:1033900000F2D882A94BA3FB07231B090F93013B23
:1033A0009BB214935C23109318230B930D98002861
:1033B00040F04B84049BA24A1B6CA2499847B8F189
:1033C000000F00F0CF824FF000080222DBF800303F
:1033D0000E9919440C4601F5C3430D99283311FB8E
:1033E00002F2481E4CF2503192B28B420D9207FB12
:1033F000004707D9049B944A1B6C924900209847C8
:103400004FF0000807F5C34328334CF25032934283
:1034100007D9049B8D4A1B6C8A49002098474FF0BE
:103420000008002CC0F26983894BE11783FB042359
:10343000C1EBA3031AB2002FC0F25583844B83FB68
:103440000730FB17C3EBA0000E9300B2804B83FB49
:10345000043C92B2C1EBAC01801A01EB41010F9B1D
:103460001592B4EBC10182B2B2FBF3F203B202F1E6
:10347000010216934FF018000B9BB0FBF3F01FFAFC
:1034800082FE00F129830FFA81FC89B2704B0B9AFE
:1034900083FB07340E9BC3EBA40303EB4303B1FB95
:1034A000F2F402FB1414A2B2B7EBC3030E9200F1C4
:1034B0000D831AB219929BB2013882B20E9C0B98FE
:1034C0001A9212FB0040BEF1010F80B200F08E8212
:1034D000C41A0E9B18BF01248B4214BF0123002382
:1034E000AEEB0302A2EB0402A3B2119497B21793BE
:1034F00040F084820023189313931B930E9B890042
:103500009B00B187F387B8F1000F00F058829BF859
:103510000E30052B00F23884474A02EB4303B3F820
:1035200094395A08A3F14A00D91E033A80B2143BD9
:1035300092B289B20F901293159B1698B186C3F17F
:1035400029040F9BF2861C4423B215931B1A292BC6
:10355000A4B207DC049B3F4A1B6C3A490020984701
:103560004FF00008129B159A934207DC049B3A4ADD
:103570001B6C3449002098474FF000080F9B33879D
:10358000109B74872C2B40F261820023A6F85030E8
:10359000A6F85230A6F85430149BA6F84E30189B6B
:1035A000A6F84830002F00F035820123A6F84A30F3
:1035B000139B179AA6F84C20002B00F0F9831B9B55
:1035C000A6F842301A9BA6F84430119B002B00F05D
:1035D000EB83199B0E9A9C1A0B9B94FBF3F4A6F8B1
:1035E00046407A1E97B2A6F84070B8F1000F3ED060
:1035F0009BF80A30172B00F2BF81092B00F29A8347
:10360000C3F109031522738032800599002900F067
:10361000748172889BF80F3001EB4202013B928962
:10362000B280042B00F2B084DFE813F0180026010A
:1036300018010901290000BF682C0108ABAAAAAA39
:1036400068790108BC770108B4790108C8790108D4
:10365000ABAAAA2AFC7901081C7A0108059B9A8C5E
:1036600004210023082A7385318540F227815746BB
:10367000DDF82080DDF808A0DDF81090D2E54FF0ED
:103680000008C64643464FF4F0504FF478544FF4C8
:10369000F86202274FF00B0C0821B281F281029AE6
:1036A000A6F82AC03785318134827181708292F800
:1036B0004D20B8F1000F00F00F81002B00F00C81BD
:1036C000022A00F20C81C1490A4492F8A029B28270
:1036D000059A002A61D006F11402002001213083EE
:1036E000118205990E93C86E0B908C6EDDF82CC07C
:1036F000D1F864800F940027394604EB1743A3EBFD
:103700000803734588B2674401F1010180F209841E
:103710000F29F2D10E9B08460599CF6FD1F878C0DA
:10372000D08007EB870405200CEB1441C91A00F187
:10373000010E3C4440F196831FFA8EF01428F3D119
:10374000DDF81090A24AD9F84030A249DDF8208077
:1037500000205746DDF808A0984763E59B490A44D6
:1037600092F8A429B282059ABAB10022328306F1F6
:103770001402B8F1000F40F07781A6F82480A6F873
:103780001A80A6F81680A2F80880A2F80E80A2F887
:103790000A80A6F8208000235382BBF808009BF81B
:1037A0000B203286012800F0C9800121831EF1859B
:1037B000B3859BF80D10BAF80C30F18081F001014F
:1037C00071860D99A9F80030A9F808100B449BF8F0
:1037D0000F10AAF80C300129338D6CD002290CBFD0
:1037E000B0EE496AB0EE696A01339BB207EE103A57
:1037F000BBF80430B8EE477A07EE903AF1EE006A73
:1038000027EE267AF8EE677A06EE900A67EE277AB8
:10381000F8EE666A069B67EEA67A194667EE867A28
:10382000002B08BF114667EE8A7A039B0691FCEED7
:10383000E77A17EE902A13440393FFF767BB4FF024
:103840000008C64643464FF4C0604FF460644FF42E
:10385000E07202274FF0060C08211EE74FF0000827
:10386000C64643464FF400704FF4C064C02202279E
:103870004FF0040C082110E700204FF400744022A0
:1038800003274FF0020C08214FF0960EFA2304E7AD
:10389000581EC0B204287FF65DADDDF810904E4A88
:1038A000D9F840304B49DDF8208000205746DDF83C
:1038B00008A09847B6E4B0EE6A6A95E740213281E5
:1038C00072814FF40070029A7382B181F18130826B
:1038D00092F84D2098469E46072A7FF63FAFDDF8C6
:1038E00010903E4AD9F840303A49DDF82080002057
:1038F0005746DDF808A0984794E49BF80F30059AE6
:10390000B280013B042B00F23F8301A252F823F066
:1039100025390008793800085D3800083F3800086C
:103920007F3600084FF000084046C446C64643466E
:103930004FF40074402204270221AEE60023F385F1
:10394000B38536E7049B264A1B6C2249002014905D
:10395000044698470123CDE90F340B93B8F1000FCB
:103960007FF431AD042231E5D9F840301D4A1949C0
:1039700000209847FFF701BADDF810901A4AD9F8ED
:1039800040301449DDF8208000205746DDF808A0BB
:10399000984747E4002FD5D01823B3FBF7F307FB74
:1039A00003F3C3F118039BB21493002BCAD17B1EFF
:1039B0009B009BB2109301230B970F93F6E46C23AB
:1039C000129336230F933D227D21B5E5682C010823
:1039D0006C7A0108BC770108447901084C7A010827
:1039E0005479010850780108347A01088C4200F0BB
:1039F0009B8200221792184617461192019B13933F
:103A0000A0EB0C000B9B90FBF3F00123189383B207
:103A10001B9373E5179BA6F84C30139BA6F84A70CE
:103A2000002B00F0C9811B9BA6F842300023A6F8AA
:103A30004430119B002B00F0A381199B0E9A9C1A15
:103A40000B9B94FBF3F4A6F84640CCE5109B1E2B91
:103A500040F28981A3F11E020F23A6F85420A6F894
:103A60005030A6F8523097E501211182002B7FF4E7
:103A700038AED38053801381D38153811F4605997B
:103A80000024D1F85CE0D1F86080214602E01629DC
:103A90003FF456AE0EEB1440C01B1FFA81FC4444A9
:103AA00001F10101F3D4BCF1000F0CD05BB90CF1B2
:103AB000FF339BB208FB03F80EEB1848A7EB08088E
:103AC0004045C8BF9C46A6F820C064E603F1180430
:103AD00022B2A3B21992EFE401F1180C1FFA8CF193
:103AE0000FFA8CFCD2E4CF4BF843A3FB00306FEA13
:103AF0001010FB1700B20E93A8E4CA4BE243A3FBDD
:103B000002236FEA13131AB2E11794E4BCF1010F18
:103B100000F0688107EE902A9FEDC3AAB8EE67CA4D
:103B2000B7EE089AF2EE02CAD9ED357A9FEDBF0AD8
:103B3000F8EE679A80EE290A0EF010FA9AF85030E3
:103B4000022B69EE809A00F23A81B94A9AF84E1037
:103B500002EB830090ED00DAD0ED03BA002900F00B
:103B6000FD81019ADFEDBEDAB24E9FEDB3BADFED13
:103B7000B3AA00273D463AE04FF0300B08240AEB89
:103B800005039B7B052B47D8AD4931F8133007EE71
:103B9000903AF8EE677A89EEA77A55449AF84E3053
:103BA0002889A98800FB044402346400A4B20137C8
:103BB000FDB2AB4207EE904A87EE2A6AF8EE677ACA
:103BC00007EE10BAF8EE476A87EE867AC6EE865A96
:103BD00007EE901AF8EE677A67EE277A77EEA57A05
:103BE00077EE8A7A77EE897A7DEEA7DA3FD90AEB0B
:103BF00005132D01DB7B052B18D8022BBCD8012B1C
:103C00001FD0022B12D10AEB05034FF03C0B9B7B1C
:103C1000052B4FF00A04B7D98A4AD9F840308A49AF
:103C200000209847F0EE4B7A0022B4E73246D9F8EC
:103C300040308549002098474FF0180B042400229B
:103C40009DE74FF0480B0C2499E7B8F1000F40F0C6
:103C5000C6809BF80C30002B00F0E080049B7B4A70
:103C60001B6C7949404698470422FFF7AFBBB2B3BB
:103C7000DFED777ADFED716A9FED767ADAED105A33
:103C8000329B89EEA75AF1EE0C7A85EE266A2CEE6D
:103C900027CA7BEE8DBACCEE067AB0EE006A77EEDC
:103CA000ACCA7CEEADDA7DEEABBA6BEE877A77EE1E
:103CB000867A77EEABBAC6EEAB7AF4EEE75AF1EE5F
:103CC00010FAC3ED007A7FF787A9FDEEE77AD9F8FD
:103CD0004040614A5C4917EE903A0020A04700231B
:103CE000DAED105A0193FFF777B90023A8F82630D0
:103CF000A8F828309AF85030012B10D0022B2BD086
:103D000013B3D9F84030554AFFF75CB80022A8F841
:103D10002630A8F828209AF85030012BEED1C8F8A8
:103D200034300193FFF773B80123A8F82630A8F8C0
:103D30002830DFE7102B94BFC3F11E03C3F1170334
:103D400000223380728060E44FF00113C8F83430F1
:103D500001230193FFF75BB80023C8F83430012337
:103D60000193FFF754B8109B0F2B42D90F3B0F2242
:103D7000A6F852300023A6F85020A6F854300BE4E1
:103D8000119BA6F846302EE4049B2E4A1B6C2E494C
:103D9000002098476C23129336230F933D227D21F8
:103DA0004FF00008FFF7C8BB119BA6F8463018E497
:103DB000139BA6F8423005E4A6F8427036E6D9F81F
:103DC0004030264A2049002098479AF84E30002B70
:103DD00085D0DFED23BA0022B0EE6BDAC2E6022214
:103DE000FFF7F4BAB0EE49AAF0EE49CAB0EE49CAFC
:103DF0009AE60023109AA6F85020A6F85230A6F8AA
:103E00005430FFF7C9BB9AF84F109AF85020DFEDF5
:103E1000148A91427FF476AAFFF7A0B9DDF80480F6
:103E2000A0E500BFABAAAAAA9A999D41F902154F35
:103E30001436010844790108000000430024744945
:103E4000FC350108F0790108BC7701087C7901088C
:103E5000000020430AD7233C987A0108C078010863
:103E60000000000005280BD000F1FF3E1FFA8EFE77
:103E700007FB0EF40CEB14441C1BA142C8BF704698
:103E800000210C4650801181D18108460599129677
:103E9000096F0E9105990E9E496FCDE9101202E04F
:103EA00016283FF44DAC06EB1442D21A1FFA80FEDE
:103EB0000C4400F10100F3D41146DDE91126BEF1F6
:103EC000000F0FD00EF1FF3080B21190DDE9100429
:103ED00000FB04F40E9800EB1440119C181A814268
:103EE000C8BFA646A2F80AE0718B0B9800FB01F050
:103EF00001460F9800EB1141B1EB08043FF520ACEF
:103F0000F08B1099B6F816E001FB00F1084607FBAC
:103F10000EF10E9F0CEB114107EB104008440719FE
:103F2000ADE50E9BFFF7F8BB98420CBF01270027B9
:103F30000FD10023CDE91733119313931B93FFF790
:103F4000DDBA019A02924FF0020E11460392FEF77B
:103F5000FBBF00221792184611924FE55FED40DA41
:103F600086E6329B1A46019B1371A8F8AC31FEF726
:103F70004EBF01230193FEF70CBF329A0023137149
:103F8000A8F8AC31FEF710BFDDF81090DDF8208006
:103F9000D9F84030084A094900205746DDF808A002
:103FA0009847562303FB05830022A3F87020A3F84B
:103FB0006E20FFF737B900BF44790108BC770108CC
:103FC00070B5FEB004464FF4E2720D460DA8002114
:103FD00003AE09F015F80DAA204605AB00960021A6
:103FE000FEF780FE08B97EB070BD94F84B202B46DA
:103FF000314605A8FDF724F97EB070BD2DE9F04FDC
:10400000ADF5137D07469D9C0D46164600214FF4E5
:10401000E27221A8994608F0F3FF13A83822002184
:1040200008F0EEFF94F8C5A1BAF1000F0CD07E4B5A
:104030007E4A1B6C7E49002098474FF0000840469E
:104040000DF5137DBDE8F08F0DF118080BABCDF821
:10405000008021AA31462846FEF744FE0028ECD015
:10406000414695F84B200BA813ABFDF7E9F88046C5
:104070000028E2D09E98BDF858106E4B01809F98A2
:10408000BDF85C20D3F854B10280142107220997AF
:104090008DF820100A92BBF1000F08D0D3F85C31E4
:1040A0004FF4E27221A908A8D8470028C5D005AA74
:1040B00008AB21A92046FCF719F9BDF81430BDF86A
:1040C00020209A4238D221A94FF4E27220460BF008
:1040D0004DFCB5F848303BBB0122334695F84B10F8
:1040E00084F8C62133F8262BA4F8C82184F8C5111A
:1040F00084F8C4A104F5E57206F1560C1D685868F1
:104100009968DF68D760103363451560506091602F
:1041100002F11002F2D1B6F85630A4F8FA31404656
:104120000DF5137DBDE8F08F95F84EA0BAF1000AA9
:1041300018BF4FF0010ACFE7002308AA37213846FD
:10414000ADF82030FDF79CF9BDF8203013F0C00B1E
:1041500012D008AB05AA21A92046FCF7C7F8BDF884
:104160002030BDF814B002939B4520D93846012277
:104170008021FDF775F9A6E708AA31213846ADF888
:1041800020B0FDF77DF9BDF820204AF6C0439A42E1
:10419000DFD0254B93F82C20002A3FF44EAF1C6C47
:1041A000254A26493B460120D846A04747E7029BBF
:1041B0009C980233494604AAA3EB0B0905ABFDF713
:1041C0002BF80598CDF80CA01FFA89F9484528BFAF
:1041D00048460590DDF80890A24605E0059883441E
:1041E0001FFA8BFBD94511D30890049908AB5A46A6
:1041F00021A8FCF7A3FD04460028EFD0089B9C9A59
:104200004FEA5B013846FDF7D9FAE7E7A1463846A1
:10421000012280215446DDF80CA0FDF721F9B9F107
:10422000000F3FF40AAF4EE7B4030020B87A01084C
:104230007073010800000020F87A01081C7B010857
:104240002DE9F04FADF5117D0C46154600214FF4D8
:10425000E27206461FA89A46DDF86C9204AF08F099
:10426000CFFE3822002111A808F0CAFE29462046B8
:104270001FAA09AB0097FEF735FD28B9002738467D
:104280000DF5117DBDE8F08F94F84B20394609A853
:1042900011ABFCF7D5FF0028F0D09C98BDF850106A
:1042A000434B01809D98BDF85420D3F8547102808F
:1042B0001421072207968DF8181008923FB1D3F801
:1042C0005C3104221FA906A8B8470028D6D09A98C6
:1042D00002AA002703AB5146CDE90277FCF79CFF09
:1042E0003046FDF729FA00285BD00398B84640F61F
:1042F000DD1B01E0002F54D042460299069006AB28
:104300001FA8FCF71BFD4FEA5801069B9A9A074627
:104310003046FDF753FA039880441FFA88F8D845D1
:10432000E8D9002F3DD060239A9900935246214B43
:104330003046FDF7B5FF4FF4E2721FA948460BF077
:1043400015FBB4F8482022B194F84E301A1E18BF5D
:10435000012201212B4694F84B0089F8C61133F84D
:10436000261BA9F8C81189F8C50189F8C42109F5E7
:10437000E57105F1560C1C6858689A68DE68CE60D5
:10438000103363450C6048608A6001F11001F2D17E
:10439000B5F85630A9F8FA3138460DF5117DBDE86B
:1043A000F08F054B054A1B6C05490020984765E7CF
:1043B000000000202C360108B4030020347B0108E3
:1043C000707301082DE9F04F2DED028BADF2147DD5
:1043D000CDE9031202931B7804460A2B13D8DFE8B9
:1043E00013F023000B009E00F500D301B302D903A4
:1043F000A305FA0582062300FDF700FA002840F025
:104400009487029B1B78CA4E346CCA4ACA49002062
:10441000A04700231C46029A204613700DF2147D1B
:10442000BDEC028BBDE8F08FC14EDDF840078C2259
:10443000002108F0E5FDD6ED357ADFEDC05ADFED5D
:10444000C06AF8EE677AB6EE006A85EEA77AF4EEF7
:10445000E67A37EE067AF1EE10FABCEEC77A17EE7E
:10446000103A9FB200F3B6869FEDB67AF4EEC77AA3
:10447000F1EE10FA00F1AE86A7F110039BB2EF2B1C
:1044800041F2A6809FEDB07ADFEDB06A77EE877AD1
:1044900037EE877ABCEEE76ABCEEC77A16EE109A62
:1044A000B8EE477A77EEC77A67EEA67AFCEEE77A3F
:1044B00017EE908ACDE90098A54B356CA54AA64920
:1044C0000020A8470025A548FCF7BEFAA4482146CD
:1044D000FCF7B2FADDF84037A248B3F88210FCF7D7
:1044E000ABFADDF84037A048B3F88410FCF7A4FA23
:1044F000DDF840379D48B3F88610FCF79DFADDF8EB
:1045000040379B48B3F88010FCF796FA9948FCF7BF
:104510009BFA002D40F09B87029B1B7874E7FDF708
:104520006DF9814600283FF46CAF039900224123C6
:104530002046FEF783F805468F482B8C0693FCF740
:1045400007F810212846FCF767FA002105F122033D
:104550000793A5F1020A8B4688464FF6FF7C1EE0C2
:1045600035F911603AF911E006F57A72A6EB0E06FC
:104570009E42C0F22C86BE4200F3298682EAE27394
:10458000A3EBE2739BB2634505D24FEA800B9C46D6
:104590001FFA8BFBC8460F2801F0428001314B1EE9
:1045A00003FB03F3C3EBC3035A0002F51677C83BC2
:1045B00088B20029D4D1B5F9003003F57A73002B05
:1045C000B8BF5B429BB26345DFD3E7E7FDF716F95F
:1045D00000283FF416AF0022202303992046FEF75F
:1045E0002DF8214605465E48FCF726FA6348FBF79E
:1045F000AFFF28462021FCF70FFAB5F90020284626
:10460000164601210027134630F9022FC3F54873DF
:1046100013449BB2B3F5C86F3FF6F3AEB242A8BFE6
:104620000F4601F10101A8BF16462029EBD1072F43
:1046300001F24F81002307F10802D21A002A01F08B
:10464000628144A9D01805EB4000059105EB4305B4
:1046500035F9026B07EE106A03FB03F606EE903A9B
:1046600007EE906AB8EEC77AF8EE677AF8EE666AF7
:10467000A84281ED007AC1ED017AC1ED026A03F131
:10468000010301F10C01E3D105982CA9FCF78EFB85
:1046900000283FF4B6AE9DED2C6AB5EE406AF1EE0F
:1046A00010FA3FF4AEAEDDED2D6AF5EE406AF1EEA4
:1046B00010FA3FF4A6AE9DED2E7AB1EE477AC7EE22
:1046C000267AF5EEC07AF1EE10FAFFF69AAEF1EE28
:1046D000666A86EE867AB5EEC07AF1EE10FA7FF55C
:1046E00090AEB7EE007A77EE877AFCEEE77A17EEB7
:1046F000905AABB23F2BC5F34E053FF682AE85F024
:10470000100529461E48FCF797F9DDF840371D488B
:10471000DD80FCF799F920464FF44571FCF7DEFF88
:1047200004460423002C7FF476AE00F050BD00BF99
:10473000B4030020307F0108547F0108F902154FAF
:104740008096984C8096984BBD3706350024744966
:10475000A4890108687F0108947F0108987F0108F7
:10476000487B0108547B0108647B0108707B0108C9
:104770007C7B01088C7B0108F07B0108787C0108B8
:104780009C7C0108A87C0108FDF738F800283FF45C
:1047900038AE5023002203992046FDF74FFF2146F3
:1047A00081466148FCF748F96048FBF7D1FE48466E
:1047B0005021FCF731F9DDF8403708EE104A0A3392
:1047C0004FF030081F46DFF87CA1B9F900204FF008
:1047D000000E47F6FF7CF34666464D464FF6EC71F9
:1047E0006FF01B03504615E06245BCBF9E469446E1
:1047F000242917D035F9022F35F8023CD31A1BB201
:104800009E42A8BF1E4601F108049842B8BF184650
:104810000BB2A1B2002AE7DA5245E9DD24299B4612
:104820009246E7D1A0F51C50103880B244F62063C0
:1048300098423FF6E6AD002E7FF4E3AD1AF5004F47
:1048400047F6FF7300F06E879C4500F0C287AEEB21
:104850000B0EBEF1080F7FF4D4AD4FEACA0EACEBDD
:104860000A0C9EFBFCFCABEB0C0E0FFA8EFEBEF1AD
:10487000000FC0F24E85BEF11F0F3FF7C2AD1FFA09
:104880008EF52B4880F80D8008F1010829465FFA63
:1048900088F8FCF7D1F8B8F13A0F27F8025F09F170
:1048A000100990D12348FCF7CFF86023DDE903120B
:1048B00018EE100A0093204BFDF7F2FCDDF84037AC
:1048C0001E4A9B890093DDF840371D49DD8818EEAC
:1048D000100A0723FDF71CFF184A19490095082301
:1048E00018EE100AFDF714FF0323144A144900932D
:1048F00018EE100A0923FDF70BFF06230F4A104993
:10490000009318EE100A0A23FDF702FF18EE100AB2
:1049100040F2D531FCF7E2FE04460523002C7FF47B
:104920007AAD00F054BC00BF487B0108BC7C010894
:1049300090010020D47C01082C360108EC360108D7
:10494000704501080080FFFFFCF758FF00283FF486
:1049500058AD4FF440730399DFF83092DFF830829E
:1049600000222046FDF76AFE82468248FBF7F0FDF2
:104970004FF440715046FCF74FF80BAB079304938C
:1049800000230AF5C061039307EE904A44AB0691F9
:104990002CAD059343AF14AC5646B6F9021036F968
:1049A000040BFCF7C5FA44F8040BA542F5D12BAC77
:1049B000A3465646B6F96210B6F96000FCF7B8FA9D
:1049C0004BF8040F5F4506F10406F3D1059B039AEB
:1049D00013AE9818002154F8043F56F8042F9B1A80
:1049E0004B4540F32384A3F5C9237E3B4B45FADCBA
:1049F000002BB8BF5B429942B8BF1946A74240F8A6
:104A0000043BE8D1049B491043F8041F0493039B23
:104A100060330393069B0AF1C00A5345BBD10020C3
:104A200017EE904A079E0146034656F8042F8A4225
:104A3000C8BF184603F10103C8BF1146082BF4D1C3
:104A40000CAB00EB400153F82060059B0DF1AF0269
:104A500003EB41110DF1C70051F8043BB342ACBF69
:104A60000023012302F8013F90421376F4D1002085
:104A700001460123002900F0E583EA5C002A00F0EA
:104A8000D98301300133302BF4D1A0F10C03082B72
:104A90003FF6B7AC01EB5005172D02D9183D172D85
:104AA000FCD829463448FBF7C7FFDDF840373348C8
:104AB0001D81FBF7C9FFDDF840371B899B009BB2C6
:104AC00003F13005ADB25F2D40F231862C4AA2FBD6
:104AD0000512920902EB4202A5EB421292B20027A4
:104AE0001D46B84613460126264A2749009320460C
:104AF0002123FDF70DFE234A23490095222320465A
:104B0000FDF706FE03251F4A1F4900960123204694
:104B1000FDF7FEFD1B4A1C49009502232046FDF7C8
:104B2000F7FD184A1849CDF800802B462046FDF7BE
:104B3000EFFD144A1449009704232046FDF7E8FDD1
:104B4000104A1149009605232046FDF7E1FD002398
:104B50000C4A0D49009320460623FDF7D9FD204657
:104B60004FF47B71FCF7BAFD04460623002C7FF45A
:104B700052AC2CE3EC7C0108107D01081C7D01087F
:104B8000ABAAAAAAEC360108704501083F2403002D
:104B9000C1DBFCFFFCF732FE049000283FF431AC8F
:104BA000D44EDDF84027D44DD6F8D430B2F880701A
:104BB0000399A5FB03239D0900224FF4407320466F
:104BC000FDF73CFD07FB05F50690A9460546CB48D9
:104BD000FBF7BEFC28464FF44071FBF71DFF44ABCA
:104BE000AF1C05930DF586780DF20C75B7F9001022
:104BF00037F9020CFCF79CF948F8040F454507F11A
:104C00000407F3D1002309EB49029A46CDE92C337E
:104C1000CDE92E33CDE93033CDE932330393D300E0
:104C2000059AB74F2CAD494602F15C0907EE904A50
:104C3000AB464C4607954FF6FF78554689469A464F
:104C4000A4F15C00FBF790FCA4F1600C00205CF880
:104C5000043FDCF860206445A3EB02031844F6D15E
:104C60000028C0F24883800940F6945303FB00F00B
:104C7000400D09FB00F00AEB1020CBF8000025B135
:104C80005BF8043C834240F23586DBF80030A3F148
:104C90006673A3F54A33203B002BB8BF5B42BB428F
:104CA00003D21F46049B0393A8466A1C95B2082DA5
:104CB0000BF1040B04F1C004C2D1039A079D4FF617
:104CC000FF7317EE904A002A08BF98468D4F0DF1EA
:104CD000AC0A07F5D07B4FF0300987F8AC9109F1A9
:104CE00001095AF8041F58465FFA89F9FBF7A4FE38
:104CF000B9F1380FF1D1039B002B3FF40DAC4146C5
:104D00008148FBF799FEDDF840378048A3F8228000
:104D1000FBF79AFE7E497F4ACDF800800C2320469F
:104D2000FDF7F6FC204640F21641FCF7D7FC0028C0
:104D30003FF4F2AB069B9FED786A2F461A4603F1CB
:104D4000C00403F5D86CF7EE006AA4F1C0034FF07D
:104D5000000EB3F90200B3F9001000FB00F00433B9
:104D600001FB01019C428E44F3D107EE90EAB8EEBC
:104D7000677AC034C7EE067AA445B1EEE77AC6EE8C
:104D8000877AE7EC017AE0D1069B03F5C060059BCA
:104D9000B2F90010F5EC015A06EE101AB2F9021041
:104DA00006EE901AB2F9601007EE101AB2F962100E
:104DB00007EE901AB8EEC66AF8EEE66AB8EEC77A61
:104DC000F8EEE77A26EE256A66EEA56A67EEA57A22
:104DD00027EE257A26EE065A67EE075A26EE266A51
:104DE00027EE277A66EEA66A67EEA77AC03290426F
:104DF00083ED005A83ED016AC3ED026AC3ED185AD0
:104E000083ED197AC3ED1A7A03F10C03C0D105982A
:104E100014A91022FBF7CAFF044600283FF47CAB1C
:104E20009DED146A9DED155ADDED166ADFED3B4AE6
:104E30009FED3B4AB1EEC67AF1EE007A26EE276A84
:104E400065EE057A26EE266AF6EE005A36EE676AB9
:104E5000C5EE876AF1EEC67AB6EE086A37EE467A94
:104E600066EEA77A27EE247A66EE856AB7EE005AD8
:104E700077EEC67A76EE856A37EE257AB3EE0F6A5C
:104E800066EE846A67EEA47AB4EEC67AF1EE10FAA2
:104E900076EEA56A77EEA57A00F31482B5EEC07AB5
:104EA000F1EE10FA48BF002140F143859FED1D7AD5
:104EB000F4EEC76AF1EE10FA40F30E826FEA815108
:104EC0006FEA9151B3EE0F7AF4EEC77AF1EE10FA71
:104ED00000F3CA81F5EEC07AF1EE10FA48BF002364
:104EE00040F11E85DDF840270B43A2F85830072318
:104EF000FFF791BAB4030020D34D6210387D01084A
:104F000040420F00000000205C7D01086C7D01081C
:104F100070450108EC360108000040420000804264
:104F20000000004200007C42FCF768FC00283FF4CF
:104F300068AA1023039900222046FDF77FFB8046D4
:104F4000CB48FBF705FB40461021FBF765FDDDF87C
:104F50004037B3F85860002506F01F0CC6F3441024
:104F6000B60A08F102090CF1300C3030203E0395EE
:104F7000AB46AE462F4608E05B45774600F22483F9
:104F80009E460135082D00F0EE8238F9252039F9CA
:104F900025300CFB02F203FB06FA002A03FB00F3A8
:104FA000B8BF3F32BAF1000FB8BF0AF11F0A002B99
:104FB000B8BF3F33921102EB6A1243F38F1312B260
:104FC00003FB03F302FB0233BB42A9B2D9D97345F9
:104FD000D2D81F46D5E7FCF711FC00283FF411AAF0
:104FE0006023039900222046FDF728FB0546A148CF
:104FF000FBF7AEFA28466021FBF70EFD44AB0593A4
:10500000AF1C99464FF0000840F6B73637F9281024
:1050100035F9280001FB01F300FB0033B34208F12E
:1050200001087FF7EEA9FBF783FFB8F1300F49F8CD
:10503000040BEBD1059B43AD0DF1AE06294632467C
:1050400003F15C0751F8043F002BB8BF0F33023265
:105050001B118F421380F5D10598FBF785FA0021CB
:1050600055F8043F2A6EAF42A3EB02031944F7D16F
:10507000814BC81783FB0131C0EBA11000F59943A8
:1050800030334CF6621293423FF6BBA9DDF840374D
:105090000DF1DE0103F12605243336F8022F23F843
:1050A000022FB142F9D1DDF84037A3F8560073481A
:1050B000FBF74EFA28461821FBF7AEFCDDF8403727
:1050C0006F48B3F95610FBF7B7FC6E48FBF7BCFC12
:1050D000204640F27B41FCF701FB04460923002CEB
:1050E0007FF499A973E0FCF789FB00283FF489A9B4
:1050F0004FF49C63002203992046FDF79FFA8046F7
:105100006148FBF725FA0BAE40464FF4C0712CAF57
:10511000FBF78AFC00240CAA009201944046334617
:1051200044AA902134603C600C941494FBF722F95B
:1051300008F5407900283FF464A9CDE9007414AB68
:1051400044AAF02108F59070FBF714F900283FF409
:1051500058A90C9A39684D4D4D4B4E48891A03FB9E
:1051600001F305FB02FC32681B0CC3EB5C3C05FB46
:1051700002F2DDF84037520B05FB01F1C3E917C11C
:105180005A66FBF759FCDDF840374348D96DFBF709
:1051900053FCDDF840374148596EFBF74DFC404861
:1051A000FBF752FC3F48FBF7D3F948464FF45871E0
:1051B000FBF73AFCCDE900640AAB44AA40F21F11A8
:1051C00008F20230FBF7D6F8002840F00583364E8F
:1051D000FFF7A2B99FED357ADFED356A354B364AD8
:1051E000364977EE877A002037EE877ABCEEE76A99
:1051F000BCEEC77A8DED006AB8EE477A103F77EEC5
:10520000C77A16EE109A67EEA67AFCEEE77ACDED35
:10521000017A356C17EE908AA847EF2F3FF64AA91E
:105220000025FFF750B903F5C9237E334345FADB68
:10523000FFF7DEBB0B283FF628AC0133302B3FF4E1
:10524000E0A810465A1E2A44591C12F8016F4B1E42
:105250002EB112F8016C16B91946012012E430295A
:1052600000F040830131F0E74FF478733AE600BF75
:10527000887D0108AC7D0108ABAAAA2AD87D010867
:10528000047E0108207E0108387E0108AA0A010078
:10529000A82A04004C7E0108607E0108747E010883
:1052A000847E01089C7E0108B4030020BD370635CA
:1052B00000247449A4890108687F0108947F0108CB
:1052C00000007C421FED027AF4EEC76AF1EE10FA9C
:1052D0004FF01F013FF7F2ADF5EEC06AF1EE10FAA4
:1052E0003FF5F0ADFCEEE66A16EE903A9BB241EA6D
:1052F000832319B2E6E54042800940F6945303FB4C
:1053000000F0400D09FB00F0AAEB1020CBF80000E4
:10531000B5E4CEF1000E1FFA8EFEBEF11F0F3FF670
:1053200070A84EF02005FFF7ACBA44AB1A46322104
:1053300020461F460593FCF7A3F812230022039989
:105340002046FDF77BF9468805462146D348B5F847
:105350000080FBF771FB3146D148FBF76DFB04354C
:10536000D048FBF7F5F828461021FBF75DFB00233A
:1053700038884FF6FF7C1F4640FA03F2D20799B2F5
:105380000AD535F81320921B002AB8BF524292B2B8
:1053900062453CBF94460F460133102BECD17B1E77
:1053A0000D2B3FF62EA807F10043013B05EB43060A
:1053B00035F81330728841F287319B1A8B427FF7A0
:1053C00020A8B388D21A8A427FF71BA84FF6FF7332
:1053D00098423FF416A840F2E51303FB08F31B0CB8
:1053E000A3F589731AB21433C0F294822C2A40F3C5
:1053F0008E824F2A40F3918204252E46AA484146C8
:10540000FBF71AFB059BA9481988FBF715FBA84871
:105410003946FBF711FBA7482946FBF70DFBDDF8E2
:105420004037A54AA3F800805F809E84A349009777
:1054300025232046FDF76CF9204640F23221FCF787
:105440004DF904460223002C7EF4E5AFBFE644ABE1
:105450002CAD0398049905934FF000082A46C5F82F
:105460000080C3F80080FBF7D7FE2046FCF764F904
:1054700000283FF451A8059BDFF83CB21B68DDF81B
:1054800040A708EE104AC8F534640A349C4228BF8D
:105490009CB22F68894B38BFA4B24FEA580903EB7E
:1054A000890062083946FBF795FBBAF882301C2266
:1054B000CDE9002341465B4622463846FBF7AEFB6A
:1054C00000283FF429A8BAF884201A23CDE9003235
:1054D00041465B4622463846FBF7A0FB86464FF026
:1054E0001B0C41465B4622463846BEF1000F3FF496
:1054F00013A8CDF800C0BAF886C0CDF804C0FBF7F9
:105500008DFB86464FF0190C41465B4622463846D5
:10551000BEF1000F3FF400A8CDF800C0BAF88870C3
:105520000197FBF77BFB0746039A18EE100A234608
:105530004946002F3EF4F0AFFCF740F9059B1B688D
:1055400098441FFA88F840F6493290459BD918EEE6
:10555000100A40F25B11FCF7C1F804460123002C4D
:105560007EF459AF33E6B7EB5B0FBEF44AAF039E50
:1055700053483146FBF760FADDF8403751481E8446
:10558000FBF762FA4C4A4D4900960B232046FDF783
:10559000BFF80023484A4949009320460923FDF7F4
:1055A000B7F87E23444A4549009320460A23FDF775
:1055B000AFF8204640F25241FCF790F804462B46E3
:1055C000002C7EF428AF02E6DE4603919B46D8E429
:1055D00077EEC77ADFED3C6A9FED3C7ADDF8402735
:1055E00067EEA67A3F2F77EE877AFCEEE77A17EE22
:1055F000901AA2F8881000F2D680DDF84017002239
:105600002F2F88BF3B46A1F88430A1F88220A1F853
:105610008620DDF840370125A3F88070FEF753BFE0
:10562000B8F1000F3EF4EDAE8BF030031946284878
:1056300005931E46FBF700FADDF8402725489680C3
:10564000FBF702FA21461548FBF7F6F92248FAF76C
:105650007FFF079E30213046FBF7E6F9DDF8189012
:105660001E484946FBF7E8F9698CB5F880305B1AAB
:10567000B3F5FA6FFEF6C5AE194A4FEA034AA2FB2C
:105680000A3A002007EE904A4FEA5A1A07468B461C
:1056900010224FF6FF7ECC462FE000BF487B01086A
:1056A0009C7B0108A87B0108C47B0108D07B010812
:1056B000D87B0108E47B0108EC360108704501083D
:1056C000A87F0108B87F0108E8385BB500007C427C
:1056D000107C01081C7C0108347C0108487C01080E
:1056E000ABAAAAAAA54288BF4FF00008013292B225
:1056F000402A504421D036F8021FA1EB0C03002BA6
:10570000B8BF5B429BB20BEB1045734505F548797A
:105710003CBF9E461746494501F54874E2D94FF013
:105720000008E3E79C457FF4A2A8FEF76ABE0327C2
:105730004FF001080026FFF7D7B917EE904AB8F1ED
:10574000000F3EF45EAE39467D48FBF775F9DDF893
:1057500040377C485F81FBF777F90123DDE90312CD
:10576000204600934FF47E5544ABADF81051FCF742
:1057700097FD754A7549009726232046FCF7C8FF18
:10578000059B714A7149009320462423FCF7C0FF12
:10579000204640F2C521FBF7A1FF04460323002C5D
:1057A0007EF439AE13E5DDF84027DDF84017BF2F52
:1057B0004FF00103A2F8823096BFA7F14002FA0829
:1057C000C2F3CF0207F00703A1F88420A1F88630C6
:1057D0001FE7DE46FFF74BB814AB01930CAB009309
:1057E00044AA09AB4FF4907108F5A860FAF7C2FD1E
:1057F00000283FF4ECACCDE90047234644AA08F565
:10580000F0604FF49071FAF7B5FD044600283FF4BC
:10581000DEACDDE90980DDF850903F68D6F800E0A5
:105820000C994B4B4B4E4C4AA7EB090C03FB0CF36A
:10583000A0EB0800A1EB0E0105FB09F706FB00F643
:1058400002FB01F21B0C05FB0EFEC3EB573305FBFD
:1058500008F8DDF84077360C120CC2EB5E3205FB1F
:1058600001F105FB00F0C6EB583605FB0CF53A6775
:10587000C7E91A60C7E91E3579673846FAF716FD99
:10588000DDF840373146C3F88C003448FBF7D4F8D4
:10589000DDF840373248D96EFBF7CEF8DDF84037F7
:1058A0003048196FFBF7C8F8DDF840372E48596FBC
:1058B000FBF7C2F8DDF840372C48996FFBF7BCF8CE
:1058C000DDF840372A48D96FFBF7B6F80A23FEF710
:1058D000A2BDFB1F172F88BFC3F120023EF6AEAE5C
:1058E000FEF7A9BEA0F10C03082B3EF68AAD4508D1
:1058F000FFF7D7B8002317EE904A079D03934FF6A2
:10590000FF78FFF7E3B944AB0593FEF7BDBE022570
:105910002E4673E501252E4670E503252E466DE5DE
:10592000FCEEE77A17EE902A42F30A025301FFF7E2
:10593000D9BABCEEC77A17EE103A19B2FFF7B6BA69
:10594000547C0108607C0108EC36010870450108B0
:105950004E750B0054150200A64A0700B07E0108E0
:10596000C47E0108D87E0108EC7E0108007F010892
:10597000187F0108002859D02DE9F041846882B0D1
:1059800024B30D680E46002D4CD0D4F82080374645
:10599000284603E057F8080F002844D0414605F098
:1059A000D7FD0028F6D13B79072B3BD8DFE803F081
:1059B000342D1704103A040B207BA0F11000B0FA2C
:1059C00080F0400978B32468002CDCD101202AE063
:1059D000207BA0F12000B0FA80F04009F2E72046D9
:1059E000FCF736F8F8B1D4E9060141EC100BCDE92B
:1059F00000010CF01DFADDE9000153EC102B06F05C
:105A0000D5F9003818BF0120DCE72046FCF720F864
:105A1000003818BF0120D5E7E06810F0030018BF78
:105A20000120CFE7002002B0BDE8F08101207047DF
:105A300098B138B50D4659B184682CB90AE005F023
:105A400087FD38B124682CB1216A28460029F6D197
:105A5000084638BD2146084638BD704710B5144683
:105A6000FFF7E6FF30B1037B102B03BF0369236010
:105A70000120002010BD00BF10B51446FFF7D8FF6D
:105A800050B1C36813F0030006D0A3F10203B3FAC8
:105A900083F35B092370012010BD00BF10B51446CD
:105AA000FFF7C6FF034648B1FBF7D2FF30B1D3E999
:105AB000060106F00BFA03462360012010BD00BF6B
:105AC00010B51446FFF7B4FF034628B1FBF7C0FF3B
:105AD00010B15B692360012010BD00BF2DE9F047C4
