:020000040800F2
:100000000000012019960008596D0008556D000880
:10001000516D00084D6D0008496D0008000000009A
:10002000000000000000000000000000416D00081A
:10003000456D0008000000003D6D00082D6D0008B2
:10004000699600086996000869960008F16C000836
:100050006996000869960008699600086996000884
:1000600069960008DD6C000869960008699600082A
:10007000D16C0008C56C00086996000869960008F4
:10008000B96C0008AD6C0008699600086996000814
:100090006996000869960008699600086996000844
:1000A0006996000869960008699600086996000834
:1000B0006996000800000000000000006996000832
:1000C00069960008856C0008699600086996000822
:1000D0006996000869960008ED68000869960008AE
:1000E000D96800086D6800080000000000000000EA
:1000F0000000000000000000000000000000000000
:1001000000000000699600080000000069960008E1
:1001100000000000000000006996000869960008D1
:1001200069960008699600086996000869960008B3
:1001300069960008000000000000000000000000B8
:10014000699600086996000869960008000000009A
:100150006996000869960008699600086996000883
:10016000699600086996000869960008000000007A
:100170006996000869960008000000000000000071
:10018000699600086996000869960008000000005A
:1001900010B5054C237833B9044B13B10448AFF3C1
:1001A00000800123237010BD90000020000000009B
:1001B00024B5000808B5034B1BB103490348AFF34E
:1001C000008008BD000000009400002024B5000855
:1001D0000F49104A086813691B0704D50D4B1869AD
:1001E000C0F3C00070470B681B1AB3F57A7FF5D2D5
:1001F00072B613691B0700D430BF62B6BFF36F8FAE
:1002000013691B07EFD5034B1869C0F3C000704793
:10021000AC00002000040048144BDB68C3F3022349
:1002200010B4C3F107041A1D042C28BF0424062AA5
:100230004FF0FF3202FA04F28CBF033B002321EAA5
:1002400002019940431C0AD000F1604000F5614072
:100250000901C9B280F800135DF8044B7047034BE5
:100260000901C9B283F82310F6E700BF00ED00E0F2
:10027000F0B40568294F064601E0581C06D1EC6928
:1002800031EA0400F9D10020F0BC70473868801AC8
:10029000834227D333B328684407F0D5E8690005C3
:1002A000EDD54FF400632B6255E8003F23F4D07383
:1002B00045E80032002AF7D1326802F1080353E81A
:1002C000003F23F0010302F1080040E8003100295B
:1002D000F3D12023B36786F87410F3670320C6F8C0
:1002E0008030D1E755E8003F23F4D07345E8003271
:1002F000002AF7D1326802F1080353E8003F23F0E7
:10030000010302F1080040E800310029F3D1202365
:10031000B36786F874100320F367B5E7AC000020DC
:100320000346214A0068904295BF204A204A21494D
:10033000214930B4024419641421B2FBF1F2920055
:100340005A64022283F8252001689D68D3E90524B8
:1003500021F4FF4121F070012A430A43224342F075
:100360008002B5F5804F026014D0196C114A914299
:1003700008BF12495A6C18BF114902F01C000F2423
:100380000A68844022EA04020A605A680C688240C3
:1003900022430A6000200122D86383F8240083F8F6
:1003A000252030BC704700BF07040240F8FFFDBFA6
:1003B000F8FBFDBF0000024000040240A80002401C
:1003C000A80402402DE9F041654C94F82430012B3B
:1003D00000F0C28061680122022384F8242084F89E
:1003E00025308E680278056A16F0400616BFC6787A
:1003F000C670B605092A09D900230A3AD2B2092AD9
:1004000003F10103F9D842EA0312D2B24378092B6F
:100410004FEA024209D900270A3BDBB2092B07F158
:100420000107F9D843EA0713DBB290F802E0BEF106
:10043000090F4FEA03280DD90027AEF10A0E5FFA23
:100440008EFEBEF1090F07F10107F6D84EEA071E2E
:100450005FFA8EFE90F824C0BCF1090F0DD9002779
:10046000ACF10A0C5FFA8CFCBCF1090F07F1010733
:10047000F6D84CEA071C5FFA8CFC436947681D43B9
:100480002E43324348EA0203826AC669CA255320D2
:100490004D6243EA0E0E4862B2F5807F4EEA0C636D
:1004A0008A6846EA070639D022F400728A60CA6870
:1004B000D2B262F42072CA60256804E02068401B52
:1004C000B0F57A7F20D8CA6812F00202F6D00B622B
:1004D0008E648B6843F400738B608B6843F4005325
:1004E0008B60204B1A6842F480221A609A68FF26BB
:1004F00042F48022012500209A604E6284F8240094
:1005000084F82550BDE8F0810323FF2084F82420DF
:100510004862184684F82530BDE8F08122F48072E4
:100520008A60CA68D2B262F4C072CA60256804E008
:100530002068401BB0F57A7FE6D8CA6812F0010245
:10054000F6D0CB614E648B6843F480738B608B680C
:1005500043F480538B60C4E70220BDE8F08100BF04
:10056000AC0000200004014009494A68D36823F028
:10057000A003D360086804E00B681B1AB3F57A7F08
:1005800004D8D3689B06F7D5002070470320704736
:10059000AC00002008B5114BDA6822F08002DA6066
:1005A0009A68920603D4FFF7DFFF88B908BD9A68FE
:1005B00022F020029A60FFF7D7FF18B1084B032002
:1005C00083F82500054A936843F02003936008BD33
:1005D000034B032083F8250008BD00BF002800401E
:1005E000AC0000200E494A68D06810F0400001D0ED
:1005F000002070474FF0FF3330B4D3600C68032500
:1006000009E003280AD00B681B1BB3F57A7F84BF6F
:1006100081F825500320D3685B06F2D530BC7047C3
:10062000AC0000200288438843EA02430B60704715
:10063000DFF880C02DE9F04F023802390CF1E209F1
:100640000CF1E40B4FF0000A40F6DE1830F8025FC0
:1006500031F8024FA54220D09CF800400BEBC404B7
:10066000658825B36768002607EB850E47F6FF759A
:1006700057F8044BA4B2A54228BF2546A64238BF6E
:100680002646BE45F4D17600B6B26D00B24538BFFD
:10069000B246ADB2A84528BFA8460CF1010CCC4526
:1006A000D4D1A2F80080A3F800A0BDE8F08F4FF6E7
:1006B000FE75EFE740B500080B4A30B4411E00F16B
:1006C0008B054FF0FF3011F8014F08236040C4073D
:1006D0004CBF82EA50004008013BF8D18D42F2D174
:1006E000C04330BC704700BF2083B8ED2DE9F04F08
:1006F000054687B0002405EB410E02900592104696
:1007000004910393AEF1120EAA1EA4460194A246D0
:10071000A346012740F2EE2914E0BBF1000F2ED1D1
:10072000534532DD9A460124019E7642B342BCBF56
:10073000A8EB050301938C4538BF8C46964500F124
:10074000020027D0558A32F8021F6B1A03F50046C3
:10075000B6F5803F38BF038088462CBF002711883C
:100760004B45DADC564E9A45B8BF9A46B342DBDABF
:10077000002C0ABF0027A3464FF0010BD4E75345D6
:1007800005DD9A465C460027CEE70124CCE75C46AF
:100790000027C9E72FB94FF0000B584607B0BDE856
:1007A000F08F002CF7D0BBF1000FF4D0049A059E17
:1007B000CDF810C00023CDF814A0A2F11C08123609
:1007C00099469E461F469C469A4636F9023F03EBE1
:1007D000830203EB4203344630460A2130F9025DBE
:1007E00034F9022F01FB053301FB02330139F5D146
:1007F000734561DC4B4501DA9946BA4601374745F6
:10080000E3D14CF250339E4560465446DDF810C0AB
:10081000DDF814A0BFDD2B4B9945BCDABAF1000F0F
:10082000B9D0019B002BB6D0029B119A1B884FEACE
:10083000CC0CDB0042B1634504D2D943514461443E
:10084000B1FBFAF1119A1160109A002AA5D0039A0F
:10085000002AA2D0024602990E3231F81210B3EBF0
:10086000C10F4FEAC10005D2DB4353440344B3FB3D
:10087000FAF3D21A2046029B0E3033F81030BCEB4C
:10088000C30F4FEAC30106D9019C631E63445B1A80
:10089000B3FBF4F3C01A002AFFF67DAF0028FFF681
:1008A0007AAF82423FF777AF109BA0EB020AC3F802
:1008B00000A0039B1A6070E79E46BC469EE700BFFF
:1008C00012FDFFFFB03CFFFF704700BF70B4124E37
:1008D000124D00F1BC04002143680B44024640F86D
:1008E000043F12689A1AB24209DD50F8042CA3F5AD
:1008F000C9237E3BA1F5C92103607E399A1AAA4219
:1009000006DA03F5C9237E3301F5C92103607E3180
:100910008442E1D170BC70473F240300C1DBFCFF7F
:10092000F0B4314B314E1B68056882B000248DF85D
:1009300003403468376803EB8303C4F16404C3EBFA
:10094000C30322441B0D02FB03F30193AB6819425E
:100950000AD12CE0019C019B013B0193AB68002C68
:1009600008BF0022194222D0B1F5C06F05D12B7B00
:10097000DBB28DF803309DF803303368DB1B9A42FD
:10098000E8D86B68426823F0E003B2F5827F6B60C1
:100990001AD0836AB3F5005F0DD00122002380F8DE
:1009A0005D2080F85C30032002B0F0BC704700206E
:1009B00002B0F0BC70472B6823F400532B602B6807
:1009C00043F400532B60E8E78368B3F5004F02D08F
:1009D000B3F5806FDDD12B6823F040032B60836A71
:1009E000B3F5005FD9D1E6E700000020AC0000209D
:1009F00070B4294D294B2A681B6804682E68C2F11F
:100A00006402114483B0C3F3CB3301FB03F30193BE
:100A1000A3681A060DD52B689B1B8B420DD2019A39
:100A2000019B013B0193A368002A08BF00211B061C
:100A3000F1D4002003B070BC70476368426823F0B3
:100A4000E003B2F5827F636016D0836AB3F5005F7E
:100A500009D00122002380F85D2080F85C3003205B
:100A600003B070BC7047236823F4005323602368ED
:100A700043F400532360ECE78368B3F5004F02D0E2
:100A8000B3F5806FE1D1236823F040032360836ACC
:100A9000B3F5005FDDD1E6E7AC00002000000020E8
:100AA000836910B50446BBB10D4B93F828204AB9B1
:100AB00063697BB10A4B0B4ADB6B0B4900209847FB
:100AC000002010BDDB6B094A074901209847636984
:100AD000002BEFD1012010BDC369002BE4D1E7E763
:100AE000AC000020A8F400088CF4000870F40008A2
:100AF000704700BFD0E90F23816B0069184700BF22
:100B000000688368184700BFFAE700BF70B4016946
:100B1000B0F8422090F8383031F81220032B08BF8B
:100B200082F4004240F2E51303FB02F31B0C826CDB
:100B3000A3F589739BB21380828F31F812204AB1DA
:100B4000B0F8402031F81220012A03D9C26C0124E8
:100B5000147002E0C26C00241470C48F428F31F80C
:100B6000145031F81240B0F9441040F2E51202FB83
:100B700005F2120CC2F5897213441BB2002BB8BFE8
:100B80005B42D0E914651BB2A4F1010200689942EE
:100B9000B2FA82F24FEA5212ACBF00230123327044
:100BA00042682B7070BC104770B50446806978B1FC
:100BB000E36943B10F4B93F8282022B1DB6B0E4A57
:100BC0000E49012098472068BDE8704083681847A7
:100BD000084D0B4AEB6B09499847E3693BB195F81F
:100BE000283023B1EB6B044A0449012098470020C8
:100BF00070BD00BFAC000020FCF40008ECF400085D
:100C0000D0F400080068C368184700BFFAE700BFC7
:100C1000F8E700BF2DE9F047C26DD0F818800669EB
:100C20000023A8F8023004461D46137000F14C075B
:100C3000994657F8043B03B3B3F838C0B3F89000B3
:100C4000B3F89210B3F8D82006EB400006EB410150
:100C500006EB420206EB4C0CC3E91301C3F8A420D7
:100C6000C3F814C088F800501868D3F8DC20416835
:100C700083F8E490C3F8E02088470135EDB2042DF5
:100C8000D7D12068BDE8F04743681847704700BFD8
:100C9000704700BF704700BF704700BF52B101EB03
:100CA0008202043850F8043F4B801B0C0B80043147
:100CB0009142F7D1704700BF30B583B000EB4200DE
:100CC0000D4601A91C46FFF7ADFC019A22F00F0268
:100CD00004B12A430092014601226846FFF7DEFF75
:100CE00003B030BD2DE9F04F87B0BDF84070DDF89E
:100CF00044A003EBC7077B8883B381460E4601EB14
:100D0000020800254FF0010B7A6852F82540620076
:100D100092B2B242C4F301701DD342451BDA0128DE
:100D20000CD0022836D0E8B1324B334ADB6B334962
:100D300000209847002007B0BDE8F08FBAF100030B
:100D4000A2EB060218BF012392B2C4F30341484646
:100D5000FFF7B2FF7B880135AB42D5D8012007B041
:100D6000BDE8F08FC4F344530BFA03FC921BE24539
:100D700091B21ED30CF1FF331E4A0193CDF800A0AF
:100D8000D46B1F4A03900B461C49A047039807B039
:100D9000BDE8F08F921BBAFA8AF35B0992B2C4F3F2
:100DA00003414846FFF788FF7B880135AB42ABD84B
:100DB000D4E709EB410004A90393FFF733FC039B3D
:100DC0004FF0FF32C3F12003C4F3044422FA03F3CB
:100DD000049AA34022EA03020AFA04F401461443E7
:100DE00005A801220594FFF759FF7B880135AB4226
:100DF0008AD8B3E7AC00002050F5000844F500089D
:100E00000CF500082DE9F04FC2F51D669A461B68E7
:100E1000164C0E36B34298BF9EB2154B054688BF9E
:100E2000B6B2500803EB800083B0174672088846BC
:100E3000023DFFF733FF04F1E10904F1E40B7D23E8
:100E400001E014F8013F35F8022F3946CDE90032B0
:100E500040465B463246FFF745FF4C4501D000282F
:100E6000EFD1CAF8006003B0BDE8F08F40B50008CC
:100E7000E8DF00082DE9F04F02EB420C00EB8C0C90
:100E80008DB000268346824680466746B14603A859
:100E90004FEA890586469FED577A43466AB19C1909
:100EA0002C44D4ED007A1C46D4ED006A0C3367EE76
:100EB000A67ABB4237EE277AF1D104350C2DAEEC81
:100EC000017AE8D109F10109B9F1030F00F110002D
:100ED00008F10408A6F1040607F10407D8D19DED36
:100EE000046ADDED055ADDED086A68460BF10C0475
:100EF000DFED407A53463AB11D4695ED007A0C334A
:100F0000634577EE877AF7D10AF1040AA245E0EC4F
:100F1000017A0CF1040CEBD1DDED037AF5EE407AA9
:100F2000F1EE10FA10D0B7EE007A87EE274ADDED29
:100F3000077A66EE044A26EE245A77EEC57AF5EE75
:100F4000407AF1EE10FA06D100200023CBF80030F1
:100F50000DB0BDE8F08FC7EE272A65EE843A25EE86
:100F6000A47A66EE237A9DED0B5A76EEE77A36EE9A
:100F7000C77A67EEA27A65EEA36A75EE666A27EE17
:100F8000275A76EEC56AF5EE406AF1EE10FADBD02C
:100F90009DED005A9DED013A9DED022A64EE854AD1
:100FA00063EE853A73EE644A012067EEA47A00236B
:100FB00072EE677A77EEE33AC3EEA67A27EE277AE7
:100FC000C1ED027A34EEC77A65EEA75A67EE227A4F
:100FD00026EE276AC1ED017A35EE466A76EE655A4D
:100FE00025EE844A81ED004ACBF800300DB0BDE813
:100FF000F08F00BF000000000028B8BF404270B46E
:10100000BABF00B20124002400293FDB884238DB4C
:101010000022034668B30846002643F6284500042C
:10102000B0FBF3F1A9424AD946F2D633994236D9F8
:1010300048F67203994244D94AF64943994242D943
:101040004DF2A303994240D94FF24B73994298BF96
:10105000052025D94FF24C7548F233234CF2A340BA
:10106000491B03FB01F100EB114016B1C0F5C9307B
:101070001F3014B1C0F549303F3002B1404270BC5E
:1010800070470B46C1B912480A46F2E7494209B215
:1010900088424FF00102BCDA0B461646BDE701203C
:1010A0000C4B03EBC00503EB8003D5F87808D3F8AD
:1010B000AC38D5F87458D3E700220126ADE70020FC
:1010C000EEE70220ECE70320EAE70420E8E700BFB0
:1010D0001F92010040B500082DE9F04F1E4EDFF8C9
:1010E0008480814615460FCE91B002AC0FC40FCE5E
:1010F0000FC40FCE0FC496E8030098F82830012BD8
:1011000084E8030007D9D8F83C40144A14490095F4
:101110004B460220A047DFF850B0DFF844A002ACF5
:1011200010AE02E00834B44213D0A3881D42F9D0B7
:1011300098F82830012B5A464B4651464FF0020092
:10114000F0D9276800970834D8F83C70B847B44203
:10115000EBD111B0BDE8F08F08BE0008E0F5000843
:10116000FCF50008AC00002010F6000830B50A4C71
:1011700094F82850012D85B00BD9CDE90112034612
:10118000A1F58C7080B20090E46B044A04490220FF
:10119000A04705B030BD00BFAC00002024F6000819
:1011A000FCF5000830B50346A1F16204104814F0C4
:1011B000010FA5B285B090F828400CD1012C08D9B8
:1011C000CDE901126D080095C46B0A4A0A49022054
:1011D000A04705B030BD012CFBD9CDE901126D0847
:1011E0000095C46B054A04490220A04705B030BDF4
:1011F000AC0000204CF60008FCF5000884F600085E
:1012000030B5094C94F82850012D83B009D97D39A7
:1012100089B2CDE900120346E46B044A0449022076
:10122000A04703B030BD00BFAC000020BCF60008F2
:10123000FCF5000810B5084991F82840012C82B04F
:1012400008D902F00F020092CC6B044A044903460D
:101250000220A04702B010BDAC000020ECF6000850
:10126000FCF5000830B5094C94F82850012D83B0E6
:1012700009D92C3989B2CDE900120346E46B044A3E
:1012800004490220A04703B030BD00BFAC000020DD
:101290000CF70008FCF5000830B50C4C94F8285009
:1012A000012D83B010D91146094DE46B094A11F4A0
:1012B000006F03460848C1F30A0118BF2846CDE96C
:1012C000000106490220A04703B030BDAC00002059
:1012D0003CF7000844F7000834F70008FCF5000864
:1012E00010B4084CA48D490864088C4228BF0C46F1
:1012F000023C24F00104043010601C605DF8044BD3
:10130000704700BFAC000020F8B50688002A14BF63
:101310004FF480524FF40052B6F59C6F38BF4FF433
:101320009C66B24205460F461C4623D2134B144A14
:10133000DB6B1449002098474FF0000E1249134A06
:10134000134BE360C4E901120FCD203676004FF055
:10135000000CA4F802C004F1300C24F8106B0FC488
:1013600095E80F0007C497E8030023808CE803008A
:101370007046F8BD4FF0010EE0E700BFAC00002062
:1013800058F7000878F700080100020003001B006E
:101390001C0020000368D0F8E820C0F8F0205A684C
:1013A0001846104710B1024B5B6B1847704700BFDF
:1013B000AC0000202DE9F04107680446C7B1D7F81A
:1013C000980080B100F14C0500F15C064FF0000878
:1013D00055F8040B18B1FFF7E5FF45F8048CB5424A
:1013E000F6D1D7F89800FFF7DDFF3846FFF7DAFFB0
:1013F0002046BDE8F041D5E7DFF864C02DE9F047AD
:10140000DCF840501DB12B46BDE8F047184712B339
:101410005200A1F10208A2F102090E469A460746BF
:101420004944444634F8025F6DBA8C422580F9D1B4
:10143000DCF8384038463146A047BAF1000F01D1F8
:10144000BDE8F0874E4438F8023F5BBAB045A8F8D3
:101450000030F8D1F4E7BDE8F047DCF83830184741
:10146000AC00002070B5012584B041F4A0430446CF
:10147000164603A92A4601A8ADF808300196ADF832
:101480000A50FFF70BFC204602A900230422FFF7B5
:10149000B3FF04B070BD00BF2DE9F04782B01D4618
:1014A00043F44053BDF82840ADF8003000278A4689
:1014B00091466946012303228046ADF80270ADF8DB
:1014C0000470FFF799FFBDF9046004FA0AF1714056
:1014D00001EA090445F4805540463B46694674409C
:1014E0000222ADF80050ADF80240FFF785FF02B0D0
:1014F000BDE8F08730B583B00025294600957B23F1
:10150000FF220446FFF7C8FF0121204600918B23EC
:101510000222FFF7C1FF009520468B23802207217E
:10152000FFF7BAFF03B030BD30B583B041F480544B
:1015300015460023022201A9ADF80440ADF806507B
:10154000FFF75AFF03B030BD30B583B041F44051CE
:1015500014460025ADF80010012303226946ADF8BA
:101560000250ADF80450FFF747FFBDF80430238068
:1015700003B030BDF0B585B00024012907461646FA
:10158000ADF80E4038D0022933D0224B2249DD6B12
:10159000224A03462046A84721460DF10E0238464E
:1015A000FFF7D2FFBDF80E30738003F00705012D61
:1015B000358024D013F0060F0BD16DB9154A009772
:1015C000D46B1549164A2846A0472C46204605B03C
:1015D000F0BD023D012DF9D90E4A0097D46B0E499A
:1015E000104A0020A04700210C462046318005B05B
:1015F000F0BD32210124D0E70C463321CDE7054A66
:101600000097D46B0449084A0020A04700242046D4
:1016100005B0F0BDAC000020A8F700088CF700086A
:10162000C0F7000824F80008F0F70008F0B583B010
:101630000024012907461646ADF8064019D00229B4
:1016400009D01A4B1A4ADD6B1A4903462046A847AF
:10165000204603B0F0BD46210DF106023846FFF7E3
:1016600073FFBDF80650842475B1BEB9012003B0E4
:10167000F0BD45210DF106023846FFF765FFBDF8C4
:1016800006508324002DF0D1084B0B4ADC6B09492E
:1016900028463B46A047284603B0F0BD38462146C1
:1016A0000022FFF741FF3046D3E700BFAC00002027
:1016B0008CF70008A8F7000858F8000870B582B049
:1016C0000DF106020E4600241C210546ADF8064029
:1016D000FFF73AFFBDF8062012F400620CD128464D
:1016E0001B21FFF721FF284646F400621B21FFF76C
:1016F0001BFF012002B070BD044B054ADE6B05499B
:1017000020462B46B047204602B070BDAC000020FA
:101710008CF80008A8F7000870B582B00DF1060239
:10172000002437210546ADF80640FFF70DFFBDF850
:10173000063003F0C003B3B90DF1060200241C21EA
:101740002846ADF80640FFF7FFFEBDF806301B0542
:1017500015D50E4B0E4ADE6B0E4920462B46B04780
:10176000204602B070BD094B93F82820002AE3D030
:10177000DC6B094A07492B460120A047DCE72846D5
:10178000FFF7B8FE012002B070BD00BFAC00002022
:10179000E8F80008A8F70008BCF80008F0B40C4D01
:1017A000AF8D9E1CB7EB460F05D2EB6B094A0A4979
:1017B000F0BC00201847144641F4A041013B1180C1
:1017C0005380214626F000420023F0BC14E600BFFF
:1017D000AC00002018F9000838F9000810B582B0F4
:1017E000044601AA0121FFF7C5FE2046002201217F
:1017F000FFF71CFFBDF80430022B08D00549064A4C
:10180000CC6B06490020A047002002B010BD01208B
:1018100002B010BDAC0000204CF9000894F900089B
:101820002DE9F04F304ED0F8088096F828302DED95
:10183000028B012BA3B004D9F36B2C4A2C49022054
:1018400098472C49DFF8B4B0DFF8A4A0782204A8A8
:1018500008F0C8FF0122D5214046FFF765FE22AB04
:1018600008EE103A04ACA588B4F80690A944A9453E
:1018700007DC26E0BDF80E2098470135ADB2A9453A
:101880001FDD294640460DF10E02FFF75DFEA368FD
:1018900029464046002BEDD196F82830012B5A46B8
:1018A000434651464FF00200E7D9BDF80EC0CDF8CF
:1018B00004C0276800970135F76BADB2B847A9455A
:1018C000DFDC18EE103A0C34A342CCD196F8283065
:1018D000012B04D9F36B084A05490220984723B02D
:1018E000BDEC028BBDE8F08FAC000020B4F900081D
:1018F000FCF5000840BE00084CFA000838FA000861
:1019000010B520B10B4B02689A42044607D00A4B2F
:101910000A4ADB6B0A49BDE81040002018470069FD
:101920000023236008B1FFF73DFD2046BDE81040CD
:1019300038E500BF0EB03713AC00002088FA00086D
:10194000A0FA000810B520B10C4B02689A42044678
:1019500007D00B4B0B4ADB6B0B49BDE81040002056
:101960001847406818B1C368984700236360002394
:1019700023602046BDE8104014E500BF0DB03713CA
:10198000AC000020A8FA0008C4FA000870B48C88E3
:1019900093680E898D79CA799A70003C18BF01242A
:1019A0009E801C705D70986070BC70472DE9F04F90
:1019B000BD4C94F82830012B85B0824640F2CF8090
:1019C000D0ED117A9FEDB97A9FEDB86ADFEDB86A74
:1019D000E56BB849F5EEC07AF1EE10FA48BFF1EECA
:1019E000677A77EE877A4CBFB34BB44BBCEEE77A9D
:1019F000F5EEC07AF1EE10FA17EE102A4CBFB1EEF8
:101A0000677AB0EE677A37EE067A0092BCEEC77A54
:101A1000AB4AB8EE477A022077EEC77A67EEA67A2D
:101A2000FCEEE77ACDED017AA84794F82830012B37
:101A300040F29580DAED127A9FED9C7A9FED9B6AD9
:101A4000DFED9B6AE56B9B49F5EEC07AF1EE10FA8B
:101A500048BFF1EE677A77EE877A4CBF964B974B8B
:101A6000BCEEE77AF5EEC07AF1EE10FA17EE102A26
:101A70004CBFB1EE677AB0EE677A37EE067A009225
:101A8000BCEEC77A8F4AB8EE477A022077EEC77A63
:101A900067EEA67AFCEEE77ACDED017AA84794F8D6
:101AA0002830012B5BD9BAF84C30E56B864A814966
:101AB0000220A84794F82830012B50D99AF84E30CC
:101AC000824F834DE66B834A7A49002B14BF3B4615
:101AD0002B460220B04794F82830012B3FD99AF8C2
:101AE0004F30E66B7C4A7349002B14BF3B462B46B4
:101AF0000220B04794F82830012B30D99AF853309F
:101B0000E56B6C49022B96BF744A754B02EB83035D
:101B10004FF0020098BFD3F87839724AA84794F87A
:101B20002830012B1BD99AF85430E56B6149022B00
:101B300096BF6A4A6A4B02EB83034FF0020098BFDC
:101B4000D3F87839684AA84794F82830012B06D989
:101B5000E56B9AF85230654A56490220A8479AF830
:101B60005230002B00F0E480DFF8A881DFF844B1A8
:101B7000CDF80CA05546002694F82820012A40F202
:101B8000D1803346E76B424659460220B84794F865
:101B90002830012B40F2C3806B68E76B544A5946EA
:101BA0000220B84794F82830012B40F2B8802B89E6
:101BB000E76B504A59460220B84794F82830012B69
:101BC00040F2AD806B89E76B4B4A59460220B8471B
:101BD00094F82830012B40F2A280AB89E76B474A8A
:101BE00059460220B84794F82830012B40F29780DC
:101BF000AB7BE76B424A59460220B84794F828303D
:101C0000012B40F28C80EB7BDFF8C090DFF8C0A0A6
:101C10003C4AE76B002B14BF4B4653465946022003
:101C2000B84794F82830012B79D92B7C364AE76BDA
:101C3000002B14BF4B46534659460220B84794F830
:101C40002830012B6BD96B7C304AE76B002B14BF1B
:101C50004B46534659460220B84794F82830012B8A
:101C60005DD9EB7CE76B013BDBB2042B96BF1B4AD3
:101C70001B4B02EB8303594698BFD3F88439244A9F
:101C80000220B84794F82830012B48D9AB7CE76B89
:101C9000052B96BF114A124B02EB8303594698BF9E
:101CA000D3F8983938E000BFAC000020BD370635C6
:101CB0000024744900FB0008ECF9000874030108D3
:101CC000E8FA000808FB000820FB0008D0FA00082A
:101CD000D8FA000838FB000854FB000840B500089B
:101CE000E0FA00086CFB000888FB0008A4FB000871
:101CF000C8FB0008E4FB000800FC00081CFC00080E
:101D000038FC000854FC000870FC00088CFC00083B
:101D1000A8FC0008B8FB0008074A0220B847039B4C
:101D200093F8523001369E4205F11005FFF424AFBE
:101D300005B0BDE8F08F00BFC4FC000808B5044B37
:101D4000044ADB6B044900209847002008BD00BF0F
:101D5000AC000020E0FC000800FB000808B518B14A
:101D6000064B02689A4207D0054B064ADB6B0649D0
:101D700000209847002008BD043008BD0FB037137D
:101D8000AC000020F8FC000800FB000808B518B102
:101D9000074B02689A4207D0064B074ADB6B07499C
:101DA00000209847002008BDB0F84C0008BD00BFD7
:101DB0000FB03713AC000020F8FC000800FB00084F
:101DC00038B520B10B4B02689A42044607D00A4B43
:101DD0000A4ADB6B0A4900209847002038BD0329D6
:101DE0000D4603D9FFF7AAFF0028F7D004EB05142E
:101DF000608938BD0FB03713AC000020F8FC000834
:101E000000FB000838B520B10B4B02689A4204462B
:101E100007D00A4B0A4ADB6B0A490020984700208A
:101E200038BD03290D4603D9FFF788FF0028F7D0F6
:101E300004EB0514606838BD0FB03713AC00002008
:101E4000F8FC000800FB000808B518B1074B026851
:101E50009A4207D0064B074ADB6B07490020984798
:101E6000012008BD90F8520008BD00BF0FB0371325
:101E7000AC000020F8FC000800FB0008836A002288
:101E8000A3F85A20A3F85220704700BF836A19684C
:101E90004A6822F0030210B44A601A6E012442F02C
:101EA00010021A6683F85D405DF8044B704700BF6E
:101EB000704700BF704700BF70B503681B4D2E68A8
:101EC0001B689B062ED4846A2268536823F0200383
:101ED0005360204632464FF4C051FEF721FD58B9F9
:101EE00031462046FEF784FD30B932464FF4C061DA
:101EF0002046FEF715FD38B1236E43F0200323661C
:101F0000236E43F02003236621684B68002223F0F0
:101F1000030301204B60E287A4F8462084F85D00AB
:101F2000236E13B9012385F8443070BDAC00002046
:101F300038B52E4A036815681B689B061FD4846A4F
:101F40002368A268586820F020005860C2B1596820
:101F5000606821F00101B0F5827F596035D02946D3
:101F60002046FEF745FDC8B96368B3F5827F1CD0F3
:101F700001230022A4F8462084F85D30236E38BD8A
:101F80006268B2F5827F5A6827D022F001025A6057
:101F900029462046FEF72CFD0028E5D0236E43F0AD
:101FA0002003236620232366E2E7A368B3F5004FEE
:101FB00002D0B3F5806FDBD12A464FF4C0612046D2
:101FC000FEF7AEFC0028D3D0E8E7B2F5004F08D109
:101FD0001A6822F040021A60C1E722F003025A6038
:101FE000BDE7B2F5806FF3D0B9E700BFAC000020C9
:101FF000444AD36830B49C0708D0D368046803F01F
:102000000303A34247D0012030BC70470368022B72
:1020100052D0032B49D0012BF5D112689207F2D58B
:10202000384D4468EA6822F073021343013C43EAE6
:102030000413EB60334C344A236823F0806323603D
:10204000156803E013685B1B022B39D823681B015A
:10205000F8D4002936D1D0E902532169DB0621F0FA
:10206000784121F4FE4143EA05230B4323612549CE
:102070000B6843F080630B60146803E013681B1B5C
:10208000022B1DD80B681B01F8D582690B6913431D
:102090000B610020B8E7002BB5D0D3684268C3F3CA
:1020A000021301339342AED1C4E71468A403B7D43A
:1020B00012685203A7D5B3E712685505A3D5AFE759
:1020C0000320A1E7012923690DD04169856823F028
:1020D000C06323F4FE43490843EA0523013943EA78
:1020E00041632361C3E70169856823F4C00323F4D6
:1020F000FE43490843EA0523013943EA415323617A
:10210000B5E700BF00100240AC000020F0B5036846
:1021100013F4006783B004460CD0416CB1F5000F96
:1021200000F03281B1F5400F00F00681002900F087
:102130002381012798034FD5A44A916DC90040F12E
:10214000EF800020A249A34D0A6842F480720A6021
:102150002E6804E02A68921B022A00F2F8800A68BE
:10216000D205F7D5AFBB994AA66DD2F8901011F4FD
:10217000407126D08E4224D0D2F89060D2F89010D0
:1021800041F48031C2F89010D2F8901021F48031DF
:10219000C2F8901026F4407CF107C2F890C00FD529
:1021A000D5F800C0114641F2883605E02A68A2EB56
:1021B0000C02B24200F2CB80D1F890209207F5D504
:1021C000A66D8249D1F8902022F440723243C1F8C2
:1021D0009020002840F0BF80D90708D57B49206AAD
:1021E000D1F8882022F003020243C1F888209A0720
:1021F00008D57649606AD1F8882022F00C020243A3
:10220000C1F888205E0708D57049A06AD1F88820F7
:1022100022F030020243C1F888209D0608D56B49A0
:10222000E06AD1F8882022F440620243C1F8882095
:10223000980508D56549E06BD1F8882022F4402242
:102240000243C1F88820590508D56049206CD1F8AF
:10225000882022F440120243C1F888205A0608D58B
:102260005A49206BD1F8882022F440520243C1F829
:1022700088201E0608D55549606BD1F8882022F4C5
:1022800040420243C1F88820DD0508D54F49A06BC4
:10229000D1F8882022F440320243C1F88820180384
:1022A0000ED54A4AA16CD2F8883023F040630B4324
:1022B000B1F1006FC2F8883053D0B1F1806F73D0A4
:1022C000236859030FD5414AE16CD2F8883023F0D6
:1022D00040630B43B1F1006FC2F8883046D0B1F1D2
:1022E000806F69D023685A040CD53849226DD1F823
:1022F000883023F040531343B2F1805FC1F8883037
:1023000049D023681B0408D5304A616DD2F8883063
:1023100023F080430B43C2F88830384603B0F0BD49
:10232000916D41F080519165926D02F08052019261
:10233000019A012006E7616C244AD2F8883023F420
:1023400040031943C2F8881023680027F2E60327E8
:1023500000283FF441AF1D498A6D22F080528A6502
:102360003AE7D36843F48013D360A9E7D36843F412
:102370008013D3602368B6E70430FFF739FE0746C1
:102380000028D8D02368D5E6104AD36843F48033B8
:10239000D360416CD0E70221201DFFF729FE23689E
:1023A0000028AFD00746ADE70121201DFFF720FE32
:1023B000002818BF074683E70121201DFFF718FEFC
:1023C000236800288FD007468DE700BF0010024029
:1023D00000700040AC0000201F498B6DDB0082B014
:1023E0001DD51E4B1B6803F4C063B3F5007F28D0D6
:1023F000802812D82ED0A0F170035A425A411849B1
:102400000B6823F0070313430B60086800F0070014
:10241000801A18BF012002B070470322EFE78B6DCE
:102420000E4A43F080538B658B6D03F0805301930C
:10243000019B13688A6D22F0805203F4C0638A65A1
:10244000D3E7802804D9A0288CBF02220122D6E736
:102450000022D4E70222D2E70010024000700040C0
:1024600000200240064A074B92680749C2F3022245
:102470001344086893F8B03903F01F03D84070473D
:102480000010024040B5000800000020264A936872
:10249000D26813F00C0308D00C2B3AD0042B36D0A2
:1024A000082B224818BF002070471F4A11680907EF
:1024B00054BFD2F8941011681D4A54BFC1F30321D0
:1024C000C1F3031102EB8102D2F8B80903B30C2B5C
:1024D00027D1154BDB6803F00303022B1FD0134AEF
:1024E000032B08BF1046104BD968DA68DB68C3F3CA
:1024F0004163C2F30622C1F302110133013100FB33
:1025000002F05B00B0FBF1F0B0FBF3F0704709485C
:10251000704702F00302012AC7D00020D9E705481E
:10252000E1E70020704700BF0010024000127A006F
:1025300040B500080024F4002DE9F04F0C6885B088
:10254000002C00F0878000234FF0010B0BFA03FEF4
:102550001EEA040A79D04E6806F00302551E012DCA
:102560004FEA430C79D9032A40F0BD8002FA0CF2FD
:10257000D543D0F800C00CEA05052A4316F4403FC5
:10258000026062D05F4D2A6E42F001022A662D6E13
:1025900023F0030202F1804205F0010502F58032CA
:1025A000039503F00305DDF80CC0D2F808E0AD0098
:1025B0000F2707FA05FCB0F1904F2EEA0C0E16D04B
:1025C000514FB84200F0978007F58067B84200F09D
:1025D000958007F58067B84200F08A8007F580672C
:1025E000B8420CBF4FF0040C4FF0070C01E04FF065
:1025F000000C0CFA05F545EA0E059560434A926811
:102600006FEA0A0CF502414D54BF0CEA02024AEA95
:102610000202AA60ED68B2023C4A54BF0CEA05050A
:102620004AEA0505D5605568384AB70354BF0CEA35
:1026300005054AEA050555601268F503334D54BF98
:102640000CEA02024AEA02022A60013334FA03F277
:102650007FF47CAF05B0BDE8F08FD0F80880CF687C
:10266000032505FA0CF528EA050807FA0CF949EAEA
:102670000808C0F80880D0F80480C6F3001928EADA
:102680000E0809FA03FE4EEA080EED43C0F804E016
:10269000D0F80C808F6808EA050807FA0CFE4EEAAD
:1026A000080E022AC0F80CE002D002FA0CF260E731
:1026B0004FEAD30800EB880803F0070ED8F8207023
:1026C00001970F694FEA8E0E07FA0EF90F2707FAE6
:1026D0000EFE019F27EA0E0E49EA0E0E02FA0CF2D8
:1026E000C8F820E045E7032505FA0CF5ED43CFE7F0
:1026F0004FF0030C7DE74FF0010C7AE74FF0020C2E
:1027000077E700BF001002400004004800040140C9
:1027100070B4D0E9106304223168056803F01C032B
:102720009A400A422C680ED014F0040F0BD02B688C
:102730009B0603D42B6823F004032B60036B7260A9
:10274000CBB170BC184702229A400A4215D014F04F
:10275000020F12D02B68990606D42B68012123F0B2
:102760000A032B6080F82510C36A7260002280F88B
:102770002420002BE5D170BC704708229A400A4201
:10278000F9D02207F7D52A68416B22F00E022A60A1
:10279000012202FA03F300247360C26380F824402C
:1027A00080F825200029E6D070BC0847F0B490F8E6
:1027B0002440012C3DD090F825400126B442E5B2DA
:1027C00080F8246005D0002380F82430F0BC02207B
:1027D00070470468D0F840C00227002680F82570B2
:1027E000C663476C266807F01C0726F001062660C2
:1027F000BD408668CCF804506360036B102E0BBF9D
:10280000A260A160E160E26053B1236843F00E036F
:102810002360236843F0010323600020F0BC70476D
:10282000236823F004032360236843F00A03236032
:10283000EFE70220F0BC7047044A00F01F010123BB
:1028400040098B4042F82030704700BF00E100E0B3
:1028500070B5104D104A2B68A2FB03239B09013B66
:10286000B3F1807F0CD20D4A0D495360F02381F8FB
:102870002330002607230F2896600446136001D9F1
:10288000012070BD01464FF0FF30FDF7C5FC6C60C4
:10289000304670BD00000020D34D621010E000E013
:1028A00000ED00E0F8B505460E46FFF789FA31461F
:1028B00004462846FFF7A6FA87B21DB1114B2A68D5
:1028C0009A4213D0104B114ADB6B114900209847F4
:1028D0004FF6FF7314FB0374A4B207EE904AB8EEF0
:1028E000670ADFED0C7A20EE270AF8BD032E03D924
:1028F000FFF724FA0028EBD005EB06110B89013B0A
:102900009BB2E7E70FB03713AC000020F8FC0008DB
:1029100000FB00080AD7233B38B504460D46FFF7F5
:102920004FFA29462046FFF76DFA83B200EE103ABF
:10293000DFED037AB8EE400A20EE270A38BD00BF6B
:102940000AD7233BF8B52DED048B0646F0EE409AEE
:10295000FFF77AFAA0B300259FED1C9ADFED1C8AE1
:1029600007462C4621463046FFF7D6FF2146304623
:10297000B0EE408AFFF796FFB4EE688AF1EE10FAE7
:1029800005F10105B4EE490A48BFF0EE488AECB201
:10299000F1EE10FAC8BFB0EE409AA742E2D8F4EECA
:1029A000E89AF1EE10FA09D4F4EEC99AF1EE10FAB1
:1029B000CCBF01200020BDEC048BF8BD0120FAE75C
:1029C0009FED029ADFED028AE9E700BF00007AC4BA
:1029D00000007A44BFF34F8F0549064BCA6802F4E2
:1029E000E0621343CB60BFF34F8F00BFFDE700BF32
:1029F00000ED00E00400FA0538B5524B93F82420AE
:102A00000021012A83F8451000F08D805A68532177
:102A10000225CA20012483F8255083F824405062FF
:102A20005162916821F480619160D168C9B261F40A
:102A30009061D160D168490664D51F2151619168C8
:102A4000414821F0070141F003019160016841F420
:102A500080110160816841F480118160916841F4C6
:102A6000804191609168FF2441F480610120916070
:102A7000546283F8250093F84510002283F824203F
:102A800000295BD172B6BFF34F8FBFF36F8F93F8FE
:102A9000452002B930BF62B6BFF34F8FBFF36F8FCF
:102AA00093F84520002AEDD093F824200021012A34
:102AB00083F8451037D05868532201240225CA21D3
:102AC00083F8255083F8244041624262826822F4F0
:102AD00080628260826822F4804282601C6804E026
:102AE0001968091BB1F57A7F1FD8C26812F0040279
:102AF000F6D0FF2401220021446283F8241083F8D9
:102B0000252038BD1C68D16811F0040195D11868E2
:102B1000001BB0F57A7FF6D9FF240320546283F8B6
:102B2000241083F82500FFF755FFFF24032144629A
:102B300083F8242083F82510FFF74CFF83F8452005
:102B4000B9E700BFAC000020000401402DE9F043CC
:102B5000866FA1B00446002E5ED02568A368266962
:102B60006069C64A2421A167296821F00101296012
:102B7000334329680343E0690A40034313432B604E
:102B80006B68E168BE4A23F440530B436B60954287
:102B9000A369AA6800F0BA80266ABA4922F43062B2
:102BA000334313438D42AB600ED0B74B9D4200F0D0
:102BB0001582B64B9D4200F02E810023C4E91933E3
:102BC000012021B0BDE8F083B14BB24AD3F8883080
:102BD00003F00303013B022B00F23F81134493F8FF
:102BE000E839B0F5004F00F06381082BE5D801A16A
:102BF00051F823F0552E0008632E0008132E00080C
:102C0000BB2B00083B2E0008BB2B0008BB2B000889
:102C1000BB2B0008A12D000880F874605C2209A875
:102C20003146CDE90466CDE90666089607F0D0FD89
:102C30002568944B9D4200F00082934B9D428DD1BC
:102C400009A8022712960997FFF760FA064600289E
:102C500040F01E828E4B904D9A6D42F400329A6580
:102C60009A6D02F400320192019ADA6C42F001028C
:102C7000DA64DB6C059703F001030F200093032255
:102C8000072304A9049005F148094FF09040DDF8AE
:102C900000C00792089306964FF08008FFF74CFC9F
:102CA0007E4BAB644846C5E91466C5E91766C5E9BD
:102CB0001966EF64C5F85880FDF732FB034600281B
:102CC00040F0E68105F190067549C4F87090102235
:102CD0003046C5F89010C5E92738C5E92933C5E95C
:102CE0002B332C67C5F89470C5F89820FDF718FBB6
:102CF0000146002840F0CC81E6662620C5F8B840A1
:102D0000FDF78AFA2620FFF797FD26E722F43062C6
:102D100013435F49AB60D1F8883003F44063B3F5E7
:102D2000006F00F088810CD8002B00F07E81B3F595
:102D3000806F7FF442AFFFF7A9FB002800F081808D
:102D400005E0B3F5406F7FF438AF4FF400406268A0
:102D500002EB420383423FF630AFB0EB023F3FF657
:102D60002CAF56084FF480730027E3FB00674FF049
:102D7000000843463046394604F0DEFB494BA0F5D7
:102D800040729A423FF619AF2568E860C4E9198895
:102D900019E0302B7FF411AFB0F5004F00F0A180A7
:102DA0004FF4004063684FF6EF7200EB5300B0FB46
:102DB000F3F0A0F1100393423FF6FFAE2568002325
:102DC000E860C4E91933636A002B40F0AF806B6898
:102DD000314A23F490436B60AB6823F02A03AB6065
:102DE0002B68002143F001032B60C4F880101668A3
:102DF0002B681A0700F18E802B685B0700F1E180D9
:102E000000232022A26784F87430E2671846236604
:102E1000D7E62548C6E703F5E433D3F8883003F056
:102E20003003202B00F03681B3D87BB1102B7FF418
:102E3000C4AEB0F5004F00F0E280FFF727FB00289A
:102E4000B0D10023C4E919332568BCE7B0F5004FC1
:102E500000F0CF80FFF706FBF1E7B0F5004F00F080
:102E6000D4800B4B11499B680868C3F3C2231A44F2
:102E700092F8B03903F01F03D840E0E7F369FFEFA1
:102E800000800040003801400044004000480040FD
:102E90000010024040B50008AC0000206C00024069
:102EA00080000240FFFC0F000024F400000000201E
:102EB000082B3FF682AE01A151F823F0F32F000852
:102EC0000B300008E12E0008BB2B0008FF2F000884
:102ED000BB2B0008BB2B0008BB2B0008E32E00080F
:102EE0006F486268530803EB40004FF6EF73B0FB86
:102EF000F2F0A0F110029A423FF65FAE20F00F030D
:102F00009BB22568C0F3420018430023E860C4E97F
:102F1000193358E76FF07E4332464FF400112046D4
:102F2000FDF7A6F9002857D1256865E7DE0705D526
:102F30006A68A16A22F400320A436A60980705D5DC
:102F40006A68E16A22F480320A436A60590705D54B
:102F50006A68216B22F480220A436A601A0705D549
:102F60006A68616B22F400420A436A60DF0605D595
:102F7000AA68A16B22F480520A43AA609E0605D576
:102F8000AA68E16B22F400520A43AA6058060ED5E3
:102F90006A68216C22F480120A43B1F5801F6A60CE
:102FA00005D16A68616C22F4C0020A436A6019069E
:102FB0007FF50DAF6B68A26C23F4002313436B60A5
:102FC00005E732466FF07E434FF480012046FDF75F
:102FD0004FF900283FF414AF0320F2E503F5E63380
:102FE000304AD3F8883003F00C03134493F8EC39DB
:102FF000F7E5FFF737FA00283FF423AF71E7FFF753
:1030000045FA00283FF41DAF6BE7274B27499B6823
:103010000868C3F3C2231A4492F8B03903F01F03BF
:10302000D84000283FF40DAF5BE7FFF71BFA0028FC
:103030003FF407AF8BE61A4889E6012309A81196E9
:103040000993FFF763F818BB174B1A6E42F48042DE
:103050001A661A6E02F480420392039ADA6C42F006
:103060000102DA64DB6C069003F001034FF4C060E8
:103070000293022503220723049004A94FF09040F5
:103080000595CDE90723029EFFF756FA256865E509
:10309000FFF7A0FCB0F5004F01487FF483AE20E7B6
:1030A0000024F40040B50008001002400000002099
:1030B0002DE9F043674CA3B02C220021684607F0AD
:1030C00087FB94F82500644A626000231F2540F2C4
:1030D000E731C4E90351C4E90533C4E90733A36008
:1030E00060B14FF00209CA27532684F82590576231
:1030F0005662FDF777FA60B3FFF76CFC00F0FF0152
:1031000054220CA884F8241007F062FB4FF400321C
:103110004FF400730BA80B922193FEF7F7FF0546BF
:103120000028E9D14D4AD2F8903043F40043C2F868
:10313000903001460320FDF76FF80320FFF77CFB7A
:1031400029462920FDF768F82920FFF775FB6268FA
:10315000C7E7D4E9013299686569E06921F4E001C3
:1031600021F04001996099682A4302430A4321698A
:103170009A6019611A69E16842EA01421A61FDF731
:1031800009FA0028B8D16368226AD96CA06994F85A
:1031900024C021F00301D964D96C012502430A43FC
:1031A0004FF0FF08AC45DA64C3F8248084F825505A
:1031B000A2D084F825905F625E6284F82450FDF707
:1031C00011FA6368C8B99A6818609A6822F4802274
:1031D0009A609A689A60FDF7DDF96368C3F8248005
:1031E00068B984F8255084F825905F625E6284F89F
:1031F0002450FDF7F7F9636828B1C3F82480002351
:1032000084F8243078E742F201125A60FDF7C2F9DF
:1032100062680346C2F824800028F0D14FF480721F
:103220006846CDE90333CDE9073384F8255084F8A7
:103230002430ADF800308DF80230019305938DF8FD
:1032400024500A92FDF7BEF800287FF455AF23B052
:10325000BDE8F083AC0000200028004000100240D0
:1032600070B5864C94F834310020012B84F844006A
:103270000FD094F8353101208342DDB284F8340157
:103280000ED0D4F8DC30B3F5827F03D0002384F86D
:10329000343170BDD4F8E030002BF7D1042DF5D1D6
:1032A0000029F3D093B2002BF0D094F83521D4F854
:1032B000D850D4F8E460042A18BF05224FF000006B
:1032C00018BF84F83521C4F83801A4F81631A4F8E1
:1032D0001E316A68C4F8101122F4C042B6F5E06FDE
:1032E000C4E94900A4F81431C4F81811A4F81C3139
:1032F0006A6029D96B68D4F8300123F480536B607D
:1033000094F83531042B07BF5D4A5E4B5E4A5F4B34
:10331000C0E90B32B4F81E315D4A426300260A460A
:103320009BB205F10C018663FFF740FA054678B3BE
:10333000D4F8383184F8346143F010030122C4F822
:10334000383184F8352170BDD4F82C016A68806961
:1033500042F48052B0F5806F6A605FD0D4F83001DB
:103360008369B3F5806FCBD16B6823F480536B60B6
:10337000B4F81E3113F0010F6B6869D123F40053C8
:103380006B60B4F81E31C3F34E03A4F81E31B7E7E7
:10339000D4F8D820D4F82C015368D4F8101143F095
:1033A00001035360B4F816310563C0E90D550C32C2
:1033B0009BB2C562FFF7FAF900283DD1D4F8D830A6
:1033C0001A68520625D55A6842F020025A605A6897
:1033D00042F002025A60226894F84430002184F8D6
:1033E0003411002B7FF455AF41F287310CE072B6F7
:1033F00094F8443003B930BF62B6BFF36F8F94F8CE
:103400004430002B7FF445AF23689B1A8B42EED9E2
:1034100070BD1A6842F040021A60D4E713F0010F41
:103420006B6820D123F480436B60B4F81631C3F38A
:103430004E03A4F8163191E7D4F8383184F83451AA
:1034400043F010030122C4F8383184F8352170BDEF
:1034500043F400536B60B4F81E31C3F34E030133E1
:10346000A4F81E314CE743F480436B60B4F8163186
:10347000C3F34E030133A4F816316FE7AC0000200C
:10348000B11E0008311F0008B51E0008B91E000853
:103490008D1E000890B110B50446006948B10A4B72
:1034A00002689A420BD0094B094ADB6B094900209C
:1034B00098472046BDE8104007F08ABA70470023BD
:1034C0000360FDF76FFFF4E70FB03713AC00002087
:1034D000F8FC000800FB00082DE9F041164CDDF86F
:1034E00018804FF48055A5620F46064615461C46C7
:1034F000FFF782FA17B13846FEF702FA16B13046E6
:10350000FEF720FA15B1284607F062FAB8F1000F6D
:1035100002D04046FFF7BEFF64B1206808B107F053
:1035200057FAA06808B107F053FA2046BDE8F04109
:1035300007F04EBABDE8F081000400482DE9F84FCD
:10354000164C0A9EA78D043A043F52087F08974202
:103550000D468146984628BF174601F1040A00240B
:10356000331BBB4228BF3B466FEA84415A1E6FEAB9
:1035700091419B466A8029805A0008EB44015046DD
:103580001C4407F02FF90BF102020023294648469C
:10359000FDF732FFA642E3D8BDE8F88FAC0000206B
:1035A0002DE9F04F254C85B00026CDE90266B4F830
:1035B0002C8001928946002B3AD04FEA5808834666
:1035C000A8F104089A460D461F4626E0019B48F2E2
:1035D00000019A192980631E4FF00001E9806A807A
:1035E000AB806200002105F1080007F0F1F82946E0
:1035F00001235846221DFDF7FFFE02AB03CB2644F4
:103600006960286009EB460559F81600696802AB45
:10361000564503C3A7EB04070AD2B845444628BF62
:103620003C46B845D2D200E0013CE307FCD4CDE7EC
:1036300009F1080005B0BDE8F08F00BFAC00002024
:103640002DE9F04F02EBC30689B07388129F4BB38C
:103650008046894600254FF0010B736853F82540DA
:10366000C4F3017001280CD0022833D0F0B1344BE0
:10367000344ADB6B344900209847002009B0BDE88C
:10368000F08FA3B2194659F8232022F00F0217B188
:10369000C4F3034422434046FDF7E4FE738801353A
:1036A0009D42DAD3012009B0BDE8F08FC4F3445A3B
:1036B0000BFA0AF39F4216D3214A0097013B01936C
:1036C00021490390A3B2D46B204AA047039809B0C4
:1036D000BDE8F08FA3B2194659F8232022F00F025B
:1036E000002FD8D1D4E7A3B243F4204C0393052292
:1036F000012305A9ADF81800CDF81A004046ADF831
:1037000014C0ADF816B0FDF777FE04A90DF11A004C
:10371000FCF788FFCAF1200A4FF0FF33C4F30444DA
:1037200023FA0AFA049B03990AFA04FA23EA0A0222
:1037300007FA04F422434046FDF794FEAEE700BFCB
:10374000AC00002048FD000844F5000810FD00080A
:1037500070B5094E336B05469847044628B12A4692
:10376000002107F035F8204670BDF36B034A044989
:103770009847204670BD00BFAC00002070FD0008D7
:1037800080FD00081C4991F82430012B32D030B460
:103790004C68532301200225CA2281F8255081F864
:1037A000240062626362A36823F48073A360A36849
:1037B00023F48053A360086804E00A68121AB2F583
:1037C0007A7F0DD8E36813F00103F6D00020FF22C2
:1037D0000123626281F8240081F8253030BC7047F3
:1037E000FF200322606281F8243081F825201046F2
:1037F00030BC704702207047AC00002070B5044612
:103800006A4823696A496B4A20604FF07E506060C5
:10381000A160E26023B1684A1968914200F09C807F
:10382000664D674AEB6B674900209847236923B1CF
:10383000614A1968914200F09180EB6B604A6149DE
:103840000020984723692BB15B4A1968914200F028
:1038500089805A4DEB6B5A4A5A4900209847236990
:1038600023B1554A1968914273D0544DEB6B544AB9
:10387000544900209847236923B14F4A196891425F
:103880007BD04E4DEB6B4E4A4E4900209847236942
:1038900023B1494A196891426CD0484DEB6B484AB4
:1038A000484900209847236923B1434A1968914247
:1038B00069D0424DEB6B424A424900209847236948
:1038C00023B13D4A196891425AD03C4DEB6B3C4ABA
:1038D0003C4900209847236923B1374A196891422F
:1038E00058D0364DEB6B364A36490020984723694D
:1038F00023B1314A1968914249D0304DEB6B304ABF
:10390000304900209847236923B12B4A1968914216
:1039100048D02A4DEB6B2A4A2A4900209847236950
:1039200023B1254A1968914237D0244DEB6B244AC4
:10393000244900209847236923B11F4A19689142FE
:1039400015D01E4DEB6B1E4A1E49BDE8704000208D
:10395000184728225A6090E71B4A9A642022A3F84D
:103960004C2071E7022283F85220236979E708226C
:103970009A8370BD0E221A8197E708225A8188E740
:1039800004229A81A9E70122DA74236999E70C22BB
:103990005A83BAE796225A61ABE7032283F82320C1
:1039A0002369CAE717221A83BBE700BF9A99193E19
:1039B0009A99993E040005000FB03713AC0000201F
:1039C000F8FC000800FB00080000A0402DE9F04FC3
:1039D0002DED048B90F838308DB007900393002BB9
:1039E00000F0E7800798828F0469C38FB0F84C50CD
:1039F00034F91210099502465B00408F089001933C
:103A0000002D00F0D6801046526C836CB0F84E50FA
:103A1000B0F840B0DFED708ADFF8C8810A95D3189E
:103A2000029300220901DB4305920B910493914616
:103A3000B6EE009A029A6949134681FB0331D31707
:103A4000C3EBA10101EB4101B2EBC101029A48BFF6
:103A50001831002A09B2C0F2B580604880FB02022A
:103A6000C3EBA20212B20B9B120482FB0356002D81
:103A700076F1000304DA4FF6FF73ED1846F1000605
:103A8000089B19442A0C34F9111042EA0642A2EBB1
:103A9000011207EE902AF8EEE79A69EEA89AB0EEC6
:103AA000690A05F005FEB0EE408AB0EE690A05F03D
:103AB0006DFEBBF1000F6BD0079A136DB2F842A0F8
:103AC00093F800E006930020054647F6FF7709E0EB
:103AD000DDF80CE0E25201351FFA85FCE345504465
:103AE000718052D9019A09EB50039BB202EB830318
:103AF000E618E25E07EE902AB6F9022006EE902A5A
:103B0000F8EEE77AF8EEE66A27EE887A26EE806A23
:103B100067EE807A66EE886A37EE467A77EEA67AA6
:103B2000B5EEC07AF1EE10FAF5EEC07A4CBF37EE82
:103B3000497A37EE097AF1EE10FA4CBF77EEC97A7E
:103B400077EE897ABDEEC77AFDEEE77A17EE10CAF6
:103B500017EE901A17EE102AC445B8BF42464145E9
:103B6000B8BF4146BA42A8BF3A46B942A8BF394693
:103B7000BEF1000FAED19445AAD117EE90CABCEBAE
:103B8000010E18BF4FF0010EA4E7069B83F800E07A
:103B9000059B029A01331FFA83F911460593049A93
:103BA0000A9B1944D31A0493099B02914B453FF693
:103BB00041AF079B186843680DB0BDEC048BBDE8AE
:103BC000F04F1847049B1A46054BA3FB02326FEADD
:103BD000121212B247E700BF00008037ABAAAA2A30
:103BE000ABAAAAAA0080FFFFF8B595692B78B5F8B3
:103BF00002E0144602EB43030F46B3F844606369E6
:103C00000146720003EB4E0006F0FAFDE26D698892
:103C100013780E446E8003B93B791370F8BD00BF72
:103C20002DE9F04F2DED0C8B82469DB090F84E4063
:103C300090F84C000C90042CBAF848000A900591BA
:103C400090461F461AD8DAED107AF5EEC07AF1EEFA
:103C500010FA00F1E9819AF85630DFF8C090002B95
:103C600000F0EB819AF84B30002B00F0E681274AF8
:103C7000D9F83C3026490020984707E0DFF89C90AF
:103C8000244AD9F83C30224900209847DAED117ACD
:103C900099ED4F7AF5EEC07AF1EE10FAB8EE478A58
:103CA00040DDC8EE278AF6EE007A78EEA78A0A9BF6
:103CB000002B3CD107939AF84A300193002B3ED158
:103CC0009AF85030022B41F0EA809AF84E40012CCD
:103CD00000F0C6820024329A019B1471A8F8AC410E
:103CE000002B32D09AF84F30012B00F0AD87022B19
:103CF00000F09987002B00F0B587D9F83C30064AD0
:103D0000034900209847002301931EE0D4FD0008DA
:103D1000ACFD000890FD000890FE0008AC000020FB
:103D2000000000000A9B5FED028A002BC2D09AF8C7
:103D30004E3007939AF84A300193002BC0D0329A44
:103D4000002313710193A8F8AC31059C002C4AD0D4
:103D50002389B4F88610B4F88420B4F88200A8F857
:103D600004109B00B4F88810A8F802209BB203F15D
:103D70003002A8F800006088A8F80610A188A8F80A
:103D8000080092B2E088A8F80A106189A8F80C002F
:103D90005F2A208CA8F80E10618CA8F81210A8F8E1
:103DA000100040F22282C649A1FB0201890901EB01
:103DB0004101A2EB411189B200201A4605460B468B
:103DC00001210324A8F814300023A8F81620A8F82D
:103DD0001810A8F81C50A8F81E00A8F82010A8F881
:103DE0001A40A8F822300199002201237A80BA8172
:103DF0007B81002901F0438015460692039207F16A
:103E00000E0308F13E029FEDAFAADFEDAFAADFED92
:103E1000AF9A9FEDAF9ACDF808A0D346CDF8109099
:103E200008F146060992CDF82080BA469946079ACD
:103E3000EBB29A4200F25881099A0023A9F80030A7
:103E4000A9F8083022F815300135042D09F10209CE
:103E50000BF1100B06F15606E9D157460A9AB989BB
:103E60007B89BDF81800DDF82080DDF81090DDF8C2
:103E700008A0029011FB02F189B20B449BB25A1CBC
:103E80001FFA82FEB8F8ACC1BCF1010F04D1039A4D
:103E90000A9800FB02F203929AF85220BAF85400F2
:103EA0009AF853509AF85640A8F89E21039A4FF674
:103EB000FF7B5A454FEA500628BF5A460338A8F8F8
:103EC000A801033E0298A8F8AA6185F0010592B204
:103ED000A8F8A651A8F8A001A8F8A421B981BB8030
:103EE000A7F806E0002C00F06081413340213B80C0
:103EF00039810124059BA8F8C04113B19B89A8F81A
:103F0000C231019B002B40F05A81329ADAED105AEF
:103F1000002313600C9BA8F8B2310A9B012B40F2DE
:103F20004881BAF848300122023BA8F8AE31A8F81F
:103F3000B0219FED687A9FED686A28EE077AF1EE6E
:103F4000007AC7EE066A68EE277AF5EE405A87EEE9
:103F5000867AC8EE067AB6EE006A76EE866A37EEA4
:103F6000067AFCEEE66A77EE867A16EE902ABCEECA
:103F7000C77AF1EE10FAFCEEE77AA8F8B82117EE4E
:103F8000102A14BF01230023A8F8B621A8F838305E
:103F900017EE902A019BA8F8B421002B00F0F180C5
:103FA000F5EE405AF1EE10FA0CD0C8EE257A37EE55
:103FB000866AFCEEC67A17EE903A1A0CA8F83C30E6
:103FC000A8F83A20DAED117A9AF84A309AF84B209C
:103FD000A8F83030F5EE407AF1EE10FA14BF012364
:103FE0000023A8F83220A8F82A3008D0FCEEE87A9E
:103FF00017EE903A1A0CA8F82E30A8F82C209AF850
:1040000051300198A8F8BE31012140F2FF7240F60C
:104010000103A8F82410A8F8BA21A8F8BC311DB0F3
:10402000BDEC0C8BBDE8F08FDFF8B8902B4AD9F8C7
:104030003C302B490020984728E69AED117AD9EDBB
:104040004F6AB5EEC07AF1EE10FAB8EE668A16DD68
:10405000C8EE078AF6EE007A78EEA78A00F1F980BA
:1040600018EE900A03F0DAFB012908BF002880F05F
:10407000F0809AF84A30002B40F0E28008E000F12E
:10408000E6809AF84A30002B40F0CD80DFED0F8AB1
:104090009AF84F109AF850200A98002814BF20462A
:1040A00000209142079000F2FD83002B40F003872F
:1040B000022A00F0FC86329A1371A8F8AC3111E69E
:1040C000ABAAAAAA2549123ECDCC4C3E0000000066
:1040D0008FC2753D0000964300247449C0FD00085E
:1040E000ACFD0008AC000020099A012322F815302D
:1040F000029BBBF8082093F84C8040F2FF1140F27D
:10410000FF33B8F1000F18BF0B46E2B19A421AD83C
:104110009BF80D30002B6CD19BF80F309BF80E00F4
:10412000002840F05383012B00F0B280DDF810909E
:104130004F4AD9F83C304F49DDF820805746DDF82A
:1041400008A098470CE0DDF810904B4AD9F83C30B5
:104150004849DDF8208000205746DDF808A0984740
:104160000A9AB9897B89BDF81800029011FB02F107
:1041700089B20B449BB25A1C1FFA82FE00220192A4
:1041800080E6DAED117A9AF84A309AF84B20A8F8CE
:104190003030F5EE407AF1EE10FA14BF012300231F
:1041A000A8F83220A8F82A3029E73C81A7F800E0D7
:1041B000A0E60023A8F8AE31A8F8B031B9E69AF825
:1041C0004D10072927D82D4B9FED2D9A0B4493F8BE
:1041D000203AA8F8A231329B83ED009A079B002B6E
:1041E00040F03284DAED105A94E6032001250021D4
:1041F000E7E59BF80F30022B90D1DDF81090214AB3
:10420000D9F83C301B49DDF8208000205746DDF806
:1042100008A09847A4E7329ADAED105A00231360F9
:104220000023019376E6B5EE407AF1EE10FA05D15F
:10423000F5EE407AF1EE10FA40F08385DFED108A5A
:10424000D9F83C30104A0B49002098472FE5DFEDA4
:104250000C8AD9F83C300D4A06490020984726E5DB
:104260009AF80F30013B012B3FF635AD32E500BF28
:104270000CFF0008ACFD0008D0FE000840B50008A7
:1042800000000000E0FE000814FE000800FE000828
:10429000B84BBBF8067003EB8000182FD0F8FC3940
:1042A0000E93BBF804300D9340F2128307EB8703A3
:1042B00003EB031303EB032307EB4303C3F3CC022A
:1042C00042EA43339BB240F6AA22934200F2D882DC
:1042D000A94BA3FB07231B090F93013B9BB214932C
:1042E0005C23109318230B930D98002840F04B8407
:1042F000049BA24ADB6BA2499847B8F1000F00F07B
:10430000CF824FF000080222DBF800300E991944EA
:104310000C4601F5C3430D99283311FB02F2481EE8
:104320004CF2503192B28B420D9207FB004707D9F5
:10433000049B944ADB6B9249002098474FF0000899
:1043400007F5C34328334CF25032934207D9049BFC
:104350008D4ADB6B8A49002098474FF00008002CFB
:10436000C0F26983894BE11783FB0423C1EBA303EC
:104370001AB2002FC0F25583844B83FB0730FB1722
:10438000C3EBA0000E9300B2804B83FB043C92B2BF
:10439000C1EBAC01801A01EB41010F9B1592B4EB0C
:1043A000C10182B2B2FBF3F203B202F10102169331
:1043B0004FF018000B9BB0FBF3F01FFA82FE00F1E8
:1043C00029830FFA81FC89B2704B0B9A83FB073467
:1043D0000E9BC3EBA40303EB4303B1FBF2F402FB1C
:1043E0001414A2B2B7EBC3030E9200F10D831AB2FC
:1043F00019929BB2013882B20E9C0B981A9212FB52
:104400000040BEF1010F80B200F08E82C41A0E9BF4
:1044100018BF01248B4214BF01230023AEEB03021B
:10442000A2EB0402A3B2119497B2179340F08482D6
:104430000023189313931B930E9B89009B00B18755
:10444000F387B8F1000F00F058829BF80E30052B6F
:1044500000F23884474A02EB4303B3F8103A5A0893
:10446000A3F14A00D91E033A80B2143B92B289B23A
:104470000F901293159B1698B186C3F129040F9BD8
:10448000F2861C4423B215931B1A292BA4B207DC15
:10449000049B3F4ADB6B3A49002098474FF00008E5
:1044A000129B159A934207DC049B3A4ADB6B344912
:1044B000002098474FF000080F9B3387109B7487AC
:1044C0002C2B40F261820023A6F85030A6F852301F
:1044D000A6F85430149BA6F84E30189BA6F8483026
:1044E000002F00F035820123A6F84A30139B179A5B
:1044F000A6F84C20002B00F0F9831B9BA6F8423055
:104500001A9BA6F84430119B002B00F0EB83199BFB
:104510000E9A9C1A0B9B94FBF3F4A6F846407A1E65
:1045200097B2A6F84070B8F1000F3ED09BF80A3061
:10453000172B00F2BF81092B00F29A83C3F1090304
:104540001522738032800599002900F074817288E9
:104550009BF80F3001EB4202013B9289B280042BA1
:1045600000F2B084DFE813F01800260118010901F9
:10457000290000BF40B50008ABAAAAAA58FF00084E
:10458000ACFD0008A4FF0008B8FF0008ABAAAA2AE7
:10459000ECFF00080C000108059B9A8C0421002305
:1045A000082A7385318540F227815746DDF820803F
:1045B000DDF808A0DDF81090D2E54FF00008C646FF
:1045C00043464FF4F0504FF478544FF4F86202270A
:1045D0004FF00B0C0821B281F281029AA6F82AC092
:1045E0003785318134827181708292F84D20B8F123
:1045F000000F00F00F81002B00F00C81022A00F266
:104600000C81C1490A4492F81C2AB282059A002AF8
:1046100061D006F114020020012130831182059936
:104620000E93C86E0B908C6EDDF82CC0D1F86480B0
:104630000F940027394604EB1743A3EB0803734597
:1046400088B2674401F1010180F209840F29F2D197
:104650000E9B08460599CF6FD1F878C0D08007EB44
:10466000870405200CEB1441C91A00F1010E3C44EB
:1046700040F196831FFA8EF01428F3D1DDF81090E4
:10468000A24AD9F83C30A249DDF8208000205746E4
:10469000DDF808A0984763E59B490A4492F8202A70
:1046A000B282059ABAB10022328306F11402B8F13F
:1046B000000F40F07781A6F82480A6F81A80A6F8AB
:1046C0001680A2F80880A2F80E80A2F80A80A6F848
:1046D000208000235382BBF808009BF80B20328611
:1046E000012800F0C9800121831EF185B3859BF864
:1046F0000D10BAF80C30F18081F0010171860D992E
:10470000A9F80030A9F808100B449BF80F10AAF87C
:104710000C300129338D6CD002290CBFB0EE496AF0
:10472000B0EE696A01339BB207EE103ABBF8043071
:10473000B8EE477A07EE903AF1EE006A27EE267A55
:10474000F8EE677A06EE900A67EE277AF8EE666A68
:10475000069B67EEA67A194667EE867A002B08BF9D
:10476000114667EE8A7A039B0691FCEEE77A17EE14
:10477000902A13440393FFF767BB4FF00008C64627
:1047800043464FF4C0604FF460644FF4E072022778
:104790004FF0060C08211EE74FF00008C6464346BE
:1047A0004FF400704FF4C064C02202274FF0040C95
:1047B000082110E700204FF40074402203274FF037
:1047C000020C08214FF0960EFA2304E7581EC0B2DF
:1047D00004287FF65DADDDF810904E4AD9F83C30E4
:1047E0004B49DDF8208000205746DDF808A09847A7
:1047F000B6E4B0EE6A6A95E74021328172814FF4E7
:104800000070029A7382B181F181308292F84D205A
:1048100098469E46072A7FF63FAFDDF810903E4A45
:10482000D9F83C303A49DDF8208000205746DDF8C1
:1048300008A0984794E49BF80F30059AB280013B9A
:10484000042B00F23F8301A252F823F061480008D4
:10485000B5470008994700087B470008BB4500089A
:104860004FF000084046C446C64643464FF4007425
:10487000402204270221AEE60023F385B38536E704
:10488000049B264ADB6B224900201490044698477B
:104890000123CDE90F340B93B8F1000F7FF431AD54
:1048A000042231E5D9F83C301D4A194900209847C7
:1048B000FFF701BADDF810901A4AD9F83C301449D4
:1048C000DDF8208000205746DDF808A0984747E42F
:1048D000002FD5D01823B3FBF7F307FB03F3C3F185
:1048E00018039BB21493002BCAD17B1E9B009BB272
:1048F000109301230B970F93F6E46C231293362346
:104900000F933D227D21B5E540B500085C0001080C
:10491000ACFD000834FF00083C00010844FF00081B
:1049200040FE0008240001088C4200F09B82002217
:104930001792184617461192019B1393A0EB0C0097
:104940000B9B90FBF3F00123189383B21B9373E549
:10495000179BA6F84C30139BA6F84A70002B00F06A
:10496000C9811B9BA6F842300023A6F84430119B56
:10497000002B00F0A381199B0E9A9C1A0B9B94FBB1
:10498000F3F4A6F84640CCE5109B1E2B40F289813B
:10499000A3F11E020F23A6F85420A6F85030A6F863
:1049A000523097E501211182002B7FF438AED3807D
:1049B00053801381D38153811F4605990024D1F878
:1049C0005CE0D1F86080214602E016293FF456AE43
:1049D0000EEB1440C01B1FFA81FC444401F101019D
:1049E000F3D4BCF1000F0CD05BB90CF1FF339BB2D8
:1049F00008FB03F80EEB1848A7EB08084045C8BFB2
:104A00009C46A6F820C064E603F1180422B2A3B2C3
:104A10001992EFE401F1180C1FFA8CF10FFA8CFCDB
:104A2000D2E4CF4BF843A3FB00306FEA1010FB1722
:104A300000B20E93A8E4CA4BE243A3FB02236FEA41
:104A400013131AB2E11794E4BCF1010F00F068816E
:104A500007EE902A9FEDC3AAB8EE67CAB7EE089A90
:104A6000F2EE02CAD9ED4F7A9FEDBF0AF8EE679ACF
:104A700080EE290A04F064FE9AF85030022B69EEA9
:104A8000809A00F23A81B94A9AF84E1002EB8300FC
:104A900090ED00DAD0ED03BA002900F0FD81019A13
:104AA000DFEDBEDAB24E9FEDB3BADFEDB3AA002759
:104AB0003D463AE04FF0300B08240AEB05039B7BA0
:104AC000052B47D8AD4931F8133007EE903AF8EE90
:104AD000677A89EEA77A55449AF84E302889A988D2
:104AE00000FB044402346400A4B20137FDB2AB42BF
:104AF00007EE904A87EE2A6AF8EE677A07EE10BA58
:104B0000F8EE476A87EE867AC6EE865A07EE901A66
:104B1000F8EE677A67EE277A77EEA57A77EE8A7AEB
:104B200077EE897A7DEEA7DA3FD90AEB05132D01DE
:104B3000DB7B052B18D8022BBCD8012B1FD0022BF6
:104B400012D10AEB05034FF03C0B9B7B052B4FF07A
:104B50000A04B7D98A4AD9F83C308A4900209847D4
:104B6000F0EE4B7A0022B4E73246D9F83C30854962
:104B7000002098474FF0180B042400229DE74FF0C7
:104B8000480B0C2499E7B8F1000F40F0C6809BF861
:104B90000C30002B00F0E080049B7B4ADB6B7949F2
:104BA000404698470422FFF7AFBBB2B3DFED777AF8
:104BB000DFED716A9FED767ADAED105A329B89EE5D
:104BC000A75AF1EE0C7A85EE266A2CEE27CA7BEE08
:104BD0008DBACCEE067AB0EE006A77EEACCA7CEE07
:104BE000ADDA7DEEABBA6BEE877A77EE867A77EE4A
:104BF000ABBAC6EEAB7AF4EEE75AF1EE10FAC3EDBB
:104C0000007A7FF787A9FDEEE77AD9F83C40614A40
:104C10005C4917EE903A0020A0470023DAED105AC5
:104C20000193FFF777B90023A8F82630A8F82830B9
:104C30009AF85030012B10D0022B2BD013B3D9F897
:104C40003C30554AFFF75CB80022A8F82630A8F897
:104C500028209AF85030012BEED1C8F83430019357
:104C6000FFF773B80123A8F82630A8F82830DFE74B
:104C7000102B94BFC3F11E03C3F11703002233802E
:104C8000728060E44FF00113C8F8343001230193BF
:104C9000FFF75BB80023C8F8343001230193FFF716
:104CA00054B8109B0F2B42D90F3B0F22A6F852305D
:104CB0000023A6F85020A6F854300BE4119BA6F868
:104CC00046302EE4049B2E4ADB6B2E490020984789
:104CD0006C23129336230F933D227D214FF0000861
:104CE000FFF7C8BB119BA6F8463018E4139BA6F843
:104CF000423005E4A6F8427036E6D9F83C30264A40
:104D00002049002098479AF84E30002B85D0DFEDDF
:104D100023BA0022B0EE6BDAC2E60222FFF7F4BA41
:104D2000B0EE49AAF0EE49CAB0EE49CA9AE60023AD
:104D3000109AA6F85020A6F85230A6F85430FFF783
:104D4000C9BB9AF84F109AF85020DFED148A9142AF
:104D50007FF476AAFFF7A0B9DDF80480A0E500BFD4
:104D6000ABAAAAAA9A999D41F902154F68BF0008FB
:104D700034FF0008000000430024744950BF0008BD
:104D8000E0FF0008ACFD00086CFF000800002043B5
:104D90000AD7233C88000108B0FE0008000000008C
:104DA00005280BD000F1FF3E1FFA8EFE07FB0EF424
:104DB0000CEB14441C1BA142C8BF704600210C46DA
:104DC00050801181D181084605991296096F0E9184
:104DD00005990E9E496FCDE9101202E016283FF4A6
:104DE0004DAC06EB1442D21A1FFA80FE0C4400F1BF
:104DF0000100F3D41146DDE91126BEF1000F0FD0FA
:104E00000EF1FF3080B21190DDE9100400FB04F4D4
:104E10000E9800EB1440119C181A8142C8BFA64698
:104E2000A2F80AE0718B0B9800FB01F001460F9885
:104E300000EB1141B1EB08043FF520ACF08B109969
:104E4000B6F816E001FB00F1084607FB0EF10E9FD5
:104E50000CEB114107EB104008440719ADE50E9B20
:104E6000FFF7F8BB98420CBF012700270FD10023A2
:104E7000CDE91733119313931B93FFF7DDBA019A12
:104E800002924FF0020E11460392FEF7FBBF002282
:104E90001792184611924FE55FED40DA86E6329B95
:104EA0001A46019B1371A8F8AC31FEF74EBF0123DF
:104EB0000193FEF70CBF329A00231371A8F8AC31AE
:104EC000FEF710BFDDF81090DDF82080D9F83C30F7
:104ED000084A094900205746DDF808A0984756239C
:104EE00003FB05830022A3F87020A3F86E20FFF7D0
:104EF00037B900BF34FF0008ACFD000870B5FEB044
:104F000004464FF4E2720D460DA8002103AE05F0F1
:104F10005FFC0DAA204605AB00960021FEF780FE3F
:104F200008B97EB070BD94F84B202B46314605A8D9
:104F3000FCF7EAF9F5E700BF2DE9F04F2DED028B04
:104F4000ADF2EC7D8346089302230991029204930B
:104F50009E4C9FED9F8A4FF48055A562FDF74CFD56
:104F6000A561FDF749FDBBF1000F04D0DBF800306F
:104F7000984A934211D0984E984AF36B9849002072
:104F80009847049B012B35D14FF0000948460DF29C
:104F9000EC7DBDEC028BBDE8F08F029B002BF0D0C6
:104FA000DBF808209BF80D3008EE902A0A2B15D864
:104FB000DFE813F02300A4055405B20442042E03D5
:104FC0008B01E7007B000B00230018EE900AFCF732
:104FD00005FC002840F016879BF80D307E4EF46BE0
:104FE000804A81490020A04700238BF80D30049BA4
:104FF000012BC9D001230493AAE74AAB764C059351
:1050000018468C2200211D46079405F0E1FBD4F8D8
:105010003C21DFED765ADFED766A039207EE902AA7
:10502000F8EE677AB6EE006A85EEA77AF4EEE67AD5
:1050300037EE067AF1EE10FABCEEC77A17EE103AA8
:105040009FB200F3D8859FED6B7AF4EEC77AF1EE4C
:1050500010FA00F1D085A7F110039BB2EF2B40F2BC
:105060001A869FED657ADFED656A079E77EE877A8F
:1050700037EE877ABCEEE76ABCEEC77A16EE104AC6
:10508000B8EE477A77EEC77A67EEA67AFCEEE77A53
:1050900017EE905ACDE90045594BF46B594A5A49DD
:1050A0000020A0479BF80D3099E718EE900AFCF716
:1050B00095FB002890D06023029918EE900A0022F8
:1050C000FEF76EFA7AAB04460693861C98460027D4
:1050D00040F6B73536F9271034F9270001FB01F304
:1050E00000FB0033AB4207F101077FF775AFFBF719
:1050F00083FF302F48F8040BECD1069B79AC0DF1FF
:10510000C60521462A4603F15C0651F8043F002BF0
:10511000B8BF0F3302321B118E421380F5D10698AF
:10512000FBF7D4FB002254F8043F216EA642A3EB08
:1051300001031A44F7D1354B83FB0231D317C3EB7C
:10514000A11303F5994230324CF662118A423FF6C0
:1051500043AF53AA0DF1F60035F8021F22F8021FE3
:10516000A842F9D118EE900A40F27B41ADF87E31A9
:10517000FCF7A4FA00283FF42FAF09238BF80D3079
:105180002DE218EE900AFCF729FB00283FF424AF2B
:105190004AAB1C4605930299102318EE900A002290
:1051A000FEF7FEF9B4F85830002403F01F0CC3F3E7
:1051B00044179B0A0CF1300C3037A3F1200500F1A5
:1051C000020E0394A246A146264629E000040048A8
:1051D000000040420EB03713AC00002088FA0008EF
:1051E000A0FA00084C01010870010108F902154FEE
:1051F0008096984C8096984BBD37063500247449AC
:105200007403010884010108B0010108ABAAAA2AAD
:1052100052454E4600F2C88691460134082C27D0EC
:1052200030F924303EF924200CFB03F302FB05F88F
:10523000002B02FB07F2B8BF3F33B8F1000FB8BF35
:1052400008F11F08002AB8BF3F329B1103EB681317
:1052500042F38F121BB202FB02F203FB0322B242A3
:10526000A1B2DAD94A45D3D80134082C1646D7D191
:10527000B6EB5A0FBFF4B0AE059D03980090DB4A21
:10528000DB4928840B2318EE900AFEF7D9F9002396
:10529000D64AD749009318EE900A0923FEF7D0F9B1
:1052A0007E23D3490093D14A18EE900A0A23FEF7D1
:1052B000C7F918EE900A40F25241FCF7FFF90028B6
:1052C0003FF48AAE8BF80D4089E118EE900AFCF7A6
:1052D00085FA0B9000283FF47FAEC64B07934AAA8D
:1052E000D3F83C310592C44A0299BDF8A851A2FBFB
:1052F00003239C0918EE900A4FF440730022FEF736
:105300004FF97AAB05FB04F70C90851C069379AE38
:105310000DF2E474B5F9001035F9020CFBF76CFEE0
:1053200046F8040FB44205F10405F3D10023994671
:10533000CDE93233CDE93433CDE93633CDE93833F5
:105340000A93069BAD4E32ADAA4603F15C0807EB0B
:1053500047044FF6FF730D954D46D146C246DDF822
:105360002C800393E400AAF15C00FBF7AFFAAAF1EA
:1053700060004FF0000E50F8043F026E8245A3EB30
:1053800002039E44F7D1BEF1000FC0F218854FEA28
:105390009E1040F6945303FB00F0400D07FB00F015
:1053A00004EB1020C9F8000025B159F8043C8342F1
:1053B00040F2B186D9F80030A3F16673A3F54A3301
:1053C000203B002BB8BF5B42B34203D21E4603957D
:1053D000CDF828806A1C95B2082D09F104090AF15C
:1053E000C00AC0D10A9B0D9D002B00F09486844812
:1053F000059E039900913724718480F824407C49EC
:105400007A4A18EE900A0C23FEF71AF918EE900A61
:1054100040F21641FCF752F9002800F0A5840C9BDD
:105420002E46194603F1C00403F5D867F7EE006A6B
:10543000A4F1C0034FF0000CB3F90200B3F900204F
:1054400000FB00F0043302FB02029C429444F3D1BF
:1054500007EE90CAB8EE677AC034C7EE087AA74262
:10546000B1EEE77AC6EE877AE6EC017AE0D10C9BE2
:1054700003F5C062069BB1F90000F5EC015A06EE97
:10548000100AB1F9020006EE900AB1F9600007EEC9
:10549000100AB1F9620007EE900AB8EEC66AF8EE9B
:1054A000E66AB8EEC77AF8EEE77A26EE256A66EE87
:1054B000A56A67EEA57A27EE257A26EE065A67EEEC
:1054C000075A26EE266A27EE277A66EEA66A67EE68
:1054D000A77AC0318A4283ED005A83ED016AC3ED99
:1054E000026AC3ED185A83ED197AC3ED1A7A03F1F3
:1054F0000C03C0D11AAB0698039319461022FBF790
:10550000B9FC002800F03084039BDFED3E4A93EDA8
:10551000006A93ED015AD3ED026A9FED3B4AF1EE2A
:10552000C67A1A46B1EE007A26EE076A25EE057AAB
:1055300026EE266AF6EE005A36EE476AC5EEA76AF0
:10554000B1EEC67AB6EE086A77EEC67A26EE877AAC
:1055500067EEA47A66EE856AB7EE005A37EE467AB1
:1055600076EE856A77EEA57AB3EE0F6A66EE846A08
:1055700027EE247AF4EEC67AF1EE10FA76EEA56AFA
:1055800037EE257A00F31884F5EEC07AF1EE10FAC2
:1055900048BF002341F19380DFED1C7AF4EEE76A07
:1055A000F1EE10FA40F3F8836FEA83536FEA9353F6
:1055B000F3EE0F7AB4EEE77AF1EE10FA00F3E98336
:1055C000B5EEC07AF1EE10FA48BF002241F16E80CC
:1055D000059913430722A1F858308BF80D20FAF7EC
:1055E000F7FD00287FF4BFACCBE400BF80BF00080C
:1055F00054C90008AC000020D34D621040420F0097
:1056000000000020000080420000004200007C42B8
:1056100018EE900AFCF7E2F800283FF4DDAC02999E
:10562000DFF8EC82B64F4FF4407318EE900A002278
:10563000FDF7B6FF11AB0B930793002305937AABED
:1056400000F5C06106931AAB0A9132AD039349AEDF
:105650008146CDF830B0DDF80CA04C46B4F902100C
:1056600034F9040BFBF7C8FC4AF8040B5545F5D197
:105670000DF1C40BDA464C46B4F96210B4F960007F
:10568000FBF7BAFC4AF8040F564504F10404F3D1C1
:10569000DDE9052319AC981800215BF8043F54F8A4
:1056A000042F9B1A434540F3D682A3F5C9237E3BC2
:1056B0004345FADC002BB8BF5B429942B8BF19469C
:1056C0005E4540F8043BE8D1079B491043F8041FAE
:1056D0000793059B603305930A9B09F1C0094B456D
:1056E000B9D10020DDF830B00B9C0146034654F8D8
:1056F000042F8A42C8BF184603F10103C8BF1146F0
:10570000082BF4D112AB00EB400153F82040069B6C
:105710000DF1C70203EB41110DF1DF0051F8043B1D
:10572000A342ACBF0023012302F8013F904213764D
:10573000F4D100210C460123002C00F09082EA5C99
:10574000002A00F01B830133302B01F10101F3D15A
:10575000A1F10C03082B3FF63FAC04EB51011729D4
:1057600002D918391729FCD889B28A0092B202F1FD
:105770003004A4B25F2CADF8301140F2D284614BFA
:10578000A3FB04139B0903EB4303A4EB43139BB25A
:105790000026144637461A4601255B49009221230C
:1057A0005A4A18EE900AFDF74BFF584A56490094A2
:1057B000222318EE900AFDF743FF0324534A52496F
:1057C0000095012318EE900AFDF73AFF4F4A4E4923
:1057D0000094022318EE900AFDF732FF4B4A4A4923
:1057E0000097234618EE900AFDF72AFF474A4649DC
:1057F0000096042318EE900AFDF722FF434A42491F
:105800000095052318EE900AFDF71AFF00233E4984
:1058100000933E4A18EE900A0623FDF711FF18EE9A
:10582000900A4FF47B71FBF749FF00283FF4D4AB9B
:1058300006238BF80D30D2E618EE900AFBF7CEFF68
:1058400000283FF4C9AB5023029918EE900A0022B9
:10585000FDF7A6FE00F1A00305930DF59973CDF8B1
:105860000CB04FF0300A9B46DFF8A880B0F900205A
:105870004FF0000E47F6FF7CF146664604464FF6B1
:10588000EC716FF01B03454615E06245BCBF9E46B8
:105890009446242917D034F9022F34F8023CD31A45
:1058A0001BB29E42A8BF1E4601F108079D42B8BF29
:1058B0001D460BB2B9B2002AE7DA4245E9DD2429D8
:1058C00099469046E7D1A5F51C55103DADB244F67A
:1058D00020639D420FD876B918F5004F47F6FF7345
:1058E00000F0B5839C4500F0ED84AEEB090EBEF1EF
:1058F000080F00F02285DDF80CB0FFF76DBB00BF8C
:10590000C1DBFCFFABAAAAAA54C9000880BF0008EB
:105910003F2403000080FFFF18EE900AFBF75EFFB4
:1059200000283FF459AB0299002218EE900A202378
:10593000FDF736FEB0F90020044601211546002689
:10594000134634F9022FC3F5487313449BB2B3F5E1
:10595000C86F3FF641ABAA42A8BF0E4601F1010154
:10596000A8BF15462029EBD1072E00F2EA830023B9
:1059700006F10802D21A002A00F0B4857AA9D418D8
:1059800000EB4404069100EB430030F9025B07EEA4
:10599000105A03FB03F506EE903A07EE905AB8EE64
:1059A000C77AF8EE677AF8EE666A844281ED007A8B
:1059B000C1ED017AC1ED026A03F1010301F10C01AD
:1059C000E3D132AD06982946FBF754FA00283FF49C
:1059D00003AB95ED006AB5EE406AF1EE10FA3FF4C4
:1059E000FBAA95ED017AB5EE407AF1EE10FA3FF49C
:1059F000F3AAD5ED026AF1EE666AC6EE877AF5EE95
:105A0000C07AF1EE10FAFFF6E7AAB1EE477AC7EED8
:105A1000066AF5EEC06AF1EE10FA7FF5DDAAB7EE80
:105A2000007A77EE877AFCEEE77A17EE903A9AB230
:105A30003F2AC3F34E033FF6CFAA83F0100318EEBC
:105A4000900A4FF44571ADF82E31FBF737FE002870
:105A50003FF4C2AA04238BF80D30C0E518EE900A7B
:105A6000FBF7BCFE044600283FF4B6AA029918EEE4
:105A7000900A41230022FDF793FD0021B0F820A0F9
:105A8000CDF814A0A0F1020889464FF6FF7C8A46A3
:105A90001DE030F9115038F911E005F57A72A5EBE7
:105AA0000E059D42FFF698AAB5423FF795AA002A37
:105AB000B8BF524292B2624505D24FEA8709944676
:105AC0001FFA89F9A2460F2F00F0738201314B1E95
:105AD00003FB03F3C3EBC3035E0006F51676C83B76
