:020000040800F2
:1000000000000120DDDF0008D1BF0008CDBF0008DF
:10001000C9BF0008C5BF0008C1BF0008000000003C
:10002000000000000000000000000000B9BF000850
:10003000BDBF000800000000B5BF0008A5BF000854
:100040002DE000082DE000082DE0000861BF000849
:100050002DE000082DE000082DE000082DE000084C
:100060002DE000084DBF00082DE000082DE000083D
:1000700041BF000835BF00082DE000082DE0000852
:1000800029BF00081DBF00082DE000082DE0000872
:100090002DE000082DE000082DE000082DE000080C
:1000A0002DE000082DE000082DE000082DE00008FC
:1000B0002DE0000800000000000000002DE0000816
:1000C0002DE00008FDBE00082DE000082DE000082E
:1000D0002DE000082DE0000821BC00082DE00008FC
:1000E0000DBC000809CE0008000000000000000060
:1000F0000000000000000000000000000000000000
:10010000000000002DE00008000000002DE00008C5
:1001100000000000000000002DE000082DE00008B5
:100120002DE000082DE000082DE000082DE000087B
:100130002DE00008000000000000000000000000AA
:100140002DE000082DE000082DE000080000000070
:100150002DE000082DE000082DE000082DE000084B
:100160002DE000082DE000082DE000080000000050
:100170002DE000082DE00008000000000000000055
:100180002DE000082DE000082DE000080000000030
:1001900010B5054C237833B9044B13B10448AFF3C1
:1001A00000800123237010BD90000020000000009B
:1001B000D415010808B5034B1BB103490348AFF33D
:1001C000008008BD0000000094000020D415010844
:1001D0000F49104A086813691B0704D50D4B1869AD
:1001E000C0F3C00070470B681B1AB3F57A7FF5D2D5
:1001F00072B613691B0700D430BF62B6BFF36F8FAE
:1002000013691B07EFD5034B1869C0F3C000704793
:10021000AC0000200004004809494A68D36823F074
:10022000A003D360086804E00B681B1AB3F57A7F5B
:1002300004D8D3689B06F7D5002070470320704789
:10024000AC0000200288438843EA02430B607047F9
:10025000DFF880C02DE9F04F023802390CF1E209D5
:100260000CF1E40B4FF0000A40F6DE1830F8025FA4
:1002700031F8024FA54220D09CF800400BEBC4049B
:10028000658825B36768002607EB850E47F6FF757E
:1002900057F8044BA4B2A54228BF2546A64238BF52
:1002A0002646BE45F4D17600B6B26D00B24538BFE1
:1002B000B246ADB2A84528BFA8460CF1010CCC450A
:1002C000D4D1A2F80080A3F800A0BDE8F08F4FF6CB
:1002D000FE75EFE7F01501082DE9F04F054687B0F0
:1002E000002405EB410E0290059210460491039301
:1002F000AEF1120EAA1EA4460194A246A3460127FF
:1003000040F2EE2914E0BBF1000F2ED1534532DD4F
:100310009A460124019E7642B342BCBFA8EB050376
:1003200001938C4538BF8C46964500F1020027D0DA
:10033000558A32F8021F6B1A03F50046B6F5803F66
:1003400038BF038088462CBF002711884B45DADC74
:10035000564E9A45B8BF9A46B342DBDA002C0ABF24
:100360000027A3464FF0010BD4E7534505DD9A461D
:100370005C460027CEE70124CCE75C460027C9E7AE
:100380002FB94FF0000B584607B0BDE8F08F002C96
:10039000F7D0BBF1000FF4D0049A059ECDF810C041
:1003A0000023CDF814A0A2F11C08123699469E46EF
:1003B0001F469C469A4636F9023F03EB830203EB45
:1003C0004203344630460A2130F9025D34F9022FE7
:1003D00001FB053301FB02330139F5D1734561DCC3
:1003E0004B4501DA9946BA4601374745E3D14CF20D
:1003F00050339E4560465446DDF810C0DDF814A029
:10040000BFDD2B4B9945BCDABAF1000FB9D0019B87
:10041000002BB6D0029B119A1B884FEACC0CDB0054
:1004200042B1634504D2D94351446144B1FBFAF16E
:10043000119A1160109A002AA5D0039A002AA2D01E
:10044000024602990E3231F81210B3EBC10F4FEA97
:10045000C10005D2DB4353440344B3FBFAF3D21A81
:100460002046029B0E3033F81030BCEBC30F4FEA2E
:10047000C30106D9019C631E63445B1AB3FBF4F30A
:10048000C01A002AFFF67DAF0028FFF67AAF82423D
:100490003FF777AF109BA0EB020AC3F800A0039BC5
:1004A0001A6070E79E46BC469EE700BF12FDFFFF44
:1004B000B03CFFFF704700BF70B4124E124D00F108
:1004C000BC04002143680B44024640F8043F126814
:1004D0009A1AB24209DD50F8042CA3F5C9237E3BD9
:1004E000A1F5C92103607E399A1AAA4206DA03F5FA
:1004F000C9237E3301F5C92103607E318442E1D1F5
:1005000070BC70473F240300C1DBFCFF07EE900A7C
:10051000DFED1A6A9FED1A7AF8EEE77A67EEA67AAF
:10052000F4EEC77AF1EE10FA01D5012920D09FED43
:10053000157AF4EEC77AF1EE10FA17D4B1EE0C7A10
:10054000F4EEC77AF1EE10FA16D49FED0F7AF4EEBE
:10055000C77AF1EE10FA0DD49FED0C7AF4EEC77A5B
:10056000F1EE10FA4CBF04200520704701207047BF
:100570000020704703207047022070470AD7233BB2
:10058000666646403333A34033334B410000944109
:100590000138C0B204289DBF034B03EB800090EDEF
:1005A000000A9FED020A7047641E01080000000067
:1005B00070B1012809D008B5074B084A9B6B084960
:1005C000002098479FED070A08BDB0EE000A70476B
:1005D000B1EE000A704700BFAC000020485501088A
:1005E0006055010800000000D0ED007AF5EEC07AF9
:1005F000F1EE10FA10B504465CD40120D4ED017A76
:10060000F5EEC07AF1EE10FA08D52E4B2E4A9B6B10
:100610002E4900209847D4ED017A002094ED007A0D
:10062000B4EEE77AF1EE10FA08DD264B284A9B6B10
:10063000264900209847D4ED017A0020B3EE077ACE
:10064000F4EEC77AF1EE10FA06DD1E4B214A9B6BE1
:100650001E49002098470020D4ED037ABAEE047AB0
:10066000F4EEC77AF1EE10FA1CD49FED1B7AF4EE8B
:10067000C77AF1EE10FA15DCD4ED087AF5EEC07AFF
:10068000F1EE10FA06D4B7EE007AF4EEC77AF1EE86
:1006900010FA06DD0B4B114A9B6B0C490020984762
:1006A000002010BD074B0E4A9B6B0849002098475D
:1006B0000020E1E7034B0B4A9B6B0449002098475D
:1006C00000209BE7AC000020B855010894550108B4
:1006D000D0550108EC55010800000C4240560108B5
:1006E000145601087855010808B5FFF751FF9FED32
:1006F0001A7AC0EE077AB5EE007A67EE877AFCEEDA
:10070000E77A17EE903A98B211B1884228BF0846AE
:10071000182817D8A0B11822B2FBF0F300FB03F39E
:10072000D31A9BB243B90CE0B2FBF0F300FB03F326
:10073000C3F118039BB223B1013880B20028F3D172
:10074000012008BD054BA3FB0030000900EB400071
:10075000C00080B208BD00BF0AD7233BABAAAAAA3B
:100760000379022B30B413D1D0F89850D0F8A440BC
:10077000D0F8C820D0F8D4300D440C440A440B44BF
:10078000C0F89C50C0F8A840C0F8CC20C0F8D830C1
:1007900043794BB9D0F8B030D0F8BC200B441144A9
:1007A000C0F8B430C0F8C01030BC704708B518B1FC
:1007B000064B02689A4207D0054B064A9B6B0649D6
:1007C00000209847002008BD407908BDE1AFA10F87
:1007D000AC000020705601088C56010808B518B10D
:1007E000094B02689A4207D0084B094A9B6B09499A
:1007F00000209847002008BD0079A0F10200B0FA5F
:1008000080F0400908BD00BFE1AFA10FAC0000209F
:10081000705601088C5601082DE9F04FB1F1010A1C
:1008200085B043D04FF0000984469046CE466E46D0
:10083000BAEB0E0E33D000252F4618E0B4EEE66A70
:10084000F1EE10FA4CBF012300230135ADB22F4663
:100850005BB19BE80F0086E80F0094E80F008BE87F
:100860000F0096E80F0084E80F00754517D20CEBD7
:1008700007140CEB071B10349BED007A9BED026A0A
:10088000D4ED007AD4ED026AB8F1000FD6D1B4EEFF
:10089000E77AF1EE10FACCBF01230023D5E709F186
:1008A00001091FFA89F9D145CE46C1D305B0BDE88B
:1008B000F08F00BF5FEA510C1DD0F0B40CF1FF3C8B
:1008C0001FFA8CF3013900F1080C0CEBC30C8AB24F
:1008D000034600EBC2011D680F684E685C6843F870
:1008E000087B013A634543F8046C92B20D604C609A
:1008F000EFD1F0BC70477047F0B4BDF91040BDF8BF
:10090000187005EE104ABDF81440002B00F08680E8
:10091000002F00F08380013F5E1EBFB2B6B204EE2E
:10092000104A02EB470702EB460601F1FF3C023A90
:10093000DDE90741F7EE004AFEEE003A0FE0F8EE7F
:10094000C57A67EE807AC4ED007A03680B60B24224
:1009500004F1040401F1040160D0BA425ED032F81F
:10096000023F002BEBD05D1C634500EB8505EED20A
:1009700007EE903A15ED026AD5ED005A55ED016A81
:10098000F8EE677A35EEE67A37EEE43A76EE655AB7
:1009900076EEC66A65EEA75A77EEA42A27EE037AAA
:1009A00077EEA77A37EE257A62EEA65A77EEE47AEA
:1009B00037EE257AF8EE445A27EE237AB24267EEF4
:1009C000877A37EE072A76EEE77A63EE076AF1EE6A
:1009D000671AC1EE822A04F1040401F1040166EEF3
:1009E000836A27EE227A36EE666A23EE273A27EEEE
:1009F000227A65EEA26A67EEA27AF8EEC55A77EE21
:100A0000277A36EE436A36EEA57A76EE277A27EE17
:100A1000007A04ED017A41ED017A9ED1F0BC704775
:100A200007EE900ADFED196A9FED197AF8EE677A02
:100A300067EEA67AF4EEC77AF1EE10FA01DC022036
:100A40007047F5EE006A60EE266AB7EE006A86EE41
:100A5000A77AB4EEC67AF1EE10FA15DDBCEEC77ACD
:100A600017EE103A9BB2B1EE007A20EE070AB6EE0E
:100A7000007A20EE070A80EE277AFCEEC77A17EE9E
:100A8000900A184480B270470123ECE70AD7233B51
:100A9000ACC52737431EDBB2042B10B5044697BF05
:100AA0001448DFED155A00EB8303D3ED005A032AF7
:100AB00002D0B0EE650A10BD2046FFF715FE0246D3
:100AC0002046FFF765FD1046FFF7AAFF07EE902AC4
:100AD000DFED0A6A07EE100AF8EE677AB8EE477A99
:100AE00067EEA67A67EE877A75EEA75AB0EE650ACA
:100AF00010BD00BF781E0108000000000AD7233B8C
:100B000030B5857A027C018983B00446284601927B
:100B1000FFF7C0FF019A0120B0EE405AFFF7BAFF7D
:100B2000D4ED017AF4EEC07AF1EE10FA05DC94F817
:100B3000243013B1002003B030BDD4ED007AF4EEC0
:100B4000C57AF1EE10FAF5D5681E18BF0120F2E75C
:100B500000B583B0019119B9012003B05DF804FB21
:100B6000FFF716FDDDED017A9FED077AF8EE677A63
:100B700067EE877A80EE277ABCEEC77A17EE103AD6
:100B800098B203B05DF804FB0AD7233BF8B51E46C4
:100B900007460D46FFF7DCFF11FB00F4A4B20AB1D3
:100BA0006400A4B2032E01D02046F8BD3846FFF7FA
:100BB000EFFC2846FFF734FF15FB004084B22046C7
:100BC000F8BD00BF91ED007A92ED006AD2ED016AA6
:100BD000D1ED014A67EE065A26EE244A67EE267AE0
:100BE00066EEA44A002B42D0013B9BB22DED028B56
:100BF000D0ED001A90ED012AD0ED022A90ED033AD3
:100C0000D0ED043A02EBC30304E0D2ED036A92EDA7
:100C1000026A083221EE865A21EEA67A35EE255A6E
:100C200037EE277A62EE065A62EE267A75EE845A1D
:100C300077EEA47A23EE058A23EE850A22EE866AF1
:100C400063EE070A23EE871A62EEA66A9A4275EEF1
:100C5000C85A36EE404A77EEE07A76EEC14A82ED27
:100C6000005A82ED017AD0D1BDEC028B70477047FB
:100C7000024B034A9B6B034900201847AC0000203D
:100C8000A8560108C456010838B520B10E4B0268B9
:100C90009A42054603D0FFF7EBFF002038BDB0F8BD
:100CA0004430002BF9D0002403E0B5F844309342DF
:100CB000F3D9A3B20233013455F82300FFF78EFDB8
:100CC000A2B20028F1D038BD52D1C0AC024B034AC9
:100CD0009B6B034900201847AC000020E456010834
:100CE000FC560108024B034A9B6B0349002018473E
:100CF000AC00002010570108FC56010808B518B1D7
:100D0000064B02689A4203D0FFF7E0FF002008BDBF
:100D1000406D003818BF012008BD00BF30D1C0AC05
:100D200008B518B1064B02689A4203D0FFF7CEFF10
:100D3000002008BD006D003818BF012008BD00BFAD
:100D400030D1C0AC08B590F8403013B9BDE80840C8
:100D5000D4E7FFF7E5FF80F00100C0B208BD00BF97
:100D6000836910B50446BBB10D4B93F840204AB9D6
:100D700063697BB10A4B0B4A9B6B0B490020984778
:100D8000002010BD9B6B094A074901209847636901
:100D9000002BEFD1012010BDC369002BE4D1E7E7A0
:100DA000AC0000206057010844570108285701088B
:100DB000704700BFD0E90F23816B0069184700BF5F
:100DC00000688368184700BFFAE700BF70B4016984
:100DD000B0F8422090F8383031F81220032B08BFC9
:100DE00082F4004240F2E51303FB02F31B0C826C19
:100DF000A3F589739BB21380828F31F812204AB118
:100E0000B0F8402031F81220012A03D9C26C012425
:100E1000147002E0C26C00241470C48F428F31F849
:100E2000145031F81240B0F9441040F2E51202FBC0
:100E300005F2120CC2F5897213441BB2002BB8BF25
:100E40005B42D0E914651BB2A4F10102006899422B
:100E5000B2FA82F24FEA5212ACBF00230123327081
:100E600042682B7070BC104770B50446806978B139
:100E7000E36943B10F4B93F8402022B19B6B0E4ABC
:100E80000E49012098472068BDE8704083681847E4
:100E9000084D0B4AAB6B09499847E3693BB195F89C
:100EA000403023B1AB6B044A04490120984700202D
:100EB00070BD00BFAC000020B4570108A457010862
:100EC000885701080068C368184700BFFAE700BFE9
:100ED000F8E700BF2DE9F047C26DD0F81880066929
:100EE0000023A8F8023004461D46137000F14C0799
:100EF000994657F8043B03B3B3F838C0B3F89000F1
:100F0000B3F89210B3F8D82006EB400006EB41018D
:100F100006EB420206EB4C0CC3E91301C3F8A42014
:100F2000C3F814C088F800501868D3F8DC20416872
:100F300083F8E490C3F8E02088470135EDB2042D32
:100F4000D7D12068BDE8F04743681847704700BF15
:100F5000704700BF704700BF704700BF52B101EB40
:100F60008202043850F8043F4B801B0C0B80043184
:100F70009142F7D1704700BF30B583B000EB42001B
:100F80000D4601A91C46FFF75DF9019A22F00F02F8
:100F900004B12A430092014601226846FFF7DEFFB2
:100FA00003B030BD2DE9F04F87B0BDF84070DDF8DB
:100FB00044A003EBC7077B8883B381460E4601EB51
:100FC000020800254FF0010B7A6852F825406200B4
:100FD00092B2B242C4F301701DD342451BDA01281C
:100FE0000CD0022836D0E8B1324B334A9B6B3349E0
:100FF00000209847002007B0BDE8F08FBAF1000349
:10100000A2EB060218BF012392B2C4F30341484683
:10101000FFF7B2FF7B880135AB42D5D8012007B07E
:10102000BDE8F08FC4F344530BFA03FC921BE24576
:1010300091B21ED30CF1FF331E4A0193CDF800A0EC
:10104000946B1F4A03900B461C49A047039807B0B6
:10105000BDE8F08F921BBAFA8AF35B0992B2C4F32F
:1010600003414846FFF788FF7B880135AB42ABD888
:10107000D4E709EB410004A90393FFF7E3F8039BCE
:101080004FF0FF32C3F12003C4F3044422FA03F308
:10109000049AA34022EA03020AFA04F40146144324
:1010A00005A801220594FFF759FF7B880135AB4263
:1010B0008AD8B3E7AC00002008580108FC570108A3
:1010C000C45701082DE9F04FC2F51D669A461B680A
:1010D000164C0E36B34298BF9EB2154B054688BFDC
:1010E000B6B2500803EB800083B0174672088846FA
:1010F000023DFFF733FF04F1E10904F1E40B7D2326
:1011000001E014F8013F35F8022F3946CDE90032ED
:1011100040465B463246FFF745FF4C4501D000286C
:10112000EFD1CAF8006003B0BDE8F08FF0150108F8
:10113000782901082DE9F04F02EB420C00EB8C0CF2
:101140008DB000268346824680466746B14603A896
:101150004FEA890586469FED577A43466AB19C1946
:101160002C44D4ED007A1C46D4ED006A0C3367EEB3
:10117000A67ABB4237EE277AF1D104350C2DAEECBE
:10118000017AE8D109F10109B9F1030F00F110006A
:1011900008F10408A6F1040607F10407D8D19DED73
:1011A000046ADDED055ADDED086A68460BF10C04B2
:1011B000DFED407A53463AB11D4695ED007A0C3387
:1011C000634577EE877AF7D10AF1040AA245E0EC8D
:1011D000017A0CF1040CEBD1DDED037AF5EE407AE7
:1011E000F1EE10FA10D0B7EE007A87EE274ADDED67
:1011F000077A66EE044A26EE245A77EEC57AF5EEB3
:10120000407AF1EE10FA06D100200023CBF800302E
:101210000DB0BDE8F08FC7EE272A65EE843A25EEC3
:10122000A47A66EE237A9DED0B5A76EEE77A36EED7
:10123000C77A67EEA27A65EEA36A75EE666A27EE54
:10124000275A76EEC56AF5EE406AF1EE10FADBD069
:101250009DED005A9DED013A9DED022A64EE854A0E
:1012600063EE853A73EE644A012067EEA47A0023A8
:1012700072EE677A77EEE33AC3EEA67A27EE277A24
:10128000C1ED027A34EEC77A65EEA75A67EE227A8C
:1012900026EE276AC1ED017A35EE466A76EE655A8A
:1012A00025EE844A81ED004ACBF800300DB0BDE850
:1012B000F08F00BF00000000B1B101440B4A30B410
:1012C0004D1E411E4FF0FF3011F8014F08236040C2
:1012D000C4074CBF82EA50004008013BF8D1A94244
:1012E000F2D1C04330BC7047084670472083B8ED48
:1012F0000028B8BF404270B4BABF00B20124002435
:1013000000293FDB884238DB0022034668B30846E9
:10131000002643F628450004B0FBF3F1A9424AD960
:1013200046F2D633994236D948F67203994244D9E7
:101330004AF64943994242D94DF2A303994240D912
:101340004FF24B73994298BF052025D94FF24C7547
:1013500048F233234CF2A340491B03FB01F100EB9D
:10136000114016B1C0F5C9301F3014B1C0F5493075
:101370003F3002B1404270BC70470B46C1B91248C1
:101380000A46F2E7494209B288424FF00102BCDA4C
:101390000B461646BDE701200C4B03EBC00503EBE3
:1013A0008003D5F8A008D3F8D438D5F89C58D3E7F3
:1013B00000220126ADE70020EEE70220ECE7032043
:1013C000EAE70420E8E700BF1F920100F0150108DA
:1013D00010B4084C248D490864088C4228BF0C4680
:1013E000023C24F00104043010601C605DF8044BE2
:1013F000704700BFAC000020F8B50688002A14BF73
:101400004FF480524FF40052B6F59C6F38BF4FF442
:101410009C66B24205460F461C4623D2134B144A23
:101420009B6B1449002098474FF0000E1249134A55
:10143000134BE360C4E901120FCD203676004FF064
:10144000000CA4F802C004F1300C24F8106B0FC497
:1014500095E80F0007C497E8030023808CE8030099
:101460007046F8BD4FF0010EE0E700BFAC00002071
:101470002C5801084C5801080100020003001B0011
:101480001C0020000368D0F8E820C0F8F0205A685B
:101490001846104738B5064DEB6A9847044608B120
:1014A000204638BDAB6B034A03499847204638BDF8
:1014B000AC0000206058010870580108DFF864C0D3
:1014C0002DE9F047DCF83C501DB12B46BDE8F04754
:1014D000184712B35200A1F10208A2F102090E4608
:1014E0009A4607464944444634F8025F6DBA8C4236
:1014F0002580F9D1DCF8344038463146A047BAF1AE
:10150000000F01D1BDE8F0874E4438F8023F5BBAC6
:10151000B045A8F80030F8D1F4E7BDE8F047DCF8B2
:1015200034301847AC00002070B5012584B041F478
:10153000A0430446164603A92A4601A8ADF8083080
:101540000196ADF80A50FFF709FD204602A90023D5
:101550000422FFF7B3FF04B070BD00BF2DE9F047D0
:1015600082B01D4643F44053BDF82840ADF800302A
:1015700000278A4691466946012303228046ADF83A
:101580000270ADF80470FFF799FFBDF9046004FA2A
:101590000AF1714001EA090445F4805540463B4692
:1015A000694674400222ADF80050ADF80240FFF7E2
:1015B00085FF02B0BDE8F08730B583B0002529462D
:1015C00000957B23FF220446FFF7C8FF0121204638
:1015D00000918B230222FFF7C1FF009520468B2349
:1015E00080220721FFF7BAFF03B030BD30B583B0CA
:1015F00041F4805415460023022201A9ADF80440AD
:10160000ADF80650FFF75AFF03B030BD30B583B0D8
:1016100041F4405114460025ADF800100123032287
:101620006946ADF80250ADF80450FFF747FFBDF82A
:101630000430238003B030BDF0B585B0002401290B
:1016400007461646ADF80E4038D0022933D0224B5B
:1016500022499D6B224A03462046A84721460DF1A8
:101660000E023846FFF7D2FFBDF80E30738003F04C
:101670000705012D358024D013F0060F0BD16DB96D
:10168000154A0097946B1549164A2846A0472C46E0
:10169000204605B0F0BD023D012DF9D90E4A009754
:1016A000946B0E49104A0020A04700210C462046AA
:1016B000318005B0F0BD32210124D0E70C46332142
:1016C000CDE7054A0097946B0449084A0020A047DB
:1016D0000024204605B0F0BDAC0000209C58010855
:1016E00080580108B458010818590108E458010845
:1016F000F0B583B00024012907461646ADF8064030
:1017000019D0022909D01A4B1A4A9D6B1A4903466F
:101710002046A847204603B0F0BD46210DF1060241
:101720003846FFF773FFBDF80650842475B1BEB983
:10173000012003B0F0BD45210DF106023846FFF748
:1017400065FFBDF806508324002DF0D1084B0B4AED
:101750009C6B094928463B46A047284603B0F0BD8C
:10176000384621460022FFF741FF3046D3E700BF4D
:10177000AC000020805801089C5801084C59010811
:1017800070B582B00DF106020E4600241C210546FC
:10179000ADF80640FFF73AFFBDF8062012F40062EC
:1017A0000CD128461B21FFF721FF284646F4006292
:1017B0001B21FFF71BFF012002B070BD044B054A3F
:1017C0009E6B054920462B46B047204602B070BDAF
:1017D000AC000020805901089C58010870B582B007
:1017E0000DF10602002437210546ADF80640FFF74B
:1017F0000DFFBDF8063003F0C003B3B90DF10602CA
:1018000000241C212846ADF80640FFF7FFFEBDF876
:1018100006301B0515D50E4B0E4A9E6B0E49204611
:101820002B46B047204602B070BD094B93F84020CC
:10183000002AE3D09C6B094A07492B460120A047A8
:10184000DCE72846FFF7B8FE012002B070BD00BFFC
:10185000AC000020DC5901089C580108B05901086F
:10186000F0B40C4D2F8D9E1CB7EB460F05D2AB6B21
:10187000094A0A49F0BC00201847144641F4A04127
:10188000013B11805380214626F000420023F0BC2A
:1018900014E600BFAC0000200C5A01082C5A0108C5
:1018A00010B582B0044601AA0121FFF7C5FE20460B
:1018B00000220121FFF71CFFBDF80430022B08D0E5
:1018C0000549064A8C6B06490020A047002002B05B
:1018D00010BD012002B010BDAC000020405A01082C
:1018E000885A010838B520B1164B02689A4204465E
:1018F00007D0154B154A9B6B1549002098470020CF
:1019000038BD037B93B10569806895F8C611012243
:10191000FFF7EEFE95F8C5318BB195F8C631022B75
:101920000CBF0123022385F8C63138BD806815211C
:10193000FFF726FF0028E3D00123237338BD0123DE
:10194000F1E700BF0EB03713AC000020A85A010821
:10195000C05A010870B50C4600283DD02249034604
:101960000068884207D0214D214AAB6B21490020F5
:10197000984754B370BD3CB35E689A603068018F7D
:10198000B0F89420B0F89630D0F8985004EB4101AC
:1019900004EB420204EB4303C0E9132341614DB160
:1019A000B0F89C20B0F89E3004EB420204EB4303F5
:1019B000C5E90423B0F8E410736804EB4104C0F8EF
:1019C000B040BDE870401847084DAB6B0A4A094962
:1019D000BDE8704000201847044D054AAB6B05492F
:1019E0009847002CF1D070BD0DB03713AC0000202B
:1019F000C85A0108E45A0108F05A01082DE9F04FCD
:101A00002DED0C8B82469DB090F84E4090F84C0026
:101A10000C90042CBAF848000A90059190461F4695
:101A20001AD8DAED107AF5EEC07AF1EE10FA00F17C
:101A3000E9819AF85630DFF8C090002B00F0EB8176
:101A40009AF84B30002B00F0E681274AD9F838305D
:101A500026490020984707E0DFF89C90244AD9F8EF
:101A60003830224900209847DAED117A99ED117A41
:101A7000F5EEC07AF1EE10FAB8EE478A40DDC8EE16
:101A8000278AF6EE007A78EEA78A0A9B002B3CD1D3
:101A900007939AF84A300193002B3ED19AF85030C0
:101AA000022B41F0EA809AF84E40012C00F0C682E9
:101AB0000024329A019B1471A8F8AC41002B32D05B
:101AC0009AF84F30012B00F0AD87022B00F0998778
:101AD000002B00F0B587D9F83830064A03490020BA
:101AE0009847002301931EE04C5B0108245B01082A
:101AF000085B0108085C0108AC0000200000000041
:101B00000A9B5FED028A002BC2D09AF84E300793F1
:101B10009AF84A300193002BC0D0329A00231371F7
:101B20000193A8F8AC31059C002C4AD02389B4F865
:101B30008610B4F88420B4F88200A8F804109B0042
:101B4000B4F88810A8F802209BB203F13002A8F87C
:101B500000006088A8F80610A188A8F8080092B2D2
:101B6000E088A8F80A106189A8F80C005F2A208C88
:101B7000A8F80E10618CA8F81210A8F8100040F216
:101B80002282C649A1FB0201890901EB4101A2EBB6
:101B9000411189B200201A4605460B460121032453
:101BA000A8F814300023A8F81620A8F81810A8F8F0
:101BB0001C50A8F81E00A8F82010A8F81A40A8F891
:101BC00022300199002201237A80BA817B81002989
:101BD00001F0438015460692039207F10E0308F1C7
:101BE0003E029FEDAFAADFEDAFAADFEDAF9A9FED0A
:101BF000AF9ACDF808A0D346CDF8109008F146066C
:101C00000992CDF82080BA469946079AEBB29A42DB
:101C100000F25881099A0023A9F80030A9F8083089
:101C200022F815300135042D09F102090BF1100BD2
:101C300006F15606E9D157460A9AB9897B89BDF85B
:101C40001800DDF82080DDF81090DDF808A0029083
:101C500011FB02F189B20B449BB25A1C1FFA82FE9F
:101C6000B8F8ACC1BCF1010F04D1039A0A9800FB8B
:101C700002F203929AF85220BAF854009AF853509C
:101C80009AF85640A8F89E21039A4FF6FF7B5A45D2
:101C90004FEA500628BF5A460338A8F8A801033E69
:101CA0000298A8F8AA6185F0010592B2A8F8A65199
:101CB000A8F8A001A8F8A421B981BB80A7F806E084
:101CC000002C00F06081413340213B8039810124A8
:101CD000059BA8F8C04113B19B89A8F8C231019BAC
:101CE000002B40F05A81329ADAED105A002313602B
:101CF0000C9BA8F8B2310A9B012B40F24881BAF83C
:101D000048300122023BA8F8AE31A8F8B0219FED7F
:101D1000687A9FED686A28EE077AF1EE007AC7EEDE
:101D2000066A68EE277AF5EE405A87EE867AC8EEA4
:101D3000067AB6EE006A76EE866A37EE067AFCEE32
:101D4000E66A77EE867A16EE902ABCEEC77AF1EE56
:101D500010FAFCEEE77AA8F8B82117EE102A14BFA3
:101D600001230023A8F8B621A8F8383017EE902AEE
:101D7000019BA8F8B421002B00F0F180F5EE405A49
:101D8000F1EE10FA0CD0C8EE257A37EE866AFCEE3A
:101D9000C67A17EE903A1A0CA8F83C30A8F83A2008
:101DA000DAED117A9AF84A309AF84B20A8F83030D8
:101DB000F5EE407AF1EE10FA14BF01230023A8F8E3
:101DC0003220A8F82A3008D0FCEEE87A17EE903AD4
:101DD0001A0CA8F82E30A8F82C209AF85130019847
:101DE000A8F8BE31012140F2FF7240F60103A8F8C5
:101DF0002410A8F8BA21A8F8BC311DB0BDEC0C8B9A
:101E0000BDE8F08FDFF8B8902B4AD9F838302B496D
:101E10000020984728E69AED117AD9ED116AB5EEBF
:101E2000C07AF1EE10FAB8EE668A16DDC8EE078ABF
:101E3000F6EE007A78EEA78A00F1F98018EE900AA3
:101E40000BF090F9012908BF002880F0F0809AF883
:101E50004A30002B40F0E28008E000F1E6809AF87A
:101E60004A30002B40F0CD80DFED0F8A9AF84F10FA
:101E70009AF850200A98002814BF2046002091426A
:101E8000079000F2FD83002B40F00387022A00F048
:101E9000FC86329A1371A8F8AC3111E6ABAAAAAA53
:101EA0002549123ECDCC4C3E000000008FC2753D4E
:101EB0000000964300247449385B0108245B010844
:101EC000AC000020099A012322F81530029BBBF8D0
:101ED000082093F84C8040F2FF1140F2FF33B8F134
:101EE000000F18BF0B46E2B19A421AD89BF80D308A
:101EF000002B6CD19BF80F309BF80E00002840F0AF
:101F00005383012B00F0B280DDF810904F4AD9F8CE
:101F100038304F49DDF820805746DDF808A0984753
:101F20000CE0DDF810904B4AD9F838304849DDF81C
:101F3000208000205746DDF808A098470A9AB98902
:101F40007B89BDF81800029011FB02F189B20B44A5
:101F50009BB25A1C1FFA82FE0022019280E6DAED43
:101F6000117A9AF84A309AF84B20A8F83030F5EEFA
:101F7000407AF1EE10FA14BF01230023A8F83220B2
:101F8000A8F82A3029E73C81A7F800E0A0E6002362
:101F9000A8F8AE31A8F8B031B9E69AF84D10072983
:101FA00027D82D4B9FED2D9A0B4493F81439A8F8A0
:101FB000A231329B83ED009A079B002B40F03284C4
:101FC000DAED105A94E6032001250021E7E59BF89D
:101FD0000F30022B90D1DDF81090214AD9F838301B
:101FE0001B49DDF8208000205746DDF808A09847FF
:101FF000A4E7329ADAED105A00231360002301930C
:1020000076E6B5EE407AF1EE10FA05D1F5EE407ABB
:10201000F1EE10FA40F08385DFED108AD9F8383000
:10202000104A0B49002098472FE5DFED0C8AD9F8BC
:1020300038300D4A06490020984726E59AF80F30B7
:10204000013B012B3FF635AD32E500BF845C010852
:10205000245B0108485C0108F0150108000000003D
:10206000585C01088C5B0108785B0108B84BBBF831
:10207000067003EB8000182FD0F8F0380E93BBF8F1
:1020800004300D9340F2128307EB870303EB031335
:1020900003EB032307EB4303C3F3CC0242EA4333CE
:1020A0009BB240F6AA22934200F2D882A94BA3FB2E
:1020B00007231B090F93013B9BB214935C231093DE
:1020C00018230B930D98002840F04B84049BA24AE0
:1020D0009B6BA2499847B8F1000F00F0CF824FF0F8
:1020E00000080222DBF800300E9919440C4601F575
:1020F000C3430D99283311FB02F2481E4CF25031B4
:1021000092B28B420D9207FB004707D9049B944A79
:102110009B6B9249002098474FF0000807F5C34396
:1021200028334CF25032934207D9049B8D4A9B6B63
:102130008A49002098474FF00008002CC0F26983BC
:10214000894BE11783FB0423C1EBA3031AB2002FD1
:10215000C0F25583844B83FB0730FB17C3EBA00011
:102160000E9300B2804B83FB043C92B2C1EBAC01F6
:10217000801A01EB41010F9B1592B4EBC10182B2B1
:10218000B2FBF3F203B202F1010216934FF0180012
:102190000B9BB0FBF3F01FFA82FE00F129830FFACC
:1021A00081FC89B2704B0B9A83FB07340E9BC3EB07
:1021B000A40303EB4303B1FBF2F402FB1414A2B239
:1021C000B7EBC3030E9200F10D831AB219929BB2C2
:1021D000013882B20E9C0B981A9212FB0040BEF19D
:1021E000010F80B200F08E82C41A0E9B18BF01242A
:1021F0008B4214BF01230023AEEB0302A2EB0402C7
:10220000A3B2119497B2179340F0848200231893DD
:1022100013931B930E9B89009B00B187F387B8F142
:10222000000F00F058829BF80E30052B00F2388426
:10223000474A02EB4303B3F804395A08A3F14A00B2
:10224000D91E033A80B2143B92B289B20F90129316
:10225000159B1698B186C3F129040F9BF2861C4486
:1022600023B215931B1A292BA4B207DC049B3F4A07
:102270009B6B3A49002098474FF00008129B159A33
:10228000934207DC049B3A4A9B6B344900209847F1
:102290004FF000080F9B3387109B74872C2B40F264
:1022A00061820023A6F85030A6F85230A6F85430C8
:1022B000149BA6F84E30189BA6F84830002F00F06B
:1022C00035820123A6F84A30139B179AA6F84C20B2
:1022D000002B00F0F9831B9BA6F842301A9BA6F84E
:1022E0004430119B002B00F0EB83199B0E9A9C1A33
:1022F0000B9B94FBF3F4A6F846407A1E97B2A6F81F
:102300004070B8F1000F3ED09BF80A30172B00F256
:10231000BF81092B00F29A83C3F109031522738050
:1023200032800599002900F0748172889BF80F3083
:1023300001EB4202013B9289B280042B00F2B0848F
:10234000DFE813F01800260118010901290000BF79
:10235000F0150108ABAAAAAAD05C0108245B010809
:102360001C5D0108305D0108ABAAAA2A645D010862
:10237000845D0108059B9A8C04210023082A73853B
:10238000318540F227815746DDF82080DDF808A02E
:10239000DDF81090D2E54FF00008C64643464FF4F2
:1023A000F0504FF478544FF4F86202274FF00B0CC2
:1023B0000821B281F281029AA6F82AC037853181BC
:1023C00034827181708292F84D20B8F1000F00F0D4
:1023D0000F81002B00F00C81022A00F20C81C14910
:1023E0000A4492F81029B282059A002A61D006F1B7
:1023F0001402002001213083118205990E93C86ECA
:102400000B908C6EDDF82CC0D1F864800F940027FF
:10241000394604EB1743A3EB0803734588B26744BE
:1024200001F1010180F209840F29F2D10E9B0846C7
:102430000599CF6FD1F878C0D08007EB87040520CD
:102440000CEB1441C91A00F1010E3C4440F1968393
:102450001FFA8EF01428F3D1DDF81090A24AD9F8B3
:102460003830A249DDF8208000205746DDF808A06A
:10247000984763E59B490A4492F81429B282059A69
:10248000BAB10022328306F11402B8F1000F40F015
:102490007781A6F82480A6F81A80A6F81680A2F8FC
:1024A0000880A2F80E80A2F80A80A6F820800023F7
:1024B0005382BBF808009BF80B203286012800F0FD
:1024C000C9800121831EF185B3859BF80D10BAF8F0
:1024D0000C30F18081F0010171860D99A9F800306E
:1024E000A9F808100B449BF80F10AAF80C3001292A
:1024F000338D6CD002290CBFB0EE496AB0EE696A28
:1025000001339BB207EE103ABBF80430B8EE477ABD
:1025100007EE903AF1EE006A27EE267AF8EE677A37
:1025200006EE900A67EE277AF8EE666A069B67EE7B
:10253000A67A194667EE867A002B08BF114667EE29
:102540008A7A039B0691FCEEE77A17EE902A1344F1
:102550000393FFF767BB4FF00008C64643464FF4AE
:10256000C0604FF460644FF4E07202274FF0060C35
:1025700008211EE74FF00008C64643464FF400709E
:102580004FF4C064C02202274FF0040C082110E76A
:1025900000204FF40074402203274FF0020C082162
:1025A0004FF0960EFA2304E7581EC0B204287FF6B7
:1025B0005DADDDF810904E4AD9F838304B49DDF862
:1025C000208000205746DDF808A09847B6E4B0EE1A
:1025D0006A6A95E74021328172814FF40070029A55
:1025E0007382B181F181308292F84D2098469E46E7
:1025F000072A7FF63FAFDDF810903E4AD9F8383011
:102600003A49DDF8208000205746DDF808A09847B9
:1026100094E49BF80F30059AB280013B042B00F242
:102620003F8301A252F823F03D26000891250008BF
:102630007525000857250008972300084FF000086B
:102640004046C446C64643464FF400744022042721
:102650000221AEE60023F385B38536E7049B264AC4
:102660009B6B224900201490044698470123CDE932
:102670000F340B93B8F1000F7FF431AD042231E534
:10268000D9F838301D4A194900209847FFF701BA98
:10269000DDF810901A4AD9F838301449DDF8208056
:1026A00000205746DDF808A0984747E4002FD5D012
:1026B0001823B3FBF7F307FB03F3C3F118039BB233
:1026C0001493002BCAD17B1E9B009BB21093012355
:1026D0000B970F93F6E46C23129336230F933D224E
:1026E0007D21B5E5F0150108D45D0108245B0108E2
:1026F000AC5C0108B45D0108BC5C0108B85B010872
:102700009C5D01088C4200F09B82002217921846C3
:1027100017461192019B1393A0EB0C000B9B90FBAF
:10272000F3F00123189383B21B9373E5179BA6F86C
:102730004C30139BA6F84A70002B00F0C9811B9BFC
:10274000A6F842300023A6F84430119B002B00F07D
:10275000A381199B0E9A9C1A0B9B94FBF3F4A6F889
:102760004640CCE5109B1E2B40F28981A3F11E024E
:102770000F23A6F85420A6F85030A6F8523097E55B
:1027800001211182002B7FF438AED3805380138156
:10279000D38153811F4605990024D1F85CE0D1F81C
:1027A0006080214602E016293FF456AE0EEB14403D
:1027B000C01B1FFA81FC444401F10101F3D4BCF1B8
:1027C000000F0CD05BB90CF1FF339BB208FB03F890
:1027D0000EEB1848A7EB08084045C8BF9C46A6F872
:1027E00020C064E603F1180422B2A3B21992EFE408
:1027F00001F1180C1FFA8CF10FFA8CFCD2E4CF4BCC
:10280000F843A3FB00306FEA1010FB1700B20E93E1
:10281000A8E4CA4BE243A3FB02236FEA13131AB2E4
:10282000E11794E4BCF1010F00F0688107EE902AF3
:102830009FEDC3AAB8EE67CAB7EE089AF2EE02CAD5
:10284000D9ED117A9FEDBF0AF8EE679A80EE290A5A
:102850000BF0F6FC9AF85030022B69EE809A00F2E9
:102860003A81B94A9AF84E1002EB830090ED00DAF3
:10287000D0ED03BA002900F0FD81019ADFEDBEDA48
:10288000B24E9FEDB3BADFEDB3AA00273D463AE062
:102890004FF0300B08240AEB05039B7B052B47D830
:1028A000AD4931F8133007EE903AF8EE677A89EEC9
:1028B000A77A55449AF84E302889A98800FB044429
:1028C00002346400A4B20137FDB2AB4207EE904A75
:1028D00087EE2A6AF8EE677A07EE10BAF8EE476AD2
:1028E00087EE867AC6EE865A07EE901AF8EE677A79
:1028F00067EE277A77EEA57A77EE8A7A77EE897A8D
:102900007DEEA7DA3FD90AEB05132D01DB7B052B02
:1029100018D8022BBCD8012B1FD0022B12D10AEBE6
:1029200005034FF03C0B9B7B052B4FF00A04B7D9F6
:102930008A4AD9F838308A4900209847F0EE4B7A15
:102940000022B4E73246D9F838308549002098474C
:102950004FF0180B042400229DE74FF0480B0C2485
:1029600099E7B8F1000F40F0C6809BF80C30002BBF
:1029700000F0E080049B7B4A9B6B79494046984776
:102980000422FFF7AFBBB2B3DFED777ADFED716AF8
:102990009FED767ADAED105A329B89EEA75AF1EE66
:1029A0000C7A85EE266A2CEE27CA7BEE8DBACCEE29
:1029B000067AB0EE006A77EEACCA7CEEADDA7DEE58
:1029C000ABBA6BEE877A77EE867A77EEABBAC6EE65
:1029D000AB7AF4EEE75AF1EE10FAC3ED007A7FF726
:1029E00087A9FDEEE77AD9F83840614A5C4917EECD
:1029F000903A0020A0470023DAED105A0193FFF728
:102A000077B90023A8F82630A8F828309AF8503073
:102A1000012B10D0022B2BD013B3D9F83830554AE4
:102A2000FFF75CB80022A8F82630A8F828209AF80A
:102A30005030012BEED1C8F834300193FFF773B852
:102A40000123A8F82630A8F82830DFE7102B94BF20
:102A5000C3F11E03C3F1170300223380728060E4C8
:102A60004FF00113C8F8343001230193FFF75BB82E
:102A70000023C8F8343001230193FFF754B8109BAA
:102A80000F2B42D90F3B0F22A6F852300023A6F895
:102A90005020A6F854300BE4119BA6F846302EE4E3
:102AA000049B2E4A9B6B2E49002098476C2312935F
:102AB00036230F933D227D214FF00008FFF7C8BB5E
:102AC000119BA6F8463018E4139BA6F8423005E4A3
:102AD000A6F8427036E6D9F83830264A2049002058
:102AE00098479AF84E30002B85D0DFED23BA0022AC
:102AF000B0EE6BDAC2E60222FFF7F4BAB0EE49AAF2
:102B0000F0EE49CAB0EE49CA9AE60023109AA6F838
:102B10005020A6F85230A6F85430FFF7C9BB9AF8F7
:102B20004F109AF85020DFED148A91427FF476AA74
:102B3000FFF7A0B9DDF80480A0E500BFABAAAAAA00
:102B40009A999D41F902154F0C1F0108AC5C0108D0
:102B50000000004300247449F41E0108585D010878
:102B6000245B0108E45C0108000020430AD7233CF1
:102B7000005E0108285C01080000000005280BD059
:102B800000F1FF3E1FFA8EFE07FB0EF40CEB14441F
:102B90001C1BA142C8BF704600210C465080118109
:102BA000D181084605991296096F0E9105990E9EDE
:102BB000496FCDE9101202E016283FF44DAC06EB48
:102BC0001442D21A1FFA80FE0C4400F10100F3D423
:102BD0001146DDE91126BEF1000F0FD00EF1FF30D6
:102BE00080B21190DDE9100400FB04F40E9800EBB4
:102BF0001440119C181A8142C8BFA646A2F80AE0E8
:102C0000718B0B9800FB01F001460F9800EB11410E
:102C1000B1EB08043FF520ACF08B1099B6F816E044
:102C200001FB00F1084607FB0EF10E9F0CEB114172
:102C300007EB104008440719ADE50E9BFFF7F8BB02
:102C400098420CBF012700270FD10023CDE917338D
:102C5000119313931B93FFF7DDBA019A02924FF081
:102C6000020E11460392FEF7FBBF00221792184690
:102C700011924FE55FED40DA86E6329B1A46019BE2
:102C80001371A8F8AC31FEF74EBF01230193FEF794
:102C90000CBF329A00231371A8F8AC31FEF710BFB5
:102CA000DDF81090DDF82080D9F83830084A09495D
:102CB00000205746DDF808A09847562303FB0583FC
:102CC0000022A3F87020A3F86E20FFF737B900BFE9
:102CD000AC5C0108245B010870B5FEB004464FF4FB
:102CE000E2720D460DA8002103AE0DF0E3F90DAA26
:102CF000204605AB00960021FEF780FE08B97EB0A5
:102D000070BD94F84B202B46314605A8FEF774FBA6
:102D10007EB070BD08B5114B9FED110A2DED028BF1
:102D200093ED118AB8EE488A80EE080A0BF088FA13
:102D300028EE000AB3EE088A20EE080AB7EE007A01
:102D4000C7EE007ABDEC028B9FED060A67EE807A33
:102D5000B6EE000A27EE800A08BD00BFAC000020D6
:102D6000F902154FC2F38E4DF8B505462DED028BD5
:102D70000E461F467AB91032012035F81230089AF3
:102D800007EE903ABDEC028BF8EE677AC7ED007A59
:102D900033681360F8BDB0EE408AFFF7BBFF002137
:102DA00095F81DE0B5F828C0E86A0A4605EB42032D
:102DB00001319C8F14FB0CF410FA84F307EE903A67
:102DC000F8EEE77A67EE807AB4EEE78AF1EE10FA71
:102DD0000CD4CAB29645E9D20A4B0B4A9B6B0B49FD
:102DE00000209847BDEC028B0020F8BD002AF3D0EC
:102DF000013AD2B2032AEFD8AB185B7E06EB83060A
:102E0000B9E700BFAC000020205E01088C56010825
:102E10002DE9F84F164C0A9E278D043A043F5208BC
:102E20007F0897420D468146984628BF174601F114
:102E3000040A0024331BBB4228BF3B466FEA84418F
:102E40005A1E6FEA91419B466A8029805A0008EB1E
:102E5000440150461C440DF013FC0BF10202002308
:102E600029464846FEF72AFBA642E3D8BDE8F88F7C
:102E7000AC0000202DE9F04FADF5117D07469B9C7D
:102E80000D46164600214FF4E2721FA899460DF038
:102E900011F911A8382200210DF00CF994F8C5A100
:102EA000BAF1000F0CD0734B734A9B6B734900202F
:102EB00098474FF0000840460DF5117DBDE8F08FB2
:102EC0000DF11C0809ABCDF800801FAA3146284639
:102ED000FEF794FD0028ECD0414695F84B2009A858
:102EE00011ABFEF789FA80460028E2D09C99BDF824
:102EF00050200A809D9ABDF8543013801FA906AB5C
:102F000005AA2046FDF7A4F9BDF81820BDF8143035
:102F10009A4238D21FA94FF4E27220460DF0B0FB5E
:102F2000B5F848303BBB0122334695F84B1084F886
:102F3000C62133F8262BA4F8C82184F8C51184F8DB
:102F4000C4A104F5E57206F1560C1D68586899682D
:102F5000DF68D7601033634515605060916002F1FF
:102F60001002F2D1B6F85630A4F8FA3140460DF509
:102F7000117DBDE8F08F95F84EA0BAF1000A18BF98
:102F80004FF0010ACFE706AA37213846ADF818A05E
:102F9000FEF73CFBBDF8183013F0C00B12D006ABA7
:102FA00005AA1FA92046FDF753F9BDF81830BDF852
:102FB00014B002939B4520D9384601228021FEF7A8
:102FC00015FBA7E706AA31213846ADF818B0FEF781
:102FD0001DFBBDF818204AF6C0439A42DFD0254BAE
:102FE00093F84020002A3FF464AF9C6B244A2549A3
:102FF0003B460120D846A0475DE7029B9A980233E2
:10300000494604AAA3EB0B0905ABFEF7E1F90598C5
:10301000CDF80CA01FFA89F9484528BF484605900D
:10302000DDF80890A24605E0059883441FFA8BFB63
:10303000D94511D30690049906AB5A461FA8FEF74E
:1030400041F804460028EFD0069B9A9A4FEA5B01AC
:103050003846FEF705FCE7E7A14638460122802105
:103060005446DDF80CA0FEF7C1FAB9F1000F3FF4A9
:1030700020AF4FE7AC000020445E01084C58010827
:10308000845E0108A85E01082DE9F04FADF50F7DC3
:103090000C46154600214FF4E27207461DA89A46D9
:1030A000DDF8649205AE0DF005F8382200210FA876
:1030B0000DF000F8294620461DAA07AB0096FEF742
:1030C0009DFC30B94FF0000840460DF50F7DBDE87E
:1030D000F08F94F84B20314607A80FABFEF78CF920
:1030E0000028EFD09A99BDF848200A809B9ABDF835
:1030F0004C301380989802AA002603AB5146CDE9C4
:103100000266FEF765F93846FEF768FBC0B1039822
:1031100040F6DD1B32460299049004AB1DA8FDF772
:10312000D1FF7108049B989A80463846FEF798FBB9
:1031300003980644B6B25E4509D8B8F1000FE9D14C
:10314000234B244A9B6B244900209847BAE7B8F1E7
:10315000000FF5D060239899009352461F4B3846D4
:10316000FFF756FE4FF4E2721DA948460DF088FAAB
:10317000B4F8482022B194F84E301A1E18BF01222C
:1031800001212B4694F84B0089F8C61133F8261B11
:10319000A9F8C81189F8C50189F8C42109F5E571B4
:1031A00005F156071C6858689A68DE68CE601033CF
:1031B000BB420C6048608A6001F11001F2D1B5F8A1
:1031C0005630A9F8FA3140460DF50F7DBDE8F08F75
:1031D000AC000020C05E01084C580108241F010803
:1031E0002DE9F04F254C85B00026CDE90266B4F8F4
:1031F000288001928946002B3AD04FEA580883462E
:10320000A8F104089A460D461F4626E0019B48F2A5
:1032100000019A192980631E4FF00001E9806A803D
:10322000AB806200002105F108000CF043FF294645
:1032300001235846221DFEF741F902AB03CB264479
:103240006960286009EB460559F81600696802AB09
:10325000564503C3A7EB04070AD2B845444628BF26
:103260003C46B845D2D200E0013CE307FCD4CDE7B0
:1032700009F1080005B0BDE8F08F00BFAC000020E8
:103280002DE9F04184B028B1554B0E4601689942B2
:10329000044609D0534B544A9B6B5449002098472D
:1032A000002004B0BDE8F0818388C1880B44B2EBF4
:1032B000430F02D24B4B4E4AEEE7D0F8108087689E
:1032C00098F8C651002338460DF10A0237210393BE
:1032D000ADF80A30FEF79AF9012D12D0022D14BF75
:1032E000C0208020BDF80A5005400CD13D4B414A1A
:1032F0009C6B414928463B46A047284604B0BDE8A0
:10330000F0814020EEE798F8C61103AA3846FEF790
:1033100093F90028C5D0BDF80C30032B51D1216999
:10332000BDF80E2091F8C431C2F30012328033B1DF
:1033300091F8C631A3F10103B3FA83F35B097380FB
:10334000B1F8C831B380B21D01F5E57301F5FD7E1A
:103350001F685D689868D3F80CC0C2F80CC01033C1
:10336000734517605560906002F11002F0D1B1F81A
:10337000FA31F3862369E58893F8C631012B0CBF37
:1033800000224FF48052B5F5005F0DD8A188A068E7
:1033900006EB41012B46FFF723FFF0B1281E18BFB3
:1033A000012004B0BDE8F0810E4C144AA36B14490F
:1033B000002098470020A36B124A0F49984700202D
:1033C0006FE7084ABDF80E30946B0B49009300205C
:1033D0000D4A3B46A047002063E7024CEAE700BFE6
:1033E0000EB03713AC000020A85A0108C05A0108DB
:1033F000D45E0108EC5E01084C580108385F0108F2
:103400002C5A0108505F01080C5F01082DE9F04FAC
:1034100002EBC30689B07388129F4BB3804689467E
:1034200000254FF0010B736853F82540C4F3017079
:1034300001280CD0022833D0F0B1344B344A9B6BB6
:10344000344900209847002009B0BDE8F08FA3B2AE
:10345000194659F8232022F00F0217B1C4F3034490
:1034600022434046FEF760F8738801359D42DAD367
:10347000012009B0BDE8F08FC4F3445A0BFA0AF3F7
:103480009F4216D3214A0097013B019321490390A3
:10349000A3B2946B204AA047039809B0BDE8F08F0F
:1034A000A3B2194659F8232022F00F02002FD8D1D9
:1034B000D4E7A3B243F4204C03930522012305A9CA
:1034C000ADF81800CDF81A004046ADF814C0ADF8BC
:1034D00016B0FDF7F3FF04A90DF11A00FCF7B2FED8
:1034E000CAF1200A4FF0FF33C4F3044423FA0AFA66
:1034F000049B03990AFA04FA23EA0A0207FA04F47D
:1035000022434046FEF710F8AEE700BFAC000020B3
:10351000B45F0108FC5701087C5F010810B4002467
:1035200092ED037A1C605C609C60DC60002942D0F4
:10353000DFED247A4C1E10FA84F402EB0414F0EE52
:10354000676A02EB0012B0EE676A00E00246D2ED55
:10355000005A36EE256A02F1100083ED006AD2EDC2
:10356000015A76EEA56AC3ED016AD2ED025A77EEF2
:10357000A57AC3ED027AD2ED035AF4EE475AF1EE82
:1035800010FAC8BFB0EE657A9442DFD105EE901A0A
:10359000F8EE655A83ED037A86EE255A5DF8044B02
:1035A00086EEA56A87EEA57A83ED005A83ED016A5F
:1035B00083ED027A7047DFED037AF0EE676AB0EED2
:1035C000676AE3E700000000ABB1013B70B59BB256
:1035D000161D154600EBC10406EB830694ED000AA8
:1035E000D4ED010A0CF042FBA5EC010AB54204F14E
:1035F0000804F3D170BD704700B52DED048BF5EED6
:10360000C00A83B0F1EE10FA01900BD82A4B2B4A76
:103610009B6B2B4900209847002003B0BDEC048B26
:103620005DF804FB0846B0EE419AF0EE608AF0EED9
:10363000409AFCF7BDFFDDED017ADFED220AF8EEDE
:10364000E77AB0EE408A67EEA00AB7EE000A0AF009
:103650009FFD0AF0A3FEB0EE407AB0EE680AF0EEED
:10366000478A0AF09BFEB0EE401AB2EE040A68EEFA
:10367000006A26EEA87A77EE297A37EEC18A78EECC
:10368000490AC0EE800A0AF0BFFE40F2FF13F6EED0
:10369000007A30EE270ABCEEC00A10EE102A90B273
:1036A000012838BF0120984228BF184603B0BDEC5E
:1036B000048B5DF804FB00BFAC000020DC5F010858
:1036C000945501080AD7233B2DE9F041064682B004
:1036D00015461F4693B15C1EA4B24FF6FF7C04F161
:1036E000090301EBC4029BB2013C05EBC303A4B286
:1036F000106852685A6064451860F0D107F10800FC
:103700004FEA470C80B21FFA8CFC07F1120807F150
:10371000090205EBC0000CF1100C1FFA88F892B2F8
:103720002B4605F14804AE4695ED137AD5ED127A95
:1037300093ED156AD3ED146A37EE077A77EEA77A20
:1037400037EE467A77EEE67A8EED117ACEED107A84
:10375000ACEB020190ED017AD0ED007A89B205EB75
:10376000C10191ED016AD1ED006A37EE077A77EE7B
:10377000A77A37EE467A77EEE67A083305EBC20190
:103780009C4202F10102AEF1080E81ED017AC1ED19
:10379000007A92B2C8D196ED037AD6ED047A96ED0E
:1037A000005AD6ED016A96ED026AB7EE004A77EE4E
:1037B000045A67EE854A77EEA53A27EE057A84EE3D
:1037C000235A43462A466946304636EE646A36EE48
:1037D000C77A65EE855A67EEC57A65EE865A67EE5A
:1037E000877A26EE056A27EE057A77EEA57A37EE18
:1037F000067ACDED017A8DED007AFDF7E3F94146C9
:103800002846FDF757F82A46434669463046FDF7F5
:10381000D9F941462846FDF74DF8FA00214602B095
:10382000BDE8F0410CF03ABF2DE9F04F2DED088BCB
:1038300095B0B0F866409DF8985002958046407962
:10384000B8F830A00692039301EB840400284CD012
:10385000D8F874300893BAF1000F3AD00AF1FF316A
:103860008AB2194608319FEDD86A01EBC2010234D1
:103870001A46B4F9003007EE103A34F9023CB8EEBB
:10388000C77A07EE903A67EE066AF8EEE77A82EDBD
:10389000017A77EEA67A083242ED027A914204F17B
:1038A0000404E6D1BAF1090F15D9089A5346114616
:1038B00008F14800FFF708FFD8F87420B8F838304E
:1038C000B8F83A10104615B0BDEC088BBDE8F04FC3
:1038D0007AE64FF0000ABD49BD4A8C6BBD490A200B
:1038E000009053460020A047E6E70AF101064FEAA0
:1038F000860C01220AAB03EB82030132086843F80D
:10390000040C0B2A6144F5D1DFEDB38ADFEDB39AE5
:103910009FEDB39A9FEDAC8ADDF8189004960AAD3E
:1039200014AFA34609E0002E40F0E88089ED008A3C
:103930000435AF4209F104091BD0B5F90040B5F9CF
:103940000260002CEFD007EE904AB8EEE70A07EECF
:10395000906AF8EEE77A87EE800A0CF0A9FA002C5C
:10396000C0F2D2800435AF4209F1040909ED010A21
:10397000E3D1029B049E5C4683B198ED177ADFED9C
:10398000997A069A27EE277A02F12801D2ED007A79
:1039900077EE277AE2EC017A9142F7D1039B002B74
:1039A00040F0DC80D8F87430D8F8C020D8F8B49053
:1039B00008930792BAF1000F8BD00AF1010B1FFA9E
:1039C0008BF128329FED808ACDF8248004914FF04E
:1039D000000B0592F2EE048ACDF808A09846DDE9C6
:1039E00006A79FED799A0BF101023B465E461FFA4E
:1039F00082FB4F46F0EE499A5D46994668E09AEDA3
:103A0000000AD9ED007A77EEC07A27EE880A78EEC0
:103A1000670A30EE080AF4EE400AF1EE10FA80F17F
:103A2000C7800CF03FF907EB8601F0EE60AAB1F910
:103A3000023007EE103AB8EEC77A37F9263067EE53
:103A4000087A77EE081A0BEE103AF4EE671AF1EEE8
:103A500010FAB8EECBBAB0EE40AA80F1C78037EECC
:103A60008BBA71EE881A2BEE0A7A21EEAA6A6BEEF7
:103A70002A7A61EE8A6A37EE466A77EEA66AB4EE73
:103A8000666AF1EE10FA80F1868034F9253004EB95
:103A9000850107EE103AB1F9023007EE903AB8EE20
:103AA000C77AF8EEE77A37EE467A77EEE67A79EE7D
:103AB000879A39EE279A049B1D44029B1E44059B5E
:103AC00009F104094B45ADB2B6B20AF1040A20D09F
:103AD000039B002B93D034F9253004EB850107EECE
:103AE000103AB1F9023007EE903AB8EEC77AF8EE24
:103AF000E77A79EE879A39EE279ADCE7CCBF89ED31
:103B0000009AC9ED009A13E7002E22DB30EE280A56
:103B100028E789EE280AB94689EEA89A60EE087A65
:103B200070EE080AF4EE607AF1EE10FA6DD6029BA0
:103B300039EE279A70EE880A5B4588ED009AC8ED49
:103B4000010A08F108087FF44AAFDDF824809A469C
:103B5000A8E630EE680A89ED000AE9E6002552463B
:103B6000314602E0B8F83020511C11FB05F189B252
:103B7000481BD8F8B430013180B289B2920004EB0E
:103B80008101013503EB80000CF07AFD0A2DE9D1AB
:103B9000B8F830A006E7B0EE4B1AF0EE6A0AB0EEC5
:103BA0004A0A09F085F9B0EE406AF0EE606A6CE707
:103BB000B0EE670AFFEE001AB0EE481ADFED020A17
:103BC00009F076F92DE700BF00000000AC000020EE
:103BD000F45F010828600108DB0F4940DB0FC9BF13
:103BE000DB0FC93FCDCC4C3D00000000F7EE001AC2
:103BF0005FED030AB0EE470AB0EE481A09F058F933
:103C0000F0EE407AF0EE601A29E75FED090AF7EE70
:103C1000001AB0EE481A09F04BF9F0EE407A86E748
:103C2000F8B595692B78B5F802E0144602EB43032A
:103C30000F46B3F8446063690146720003EB4E001F
:103C40000CF02CFDE26D698813780E446E8003B988
:103C50003B791370F8BD00BF08B52DED028B07EE60
:103C6000901AFCF795FC9FED2D7AF8EE677A30EE0E
:103C7000000A67EE877AB0EE008A80EE270A0AF023
:103C800041FA30EE088AB6EE000A28EE000A0AF081
:103C900039FABCEEC07AFCEEC87A17EE103AB7EEED
:103CA000006A70EE465A98B217EE903AC6EE256A50
:103CB00099B280B3002213469FED197A07EE903A2D
:103CC000F8EE677A013267EEA67A93B267EEA77ACA
:103CD000834237EE277AF1D338EE408AF7EE007A46
:103CE00038EE678A091A0029C7EE886A0EDD0023BC
:103CF0005A1C07EE903AF8EE677A93B267EEA67A0E
:103D00008B4267EEA77A37EE277AF1DBBDEC028BA8
:103D1000B0EE470A08BD9FED027ADDE70AD7233BE4
:103D2000000000002DE9F04F2DED068B0446027CCB
:103D300090ED008A8BB00D4601890120FCF7AAFEA8
:103D4000B4EEC08AF1EE10FA40F1C58094F8243048
:103D50000093002B40F0CF802046FCF7D1FE0646B2
:103D6000002840F03181074694F80AB0B4F8089072
:103D7000227C58464946FCF78DFE94ED018AB4EE4C
:103D8000C80AF1EE10FA40F1A98094F82430C7F186
:103D9000040A5FFA8AFA1BB9BBF1010F00F029810E
:103DA000F0EE400A94ED000A0AF0F2F9B4EEC08A8F
:103DB000F1EE10FA00F1F580C7F105085FFA88F816
:103DC000B8F1010F40F2ED8007EE908AF8EE677AC5
:103DD000B7EE007A77EEC77A78EE406A002286EE78
:103DE000A77A134608F1FF310AA800EB820207EE1A
:103DF000903AF8EE677A013367EE877A9BB277EEF6
:103E0000807A994242ED057A1A46EDD80AAB03EB67
:103E1000880303ED068A49465846FCF765FC81464F
:103E200001465846FFF718FF0BF1FF33DBB2042BB6
:103E300094BF814A9FED819A9FED818A01959CBF35
:103E400002EB830393ED009A182303FB07F3EA18B0
:103E5000643382F8768005EB030805AB82F862B024
:103E60002546F0EE408AA2F860904FF0000B1C4609
:103E70005FFA8BF2524580F0CF81D4ED006A95ED68
:103E8000030A94ED017AC7EE087A04340BF1010BB2
:103E900086EE887AFCEEE77ABCEEC77A17EE903AA7
:103EA00098B217EE103AB0FBF9F010FB09F09AB295
:103EB00000B2B2FBF9F212FB09F2A8F8002028F8D0
:103EC000020FB0EE491AA97CF0EE680AFFF794FBE6
:103ED000A8F80800CCE7002300933DE7BBF1010FF1
:103EE0007ED0009B03B1012606F001000BB0BDECB3
:103EF000068BBDE8F08F0120FCF7F6FB0646014675
:103F00000120FFF7A9FE012031462E80A870F0EEB7
:103F1000408AFCF71DFE80462046FCF7F1FD16FBAB
:103F200008F7BFB208B17F00BFB2227C218901200F
:103F3000FCF7B0FDF0EE400A94ED010A0AF046F9F4
:103F4000DFED3F6A9FED3F1AC8EE267A0223AB757C
:103F500080EE267AFCEEE77ABCEEC77A17EE903A4E
:103F60009AB217EE103AB2FBF6F298B2A2EB08033F
:103F7000B0FBF6F010FB06F217FA82F713FB06F01F
:103F8000A880EF80A17C94ED030A10B2F0EE680ADD
:103F9000FFF732FB95F8C030E881013385F8C03077
:103FA000DAE6294B294A9B6B2949002098470020D3
:103FB00095F8C130013385F8C130009B002B92D1B8
:103FC000002E90D106468FE7A37A013B042B00F226
:103FD0008B81DFE813F011000E010801FF001B00C8
:103FE00094F82430C7F1040A5FFA8AFA002B7FF4B0
:103FF000D7AE94ED000AD9E6002795F8C1303E1EF1
:104000003B4485F8C13018BF0126ADE6052340F2D8
:1040100001328DF81630ADF814200323013B002740
:10402000019305F16003CDE902359FED05AADFEDAF
:1040300003AA3E46B9469DE0E41F010800000000C7
:104040000AD7233BCDCC3441AC00002040600108AE
:1040500094550108D4ED018AF4EEE80AF1EE10FA65
:1040600040F1A88094F82460002E40F0C880F0EE63
:10407000499A002F40F0C380F0EE480AB0EE680A7B
:104080000AF0A4F851464046F0EE408AFCF72CFBBB
:10409000014605464046FFF7DFFD08F1FF32D2B288
:1040A000042A9EBF944B03EB820292ED001A514604
:1040B0005A464FF0010088BFB0EE6A1AF0EE400A8F
:1040C000FCF7E8FCB4EEC09AF1EE10FA40F19E80E5
:1040D000002E00F09B800122B4EEE88AF1EE10FA87
:1040E00029465B4640464CBF01260026FCF74EFDA4
:1040F000324684465B4640466646FCF747FD88EEFE
:104100008A7A029A07EB470302EBC30A22F833507C
:1041100002238AF816308AF802800137FFB2C9EE0E
:104120008A7ABCEEC77AFCEEE77A17EE103A17EE01
:10413000902A9BB2B3FBF5F313FB05F39BB292B24B
:10414000B2FBF5F212FB05F51844AE1BAAF8060007
:10415000AAF80460A17C94ED030A18B2FFF74CFAA8
:10416000AAF80E00019B09F101091FFA89F9994586
:104170004E464FD20AAB4B4494F810B013F8148C4F
:10418000B4F808A0404651465A46FCF783FC0AABF7
:104190001E445A4616F8130CF0EE400AFCF77AFC5F
:1041A00094ED009AB4EEC90AF1EE10FAB0EE408A2E
:1041B0003FF750AF94F82460002ED3D1002FD1D117
:1041C000B4EEC98AF1EE10FACCDDD4ED018AF0EE3E
:1041D000499A51E7042340F201328DF81630ADF8C8
:1041E000142003231AE740F20133ADF81430022300
:1041F00014E740F20123ADF8143002230EE7B0EECD
:10420000490A09F0C5FFF0EE409A35E73A1E18BF9B
:10421000012261E7039DF0E62C46019D4FF0180E48
:104220000EFB075E9EF87680B8F1020F32D907EBDD
:10423000470C4FEA8C00022105EBCC0C08E0013161
:1042400089B29CF87680414524D2B8F1020F21D979
:10425000431805EB4302B2F964A0B2F962309A4503
:104260000A46ECD108F1FF38414510D20B46024412
:1042700000EB030A05EB420201339BB205EB4A0A4D
:10428000B2F96620AAF8642043451A46EFD38EF8A7
:104290007680D6E72046FCF733FC94F80A80237C2E
:1042A0000193024649464046FCF770FC019B0446D8
:1042B00000224046FCF76AFC182202FB07520C233E
:1042C00092F876C0B2F864100CF1FF3C03FB07C70C
:1042D00005EB47070C1BA2F86440B7F8643018449C
:1042E000A7F86400012063E6044B054A9B6B05496F
:1042F00000209847002780E6E41F0108AC0000205A
:10430000AC5C0108945501082DE9F04F2DED108BA0
:10431000ADF2844D0026DDF8E854CDE90A212E7077
:1043200028B102681C46AA4B9A4281460AD0FCF783
:10433000CDFC0023089308980DF2844DBDEC108B42
:10434000BDE8F08F0A9B1BB3D9F83070DDF82880E8
:1043500039464046FCF7B0FF58F80730834217D182
:10436000B9F83A702046B900FCF7A6FF54F8273098
:1043700083421CD0974B984A9B6B9849304698478C
:10438000089608980DF2844DBDEC108BBDE8F08FB7
:10439000904B934A9B6B91490020984700230893C8
:1043A00008980DF2844DBDEC108BBDE8F08F4846A7
:1043B000FCF7C8FC99F840300C90002B00F0F98015
:1043C000012308930026089B2B703146C9F8F8603A
:1043D000C9F8FC60C9F8006157A8A4220BF06AFE76
:1043E00099F8403009F1F805002B40F0DC80D9F84D
:1043F00064000B992A46FDF7ADFADDF8EC349D65B3
:1044000099F840300793002B40F0BA80DDF8EC14A7
:10441000D9F85020D9F808310A66DDF8EC2409F102
:10442000C001D16523B12846984799F840300793D9
:1044300099F8FA30002B00F09880B9F9FC200E9220
:10444000A9F8062189F80431D9F800310D93079BAA
:10445000002B40F08780D9F818200D9B002B7ED0D0
:10446000D9F83CA0BAF84430002B6ED0D9F80C0033
:10447000D9F8281013900A98B9F83830415E119194
:1044800004EB8304D9F82C1094ED009ACDF83C90FD
:104490004FF0000883189FED538ADFED538A149183
:1044A0001593CDF824800124C346D14608E0B9F81D
:1044B00044300BF1010B1FFA8BF29342099240D961
:1044C0001FFA8BF5AB1C59F823A05046FCF76EF988
:1044D000079B9842EBD1002480AB214650222FA8A5
:1044E0001E4610931E942094229424940BF0E2FD17
:1044F0002146502243A80BF0DDFD502221463046D4
:104500000BF0D8FD43AA142321922FAA1F922396C1
:10451000ADF87830BAF1000F04D0DAF80030334A41
:10452000934271D02B4B324A9B6B32490020984703
:104530000024099B002BBAD19DF8923089F8CA3229
:10454000B5E7CA46DDF83C904CB1089B002B40F023
:10455000F8810C9B89F8403001230893EBE61D4B52
:10456000254A17E7D9F8202077E799F80431B9F9F7
:10457000FC200E92002B7FF465AFA9F8062161E7BD
:10458000079B012BD9F8083119D1DDF8EC14D9F8C3
:1045900054200A66DDF8EC2409F1DC01D165002B1A
:1045A0007FF441AF44E7012B0CBFD9F868003046D7
:1045B0001FE70C9B013B18BF0123089302E7DDF8BE
:1045C000EC240021C2E91711002B7FF42CAF2FE758
:1045D00030D1C0ACAC0000208C600108FC56010852
:1045E0006460010800000000583934BBE1AFA10F3E
:1045F000705601088C560108006101088E407C3F0E
:104600000000AC42FFFF7F7F09EB8502139ED36958
:10461000116BDAF88800DAF87050DAF87C2033444D
:104620000B9E3344149E1A441D4403440A98CAF84E
:104630008C3031440144CAF880205046CAF8745086
:10464000FCF78EF82822214625A80BF033FD0D99A2
:10465000009425AA23465046FFF7E6F8BAF83880BA
:10466000B8F1000F00F0068401231FED1CAA1FED16
:104670001CBA5FED1CAA159E12932546CDF85890E2
:10468000CDF85CB09AF80430032B00F24E85DFE8D9
:1046900013F03B01ED00670004009AF80530002B91
:1046A00000F04C819AF81D00F0EE487AA0B10AF1B2
:1046B0003C0100230AF1190731F8022B954207D378
:1046C0000A88AA4204D9FA5C06EB8202D2ED007A8B
:1046D00001339AB28242EFD3BAF86220BAF860107E
:1046E000DAF8747053189BB29D42C0F01481A8EBA5
:1046F000030080B2854280F00E8101322A44EB1A19
:1047000092B29BB2002900F0BD8201F1FF3C13FA86
:104710008CFC381DB0EE487A07EB820207EB83036E
:1047200000EB8C0CF3EC016AB2EC016A36EE877A8E
:104730009C4537EE067AF5D14B009BB2002B00F07A
:10474000A18206EE903AF8EE666A87EE266AA3B278
:1047500098009AED170A67EE807A37EE860AB0E085
:104760009AF81E3011990E9A013BDBB2521A042BB3
:1047700012B209EE902A9EBFBC4A02EB8303D3ED2E
:10478000007AF8EEE99A88BFF0EE4B7AC9EEA70AF4
:10479000B0EE000AF1EE600A09F036FEDAF89C206D
:1047A000BAF83A109AF80570A3B202EB830269EEE8
:1047B000A89AD2ED007A294479EE8A9A20EE270A47
:1047C00089B29800002F00F0AB809AF81D70002F7E
:1047D00000F00D840AF13C02F0EE487A96464FF064
:1047E000000C0AF1190B3EF8029B494509D3BEF8AB
:1047F0000090894505D91BF80C9006EB8909D9ED85
:10480000007A0CF1010C1FFA8CF9B945EBD367EE75
:10481000A77ADAF8A8E0B0EE487A4FF0000C32F848
:10482000029B494507D3B2F80090894584BF0EEB3F
:104830008C0999ED007A0CF1010C1FFA8CF9B9453D
:10484000EDD327EE077A60EE006A67EEA99A26EEAE
:10485000877ADAED176ADAF8747077EE299AF1EE52
:10486000E97A67EEA67A37EE800A2AE0FEF752FA76
:10487000BAF82830DAF834109AF80520DAED04BADC
:1048800013FB05F311FA83F307EE903AF8EEE77A9B
:104890000DF1740967EE809A1CAFB0EE690A4B46C1
:1048A000009731465046FEF75FFA1290002840F01C
:1048B0003581B0EE480AA3B2DAF87470BAF83880DD
:1048C00098003844D0ED007ADAF880205B09F4EEE5
:1048D000C07A52F8231005F01F050120F1EE10FAFE
:1048E00000FA05F504F10104CCBF2943A943A5B2A0
:1048F000A84542F823103FF6C5AE129BDDE9169B92
:10490000002B77D1012414E6A3B29AED030ADAF85A
:1049100074709800D5E7A3B29800B0EE6A0AD0E7A9
:10492000D6ED007A9AF81D70DAF8A8E067EEA77A5B
:10493000002F00F059830AF13C026CE7D6ED007AB3
:10494000CAE6BAF8C8729AF804B06FB30AF148061A
:10495000304600223946FBF75FFF012F40F25883B3
:10496000002420462546234607F1FF3806EB0312B4
:10497000D2ED076AD2ED037A92ED047A92ED006AE5
:10498000F4EEE67AF1EE10FA37EE467AD8BFF0EEA2
:10499000667AB4EEE77A0135F1EE10FAADB272D470
:1049A000291A272C89B263D90C9A9AF8CA62002373
:1049B000AAF8C83289F84020DDF8EC2482F850309B
:1049C000DDF8EC04DDF8EC34B9F8061199F80421AF
:1049D00083F85160A0F8541080F852200898002302
:1049E00089F80431A9F806310DF2844DBDEC108B25
:1049F000BDE8F08FDAF88C301793B8F1010FBAF8F0
:104A00009030189340F23B82002316936FF0404E93
:104A1000012308F1FF3412E003EB0E0107EB8101E3
:104A200091ED007AD1ED017AB4EEE77AF1EE10FA69
:104A3000C0F2E68001339BB2434580F01A81591ED3
:104A4000480901F01F0152F8200020FA01F1C807BF
:104A5000F0D5580903F01F0152F8200020FA01F1A7
:104A6000C907D9D402339BB2E6E700BFF81F01089B
:104A700080AB324603EB0413002995D00134FEF7D6
:104A80004DFDA4B22846A8452B463FF66FAF87429E
:104A900040F23283272C87D8391A80AD621C05EB8F
:104AA000041389B294B23246FEF738FDBBF1010F10
:104AB00000F0B882ADF8FC4157AA0023296842F8FB
:104AC000041B013399B2A868D0648C4205F110052B
:104AD000F4D800239AF8CA62AAF8C832092C0C9BB1
:104AE0008DF8FE6189F8403013D9DDF8EC340A24E2
:104AF00083F85040DDF8EC2457A9002351F8040B4B
:104B000042F8040B013398B2CD6C55628442F5D85B
:104B100056E7DDF8EC3483F85040EBE7BAF828109C
:104B20009AF806009AF81E801891FBF741FD189933
:104B30004046B0EE40CAFFF78FF8F5EEC09AF1EEAE
:104B400010FA7FF7B6AE97ED00DAB5EEC0DAF1EE07
:104B500010FA7FF7AEAEF7EE000A09F019FBF7EE98
:104B6000000AF0EE40CA99ED000A09F011FBF0EEE0
:104B700040DAB0EE6C0A09F011FCF2EE047AF0EEC5
:104B800040CAB0EE4D0A6CEEA7CA09F007FC08F166
:104B9000FF33DBB2042B98BFA54AB3EE04DA98BF0B
:104BA00002EB830320EE0DDAB0EE6D0A94BF93EDB5
:104BB00000EAB0EE48EA09F0F1FBF0EE407AB0EE20
:104BC000690AF0EE679A09F0E9FBF2EE046A69EE11
:104BD000A67A7CEE8DCA77EE8E7A2CEE267A77EE68
:104BE000AC7A27EE007AF3EE040A77EEC77AB0EEDD
:104BF000660A77EEAB7AC7EEA00A09F005FC5AE622
:104C0000591C9C468BB2A3424FEA531103F01F0676
:104C1000BFF412AF52F82110F140CE0707EB830525
:104C200007EB8C007FF508AF95ED007AD0ED007AA8
:104C3000B4EEE77AF1EE10FA03F10101E1DCE1D51F
:104C40000CF10101480901F01F0152F8200020FA7F
:104C500001F1C9077FF5F0AE18990D4616998D42FE
:104C6000084612D9179D013189B225F810C0169156
:104C7000E2E6129B63B96F4B6F4A9B6B6F491298C8
:104C800098473FE6B0EE486A61E500211291D3E60D
:104C9000FEF740F81423BAF83810029343AB04939C
:104CA0002FAB0393BAF82830169C0193BAF934302D
:104CB0000093142C234628BF14239846179A38468D
:104CC000FBF71AFEADF88080ADF88880ADF89080D3
:104CD000002C00F0EE801DAB1CAACDF86890CDF83A
:104CE0006CB0CDF85880DFED56CA9FED56CADFEDA7
:104CF00056BA9FED56BADFED56AA109FDDF85490D4
:104D0000DDF844B012922FAC43AD002698461CE06B
:104D1000042978D84F4800EB810CDCED007ADCEDFB
:104D2000056A14ED017A169B69EE277A013677EE53
:104D3000A67AB6B277EE677A9E4244ED017A80F0A9
:104D400079810437002A00F07A81F4EC019A129BF1
:104D50009AF805200093B0EE690A4346494650464A
:104D6000B5EC01AAFEF700F80246A0B99AF81E10A9
:104D70001BF1190F01F1FF31C9B2C9DBBBF12C0FD7
:104D800033DC042944D8344800EB810CDCED007A94
:104D9000DCED056AC5E79AF81E30BAF828101990BC
:104DA0009AF8060017931891FBF702FCDDE917014A
:104DB000B0EE40DAFEF750FFF5EEC09AF1EE10FAD1
:104DC000199A0DDDB5EEC0AAF1EE10FA08DD1299C0
:104DD00091ED00EAB5EEC0EAF1EE10FA00F333818E
:104DE000F0EE487AC7ED007AC0E7BBF14F0F14DC54
:104DF000042900F20181194800EB810CDCED007AF6
:104E0000DCED056A8DE7DFED166ADFED167A88E7DF
:104E1000DFED157AF0EE6A6A83E7032900F2F1808C
:104E2000124800EB810CDCED007ADCED046A78E7D7
:104E3000E41F0108AC000020D06001088C56010876
:104E4000E28500BCE32BA53E365C223BF1CACE3E98
:104E50003BBCCE3B0C200108342001085C2001083B
:104E6000C876423C1550503F5F250E3F8420010814
:104E700000000000DAF88C30DAF874701793FDF750
:104E800049FF43AA049214232FAACDE90232BAF8AB
:104E900028300193BAF9343000934146179A4FF005
:104EA000000838460023FBF727FDADF88880ADF8F1
:104EB00090809AF80430032B00F0268100221046DF
:104EC0001146BAF838309B1A052B40F29F80DAF869
:104ED0008030400901F01F0253F82030D34013F016
:104EE000010325D0DAF874301FED1F7A03F10C04AA
:104EF00004EB810403EB81028800F2EC017A944216
:104F000037EE277AF9D103F1180203315FED287AE1
:104F100003EB81030244F3EC016A9A4277EEA67A2E
:104F2000F9D1B4EEE77AF1EE10FAACBF0123002319
:104F30008DF89230B8F1000F3FF4E4AC08F1FF3384
:104F4000109ADDED2F6ACDF840B09BB230AE06EB83
:104F500083039DED437AD2ED007AB9F8C8420DF58E
:104F6000887881AF9B4618E0794B9B6B9847B9F8DE
:104F7000C8420120651DFBF70BFB0134A4B209EB0D
:104F80000515B34585ED010AA9F8C84229D0F6EC0C
:104F9000016AB8EC017AF7EC017A6E496E4A651D38
:104FA000272C09EB041309EB051E4FF000000DD868
:104FB000DAF800C0C3ED126A83ED137A674BCEEDC9
:104FC000007A9C45D0D19AF81E00D4E7604B644A21
:104FD0009B6B6449DDF840B0002098470024FFF740
:104FE000A8BADDF840B08DE4B0EE487A2BE4B0EE1C
:104FF000487AF0EE487A26E4F0EE6B6AF0EE4B7AEF
:105000008FE6F0EE6C6AF0EE4C7A8AE600238FE7CA
:1050100080AD01212B460C46002044E5002C3FF4D6
:10502000C3AC80AD012221462846FBF7F5FBADF865
:10503000FC4141E5DDE91A9BDDF8588039E7DDE9FF
:105040001A9B984635E7F7EE000A189209F0A0F887
:10505000F7EE000AF0EE40DA98ED000A09F098F851
:10506000F0EE40EAB0EE6D0A09F098F9B2EE047A7B
:10507000F0EE40DAB0EE4A0A6DEE87DA09F08EF90A
:10508000B0EE40AAB0EE4E0A09F088F9179B189AC4
:105090001792591EC9B2042998BF3348B3EE04FAD7
:1050A00020EE0FEA98BF00EB8101B0EE6E0A2AEE07
:1050B0000FAA94BF91ED00FAB0EE48FA09F06EF92C
:1050C000B0EE407AB0EE690AF0EE479A09F066F960
:1050D000F2EE046A29EEA67A7AEE4E7A37EE0F7A6D
:1050E0002DEE26DA77EEC77A2DEE00DA179A77EEF4
:1050F0008D7A77EEED7A75E6BBF1010F8ED0ADF8C3
:10510000FC4134B180ADD7E4BAF8641008464A00D7
:10511000D7E60C9B9AF8CA62AAF8C84289F84030D0
:10512000DDF8EC3483F850404AE4094B0F4A9B6B9E
:10513000084900209847A3B20022DAF87470BAF840
:1051400038801292B0EE480A9800FFF7BABB00BF51
:10515000AC0000208C56010870560108E1AFA10F89
:10516000E8600108C4560108E41F0108B4600108A2
:1051700010B52DED028B82B00191FBF709FADFED3E
:10518000327AB4EEE70AF1EE10FA04DC002002B045
:10519000BDEC028B10BDDDED017A9FED2C7ADFEDC9
:1051A0002C6AF8EE677AB6EE008A67EE877A1446C4
:1051B00087EE807A27EE080AF0EEC07AF4EEE67AFF
:1051C000F1EE10FA36DCDFED237A30EE000A20EE45
:1051D000270A08F04FFF20EE007AF7EE007A37EE4C
:1051E000C77ADFED1D5AB1EEC75A37EEC06AC5EE79
:1051F000256AF8EE005A36EEA77A26EE088A77EE90
:10520000E67A20EE250AC7EE876AC6EE075AC8EE90
:10521000077A80EE076A0120C4ED007AC4ED015AD6
:10522000C4ED027A84ED036AC4ED046A02B0BDECF9
:10523000028B10BDF7EE006AB0EE006AF0EE667AFF
:10524000F0EE465AE7E700BFACC527370AD7233B45
:10525000DEFFFF3EDB0F4940F304B53F2DE9F04F81
:105260002DED028B044689B008468A4617469946BA
:1052700006F06EF9002183465046CDF800B005F0E7
:105280007FFF83456BD93B1D9FED398A019306460D
:1052900004F55C743146504606F06CF8314605461C
:1052A000504606F0ABF801462846FBF751FC03AA2E
:1052B00080462846FFF75CFF002851D0A4F55C72B9
:1052C0003D463B46B2F9021007EE101A32F9041BB4
:1052D000B8EEC77A07EE901A67EE086AF8EEE77A3A
:1052E000A24277EEA67A83ED017AC3ED007A03F14C
:1052F0000803E7D1DC233A46394603A8FEF7E4F970
:10530000C8F16E035B001FFA83FB41465B463A46D9
:105310003846FEF759F9BBF1000F26D0019B9FEDEF
:10532000147A0BF1FF3292B203EB8202F5EC017AB0
:1053300067EEA77AAA4237EE277AF7D107EE90BA3E
:10534000F8EE677A009BC7EE276A0136F6B2B342E1
:1053500004F55C74F1EEE67AE9EC017A9AD8012062
:1053600009B0BDEC028BBDE8F08F9FED017AE5E757
:1053700000000000F0B587B030B116461F46026845
:105380002F4B9A42044608D02E4B2F4A9B6B2F4935
:1053900000209847002007B0F0BD0D4630468C2114
:1053A000FBF78AFFD6F88C30984202D0254B284A6A
:1053B000ECE7284605F028FF05460028EBD00DF164
:1053C00016020023A068ADF816301C21FCF71EF968
:1053D000BDF8163003F40063002B14BF0122002235
:1053E00022730ED000972369201DCDE90130A21D44
:1053F0000392A0680C9B32462946FDF73BFD07B09F
:10540000F0BD0DF11602A068ADF816303121FCF7A1
:10541000FDF8237BBDF81620002BE3D14AF6C043EC
:105420009A42DFD000972369201DCDE90130A21DEB
:105430000392A0680C9B32462946FDF725FEAAE799
:105440000EB03713AC000020A85A0108C05A01085A
:105450001C61010810B582B0049C00940446FFF75B
:1054600089FF08B902B010BD204602B0BDE8104067
:10547000FCF738BA2DE9F04F2DED048BABB00024CA
:10548000CDE919441B9431B1914698460A689C4B6A
:105490009A428A4607D0FBF719FC00202BB0BDECDE
:1054A000048BBDE8F08F0A698B684E6B1344389A01
:1054B0009A4213D2934D944AAB6B94492046984735
:1054C0003A9BB342E9D2AB6B914A9049002098478E
:1054D00000202BB0BDEC048BBDE8F08F3A9BB342AB
:1054E00001D2884DEFE70B7D8346052B00F218842F
:1054F000DFE813F0BA011E01BD008A00210006009A
:10550000804B93F840204AB19B6B824A7F4901202F
:1055100098479AF81430052B40F0B381DAF8304000
:1055200039982146FBF7C8FE399A10513C9A01235D
:1055300018461370B2E7389A4146FDF7A1FE07906E
:105540000028AAD09AF84030002B40F04A82DAF8BE
:10555000640019AA4146FCF7FDF9DAF8083143B1B5
:105560009AF84020002A40F045820AF1C00119A8AB
:105570009847DAF80C209AF840300A921B9ADAF829
:105580003C6009EE102A1846002B40F03082DAF811
:105590001820DAF82C100B913999B6F844308A1893
:1055A0000F92002B00F0E881CDF82080CDE90CBAF5
:1055B0009FED5D8ADFED588ACDF838900027804650
:1055C00006E0B6F844200137BBB29A4240F2CB81E4
:1055D000BDB2AB1C56F823402046FBF7FFF800286D
:1055E000EFD02046FBF7E2F88045EAD124B12368EA
:1055F0004A4A934200F04B81424B494A9B6B4949CE
:1056000000209847002049E7389A4146FDF738FEC8
:1056100000283FF442AFDAF8600019AA4146FCF7CF
:1056200099F9DAF808311BB119A80AF1A4019847D1
:10563000DAF82030DAF80C20399CDAF854101B988C
:1056400023444244FFF70AFE00283FF426AFDAF86D
:105650003C00FBF719FB002800F031839AF840303A
:10566000002B00F02983012B3AD000213AE0389A30
:105670004146FDF705FE00283FF40FAFDAF85C0065
:1056800019AA4146FCF766F9DAF808311BB119A8E6
:105690000AF188019847DAF81830DAF80C20399CBA
:1056A000DAF850101B9823444244FFF7D7FD002836
:1056B0003FF4F3AE5046FBF721FB0446002840F0D0
:1056C000A581DAF83C00FBF7DFFA002800F001833F
:1056D0009AF84030002B00F0EF82012B40F01E833F
:1056E000DAF85410389B00934A4643465846FFF771
:1056F000B1FE00283FF4D1AE04238AF81430C0E094
:1057000030D1C0ACAC00002054610108FC56010847
:105710003061010884610108ACC52737E1AFA10FF2
:10572000705601088C560108000000000AD7233B80
:10573000389A4146FDF7A4FD00283FF4AEAEDAF8F2
:10574000580019AA4146FCF705F9DAF808311BB1EF
:1057500019A80AF16C0198471B9CDAF80C50BAF8AA
:1057600038603B9F0121002320AA0846CDE9203361
:10577000CDE9223345442493FFF7FAFC23461FED7D
:10578000166A07EB86062C4603F1C8012A46B3F9D0
:10579000020007EE100A33F9040BB8EEC77A07EEE1
:1057A000900A67EE066AF8EEE77A994277EEA67AF3
:1057B00082ED017AC2ED007A02F10802E7D120A859
:1057C00032232A462946FDF77FFF2A46002132234D
:1057D0002846FDF7F9FE00211FED2D7A0A46F4EC6C
:1057E000017AF4EEC77AF1EE10FA8BB201F1010101
:1057F000C4BFB0EE677A1A463229F0D1ADF85E2008
:105800001CAB18AA0493039201236FF01D02CDE98B
:1058100001331FED3A0A0092002428460DF15E0282
:105820001894FBF769F8BAF83A40189B33603B9834
:10583000A100FBF741FD3B9B43F824005046FBF7DA
:105840006FFA002800F0DC80389B0093DAF84810EB
:1058500043464A465846FFF7FDFD00283FF41DAE7B
:1058600002238AF814300CE0389B0093496C4346BD
:105870004A46FFF7EFFD00283FF40FAE01238AF8F8
:10588000143001202BB0BDEC048BBDE8F08F06EB8B
:105890008505E26FEB6909920A9A296B206FD4F8AB
:1058A00088501344089A13440B9A1144099A1844D7
:1058B0001A442B44399D6067C4F88C302944C4F8DD
:1058C00080202046FAF74CFF237E002B7DD165799E
:1058D00025BB94F86D300BBB2822294620A80AF07E
:1058E000E9FB012319EE101A20AA20460095FDF7C6
:1058F0009BFFB4F8C420D4F8C000920020A90AF09D
:10590000BFFE6379012284F86D2043BB94F86C30AC
:10591000002B7FF456AE0023079352E62379022B27
:1059200000F084802822002120A80AF0C3FB002375
:1059300020AA009319EE101A2046FDF775FFCC4BF4
:1059400093F84020012A04D99B6BCA4ACA49022015
:10595000984763791BB994F86D30002BD6D1237921
:10596000022BD8D1D2E7DDE90CBA9AF84030DDF845
:105970003890DDF82080184603465344079A83F890
:1059800041205046FBF7DEF90AEB000393F8413063
:105990000BB98AF840009AF8413023B19AF84230A6
:1059A000002B40F09A819AF84030002B40F07E8125
:1059B000DAF85010389B00934A4643465846FFF7A2
:1059C00049FD00287FF4A5AD67E5627915460AB95F
:1059D00084F86D202379022B00F03D81002323768B
:1059E00076E7012B0CBFDAF868000020B1E5DAF8A1
:1059F0002020CEE5012A0CBF0AF1DC010021B6E52A
:105A00005046FBF77BF900283FF447AD389B0093E5
:105A1000DAF84C1043464A465846FFF71BFD00286B
:105A20003FF43BAD03238AF814302AE794F86C90D6
:105A3000B9F1000F7FF476AF2822494620A801254E
:105A40000AF038FB4B4619EE101A20AA00952046A2
:105A5000FDF7EAFECDE91C99CDE91E996379002B8B
:105A600000F01F8194F81DB01FFA8BF3BBF1000FFB
:105A700000F05281013B04F11A000F9D10FA83F0EF
:105A800004F119021CA912F8013B05EB83038242C1
:105A90001B6841F8043BF6D1238F1493002B00F0D0
:105AA0003081D4F8CCC0626FD4F8D8E0099203F109
:105AB000FF3A1FFA8AFA0CF10400114600EB8A093A
:105AC00015464FEA8A0A6346724691ED007AD3ED95
:105AD000007A77EE877AE3EC017AF1EC017A92EDC5
