:020000040800F2
:1000000000000120A99C0008218700081D87000826
:1000100019870008158700081187000800000000F4
:100020000000000000000000000000000987000838
:100030000D8700080000000005870008F58600080D
:10004000F99C0008F99C0008F99C0008B986000892
:10005000F99C0008F99C0008F99C0008F99C00082C
:10006000F99C0008A5860008F99C0008F99C000886
:10007000998600088D860008F99C0008F99C000804
:100080008186000875860008F99C0008F99C000824
:10009000F99C0008F99C0008F99C0008F99C0008EC
:1000A000F99C0008F99C0008F99C0008F99C0008DC
:1000B000F99C00080000000000000000F99C000806
:1000C000F99C00084D860008F99C0008F99C00087E
:1000D000F99C0008F99C0008B5820008F99C00080A
:1000E000A182000835820008000000000000000026
:1000F0000000000000000000000000000000000000
:1001000000000000F99C000800000000F99C0008B5
:100110000000000000000000F99C0008F99C0008A5
:10012000F99C0008F99C0008F99C0008F99C00085B
:10013000F99C000800000000000000000000000022
:10014000F99C0008F99C0008F99C000800000000D8
:10015000F99C0008F99C0008F99C0008F99C00082B
:10016000F99C0008F99C0008F99C000800000000B8
:10017000F99C0008F99C0008000000000000000045
:10018000F99C0008F99C0008F99C00080000000098
:1001900010B5054C237833B9044B13B10448AFF3C1
:1001A00000800123237010BD90000020000000009B
:1001B000C0D3000808B5034B1BB103490348AFF394
:1001C000008008BD0000000094000020C0D300089B
:1001D0000F49104A086813691B0704D50D4B1869AD
:1001E000C0F3C00070470B681B1AB3F57A7FF5D2D5
:1001F00072B613691B0700D430BF62B6BFF36F8FAE
:1002000013691B07EFD5034B1869C0F3C000704793
:10021000AC00002000040048144BDB68C3F3022349
:1002200010B4C3F107041A1D042C28BF0424062AA5
:100230004FF0FF3202FA04F28CBF033B002321EAA5
:1002400002019940431C0AD000F1604000F5614072
:100250000901C9B280F800135DF8044B7047034BE5
:100260000901C9B283F82310F6E700BF00ED00E0F2
:10027000F0B40568294F064601E0581C06D1EC6928
:1002800031EA0400F9D10020F0BC70473868801AC8
:10029000834227D333B328684407F0D5E8690005C3
:1002A000EDD54FF400632B6255E8003F23F4D07383
:1002B00045E80032002AF7D1326802F1080353E81A
:1002C000003F23F0010302F1080040E8003100295B
:1002D000F3D12023B36786F87410F3670320C6F8C0
:1002E0008030D1E755E8003F23F4D07345E8003271
:1002F000002AF7D1326802F1080353E8003F23F0E7
:10030000010302F1080040E800310029F3D1202365
:10031000B36786F874100320F367B5E7AC000020DC
:100320000346214A0068904295BF204A204A21494D
:10033000214930B4024419641421B2FBF1F2920055
:100340005A64022283F8252001689D68D3E90524B8
:1003500021F4FF4121F070012A430A43224342F075
:100360008002B5F5804F026014D0196C114A914299
:1003700008BF12495A6C18BF114902F01C000F2423
:100380000A68844022EA04020A605A680C688240C3
:1003900022430A6000200122D86383F8240083F8F6
:1003A000252030BC704700BF07040240F8FFFDBFA6
:1003B000F8FBFDBF0000024000040240A80002401C
:1003C000A80402402DE9F041654C94F82430012B3B
:1003D00000F0C28061680122022384F8242084F89E
:1003E00025308E680278056A16F0400616BFC6787A
:1003F000C670B605092A09D900230A3AD2B2092AD9
:1004000003F10103F9D842EA0312D2B24378092B6F
:100410004FEA024209D900270A3BDBB2092B07F158
:100420000107F9D843EA0713DBB290F802E0BEF106
:10043000090F4FEA03280DD90027AEF10A0E5FFA23
:100440008EFEBEF1090F07F10107F6D84EEA071E2E
:100450005FFA8EFE90F824C0BCF1090F0DD9002779
:10046000ACF10A0C5FFA8CFCBCF1090F07F1010733
:10047000F6D84CEA071C5FFA8CFC436947681D43B9
:100480002E43324348EA0203826AC669CA255320D2
:100490004D6243EA0E0E4862B2F5807F4EEA0C636D
:1004A0008A6846EA070639D022F400728A60CA6870
:1004B000D2B262F42072CA60256804E02068401B52
:1004C000B0F57A7F20D8CA6812F00202F6D00B622B
:1004D0008E648B6843F400738B608B6843F4005325
:1004E0008B60204B1A6842F480221A609A68FF26BB
:1004F00042F48022012500209A604E6284F8240094
:1005000084F82550BDE8F0810323FF2084F82420DF
:100510004862184684F82530BDE8F08122F48072E4
:100520008A60CA68D2B262F4C072CA60256804E008
:100530002068401BB0F57A7FE6D8CA6812F0010245
:10054000F6D0CB614E648B6843F480738B608B680C
:1005500043F480538B60C4E70220BDE8F08100BF04
:10056000AC0000200004014009494A68D36823F028
:10057000A003D360086804E00B681B1AB3F57A7F08
:1005800004D8D3689B06F7D5002070470320704736
:10059000AC00002008B5114BDA6822F08002DA6066
:1005A0009A68920603D4FFF7DFFF88B908BD9A68FE
:1005B00022F020029A60FFF7D7FF18B1084B032002
:1005C00083F82500054A936843F02003936008BD33
:1005D000034B032083F8250008BD00BF002800401E
:1005E000AC0000200E494A68D06810F0400001D0ED
:1005F000002070474FF0FF3330B4D3600C68032500
:1006000009E003280AD00B681B1BB3F57A7F84BF6F
:1006100081F825500320D3685B06F2D530BC7047C3
:10062000AC0000200288438843EA02430B60704715
:10063000DFF880C02DE9F04F023802390CF1E209F1
:100640000CF1E40B4FF0000A40F6DE1830F8025FC0
:1006500031F8024FA54220D09CF800400BEBC404B7
:10066000658825B36768002607EB850E47F6FF759A
:1006700057F8044BA4B2A54228BF2546A64238BF6E
:100680002646BE45F4D17600B6B26D00B24538BFFD
:10069000B246ADB2A84528BFA8460CF1010CCC4526
:1006A000D4D1A2F80080A3F800A0BDE8F08F4FF6E7
:1006B000FE75EFE7D8D300080B4A30B4411E00F1B5
:1006C0008B054FF0FF3011F8014F08236040C4073D
:1006D0004CBF82EA50004008013BF8D18D42F2D174
:1006E000C04330BC704700BF2083B8ED2DE9F04F08
:1006F000054687B0002405EB410E02900592104696
:1007000004910393AEF1120EAA1EA4460194A246D0
:10071000A346012740F2EE2914E0BBF1000F2ED1D1
:10072000534532DD9A460124019E7642B342BCBF56
:10073000A8EB050301938C4538BF8C46964500F124
:10074000020027D0558A32F8021F6B1A03F50046C3
:10075000B6F5803F38BF038088462CBF002711883C
:100760004B45DADC564E9A45B8BF9A46B342DBDABF
:10077000002C0ABF0027A3464FF0010BD4E75345D6
:1007800005DD9A465C460027CEE70124CCE75C46AF
:100790000027C9E72FB94FF0000B584607B0BDE856
:1007A000F08F002CF7D0BBF1000FF4D0049A059E17
:1007B000CDF810C00023CDF814A0A2F11C08123609
:1007C00099469E461F469C469A4636F9023F03EBE1
:1007D000830203EB4203344630460A2130F9025DBE
:1007E00034F9022F01FB053301FB02330139F5D146
:1007F000734561DC4B4501DA9946BA4601374745F6
:10080000E3D14CF250339E4560465446DDF810C0AB
:10081000DDF814A0BFDD2B4B9945BCDABAF1000F0F
:10082000B9D0019B002BB6D0029B119A1B884FEACE
:10083000CC0CDB0042B1634504D2D943514461443E
:10084000B1FBFAF1119A1160109A002AA5D0039A0F
:10085000002AA2D0024602990E3231F81210B3EBF0
:10086000C10F4FEAC10005D2DB4353440344B3FB3D
:10087000FAF3D21A2046029B0E3033F81030BCEB4C
:10088000C30F4FEAC30106D9019C631E63445B1A80
:10089000B3FBF4F3C01A002AFFF67DAF0028FFF681
:1008A0007AAF82423FF777AF109BA0EB020AC3F802
:1008B00000A0039B1A6070E79E46BC469EE700BFFF
:1008C00012FDFFFFB03CFFFF704700BF70B4124E37
:1008D000124D00F1BC04002143680B44024640F86D
:1008E000043F12689A1AB24209DD50F8042CA3F5AD
:1008F000C9237E3BA1F5C92103607E399A1AAA4219
:1009000006DA03F5C9237E3301F5C92103607E3180
:100910008442E1D170BC70473F240300C1DBFCFF7F
:1009200070B48C8893680E898D79CA799A70003C6E
:1009300018BF01249E801C705D70986070BC704769
:100940000368D0F8E820C0F8F0205A68184610472D
:10095000D0E90F23816B0069184700BF0068C368A6
:10096000184700BF704700BFF8E700BF0068836802
:10097000184700BFFAE700BFF0E700BFF0B4314B03
:10098000314E1B68056882B000248DF8034034683E
:10099000376803EB8303C4F16404C3EBC30322444D
:1009A0001B0D02FB03F30193AB6819420AD12CE043
:1009B000019C019B013B0193AB68002C08BF002206
:1009C000194222D0B1F5C06F05D12B7BDBB28DF877
:1009D00003309DF803303368DB1B9A42E8D86B681C
:1009E000426823F0E003B2F5827F6B601AD0836A1D
:1009F000B3F5005F0DD00122002380F85D2080F860
:100A00005C30032002B0F0BC7047002002B0F0BCA4
:100A100070472B6823F400532B602B6843F400537A
:100A20002B60E8E78368B3F5004F02D0B3F5806F21
:100A3000DDD12B6823F040032B60836AB3F5005FA0
:100A4000D9D1E6E700000020AC00002070B4294DA9
:100A5000294B2A681B6804682E68C2F1640211449D
:100A600083B0C3F3CB3301FB03F30193A3681A06EE
:100A70000DD52B689B1B8B420DD2019A019B013B2C
:100A80000193A368002A08BF00211B06F1D40020AF
:100A900003B070BC70476368426823F0E003B2F5AE
:100AA000827F636016D0836AB3F5005F09D00122AC
:100AB000002380F85D2080F85C30032003B070BC18
:100AC0007047236823F400532360236843F40053E2
:100AD0002360ECE78368B3F5004F02D0B3F5806F75
:100AE000E1D1236823F040032360836AB3F5005FFC
:100AF000DDD1E6E7AC0000200000002007EE900A00
:100B0000DFED1A6A9FED1A7AF8EEE77A67EEA67AB9
:100B1000F4EEC77AF1EE10FA01D5012920D09FED4D
:100B2000157AF4EEC77AF1EE10FA17D4B1EE0C7A1A
:100B3000F4EEC77AF1EE10FA16D49FED0F7AF4EEC8
:100B4000C77AF1EE10FA0DD49FED0C7AF4EEC77A65
:100B5000F1EE10FA4CBF04200520704701207047C9
:100B60000020704703207047022070470AD7233BBC
:100B7000666646403333A34033334B410000944113
:100B800070B483B0114B9FED127A124E01930DF1A8
:100B9000050102AD02220120531EDBB2042B06EB3D
:100BA00083049ABFD4ED007A77EEA77AF0EE477A05
:100BB000F4EE407AF1EE10FA98BF1046A94202D046
:100BC00011F8012BE8E703B070BC7047020304057D
:100BD000000000004CDC0008024B034A9B6B0349F9
:100BE00000201847AC0000207C1201088C1201087C
:100BF000024B034A9B6B034900201847AC000020BE
:100C0000A01201088C120108836910B50446BBB11B
:100C10000D4B93F840204AB963697BB10A4B0B4AEC
:100C20009B6B0B4900209847002010BD9B6B094A25
:100C30000749012098476369002BEFD1012010BDBF
:100C4000C369002BE4D1E7E7AC000020F0120108F3
:100C5000D4120108B812010870B40169B0F842203A
:100C600090F8383031F81220032B08BF82F400428C
:100C700040F2E51303FB02F31B0C826CA3F58973AE
:100C80009BB21380828F31F812204AB1B0F8402015
:100C900031F81220012A03D9C26C0124147002E039
:100CA000C26C00241470C48F428F31F8145031F894
:100CB0001240B0F9441040F2E51202FB05F2120CAA
:100CC000C2F5897213441BB2002BB8BF5B42D0E956
:100CD00014651BB2A4F1010200689942B2FA82F2D3
:100CE0004FEA5212ACBF00230123327042682B70CE
:100CF00070BC104770B50446806978B1E36943B1B0
:100D00000F4B93F8402022B19B6B0E4A0E490120F5
:100D100098472068BDE8704083681847084D0B4A23
:100D2000AB6B09499847E3693BB195F8403023B173
:100D3000AB6B044A044901209847002070BD00BFF6
:100D4000AC000020441301083413010818130108F3
:100D50002DE9F047C26DD0F8188006690023A8F885
:100D6000023004461D46137000F14C07994657F8AF
:100D7000043B03B3B3F838C0B3F89000B3F8921053
:100D8000B3F8D82006EB400006EB410106EB420227
:100D900006EB4C0CC3E91301C3F8A420C3F814C03C
:100DA00088F800501868D3F8DC20416883F8E49094
:100DB000C3F8E02088470135EDB2042DD7D1206873
:100DC000BDE8F04743681847704700BF704700BF51
:100DD000704700BF704700BF52B101EB8202043878
:100DE00050F8043F4B801B0C0B8004319142F7D12B
:100DF000704700BF30B583B000EB42000D4601A93B
:100E00001C46FFF70FFC019A22F00F0204B12A439F
:100E10000092014601226846FFF7DEFF03B030BDB5
:100E20002DE9F04F87B0BDF84070DDF844A003EB2A
:100E3000C7077B8883B381460E4601EB0208002575
:100E40004FF0010B7A6852F82540620092B2B2422C
:100E5000C4F301701DD342451BDA01280CD00228CF
:100E600036D0E8B1324B334A9B6B33490020984768
:100E7000002007B0BDE8F08FBAF10003A2EB060234
:100E800018BF012392B2C4F303414846FFF7B2FFF3
:100E90007B880135AB42D5D8012007B0BDE8F08F83
:100EA000C4F344530BFA03FC921BE24591B21ED3E8
:100EB0000CF1FF331E4A0193CDF800A0946B1F4A3A
:100EC00003900B461C49A047039807B0BDE8F08F7C
:100ED000921BBAFA8AF35B0992B2C4F30341484603
:100EE000FFF788FF7B880135AB42ABD8D4E709EB2D
:100EF000410004A90393FFF795FB039B4FF0FF32DA
:100F0000C3F12003C4F3044422FA03F3049AA34078
:100F100022EA03020AFA04F40146144305A8012256
:100F20000594FFF759FF7B880135AB428AD8B3E7B8
:100F3000AC000020981301088C1301085413010819
:100F40002DE9F04FC2F51D669A461B68164C0E3609
:100F5000B34298BF9EB2154B054688BFB6B2500843
:100F600003EB800083B0174672088846023DFFF706
:100F700033FF04F1E10904F1E40B7D2301E014F8EF
:100F8000013F35F8022F3946CDE9003240465B4635
:100F90003246FFF745FF4C4501D00028EFD1CAF893
:100FA000006003B0BDE8F08FD8D30008F4FD00085E
:100FB0002DE9F04F02EB420C00EB8C0C8DB00026BB
:100FC0008346824680466746B14603A84FEA8905B4
:100FD00086469FED577A43466AB19C192C44D4ED5E
:100FE000007A1C46D4ED006A0C3367EEA67ABB4249
:100FF00037EE277AF1D104350C2DAEEC017AE8D129
:1010000009F10109B9F1030F00F1100008F104081A
:10101000A6F1040607F10407D8D19DED046ADDEDC1
:10102000055ADDED086A68460BF10C04DFED407AE5
:1010300053463AB11D4695ED007A0C33634577EE81
:10104000877AF7D10AF1040AA245E0EC017A0CF1A3
:10105000040CEBD1DDED037AF5EE407AF1EE10FAF7
:1010600010D0B7EE007A87EE274ADDED077A66EEFC
:10107000044A26EE245A77EEC57AF5EE407AF1EE70
:1010800010FA06D100200023CBF800300DB0BDE8E7
:10109000F08FC7EE272A65EE843A25EEA47A66EE35
:1010A000237A9DED0B5A76EEE77A36EEC77A67EE35
:1010B000A27A65EEA36A75EE666A27EE275A76EE87
:1010C000C56AF5EE406AF1EE10FADBD09DED005AEC
:1010D0009DED013A9DED022A64EE854A63EE853A64
:1010E00073EE644A012067EEA47A002372EE677AF9
:1010F00077EEE33AC3EEA67A27EE277AC1ED027ABD
:1011000034EEC77A65EEA75A67EE227A26EE276A92
:10111000C1ED017A35EE466A76EE655A25EE844ACF
:1011200081ED004ACBF800300DB0BDE8F08F00BF74
:10113000000000000028B8BF404270B4BABF00B23F
:101140000124002400293FDB884238DB00220346CB
:1011500068B30846002643F628450004B0FBF3F1C7
:10116000A9424AD946F2D633994236D948F6720393
:10117000994244D94AF64943994242D94DF2A303D0
:10118000994240D94FF24B73994298BF052025D917
:101190004FF24C7548F233234CF2A340491B03FB3A
:1011A00001F100EB114016B1C0F5C9301F3014B188
:1011B000C0F549303F3002B1404270BC70470B4629
:1011C000C1B912480A46F2E7494209B288424FF0D3
:1011D0000102BCDA0B461646BDE701200C4B03EBBF
:1011E000C00503EB8003D5F88C08D3F8C038D5F8D8
:1011F0008858D3E700220126ADE70020EEE7022061
:10120000ECE70320EAE70420E8E700BF1F920100B3
:10121000D8D3000810B4084C248D490864088C42C7
:1012200028BF0C46023C24F00104043010601C600E
:101230005DF8044B704700BFAC000020F8B506888D
:10124000002A14BF4FF480524FF40052B6F59C6F41
:1012500038BF4FF49C66B24205460F461C4623D267
:10126000134B144A9B6B1449002098474FF0000E13
:101270001249134A134BE360C4E901120FCD203623
:1012800076004FF0000CA4F802C004F1300C24F8F2
:10129000106B0FC495E80F0007C497E80300238084
:1012A0008CE803007046F8BD4FF0010EE0E700BF88
:1012B000AC000020BC130108DC130108010002008F
:1012C00003001B001C00200010B1024B1B6B1847D1
:1012D000704700BFAC000020A0B110B50446406DBF
:1012E00018B1FFF7F1FF00236365A06D18B1FFF798
:1012F000EBFF0023A365E06D18B1FFF7E5FF0023C6
:10130000E36510BD704700BF2DE9F0410768044652
:10131000C7B1D7F8980080B100F14C0500F15C0628
:101320004FF0000855F8040B18B1FFF7CDFF45F852
:10133000048CB542F6D1D7F89800FFF7C5FF3846C0
:10134000FFF7C2FF2046BDE8F041BDE7DFF864C00B
:101350002DE9F047DCF83C501DB12B46BDE8F047C5
:10136000184712B35200A1F10208A2F102090E4679
:101370009A4607464944444634F8025F6DBA8C42A7
:101380002580F9D1DCF8344038463146A047BAF11F
:10139000000F01D1BDE8F0874E4438F8023F5BBA38
:1013A000B045A8F80030F8D1F4E7BDE8F047DCF824
:1013B00034301847AC00002070B5012584B041F4EA
:1013C000A0430446164603A92A4601A8ADF80830F2
:1013D0000196ADF80A50FFF7FFFC204602A9002352
:1013E0000422FFF7B3FF04B070BD00BF2DE9F04742
:1013F00082B01D4643F44053BDF82840ADF800309C
:1014000000278A4691466946012303228046ADF8AB
:101410000270ADF80470FFF799FFBDF9046004FA9B
:101420000AF1714001EA090445F4805540463B4603
:10143000694674400222ADF80050ADF80240FFF753
:1014400085FF02B0BDE8F08730B583B0002529469E
:1014500000957B23FF220446FFF7C8FF01212046A9
:1014600000918B230222FFF7C1FF009520468B23BA
:1014700080220721FFF7BAFF03B030BD30B583B03B
:1014800041F4805415460023022201A9ADF804401E
:10149000ADF80650FFF75AFF03B030BD30B583B04A
:1014A00041F4405114460025ADF8001001230322F9
:1014B0006946ADF80250ADF80450FFF747FFBDF89C
:1014C0000430238003B030BDF0B585B0002401297D
:1014D00007461646ADF80E4038D0022933D0224BCD
:1014E00022499D6B224A03462046A84721460DF11A
:1014F0000E023846FFF7D2FFBDF80E30738003F0BE
:101500000705012D358024D013F0060F0BD16DB9DE
:10151000154A0097946B1549164A2846A0472C4651
:10152000204605B0F0BD023D012DF9D90E4A0097C5
:10153000946B0E49104A0020A04700210C4620461B
:10154000318005B0F0BD32210124D0E70C463321B3
:10155000CDE7054A0097946B0449084A0020A0474C
:101560000024204605B0F0BDAC0000200C1401089A
:10157000F013010824140108881401085414010808
:10158000F0B583B00024012907461646ADF80640A1
:1015900019D0022909D01A4B1A4A9D6B1A490346E1
:1015A0002046A847204603B0F0BD46210DF10602B3
:1015B0003846FFF773FFBDF80650842475B1BEB9F5
:1015C000012003B0F0BD45210DF106023846FFF7BA
:1015D00065FFBDF806508324002DF0D1084B0B4A5F
:1015E0009C6B094928463B46A047284603B0F0BDFE
:1015F000384621460022FFF741FF3046D3E700BFBF
:10160000AC000020F01301080C140108BC14010800
:1016100070B582B00DF106020E4600241C2105466D
:10162000ADF80640FFF73AFFBDF8062012F400625D
:101630000CD128461B21FFF721FF284646F4006203
:101640001B21FFF71BFF012002B070BD044B054AB0
:101650009E6B054920462B46B047204602B070BD20
:10166000AC000020F01401080C14010870B582B021
:101670000DF10602002437210546ADF80640FFF7BC
:101680000DFFBDF8063003F0C003B3B90DF106023B
:1016900000241C212846ADF80640FFF7FFFEBDF8E8
:1016A00006301B0515D50E4B0E4A9E6B0E49204683
:1016B0002B46B047204602B070BD094B93F840203E
:1016C000002AE3D09C6B094A07492B460120A0471A
:1016D000DCE72846FFF7B8FE012002B070BD00BF6E
:1016E000AC0000204C1501080C140108201501085D
:1016F000F0B40C4D2F8D9E1CB7EB460F05D2AB6B93
:10170000094A0A49F0BC00201847144641F4A04198
:10171000013B11805380214626F000420023F0BC9B
:1017200014E600BFAC0000207C1501089C150108E0
:1017300010B582B0044601AA0121FFF7C5FE20467C
:1017400000220121FFF71CFFBDF80430022B08D056
:101750000549064A8C6B06490020A047002002B0CC
:1017600010BD012002B010BDAC000020B015010872
:10177000F815010810B520B10B4B02689A420446D7
:1017800007D00A4B0A4A9B6B0A49BDE8104000206B
:10179000184700690023236008B1FFF795FD204634
:1017A000BDE8104090E500BF0EB03713AC0000203C
:1017B000181601083016010810B520B10C4B02684C
:1017C0009A42044607D00B4B0B4A9B6B0B49BDE872
:1017D000104000201847406818B1C368984700239C
:1017E0006360002323602046BDE810406CE500BF25
:1017F0000DB03713AC00002038160108541601084C
:1018000038B338B50268144B9A42044603D0BDE899
:101810003840FFF7E1B9C56A1DB1104B2A689A42FA
:101820000ED00F4B0F4A9B6B0F4900209847A06AC0
:10183000FFF7C2FF002323602046BDE8384043E5A0
:101840002846FFF749FD00232B602846FFF73CFDA3
:10185000EDE7FFF7C1B900BF01B1371303B137138B
:10186000AC000020381601086016010808B5044BCA
:10187000044A9B6B044900209847002008BD00BF24
:10188000AC000020801601089816010870B520B140
:101890000B4B04460068984207D00A4B0A4A9B6BE0
:1018A0000A49BDE8704000201847032A0D46164635
:1018B00002D9FFF7DBFF10B104EB0614A57470BD6D
:1018C0000FB03713AC000020A016010898160108CD
:1018D00008B518B1064B02689A4207D0054B064A74
:1018E0009B6B064900209847002008BD043008BDC6
:1018F0000FB03713AC000020A0160108981601089D
:1019000018B1064B02689A4205D0054B054A9B6BFD
:1019100005490020184780ED120A70470FB03713B1
:10192000AC000020A01601089816010870B520B17F
:101930000B4B04460068984207D00A4B0A4A9B6B3F
:101940000A49BDE8704000201847032A0D46164694
:1019500002D9FFF78BFF10B104EB0614A58170BD0F
:101960000FB03713AC000020A0160108981601082C
:1019700070B520B10B4B04460068984207D00A4B63
:101980000A4A9B6B0A49BDE8704000201847032AA9
:101990000D46164602D9FFF769FF10B104EB061495
:1019A000E57470BD0FB03713AC000020A01601081D
:1019B0009816010838B520B10B4B02689A420446CC
:1019C00007D00A4B0A4A9B6B0A490020984700201F
:1019D00038BD03290D4603D9FFF748FF0028F7D08B
:1019E00004EB0514608938BD0FB03713AC0000203C
:1019F000A01601089816010870B520B10B4B0446DB
:101A00000068984207D00A4B0A4A9B6B0A49BDE816
:101A1000704000201847032A0D46164602D9FFF7EA
:101A200025FF10B104EB0614658170BD0FB03713AC
:101A3000AC000020A01601089816010838B520B1A6
:101A40000B4B02689A42044607D00A4B0A4A9B6B2A
:101A50000A4900209847002038BD03290D4603D9C4
:101A6000FFF704FF0028F7D004EB0514208938BDE8
:101A70000FB03713AC000020A0160108981601081B
:101A800070B520B10B4B04460068984207D00A4B52
:101A90000A4A9B6B0A49BDE8704000201847032A98
:101AA0000D46164602D9FFF7E1FE10B104EB06140D
:101AB000258170BD0FB03713AC000020A0160108BF
:101AC0009816010838B520B10B4B02689A420446BB
:101AD00007D00A4B0A4A9B6B0A490020984700200E
:101AE00038BD03290D4603D9FFF7C0FE0028F7D003
:101AF00004EB0514606838BD0FB03713AC0000204C
:101B0000A01601089816010870B520B10B4B0446C9
:101B10000068984207D00A4B0A4A9B6B0A49BDE805
:101B2000704000201847032A0D46164602D9FFF7D9
:101B30009DFE10B104EB0614656070BD0FB0371345
:101B4000AC000020A01601089816010808B518B1CD
:101B5000074B02689A4207D0064B074A9B6B07491E
:101B600000209847012008BD90F8520008BD00BF32
:101B70000FB03713AC000020A0160108981601081A
:101B800018B1064B02689A4205D0054B054A9B6B7B
:101B900005490020184780F8521070470FB03713DE
:101BA000AC000020A016010898160108836A0022E4
:101BB000A3F85A20A3F85220704700BF836A19681F
:101BC0004A6822F0030210B44A601A6E012442F0FF
:101BD00010021A6683F85D405DF8044B704700BF41
:101BE000704700BF704700BF70B503681B4D2E687B
:101BF0001B689B062ED4846A2268536823F0200356
:101C00005360204632464FF4C051FEF7B7FE58B934
:101C100031462046FEF71AFF30B932464FF4C06114
:101C20002046FEF7ABFE38B1236E43F02003236657
:101C3000236E43F02003236621684B68002223F0C3
:101C4000030301204B60E287A4F8462084F85D007E
:101C5000236E13B9012385F8413070BDAC0000201C
:101C600038B52E4A036815681B689B061FD4846A22
:101C70002368A268586820F020005860C2B15968F3
:101C8000606821F00101B0F5827F596035D02946A6
:101C90002046FEF7DBFEC8B96368B3F5827F1CD02F
:101CA00001230022A4F8462084F85D30236E38BD5D
:101CB0006268B2F5827F5A6827D022F001025A602A
:101CC00029462046FEF7C2FE0028E5D0236E43F0E9
:101CD0002003236620232366E2E7A368B3F5004FC1
:101CE00002D0B3F5806FDBD12A464FF4C0612046A5
:101CF000FEF744FE0028D3D0E8E7B2F5004F08D144
:101D00001A6822F040021A60C1E722F003025A600A
:101D1000BDE7B2F5806FF3D0B9E700BFAC0000209B
:101D2000444AD36830B49C0708D0D368046803F0F1
:101D30000303A34247D0012030BC70470368022B45
:101D400052D0032B49D0012BF5D112689207F2D55E
:101D5000384D4468EA6822F073021343013C43EAB9
:101D60000413EB60334C344A236823F08063236010
:101D7000156803E013685B1B022B39D823681B012D
:101D8000F8D4002936D1D0E902532169DB0621F0CD
:101D9000784121F4FE4143EA05230B4323612549A1
:101DA0000B6843F080630B60146803E013681B1B2F
:101DB000022B1DD80B681B01F8D582690B691343F0
:101DC0000B610020B8E7002BB5D0D3684268C3F39D
:101DD000021301339342AED1C4E71468A403B7D40D
:101DE00012685203A7D5B3E712685505A3D5AFE72C
:101DF0000320A1E7012923690DD04169856823F0FB
:101E0000C06323F4FE43490843EA0523013943EA4A
:101E100041632361C3E70169856823F4C00323F4A8
:101E2000FE43490843EA0523013943EA415323614C
:101E3000B5E700BF00100240AC000020F0B5036819
:101E400013F4006783B004460CD0416CB1F5000F69
:101E500000F03281B1F5400F00F00681002900F05A
:101E60002381012798034FD5A44A916DC90040F101
:101E7000EF800020A249A34D0A6842F480720A60F4
:101E80002E6804E02A68921B022A00F2F8800A6891
:101E9000D205F7D5AFBB994AA66DD2F8901011F4D0
:101EA000407126D08E4224D0D2F89060D2F89010A3
:101EB00041F48031C2F89010D2F8901021F48031B2
:101EC000C2F8901026F4407CF107C2F890C00FD5FC
:101ED000D5F800C0114641F2883605E02A68A2EB29
:101EE0000C02B24200F2CB80D1F890209207F5D5D7
:101EF000A66D8249D1F8902022F440723243C1F895
:101F00009020002840F0BF80D90708D57B49206A7F
:101F1000D1F8882022F003020243C1F888209A07F2
:101F200008D57649606AD1F8882022F00C02024375
:101F3000C1F888205E0708D57049A06AD1F88820CA
:101F400022F030020243C1F888209D0608D56B4973
:101F5000E06AD1F8882022F440620243C1F8882068
:101F6000980508D56549E06BD1F8882022F4402215
:101F70000243C1F88820590508D56049206CD1F882
:101F8000882022F440120243C1F888205A0608D55E
:101F90005A49206BD1F8882022F440520243C1F8FC
:101FA00088201E0608D55549606BD1F8882022F498
:101FB00040420243C1F88820DD0508D54F49A06B97
:101FC000D1F8882022F440320243C1F88820180357
:101FD0000ED54A4AA16CD2F8883023F040630B43F7
:101FE000B1F1006FC2F8883053D0B1F1806F73D077
:101FF000236859030FD5414AE16CD2F8883023F0A9
:1020000040630B43B1F1006FC2F8883046D0B1F1A4
:10201000806F69D023685A040CD53849226DD1F8F5
:10202000883023F040531343B2F1805FC1F8883009
:1020300049D023681B0408D5304A616DD2F8883036
:1020400023F080430B43C2F88830384603B0F0BD1C
:10205000916D41F080519165926D02F08052019234
:10206000019A012006E7616C244AD2F8883023F4F3
:1020700040031943C2F8881023680027F2E60327BB
:1020800000283FF441AF1D498A6D22F080528A65D5
:102090003AE7D36843F48013D360A9E7D36843F4E5
:1020A0008013D3602368B6E70430FFF739FE074694
:1020B0000028D8D02368D5E6104AD36843F480338B
:1020C000D360416CD0E70221201DFFF729FE236871
:1020D0000028AFD00746ADE70121201DFFF720FE05
:1020E000002818BF074683E70121201DFFF718FECF
:1020F000236800288FD007468DE700BF00100240FC
:1021000000700040AC0000201F498B6DDB0082B0E6
:102110001DD51E4B1B6803F4C063B3F5007F28D0A8
:10212000802812D82ED0A0F170035A425A41184983
:102130000B6823F0070313430B60086800F00700E7
:10214000801A18BF012002B070470322EFE78B6DA1
:102150000E4A43F080538B658B6D03F080530193DF
:10216000019B13688A6D22F0805203F4C0638A6574
:10217000D3E7802804D9A0288CBF02220122D6E709
:102180000022D4E70222D2E7001002400070004093
:1021900000200240064A074B92680749C2F3022218
:1021A0001344086893F8DC3803F01F03D8407047E5
:1021B00000100240D8D3000800000020264A93688F
:1021C000D26813F00C0308D00C2B3AD0042B36D075
:1021D000082B224818BF002070471F4A11680907C2
:1021E00054BFD2F8941011681D4A54BFC1F30321A3
:1021F000C1F3031102EB8102D2F8E40803B30C2B04
:1022000027D1154BDB6803F00303022B1FD0134AC1
:10221000032B08BF1046104BD968DA68DB68C3F39C
:102220004163C2F30622C1F302110133013100FB05
:1022300002F05B00B0FBF1F0B0FBF3F0704709482F
:10224000704702F00302012AC7D00020D9E70548F1
:10225000E1E70020704700BF0010024000127A0042
:10226000D8D300080024F4002DE9F04F0C6885B0A5
:10227000002C00F0878000234FF0010B0BFA03FEC7
:102280001EEA040A79D04E6806F00302551E012D9D
:102290004FEA430C79D9032A40F0BD8002FA0CF2D0
:1022A000D543D0F800C00CEA05052A4316F4403F98
:1022B000026062D05F4D2A6E42F001022A662D6EE6
:1022C00023F0030202F1804205F0010502F580329D
:1022D000039503F00305DDF80CC0D2F808E0AD006B
:1022E0000F2707FA05FCB0F1904F2EEA0C0E16D01E
:1022F000514FB84200F0978007F58067B84200F070
:10230000958007F58067B84200F08A8007F58067FE
:10231000B8420CBF4FF0040C4FF0070C01E04FF037
:10232000000C0CFA05F545EA0E059560434A9268E3
:102330006FEA0A0CF502414D54BF0CEA02024AEA68
:102340000202AA60ED68B2023C4A54BF0CEA0505DD
:102350004AEA0505D5605568384AB70354BF0CEA08
:1023600005054AEA050555601268F503334D54BF6B
:102370000CEA02024AEA02022A60013334FA03F24A
:102380007FF47CAF05B0BDE8F08FD0F80880CF684F
:10239000032505FA0CF528EA050807FA0CF949EABD
:1023A0000808C0F80880D0F80480C6F3001928EAAD
:1023B0000E0809FA03FE4EEA080EED43C0F804E0E9
:1023C000D0F80C808F6808EA050807FA0CFE4EEA80
:1023D000080E022AC0F80CE002D002FA0CF260E704
:1023E0004FEAD30800EB880803F0070ED8F82070F6
:1023F00001970F694FEA8E0E07FA0EF90F2707FAB9
:102400000EFE019F27EA0E0E49EA0E0E02FA0CF2AA
:10241000C8F820E045E7032505FA0CF5ED43CFE7C2
:102420004FF0030C7DE74FF0010C7AE74FF0020C00
:1024300077E700BF0010024000040048000401409C
:1024400070B4D0E9106304223168056803F01C03FE
:102450009A400A422C680ED014F0040F0BD02B685F
:102460009B0603D42B6823F004032B60036B72607C
:10247000CBB170BC184702229A400A4215D014F022
:10248000020F12D02B68990606D42B68012123F085
:102490000A032B6080F82510C36A7260002280F85E
:1024A0002420002BE5D170BC704708229A400A42D4
:1024B000F9D02207F7D52A68416B22F00E022A6074
:1024C000012202FA03F300247360C26380F82440FF
:1024D00080F825200029E6D070BC0847044A00F0A7
:1024E0001F01012340098B4042F82030704700BF94
:1024F00000E100E070B5104D104A2B68A2FB0323E9
:102500009B09013BB3F1807F0CD20D4A0D4953600A
:10251000F02381F82330002607230F289660044615
:10252000136001D9012070BD01464FF0FF30FDF767
:1025300073FE6C60304670BD00000020D34D621009
:1025400010E000E000ED00E038B54F4B93F8242098
:102550000021012A83F8421000F08C805A68532130
:102560000225CA20012483F8255083F824405062B4
:102570005162916821F480619160D168C9B261F4BF
:102580009061D160D168490663D51F21516191687E
:102590003E4821F0070141F003019160016841F4D8
:1025A00080110160816841F480118160916841F47B
:1025B000804191609168FF2441F480610120916025
:1025C000546283F8250093F84220002183F82410F8
:1025D0008AB972B6BFF34F8FBFF36F8F93F8422063
:1025E00002B930BF62B6BFF34F8FBFF36F8F93F85E
:1025F0004220002AEDD093F824200021012A83F8FC
:10260000421037D05868532201240225CA2183F88A
:10261000255083F8244041624262826822F480623D
:102620008260826822F4804282601C6804E019683B
:10263000091BB1F57A7F1FD8C26812F00402F6D0E8
:10264000FF2401220021446283F8241083F825200E
:1026500038BD1C68D16811F0040196D11868001BC0
:10266000B0F57A7FF6D9FF240320546283F8241052
:1026700083F8250006F05AF9FF240321446283F809
:10268000242083F82510F5E7AC0000200004014069
:102690002DE9F04F2B4CDFF8BC90DFF8BCA083B0E5
:1026A0004FF48055A5620F469346044698463D1F59
:1026B000FFF74AFFCDF804B00DE0FEF799FA0023CA
:1026C0002B60206818B1FFF79BF800232360B74206
:1026D00004F104041DD02E4655F804BFBBF1000FD1
:1026E000EFD0DBF800304B45E7D1DBF8400018B104
:1026F0000368154A934220D0DAF83830134A144957
:10270000002098470023CBF800305846FEF7DCFD48
:10271000D5E7DDF804B0BBF1000F02D05846FFF753
:1027200029F8B8F1000F05D0404603B0BDE8F04FDE
:102730000AF03EB803B0BDE8F08F00230360FEF757
:10274000C3FDDFE7000400480FB03713A0160108EF
:102750009816010802B13713AC0000202DE9F043B0
:10276000866FA1B00446002E5ED02568A368266956
:102770006069C64A2421A167296821F00101296006
:10278000334329680343E0690A40034313432B6042
:102790006B68E168BE4A23F440530B436B6095427B
:1027A000A369AA6800F0BA80266ABA4922F43062A6
:1027B000334313438D42AB600ED0B74B9D4200F0C4
:1027C0001582B64B9D4200F02E810023C4E91933D7
:1027D000012021B0BDE8F083B14BB24AD3F8883074
:1027E00003F00303013B022B00F23F81134493F8F3
:1027F0001439B0F5004F00F06381082BE5D801A132
:1028000051F823F0652A0008732A0008232A0008DB
:10281000CB2700084B2A0008CB270008CB2700084D
:10282000CB270008B129000880F874605C2209A851
:102830003146CDE90466CDE90666089609F030FB1D
:102840002568944B9D4200F00082934B9D428DD1B0
:1028500009A8022712960997FFF7F0FA0646002802
:1028600040F01E828E4B904D9A6D42F400329A6574
:102870009A6D02F400320192019ADA6C42F0010280
:10288000DA64DB6C059703F001030F200093032249
:10289000072304A9049005F144094FF09040DDF8A6
:1028A00000C00792089306964FF08008FFF7DCFC03
:1028B0007E4B6B644846C5E91366C5E91666C5E9F3
:1028C0001866AF64C5F85480FDF72AFD034600285A
:1028D00040F0E68105F18C067549C4F8709010222D
:1028E0003046C5F88C10C5E92638C5E92833C5E956
:1028F0002A33EC66C5F89070C5F89420FDF710FDFA
:102900000146002840F0CC81E6662620C5F8B44098
:10291000FDF782FC2620FFF7E1FD26E722F4306276
:1029200013435F49AB60D1F8883003F44063B3F5DB
:10293000006F00F088810CD8002B00F07E81B3F589
:10294000806F7FF442AFFFF739FC002800F08180F0
:1029500005E0B3F5406F7FF438AF4FF40040626894
:1029600002EB420383423FF630AFB0EB023F3FF64B
:102970002CAF56084FF480730027E3FB00674FF03D
:10298000000843463046394605F0EAFF494BA0F5BA
:1029900040729A423FF619AF2568E860C4E9198889
:1029A00019E0302B7FF411AFB0F5004F00F0A1809B
:1029B0004FF4004063684FF6EF7200EB5300B0FB3A
:1029C000F3F0A0F1100393423FF6FFAE2568002319
:1029D000E860C4E91933636A002B40F0AF806B688C
:1029E000314A23F490436B60AB6823F02A03AB6059
:1029F0002B68002143F001032B60C4F88010166897
:102A00002B681A0700F18E802B685B0700F1E180CC
:102A100000232022A26784F87430E26718462366F8
:102A2000D7E62548C6E703F5E433D3F8883003F04A
:102A30003003202B00F03681B3D87BB1102B7FF40C
:102A4000C4AEB0F5004F00F0E280FFF7B7FB0028FE
:102A5000B0D10023C4E919332568BCE7B0F5004FB5
:102A600000F0CF80FFF796FBF1E7B0F5004F00F0E4
:102A7000D4800B4B11499B680868C3F3C2231A44E6
:102A800092F8DC3803F01F03D840E0E7F369FFEF6A
:102A900000800040003801400044004000480040F1
:102AA00000100240D8D30008AC0000206C000240A7
:102AB00080000240FFFC0F000024F4000000002012
:102AC000082B3FF682AE01A151F823F0032C000839
:102AD0001B2C0008F12A0008CB2700080F2C000847
:102AE000CB270008CB270008CB270008F32A0008D3
:102AF0006F486268530803EB40004FF6EF73B0FB7A
:102B0000F2F0A0F110029A423FF65FAE20F00F0300
:102B10009BB22568C0F3420018430023E860C4E973
:102B2000193358E76FF07E4332464FF400112046C8
:102B3000FDF79EFB002857D1256865E7DE0705D520
:102B40006A68A16A22F400320A436A60980705D5D0
:102B50006A68E16A22F480320A436A60590705D53F
:102B60006A68216B22F480220A436A601A0705D53D
:102B70006A68616B22F400420A436A60DF0605D589
:102B8000AA68A16B22F480520A43AA609E0605D56A
:102B9000AA68E16B22F400520A43AA6058060ED5D7
:102BA0006A68216C22F480120A43B1F5801F6A60C2
:102BB00005D16A68616C22F4C0020A436A60190692
:102BC0007FF50DAF6B68A26C23F4002313436B6099
:102BD00005E732466FF07E434FF480012046FDF753
:102BE00047FB00283FF414AF0320F2E503F5E6337A
:102BF000304AD3F8883003F00C03134493F81839A3
:102C0000F7E5FFF7C7FA00283FF423AF71E7FFF7B6
:102C1000D5FA00283FF41DAF6BE7274B27499B6887
:102C20000868C3F3C2231A4492F8DC3803F01F0388
:102C3000D84000283FF40DAF5BE7FFF7ABFA002860
:102C40003FF407AF8BE61A4889E6012309A81196DD
:102C50000993FFF7F3F818BB174B1A6E42F4804242
:102C60001A661A6E02F480420392039ADA6C42F0FA
:102C70000102DA64DB6C069003F001034FF4C060DC
:102C80000293022503220723049004A94FF09040E9
:102C90000595CDE90723029EFFF7E6FA256865E56D
:102CA00005F044FEB0F5004F01487FF483AE20E705
:102CB0000024F400D8D300080010024000000020D7
:102CC0002DE9F84F164C0A9E278D043A043F52080E
:102CD0007F0897420D468146984628BF174601F166
:102CE000040A0024331BBB4228BF3B466FEA8441E1
:102CF0005A1E6FEA91419B466A8029805A0008EB70
:102D0000440150461C4409F0B1FB0BF102020023C0
:102D100029464846FEF71AFBA642E3D8BDE8F88FDD
:102D2000AC0000202DE9F04F254C85B00026CDE900
:102D30000266B4F8288001928946002B3AD04FEA07
:102D400058088346A8F104089A460D461F4626E017
:102D5000019B48F200019A192980631E4FF000017F
:102D6000E9806A80AB806200002105F1080009F06B
:102D700097F8294601235846221DFEF7E7FA02ABD1
:102D800003CB26446960286009EB460559F8160014
:102D9000696802AB564503C3A7EB04070AD2B845DE
:102DA000444628BF3C46B845D2D200E0013CE30788
:102DB000FCD4CDE709F1080005B0BDE8F08F00BFF5
:102DC000AC0000202DE9F04F02EBC30689B07388F8
:102DD000129F4BB38046894600254FF0010B736864
:102DE00053F82540C4F3017001280CD0022833D0D9
:102DF000F0B1344B344A9B6B344900209847002093
:102E000009B0BDE8F08FA3B2194659F8232022F08B
:102E10000F0217B1C4F3034422434046FEF7CCFA35
:102E2000738801359D42DAD3012009B0BDE8F08FE7
:102E3000C4F3445A0BFA0AF39F4216D3214A00976F
:102E4000013B019321490390A3B2946B204AA04710
:102E5000039809B0BDE8F08FA3B2194659F82320B2
:102E600022F00F02002FD8D1D4E7A3B243F4204CB4
:102E700003930522012305A9ADF81800CDF81A0027
:102E80004046ADF814C0ADF816B0FEF75FFA04A9DD
:102E90000DF11A00FDF7C6FBCAF1200A4FF0FF330F
:102EA000C4F3044423FA0AFA049B03990AFA04FAC5
:102EB00023EA0A0207FA04F422434046FEF77CFAAA
:102EC000AEE700BFAC000020F01601088C1301082B
:102ED000B816010870B5094EF36A054698470446CE
:102EE00028B12A46002108F0DBFF204670BDB36BF5
:102EF000034A04499847204670BD00BFAC0000203B
:102F0000181701082817010808B52DED028BB0EE3F
:102F1000408A06F0FBFFDFED087A70EE277AB4EE08
:102F2000E78ABDEC028BF1EE10FAC4BFF7EE007A2F
:102F300030EE270A08BD00BFACC527370138C0B244
:102F4000042801D90020704708B5294B9FED297A44
:102F500003EB8000D0ED006AC6EE877AB3EE087A04
:102F6000F4EEC77AF1EE10FA2DED028B0FD4FCEEE1
:102F7000E77A214B17EE902A90B2A3FB00300009AC
:102F800000EB4000C00080B2BDEC028B08BDF5EE46
:102F9000C07AF1EE10FA1DDD87EE278AB0EE480AFE
:102FA00006F0B4FFDFED157A70EE277A1820B4EE44
:102FB000E78AF1EE10FAC4BFF7EE007A30EE270A86
:102FC000BDEC028BBCEEC00A10EE103A9BB2B0FB17
:102FD000F3F008BDFCEEE77A182217EE903A9BB2A8
:102FE000B3FBF2F303EB4303D80080B2CCE700BF9E
:102FF0004CDC00080AD7233BABAAAAAAACC52737EA
:103000002DE9F04F2DED0C8B82469DB090F84E408F
:1030100090F84C000C90042CBAF848000A900591E6
:1030200090461F461AD8DAED107AF5EEC07AF1EE26
:1030300010FA00F1E9819AF85630DFF8C090002BC1
:1030400000F0EB819AF84B30002B00F0E681274A24
:10305000D9F8383026490020984707E0DFF89C90DF
:10306000244AD9F83830224900209847DAED117AFD
:1030700099ED357AF5EEC07AF1EE10FAB8EE478A9E
:1030800040DDC8EE278AF6EE007A78EEA78A0A9B22
:10309000002B3CD107939AF84A300193002B3ED184
:1030A0009AF85030022B41F0EA809AF84E40012CF9
:1030B00000F0C6820024329A019B1471A8F8AC413A
:1030C000002B32D09AF84F30012B00F0AD87022B45
:1030D00000F09987002B00F0B587D9F83830064A00
:1030E000034900209847002301931EE07C17010844
:1030F000541701083817010838180108AC000020DF
:10310000000000000A9B5FED028A002BC2D09AF8F3
:103110004E3007939AF84A300193002BC0D0329A70
:10312000002313710193A8F8AC31059C002C4AD000
:103130002389B4F88610B4F88420B4F88200A8F883
:1031400004109B00B4F88810A8F802209BB203F189
:103150003002A8F800006088A8F80610A188A8F836
:10316000080092B2E088A8F80A106189A8F80C005B
:103170005F2A208CA8F80E10618CA8F81210A8F80D
:10318000100040F22282C649A1FB0201890901EB2D
:103190004101A2EB411189B200201A4605460B46B7
:1031A00001210324A8F814300023A8F81620A8F859
:1031B0001810A8F81C50A8F81E00A8F82010A8F8AD
:1031C0001A40A8F822300199002201237A80BA819E
:1031D0007B81002901F0438015460692039207F196
:1031E0000E0308F13E029FEDAFAADFEDAFAADFEDBF
:1031F000AF9A9FEDAF9ACDF808A0D346CDF81090C6
:1032000008F146060992CDF82080BA469946079AF9
:10321000EBB29A4200F25881099A0023A9F80030D3
:10322000A9F8083022F815300135042D09F10209FA
:103230000BF1100B06F15606E9D157460A9AB989E7
:103240007B89BDF81800DDF82080DDF81090DDF8EE
:1032500008A0029011FB02F189B20B449BB25A1CE8
:103260001FFA82FEB8F8ACC1BCF1010F04D1039A79
:103270000A9800FB02F203929AF85220BAF854001E
:103280009AF853509AF85640A8F89E21039A4FF6A0
:10329000FF7B5A454FEA500628BF5A460338A8F824
:1032A000A801033E0298A8F8AA6185F0010592B230
:1032B000A8F8A651A8F8A001A8F8A421B981BB805C
:1032C000A7F806E0002C00F06081413340213B80EC
:1032D00039810124059BA8F8C04113B19B89A8F846
:1032E000C231019B002B40F05A81329ADAED105A1C
:1032F000002313600C9BA8F8B2310A9B012B40F20B
:103300004881BAF848300122023BA8F8AE31A8F84B
:10331000B0219FED687A9FED686A28EE077AF1EE9A
:10332000007AC7EE066A68EE277AF5EE405A87EE15
:10333000867AC8EE067AB6EE006A76EE866A37EED0
:10334000067AFCEEE66A77EE867A16EE902ABCEEF6
:10335000C77AF1EE10FAFCEEE77AA8F8B82117EE7A
:10336000102A14BF01230023A8F8B621A8F838308A
:1033700017EE902A019BA8F8B421002B00F0F180F1
:10338000F5EE405AF1EE10FA0CD0C8EE257A37EE81
:10339000866AFCEEC67A17EE903A1A0CA8F83C3012
:1033A000A8F83A20DAED117A9AF84A309AF84B20C8
:1033B000A8F83030F5EE407AF1EE10FA14BF012390
:1033C0000023A8F83220A8F82A3008D0FCEEE87ACA
:1033D00017EE903A1A0CA8F82E30A8F82C209AF87C
:1033E00051300198A8F8BE31012140F2FF7240F639
:1033F0000103A8F82410A8F8BA21A8F8BC311DB020
:10340000BDEC0C8BBDE8F08FDFF8B8902B4AD9F8F3
:1034100038302B490020984728E69AED117AD9EDEB
:10342000356AB5EEC07AF1EE10FAB8EE668A16DDAE
:10343000C8EE078AF6EE007A78EEA78A00F1F980E6
:1034400018EE900A05F0A4FA012908BF002880F0C0
:10345000F0809AF84A30002B40F0E28008E000F15A
:10346000E6809AF84A30002B40F0CD80DFED0F8ADD
:103470009AF84F109AF850200A98002814BF204656
:1034800000209142079000F2FD83002B40F003875B
:10349000022A00F0FC86329A1371A8F8AC3111E6CA
:1034A000ABAAAAAA2549123ECDCC4C3E0000000092
:1034B0008FC2753D000096430024744968170108C7
:1034C00054170108AC000020099A012322F8153096
:1034D000029BBBF8082093F84C8040F2FF1140F2A9
:1034E000FF33B8F1000F18BF0B46E2B19A421AD869
:1034F0009BF80D30002B6CD19BF80F309BF80E0021
:10350000002840F05383012B00F0B280DDF81090CA
:103510004F4AD9F838304F49DDF820805746DDF85A
:1035200008A098470CE0DDF810904B4AD9F83830E5
:103530004849DDF8208000205746DDF808A098476C
:103540000A9AB9897B89BDF81800029011FB02F133
:1035500089B20B449BB25A1C1FFA82FE00220192D0
:1035600080E6DAED117A9AF84A309AF84B20A8F8FA
:103570003030F5EE407AF1EE10FA14BF012300234B
:10358000A8F83220A8F82A3029E73C81A7F800E003
:10359000A0E60023A8F8AE31A8F8B031B9E69AF851
:1035A0004D10072927D82D4B9FED2D9A0B4493F8EA
:1035B0004C39A8F8A231329B83ED009A079B002B6F
:1035C00040F03284DAED105A94E603200125002100
:1035D000E7E59BF80F30022B90D1DDF81090214ADF
:1035E000D9F838301B49DDF8208000205746DDF837
:1035F00008A09847A4E7329ADAED105A0023136026
:103600000023019376E6B5EE407AF1EE10FA05D18B
:10361000F5EE407AF1EE10FA40F08385DFED108A86
:10362000D9F83830104A0B49002098472FE5DFEDD4
:103630000C8AD9F838300D4A06490020984726E50B
:103640009AF80F30013B012B3FF635AD32E500BF54
:10365000B41801085417010878180108D8D30008D5
:103660000000000088180108BC170108A81701080D
:10367000B84BBBF8067003EB8000182FD0F8283940
:103680000E93BBF804300D9340F2128307EB8703CF
:1036900003EB031303EB032307EB4303C3F3CC0256
:1036A00042EA43339BB240F6AA22934200F2D88208
:1036B000A94BA3FB07231B090F93013B9BB2149358
:1036C0005C23109318230B930D98002840F04B8433
:1036D000049BA24A9B6BA2499847B8F1000F00F0E7
:1036E000CF824FF000080222DBF800300E99194417
:1036F0000C4601F5C3430D99283311FB02F2481E15
:103700004CF2503192B28B420D9207FB004707D921
:10371000049B944A9B6B9249002098474FF0000805
:1037200007F5C34328334CF25032934207D9049B28
:103730008D4A9B6B8A49002098474FF00008002C67
:10374000C0F26983894BE11783FB0423C1EBA30318
:103750001AB2002FC0F25583844B83FB0730FB174E
:10376000C3EBA0000E9300B2804B83FB043C92B2EB
:10377000C1EBAC01801A01EB41010F9B1592B4EB38
:10378000C10182B2B2FBF3F203B202F1010216935D
:103790004FF018000B9BB0FBF3F01FFA82FE00F114
:1037A00029830FFA81FC89B2704B0B9A83FB073493
:1037B0000E9BC3EBA40303EB4303B1FBF2F402FB48
:1037C0001414A2B2B7EBC3030E9200F10D831AB228
:1037D00019929BB2013882B20E9C0B981A9212FB7E
:1037E0000040BEF1010F80B200F08E82C41A0E9B21
:1037F00018BF01248B4214BF01230023AEEB030248
:10380000A2EB0402A3B2119497B2179340F0848202
:103810000023189313931B930E9B89009B00B18781
:10382000F387B8F1000F00F058829BF80E30052B9B
:1038300000F23884474A02EB4303B3F83C395A0894
:10384000A3F14A00D91E033A80B2143B92B289B266
:103850000F901293159B1698B186C3F129040F9B04
:10386000F2861C4423B215931B1A292BA4B207DC41
:10387000049B3F4A9B6B3A49002098474FF0000851
:10388000129B159A934207DC049B3A4A9B6B34497E
:10389000002098474FF000080F9B3387109B7487D8
:1038A0002C2B40F261820023A6F85030A6F852304B
:1038B000A6F85430149BA6F84E30189BA6F8483052
:1038C000002F00F035820123A6F84A30139B179A87
:1038D000A6F84C20002B00F0F9831B9BA6F8423081
:1038E0001A9BA6F84430119B002B00F0EB83199B28
:1038F0000E9A9C1A0B9B94FBF3F4A6F846407A1E92
:1039000097B2A6F84070B8F1000F3ED09BF80A308D
:10391000172B00F2BF81092B00F29A83C3F1090330
:103920001522738032800599002900F07481728815
:103930009BF80F3001EB4202013B9289B280042BCD
:1039400000F2B084DFE813F0180026011801090125
:10395000290000BFD8D30008ABAAAAAA0019010801
:10396000541701084C19010860190108ABAAAA2ACA
:1039700094190108B4190108059B9A8C04210023AD
:10398000082A7385318540F227815746DDF820806B
:10399000DDF808A0DDF81090D2E54FF00008C6462B
:1039A00043464FF4F0504FF478544FF4F862022736
:1039B0004FF00B0C0821B281F281029AA6F82AC0BE
:1039C0003785318134827181708292F84D20B8F14F
:1039D000000F00F00F81002B00F00C81022A00F292
:1039E0000C81C1490A4492F84829B282059A002AFA
:1039F00061D006F114020020012130831182059963
:103A00000E93C86E0B908C6EDDF82CC0D1F86480DC
:103A10000F940027394604EB1743A3EB08037345C3
:103A200088B2674401F1010180F209840F29F2D1C3
:103A30000E9B08460599CF6FD1F878C0D08007EB70
:103A4000870405200CEB1441C91A00F1010E3C4417
:103A500040F196831FFA8EF01428F3D1DDF8109010
:103A6000A24AD9F83830A249DDF820800020574614
:103A7000DDF808A0984763E59B490A4492F84C2971
:103A8000B282059ABAB10022328306F11402B8F16B
:103A9000000F40F07781A6F82480A6F81A80A6F8D7
:103AA0001680A2F80880A2F80E80A2F80A80A6F874
:103AB000208000235382BBF808009BF80B2032863D
:103AC000012800F0C9800121831EF185B3859BF890
:103AD0000D10BAF80C30F18081F0010171860D995A
:103AE000A9F80030A9F808100B449BF80F10AAF8A9
:103AF0000C300129338D6CD002290CBFB0EE496A1D
:103B0000B0EE696A01339BB207EE103ABBF804309D
:103B1000B8EE477A07EE903AF1EE006A27EE267A81
:103B2000F8EE677A06EE900A67EE277AF8EE666A94
:103B3000069B67EEA67A194667EE867A002B08BFC9
:103B4000114667EE8A7A039B0691FCEEE77A17EE40
:103B5000902A13440393FFF767BB4FF00008C64653
:103B600043464FF4C0604FF460644FF4E0720227A4
:103B70004FF0060C08211EE74FF00008C6464346EA
:103B80004FF400704FF4C064C02202274FF0040CC1
:103B9000082110E700204FF40074402203274FF063
:103BA000020C08214FF0960EFA2304E7581EC0B20B
:103BB00004287FF65DADDDF810904E4AD9F8383014
:103BC0004B49DDF8208000205746DDF808A09847D3
:103BD000B6E4B0EE6A6A95E74021328172814FF413
:103BE0000070029A7382B181F181308292F84D2087
:103BF00098469E46072A7FF63FAFDDF810903E4A72
:103C0000D9F838303A49DDF8208000205746DDF8F1
:103C100008A0984794E49BF80F30059AB280013BC6
:103C2000042B00F23F8301A252F823F0413C00082C
:103C3000953B0008793B00085B3B00089B39000876
:103C40004FF000084046C446C64643464FF4007451
:103C5000402204270221AEE60023F385B38536E730
:103C6000049B264A9B6B22490020149004469847E7
:103C70000123CDE90F340B93B8F1000F7FF431AD80
:103C8000042231E5D9F838301D4A194900209847F7
:103C9000FFF701BADDF810901A4AD9F83830144904
:103CA000DDF8208000205746DDF808A0984747E45B
:103CB000002FD5D01823B3FBF7F307FB03F3C3F1B1
:103CC00018039BB21493002BCAD17B1E9B009BB29E
:103CD000109301230B970F93F6E46C231293362372
:103CE0000F933D227D21B5E5D8D30008041A0108C1
:103CF00054170108DC180108E4190108EC18010840
:103D0000E8170108CC1901088C4200F09B820022C0
:103D10001792184617461192019B1393A0EB0C00C3
:103D20000B9B90FBF3F00123189383B21B9373E575
:103D3000179BA6F84C30139BA6F84A70002B00F096
:103D4000C9811B9BA6F842300023A6F84430119B82
:103D5000002B00F0A381199B0E9A9C1A0B9B94FBDD
:103D6000F3F4A6F84640CCE5109B1E2B40F2898167
:103D7000A3F11E020F23A6F85420A6F85030A6F88F
:103D8000523097E501211182002B7FF438AED380A9
:103D900053801381D38153811F4605990024D1F8A4
:103DA0005CE0D1F86080214602E016293FF456AE6F
:103DB0000EEB1440C01B1FFA81FC444401F10101C9
:103DC000F3D4BCF1000F0CD05BB90CF1FF339BB204
:103DD00008FB03F80EEB1848A7EB08084045C8BFDE
:103DE0009C46A6F820C064E603F1180422B2A3B2F0
:103DF0001992EFE401F1180C1FFA8CF10FFA8CFC08
:103E0000D2E4CF4BF843A3FB00306FEA1010FB174E
:103E100000B20E93A8E4CA4BE243A3FB02236FEA6D
:103E200013131AB2E11794E4BCF1010F00F068819A
:103E300007EE902A9FEDC3AAB8EE67CAB7EE089ABC
:103E4000F2EE02CAD9ED357A9FEDBF0AF8EE679A15
:103E500080EE290A06F05AF89AF85030022B69EEE3
:103E6000809A00F23A81B94A9AF84E1002EB830028
:103E700090ED00DAD0ED03BA002900F0FD81019A3F
:103E8000DFEDBEDAB24E9FEDB3BADFEDB3AA002785
:103E90003D463AE04FF0300B08240AEB05039B7BCC
:103EA000052B47D8AD4931F8133007EE903AF8EEBC
:103EB000677A89EEA77A55449AF84E302889A988FE
:103EC00000FB044402346400A4B20137FDB2AB42EB
:103ED00007EE904A87EE2A6AF8EE677A07EE10BA84
:103EE000F8EE476A87EE867AC6EE865A07EE901A93
:103EF000F8EE677A67EE277A77EEA57A77EE8A7A18
:103F000077EE897A7DEEA7DA3FD90AEB05132D010A
:103F1000DB7B052B18D8022BBCD8012B1FD0022B22
:103F200012D10AEB05034FF03C0B9B7B052B4FF0A6
:103F30000A04B7D98A4AD9F838308A490020984704
:103F4000F0EE4B7A0022B4E73246D9F83830854992
:103F5000002098474FF0180B042400229DE74FF0F3
:103F6000480B0C2499E7B8F1000F40F0C6809BF88D
:103F70000C30002B00F0E080049B7B4A9B6B79495E
:103F8000404698470422FFF7AFBBB2B3DFED777A24
:103F9000DFED716A9FED767ADAED105A329B89EE89
:103FA000A75AF1EE0C7A85EE266A2CEE27CA7BEE34
:103FB0008DBACCEE067AB0EE006A77EEACCA7CEE33
:103FC000ADDA7DEEABBA6BEE877A77EE867A77EE76
:103FD000ABBAC6EEAB7AF4EEE75AF1EE10FAC3EDE7
:103FE000007A7FF787A9FDEEE77AD9F83840614A71
:103FF0005C4917EE903A0020A0470023DAED105AF2
:104000000193FFF777B90023A8F82630A8F82830E5
:104010009AF85030012B10D0022B2BD013B3D9F8C3
:104020003830554AFFF75CB80022A8F82630A8F8C7
:1040300028209AF85030012BEED1C8F83430019383
:10404000FFF773B80123A8F82630A8F82830DFE777
:10405000102B94BFC3F11E03C3F11703002233805A
:10406000728060E44FF00113C8F8343001230193EB
:10407000FFF75BB80023C8F8343001230193FFF742
:1040800054B8109B0F2B42D90F3B0F22A6F8523089
:104090000023A6F85020A6F854300BE4119BA6F894
:1040A00046302EE4049B2E4A9B6B2E4900209847F5
:1040B0006C23129336230F933D227D214FF000088D
:1040C000FFF7C8BB119BA6F8463018E4139BA6F86F
:1040D000423005E4A6F8427036E6D9F83830264A70
:1040E0002049002098479AF84E30002B85D0DFED0C
:1040F00023BA0022B0EE6BDAC2E60222FFF7F4BA6E
:10410000B0EE49AAF0EE49CAB0EE49CA9AE60023D9
:10411000109AA6F85020A6F85230A6F85430FFF7AF
:10412000C9BB9AF84F109AF85020DFED148A9142DB
:104130007FF476AAFFF7A0B9DDF80480A0E500BF00
:10414000ABAAAAAA9A999D41F902154F2CDD000845
:10415000DC180108000000430024744914DD000845
:104160008819010854170108141901080000204398
:104170000AD7233C301A0108581801080000000033
:1041800005280BD000F1FF3E1FFA8EFE07FB0EF450
:104190000CEB14441C1BA142C8BF704600210C4606
:1041A00050801181D181084605991296096F0E91B0
:1041B00005990E9E496FCDE9101202E016283FF4D2
:1041C0004DAC06EB1442D21A1FFA80FE0C4400F1EB
:1041D0000100F3D41146DDE91126BEF1000F0FD026
:1041E0000EF1FF3080B21190DDE9100400FB04F401
:1041F0000E9800EB1440119C181A8142C8BFA646C5
:10420000A2F80AE0718B0B9800FB01F001460F98B1
:1042100000EB1141B1EB08043FF520ACF08B109995
:10422000B6F816E001FB00F1084607FB0EF10E9F01
:104230000CEB114107EB104008440719ADE50E9B4C
:10424000FFF7F8BB98420CBF012700270FD10023CE
:10425000CDE91733119313931B93FFF7DDBA019A3E
:1042600002924FF0020E11460392FEF7FBBF0022AE
:104270001792184611924FE55FED40DA86E6329BC1
:104280001A46019B1371A8F8AC31FEF74EBF01230B
:104290000193FEF70CBF329A00231371A8F8AC31DA
:1042A000FEF710BFDDF81090DDF82080D9F8383027
:1042B000084A094900205746DDF808A098475623C8
:1042C00003FB05830022A3F87020A3F86E20FFF7FC
:1042D00037B900BFDC1801085417010870B5FEB0EB
:1042E00004464FF4E2720D460DA8002103AE07F01C
:1042F000D7FD0DAA204605AB00960021FEF780FEF3
:1043000008B97EB070BD94F84B202B46314605A805
:10431000FCF794FF7EB070BD10B58EB00C46FDF773
:10432000D7FA30B16946FFF7D9FF10B1BDF80030B8
:1043300023600EB010BD00BF08B5144B9FED140AEA
:104340002DED028B93ED358AB8EE488A08EE900A7F
:1043500080EE080A05F0DAFD28EE000AB3EE088ABE
:1043600020EE080AB7EE007AC7EE007AF8EEE88A87
:104370009FED087A67EEA87ABDEC028B67EE877A2C
:10438000B6EE000A27EE800A08BD00BFAC00002090
:10439000F902154FC2F38E4D2DE9F0412DED028B40
:1043A0000D460646FDF7D2FB0746002840D0002404
:1043B000A04621463046FDF741FB00EB08039BB2C7
:1043C000AB4228D9A5EB0805ADB221463046FDF732
:1043D00079FB08EE100A0120FFF7AEFFB8EEC88A9D
:1043E0002146304668EE008AFDF7E4FA07EE900AAF
:1043F000B8EE670A07EE905AB8EE678A012028EEF9
:10440000008AFFF799FF28EE000A30EE280ABDEC7B
:10441000028BBDE8F08121463046FDF70FFB0134E9
:10442000E4B24044A7421FFA80F8C2D10025CCE78D
:1044300004460546C9E700BF1C4991F82430012B0A
:1044400032D030B44C68532301200225CA2281F8AF
:10445000255081F8240062626362A36823F48073AC
:10446000A360A36823F48053A360086804E00A688B
:10447000121AB2F57A7F0DD8E36813F00103F6D073
:104480000020FF220123626281F8240081F8253098
:1044900030BC7047FF200322606281F8243081F82D
:1044A0002520104630BC704702207047AC00002029
:1044B000F8B595692B78B5F802E0144602EB430392
:1044C0000F46B3F8446063690146720003EB4E0087
:1044D00007F0DAFFE26D698813780E446E8003B945
:1044E0003B791370F8BD00BF2DE9F04F2DED048B23
:1044F00090F838308DB007900393002B00F0E780E0
:104500000798828F0469C38FB0F84C5034F91210A9
:10451000099502465B00408F08900193002D00F042
:10452000D6801046526C836CB0F84E50B0F840B054
:10453000DFED708ADFF8C8810A95D3180293002254
:104540000901DB4305920B9104939146B6EE009A64
:10455000029A6949134681FB0331D317C3EBA101CA
:1045600001EB4101B2EBC101029A48BF1831002AA8
:1045700009B2C0F2B580604880FB0202C3EBA20220
:1045800012B20B9B120482FB0356002D76F100033E
:1045900004DA4FF6FF73ED1846F10006089B194444
:1045A0002A0C34F9111042EA0642A2EB011207EE7E
:1045B000902AF8EEE79A69EEA89AB0EE690A05F03B
:1045C000BFFBB0EE408AB0EE690A05F0C5FCBBF156
:1045D000000F6BD0079A136DB2F842A093F800E079
:1045E00006930020054647F6FF7709E0DDF80CE06A
:1045F000E25201351FFA85FCE3455044718052D9DF
:10460000019A09EB50039BB202EB8303E618E25ECA
:1046100007EE902AB6F9022006EE902AF8EEE77A25
:10462000F8EEE66A27EE887A26EE806A67EE807AF0
:1046300066EE886A37EE467A77EEA67AB5EEC07AED
:10464000F1EE10FAF5EEC07A4CBF37EE497A37EE4C
:10465000097AF1EE10FA4CBF77EEC97A77EE897AD3
:10466000BDEEC77AFDEEE77A17EE10CA17EE901A84
:1046700017EE102AC445B8BF42464145B8BF41466F
:10468000BA42A8BF3A46B942A8BF3946BEF1000FA8
:10469000AED19445AAD117EE90CABCEB010E18BF5B
:1046A0004FF0010EA4E7069B83F800E0059B029AF9
:1046B00001331FFA83F911460593049A0A9B1944A2
:1046C000D31A0493099B02914B453FF641AF079BD8
:1046D000186843680DB0BDEC048BBDE8F04F184777
:1046E000049B1A46054BA3FB02326FEA121212B268
:1046F00047E700BF00008037ABAAAA2AABAAAAAA44
:104700000080FFFFC0EE207A9FED107AF4EEC77AAA
:10471000F1EE10FA17D89FED0E0A08B527EE800AC1
:1047200005F01AFC20EE006AF7EE007A36EE276AF2
:1047300030EE007AF1EEC66A36EEC00A27EE000AC5
:1047400037EEC00A08BD9FED030A7047A800003F7E
:10475000DB0F4940000000002DE9F04F2DED028BEA
:10476000ADF21C7DCDE9041203931B7804460A2B9D
:1047700013D8DFE813F023000B007400BF005D01C5
:1047800033024703D9043E05AC052300FCF7D0FFF4
:10479000002840F05886039B1B78B94EB46BB94A89
:1047A000B9490020A04700231C46039A20461370F5
:1047B0000DF21C7DBDEC028BBDE8F08FB04EDDF834
:1047C00048078C22002107F06BFBD6ED357ADFED30
:1047D000AF5ADFEDAF6AF8EE677AB6EE006A85EEA3
:1047E000A77AF4EEE67A37EE067AF1EE10FABCEE2E
:1047F000C77A17EE103A9FB200F3BD859FEDA57AF8
:10480000F4EEC77AF1EE10FA00F1B585A7F11003C6
:104810009BB2EF2B40F2D4869FED9F7ADFED9F6A2B
:1048200077EE877A37EE877ABCEEE76ABCEEC77A16
:1048300016EE108AB8EE477A77EEC77A67EEA67A58
:10484000FCEEE77A17EE905ACDE90085944BB46BF5
:10485000944A95490020A047039B1B789EE7FCF7EC
:1048600067FF0546002896D0049941230022204680
:10487000FEF758FA0021038C0793A0F1020A8B4639
:104880008E464FF6FF781EE030F911703AF911901C
:1048900007F57A72A7EB09079F42C0F26785674563
:1048A00000F3648582EAE273A3EBE2739BB24345B3
:1048B00005D24FEA860B98461FFA8BFBAE460F2EA9
:1048C00000F02F8701314B1E03FB03F3C3EBC3033F
:1048D0005A0002F5167CC83B8EB20029D4D1B0F93B
:1048E000003003F57A73002BB8BF5B429BB243459F
:1048F000DFD3E7E7FCF71CFF00283FF44CAF049937
:10490000002220232046FEF70DFAB0F900200546CC
:10491000012116460027134635F9022FC3F54873C7
:1049200013449BB2B3F5C86F3FF635AFB242A8BF90
:104930000F4601F10101A8BF16462029EBD1072F30
:1049400000F2E887002307F10802D21A002A00F0DB
:10495000F28746A9D51800EB4505069100EB430008
:1049600030F9026B07EE106A03FB03F606EE903A8D
:1049700007EE906AB8EEC77AF8EE677AF8EE666AE4
:10498000854281ED007AC1ED017AC1ED026A03F141
:10499000010301F10C01E3D106982EA9FCF708FBF5
:1049A00000283FF4F8AE9DED2E6AB5EE406AF1EEB8
:1049B00010FA3FF4F0AEDDED2F6AF5EE406AF1EE4D
:1049C00010FA3FF4E8AE9DED307AB1EE477AC7EECB
:1049D000267AF5EEC07AF1EE10FAFFF6DCAEF1EED3
:1049E000666A86EE867AB5EEC07AF1EE10FA7FF549
:1049F000D2AEB7EE007A77EE877AFCEEE77A17EE62
:104A0000903A9AB23F2AC3F34E033FF6C4AEDDF8A4
:104A1000482783F01003D38020464FF44571FCF7FC
:104A2000F7FD04460423002C7FF4BFAE00F09EBCCB
:104A3000FCF77EFE00283FF4AEAE502320460499DA
:104A40000022FEF76FF900F1A0030693DDF8483766
:104A50000A3307EE904A4FF0300B1C46DFF84C90BB
:104A6000B0F900204FF0000847F6FF7EC2467746B7
:104A700006464FF6EC716FF01B034D462FE000BF6A
:104A8000AC000020501A0108741A0108F902154FF1
:104A90008096984C8096984BBD3706350024744913
:104AA00020140108881A0108B41A01080080FFFFC9
:104AB0007245BCBF98469646242918D036F9022F75
:104AC00036F8023CD31A1BB29F42A8BF1F4601F121
:104AD000080C9D42B8BF1D460BB21FFA8CF1002A8C
:104AE000E6DA4A45E8DD24299A469146E6D1A5F55D
:104AF0001C55103DADB244F620639D423FF64BAECF
:104B0000002F7FF448AE19F5004F47F6FF7300F011
:104B10004D869E4500F0A086A8EB0A08B8F1080F64
:104B20007FF439AE4FEAC908AEEB090E98FBFEFEE2
:104B3000AAEB0E080FFA88F8B8F1000FC0F27784DC
:104B4000B8F11F0F3FF727AE1FFA88F8A64A0BF1FE
:104B5000010382F815B05FFA83FB069B24F8028FED
:104B6000103083427FF47AAF602317EE900ADDE9BC
:104B7000041200939D4B17EE904AFEF7A1F8DDF862
:104B800048379B4A9B890093DDF848379949DD886F
:104B900020460723FEF716F9954A96490095082303
:104BA0002046FEF70FF90323914A924900932046CD
:104BB0000923FEF707F906238D4A8E490093204604
:104BC0000A23FEF7FFF8204640F2D531FCF720FD1E
:104BD00004460523002C7FF4E8ADC7E3FCF7A8FDED
:104BE00000283FF4D8AD0499DFF81092DFF8108266
:104BF0004FF4407300222046FEF794F80DAB089363
:104C00000593002300F5C061049307EE904A46AB7C
:104C100007912EAD069345AF824616AC5646B6F9BF
:104C2000021036F9040BFCF785FA44F8040BA54290
:104C3000F5D12DACA3465646B6F96210B6F9600020
:104C4000FCF778FA4BF8040F5F4506F10406F3D140
:104C5000069B049A15AE9818002154F8043F56F8A4
:104C6000042F9B1A4B4540F3B083A3F5C9237E3B29
:104C70004B45FADC002BB8BF5B429942B8BF1946DE
:104C8000A74240F8043BE8D1059B491043F8041FB4
:104C90000593049B60330493079B0AF1C00A5345B4
:104CA000BBD1002017EE904A089E0146034656F8F5
:104CB000042F8A42C8BF184603F10103C8BF11463A
:104CC000082BF4D10EAB00EB400153F82060069B9B
:104CD0000DF1B70203EB41110DF1CF0051F8043B88
:104CE000B342ACBF0023012302F8013F9042137688
:104CF000F4D1002001460123002900F07183EA5C11
:104D0000002A00F0658301300133302BF4D1A0F18B
:104D10000C03082B3FF63FAD01EB5000172802D9DA
:104D200018381728FCD880B2820092B202F1300500
:104D3000DDF84837ADB25F2D188140F271852E4BFA
:104D4000A3FB05139B0903EB4303A5EB43139BB2A2
:104D500000271546B8461A46012626490092212307
:104D6000234A2046FEF72EF8214A224900952223A5
:104D70002046FEF727F803251D4A1E490096012309
:104D80002046FEF71FF81A4A1A49009502232046CA
:104D9000FEF718F8164A1749CDF800802B46204632
:104DA000FEF710F8124A1349009704232046FEF735
:104DB00009F80F4A0F49009605232046FEF702F82E
:104DC00000230B4A0B49009320460623FDF7FAFF08
:104DD00020464FF47B71FCF71BFC04460623002C95
:104DE0007FF4E3ACC2E200BF0000002084DE0008D4
:104DF00044DD000860E70008ABAAAAAA3F2403002C
:104E0000C1DBFCFFFCF794FC079000283FF4C3AC27
:104E1000D64EDDF84827D64DD6F8D430B2F880709B
:104E20000499A5FB03239D0900224FF440732046FB
:104E3000FDF778FF46AB07FB05F7089000F1020885
:104E400006930DF58A790DF21475B8F9001038F94A
:104E5000020CFCF76FF949F8040F4D4508F10408FE
:104E6000F3D1002307EB47029A46CDE92E33CDE973
:104E70003033CDE93233CDE934330593D300069A8C
:104E8000DFF80C832EAD02F15C09AB464FF6FF72E2
:104E900009955546DDF81CA0049207EE904A4C4651
:104EA0009946A4F15C00FBF711FDA4F1600C002011
:104EB0005CF8043FDCF860206445A3EB020318446F
:104EC000F6D10028C0F2A582800940F6945303FB76
:104ED00000F0400D07FB00F009EB1020CBF80000BC
:104EE00025B15BF8043C834240F29584DBF8003046
:104EF000A3F16673A3F54A33203B002BB8BF5B4296
:104F0000434505F1010238BFCDE9045A95B238BFD7
:104F10009846082D0BF1040B04F1C004C1D1059B88
:104F2000099D17EE904A002B00F07584DDF8483794
:104F30009048914A19463727049B4B8400938F4928
:104F400080F824700C2317EE900AFDF73BFF2046F3
:104F500040F21641FCF75CFB002800F00882089B39
:104F60009FED876A2F461A4603F1C00403F5D86CFB
:104F7000F7EE006AA4F1C0034FF0000EB3F902008F
:104F8000B3F9001000FB00F0043301FB01019C4267
:104F90008E44F3D107EE90EAB8EE677AC034C7EEDC
:104FA000067AA445B1EEE77AC6EE877AE7EC017A95
:104FB000E0D1089B03F5C060069BB2F90010F5EC48
:104FC000015A06EE101AB2F9021006EE901AB2F962
:104FD000601007EE101AB2F9621007EE901AB8EEE0
:104FE000C66AF8EEE66AB8EEC77AF8EEE77A26EE19
:104FF000256A66EEA56A67EEA57A27EE257A26EE83
:10500000065A67EE075A26EE266A27EE277A66EEDC
:10501000A66A67EEA77AC032904283ED005A83ED0C
:10502000016AC3ED026AC3ED185A83ED197AC3ED24
:105030001A7A03F10C03C0D1069816A91022FBF7C7
:10504000B7FF0446002800F092819DED166A9DEDA1
:10505000175A9DED187ADFED4B4A9FED4B4AF1EE62
:10506000C66AF1EE007A26EE276A65EE057A26EE2C
:10507000076AF6EE005A36EE676A85EEA67AF1EE1A
:10508000C67AB6EE086A76EEC66A67EE277A66EEEC
:10509000A46A27EE057AB7EE005A77EEC67A37EEA5
:1050A000057A76EEA56AB3EE0F6A27EE047A67EE0C
:1050B000A47AF4EEC66AF1EE10FA37EE257A77EEAE
:1050C000A57A00F3A481F5EEC06AF1EE10FA48BFAC
:1050D000002040F14A84DFED2D6AB4EEE67AF1EE6D
:1050E00010FA00F39281B5EEC07AF1EE10FA48BFE3
:1050F000002140F13184B3EE0F7AF4EEC77AF1EE7D
:1051000010FA00F37F81F5EEC07AF1EE10FA48BF95
:10511000002340F11884DDF8482701430B43A2F82F
:1051200058300723FFF741BBFCF702FB00283FF490
:1051300032AB1023049900222046FDF7F3FDDDF881
:105140004837B3F85860002506F01F0EC6F3441C1C
:10515000B60A00F102090EF1300E0CF1300C203EBF
:105160000495AB46A8462F461DE000BFAC000020CA
:10517000D34D62100000002044DD000860E7000805
:1051800000004042000080420000004200007C42DB
:1051900040420F005B45474600F2F28198460135D8
:1051A000082D00F0C28130F9252039F925300EFB99
:1051B00002F203FB06FA002A03FB0CF3B8BF3F32EE
:1051C000BAF1000FB8BF0AF11F0A002BB8BF3F3376
:1051D000921102EB6A1243F38F1312B203FB03F333
:1051E00002FB0233BB42A9B2D9D94345D2D81F46EC
:1051F000D5E7FCF79DFA00283FF4CDAA6023049977
:1052000000222046FDF78EFD46AB05460693871C1F
:1052100099464FF0000840F6B73637F9281035F9AF
:10522000280001FB01F300FB0033B34208F1010841
:105230007FF7B1AAFBF77EFFB8F1300F49F8040BF6
:10524000EBD1069B45AD0DF1B6062946324603F17A
:105250005C0751F8043F002BB8BF0F3302321B111B
:105260008F421380F5D10698FBF730FB002155F8EB
:10527000043F2A6EAF42A3EB02031944F7D1C24B9D
:10528000C81783FB0131C0EBA11000F599433033FF
:105290004CF6621293423FF67EAADDF848370DF1D4
:1052A000E601243336F8022F23F8022FB142F9D158
:1052B000DDF8483740F27B41A3F856002046FCF762
:1052C000A7F904460923002C7FF46FAA4EE0FCF7EF
:1052D0002FFA00283FF45FAA0022049920464FF4D9
:1052E0009C6314460DAEFDF71DFD2EAF0EAA009275
:1052F0000194334646AA902134603C600E94169483
:105300008046FBF7F3F900283FF445AACDE9007485
:1053100016AB46AAF02108F59070FBF7E7F90028D4
:105320003FF439AA39680E98984B994D3268019428
:10533000091A03FB01F305FB00F01B0CC3EB503310
:1053400005FB02F2DDF84807009605FB01F1520B60
:10535000C0E91812C36546AA0CAB40F21F1108F24F
:105360000230FBF7C3F9002840F07982894E039B95
:105370001B78FFF713BA9FED887ADFED886A884BB8
:10538000884A894977EE877A002037EE877ABCEE23
:10539000E76ABCEEC77A8DED006AB8EE477A103F37
:1053A00077EEC77A16EE108A67EEA67AFCEEE77AF9
:1053B000CDED017AB46B17EE905AA047EF2F3FF670
:1053C00043AAD4E703F5C9237E334345FADB51E40E
:1053D0000B283FF69CAC0133302B3FF4DCA9104680
:1053E0005A1E2A44591C12F8016F4B1E2EB112F896
:1053F000016C16B91946012086E4302900F0938229
:105400000131F0E74FF4787385E6684973E61F20B1
:1054100061E64042800940F6945303FB00F0400DE2
:1054200007FB00F0A9EB1020CBF8000058E5C8F10D
:1054300000081FFA88F8B8F11F0F3FF6ACA948F032
:105440002008FFF783BB46AA32212046FCF726F846
:105450001223049900222046FDF764FC0546002330
:105460006F88BDF8180135F804EB9C464FF6FF76BF
:1054700040FA03F2D20799B20AD535F81320D21BAD
:10548000002AB8BF524292B2B2423CBF16468C4686
:105490000133102BECD10CF1FF330D2B3FF67BA920
:1054A0000CF10043013B05EB430635F813307288DD
:1054B00041F287319B1A8B427FF76DA9B388D21ACC
:1054C0008A427FF768A94FF6FF7398423FF463A9B9
:1054D00040F2E51303FB0EF31B0CA3F5897313F1E4
:1054E000140F1AB2C0F22D822C2A40F32882502ABF
:1054F000B4BF03230423DDF848272D49A2F800E0B8
:10550000A2F802C09384204625232A4ACDF800C081
:10551000FDF758FC204640F23221FCF779F80446AA
:105520000223002C7FF441A920E7B7EB5B0FBFF407
:1055300032A9DDF848371F4A1946049B0B842046E0
:105540001B4900930B23FDF73DFC0023194A184922
:10555000009320460923FDF735FC7E23154A1449A4
:10556000009320460A23FDF72DFC204640F25241CD
:10557000FCF74EF804462B46002C7FF416A9F5E6FE
:10558000D84604919B460AE6ABAAAA2AA82A040098
:10559000AA0A0100AC000020BD370635002474497A
:1055A00020140108881A0108B41A010800FCFFFF42
:1055B00060E7000844DD0008E8385BB500007C4285
:1055C00077EEC77A5FED046A1FED047ADDF84827AD
:1055D00067EEA67A3F2F77EE877AFCEEE77A17EE32
:1055E000901AA2F8881000F22181DDF848170022F5
:1055F0002F2F88BF3B46A1F88430A1F88220A1F864
:105600008620DDF848270498A2F8807046AB2EADBE
:105610004FF00008059906932A46C5F80080C3F8A4
:105620000080FBF7F7FD2046FCF720F800283FF448
:105630009EAE069BDFF848B31B68DDF848A708EE6E
:10564000104AC8F534640A34A34298BF9CB22F684C
:10565000C94B88BFA4B24FEA580903EB890062081E
:105660003946FBF7B9FBBAF882301C22CDE900239A
:1056700041465B4622463846FBF7D2FB00283FF402
:1056800076AEBAF884201A23CDE9003241465B4653
:1056900022463846FBF7C4FB86464FF01B0C4146BA
:1056A0005B4622463846BEF1000F3FF460AECDF8AF
:1056B00000C0BAF886C0CDF804C0FBF7B1FB86463F
:1056C0004FF0190C41465B4622463846BEF1000FAA
:1056D0003FF44DAECDF800C0BAF888700197FBF7E3
:1056E0009FFB0746049A18EE100A23464946002FEE
:1056F0003FF43DAEFBF7FCFF069B1B6898441FFA86
:1057000088F840F6493290459BD918EE100A40F2CD
:105710005B11FBF77DFF04460123002C7FF445A8B5
:1057200024E6BEF1000F3FF436A8DDF848278BF0E1
:1057300030039380418C0693B0F880305B1AB3F548
:10574000FA6FFFF628A88D4ADDF81CC04FEA034A1D
:10575000A2FB0A3A002507EE904A22304FEA5A1A75
:105760002F468B4610224FF6FF780AE0A64288BFEC
:105770004FF0000E013292B2402A55441BD030F84F
:10578000021FA1EB0C03002BB8BF5B429BB20BEBDB
:105790001546434506F548793CBF984617464945A6
:1057A00001F54874E2D94FF0000EE3E79E457FF41F
:1057B000C3A9FEF7F0BF17EE904ABEF1000F3EF40A
:1057C000EAAFDDF8482701234FF47E505781ADF84A
:1057D0001801DDE9041217EE900A009346ABFDF7BD
:1057E0006FFA674A6449009726232046FDF7EAFAD4
:1057F000069B634A6049009320462423FDF7E2FAA2
:10580000204640F2C521FBF703FF04460323002C8A
:105810007EF4CBAFAAE55B4B372283F82420A6E5C4
:1058200003274FF001080026FFF797BADDF8482755
:10583000DDF84817BF2F4FF00103A2F8823096BF62
:10584000A7F14002FA08C2F3CF0207F00703A1F85C
:105850008420A1F88630D4E6D046FFF76DB916ABA8
:1058600001930EAB009346AA0BAB4FF4907108F571
:10587000A860FAF73BFF00283FF478ADCDE9004778
:10588000234646AA08F5F0604FF49071FAF72EFF10
:10589000044600283FF46AADDDE90BE9D6F8008044
:1058A000DDF858C00E983F683749384A384BA7EBA7
:1058B0000C07A9EB0E06A0EB080001FB06F102FBAA
:1058C00000F203FB07F305FB0EFE05FB0CFC05FBDA
:1058D00000F005FB08F805FB06F6090C05FB07F5CB
:1058E000120CDDF848771B0CC3EB5C33C1EB5E3167
:1058F000C2EB5832C7E91E357867C7E91B62B96643
:105900003846FAF7D9FEDDF84837C3F88C000A2389
:10591000FEF74BBFFB1F172F88BFC3F120023FF6D6
:1059200015A8FFF710B8A0F10C03082B3EF633AF13
:105930004008FFF7F8B946AB0693FFF72DB80223EE
:10594000D9E50123D7E5FCEEE77A17EE902A42F37A
:105950000A025301FFF7DFBBBCEEC77A17EE102A2D
:1059600042F305029102FFF7C6BBFCEEE66A16EEB3
:10597000903A18B2FFF7AFBB60E70008ABAAAAAA3B
:1059800044DD00080000002054150200A64A07006C
:105990004E750B0008B50138C0B2042898BF194BEA
:1059A0002DED028B98BF03EB8000B0EE408AB0EE85
:1059B000600A94BFD0ED008ADFED138A04F054FB37
:1059C000DFED127A20EE277AB2EE040A77EE087A3B
:1059D00077EEE87AC7EE800A04F07CFB04F096FAD2
:1059E000DFED0B0A04F058FAF0EE400AB7EE000AB9
:1059F00004F034FABDEC028BBCEEC00A10EE103A93
:105A000098B208BD44DF00080000000000002042FA
:105A10000080FF43B0EEC07AF0EEE07A2DE9F04F5F
:105A2000B4EEE77AF1EE10FADFED796A58BFF0EEE6
:105A3000477A30EE607A67EEA67AB0EEC77A2DED3F
:105A4000068BB4EEE77AF1EE10FA98BFDFED717ACB
:105A500089B006464FF00500B0EE608A1D469ABF39
:105A600030EEA78A4FF000094FF00109F0EE408AAE
:105A700088461746FDF762FA032D09EE900A00F0FA
:105A8000BD80042D00F0AE80022D00F0A380002226
:105A90004FF07E53039204930DF1100A38EE687AAA
:105AA000DFED5D7A0AEB8502544601E0F4EC017A01
:105AB00067EE277A944277EEA87A44ED017AF5D121
:105AC00045B305F1FF3B5FFA8BF39FED54AADFED81
:105AD00054AA0DF1140B0BEB830B0025BAEC017AE1
