:020000040800F2
:1000000000000120B5B50008C9A40008C5A4000877
:10001000C1A40008BDA40008B9A4000800000000A5
:10002000000000000000000000000000B1A4000873
:10003000B5A4000800000000ADA400089DA40008BD
:1000400005B6000805B6000805B6000859A4000862
:1000500005B6000805B6000805B6000805B6000894
:1000600005B6000845A4000805B6000805B6000856
:1000700039A400082DA4000805B6000805B600083C
:1000800021A4000815A4000805B6000805B600085C
:1000900005B6000805B6000805B6000805B6000854
:1000A00005B6000805B6000805B6000805B6000844
:1000B00005B60008000000000000000005B60008BA
:1000C00005B60008F5A3000805B6000805B6000847
:1000D00005B6000805B6000821A1000805B600080D
:1000E0000DA10008BDA600080000000000000000EF
:1000F0000000000000000000000000000000000000
:100100000000000005B600080000000005B6000869
:10011000000000000000000005B6000805B6000859
:1001200005B6000805B6000805B6000805B60008C3
:1001300005B60008000000000000000000000000FC
:1001400005B6000805B6000805B600080000000066
:1001500005B6000805B6000805B6000805B6000893
:1001600005B6000805B6000805B600080000000046
:1001700005B6000805B600080000000000000000F9
:1001800005B6000805B6000805B600080000000026
:1001900010B5054C237833B9044B13B10448AFF3C1
:1001A00000800123237010BD90000020000000009B
:1001B00000E5000808B5034B1BB103490348AFF342
:1001C000008008BD000000009400002000E5000849
:1001D000F0B40568294F064601E0581C06D1EC69C9
:1001E00031EA0400F9D10020F0BC70473868801A69
:1001F000834227D333B328684407F0D5E869000564
:10020000EDD54FF400632B6255E8003F23F4D07323
:1002100045E80032002AF7D1326802F1080353E8BA
:10022000003F23F0010302F1080040E800310029FB
:10023000F3D12023B36786F87410F3670320C6F860
:100240008030D1E755E8003F23F4D07345E8003211
:10025000002AF7D1326802F1080353E8003F23F087
:10026000010302F1080040E800310029F3D1202306
:10027000B36786F874100320F367B5E7AC0000207D
:10028000224A03460068904230B43BD8204A2149B4
:10029000214C1C640244A1FB0212120992005A6410
:1002A000022283F8252001689D68D3E9052421F402
:1002B000FF4121F070012A430A43224342F08002A9
:1002C000B5F5804F026014D0196C134A914208BFF3
:1002D00012495A6C18BF124902F01C000F240A6818
:1002E000844022EA04020A605A680C688240224371
:1002F0000A6000200122D86383F8240083F82520B7
:1003000030BC7047074A0349074CC2E70704024064
:10031000F8FFFDBFCDCCCCCC00000240A8000240CD
:10032000A8040240F8FBFDBF0004024009494A68E6
:10033000D36823F0A003D360086804E00B681B1A9D
:10034000B3F57A7F04D8D3689B06F7D500207047B1
:1003500003207047AC0000200B4A30B4411E00F16E
:100360008B054FF0FF3011F8014F08236040C407A0
:100370004CBF82EA50004008013BF8D18D42F2D1D7
:10038000C04330BC704700BF2083B8ED2DE9F04F6B
:10039000054687B0002405EB410E029005921046F9
:1003A00004910393AEF1120EAA1EA4460194A24634
:1003B000A346012740F2EE2914E0BBF1000F2ED135
:1003C000534532DD9A460124019E7642B342BCBFBA
:1003D000A8EB050301938C4538BF8C46964500F188
:1003E000020027D0558A32F8021F6B1A03F5004627
:1003F000B6F5803F38BF038088462CBF00271188A0
:100400004B45DADC564E9A45B8BF9A46B342DBDA22
:10041000002C0ABF0027A3464FF0010BD4E7534539
:1004200005DD9A465C460027CEE70124CCE75C4612
:100430000027C9E72FB94FF0000B584607B0BDE8B9
:10044000F08F002CF7D0BBF1000FF4D0049A059E7A
:10045000CDF810C00023CDF814A0A2F11C0812366C
:1004600099469E461F469C469A4636F9023F03EB44
:10047000830203EB4203344630460A2130F9025D21
:1004800034F9022F01FB053301FB02330139F5D1A9
:10049000734561DC4B4501DA9946BA460137474559
:1004A000E3D14CF250339E4560465446DDF810C00F
:1004B000DDF814A0BFDD2B4B9945BCDABAF1000F73
:1004C000B9D0019B002BB6D0029B119A1B884FEA32
:1004D000CC0CDB0042B1634504D2D94351446144A2
:1004E000B1FBFAF1119A1160109A002AA5D0039A73
:1004F000002AA2D0024602990E3231F81210B3EB54
:10050000C10F4FEAC10005D2DB4353440344B3FBA0
:10051000FAF3D21A2046029B0E3033F81030BCEBAF
:10052000C30F4FEAC30106D9019C631E63445B1AE3
:10053000B3FBF4F3C01A002AFFF67DAF0028FFF6E4
:100540007AAF82423FF777AF109BA0EB020AC3F865
:1005500000A0039B1A6070E79E46BC469EE700BF62
:1005600012FDFFFFB03CFFFF704700BF70B4124E9A
:10057000124D00F1BC04002143680B44024640F8D0
:10058000043F12689A1AB24209DD50F8042CA3F510
:10059000C9237E3BA1F5C92103607E399A1AAA427C
:1005A00006DA03F5C9237E3301F5C92103607E31E4
:1005B0008442E1D170BC70473F240300C1DBFCFFE3
:1005C0000288438843EA02430B607047DFF880C02B
:1005D0002DE9F04F023802390CF1E2090CF1E40B7D
:1005E0004FF0000A40F6DE1830F8025F31F8024F93
:1005F000A54220D09CF800400BEBC404658825B3CD
:100600006768002607EB850E47F6FF7557F8044B21
:10061000A4B2A54228BF2546A64238BF2646BE45FD
:10062000F4D17600B6B26D00B24538BFB246ADB275
:10063000A84528BFA8460CF1010CCC45D4D1A2F89E
:100640000080A3F800A0BDE8F08F4FF6FE75EFE73D
:1006500018E50008F0B4314B314E1B68056882B0D4
:1006600000248DF803403468376803EB8303C4F13A
:100670006404C3EBC30322441B0D02FB03F3019389
:10068000AB6819420AD12CE0019C019B013B01930C
:10069000AB68002C08BF0022194222D0B1F5C06F10
:1006A00005D12B7BDBB28DF803309DF80330336826
:1006B000DB1B9A42E8D86B68426823F0E003B2F58E
:1006C000827F6B601AD0836AB3F5005F0DD0012280
:1006D000002380F85D2080F85C30032002B0F0BC7D
:1006E0007047002002B0F0BC70472B6823F4005321
:1006F0002B602B6843F400532B60E8E78368B3F565
:10070000004F02D0B3F5806FDDD12B6823F040039A
:100710002B60836AB3F5005FD9D1E6E700000020C3
:10072000AC00002070B4294D294B2A681B6804686E
:100730002E68C2F16402114483B0C3F3CB3301FBD2
:1007400003F30193A3681A060DD52B689B1B8B42FC
:100750000DD2019A019B013B0193A368002A08BFB7
:1007600000211B06F1D4002003B070BC7047636801
:10077000426823F0E003B2F5827F636016D0836A9B
:10078000B3F5005F09D00122002380F85D2080F8D6
:100790005C30032003B070BC7047236823F400531F
:1007A0002360236843F400532360ECE78368B3F5C8
:1007B000004F02D0B3F5806FE1D1236823F04003EE
:1007C0002360836AB3F5005FDDD1E6E7AC0000206B
:1007D0000000002007EE900ADFED1A6A9FED1A7AFA
:1007E000F8EEE77A67EEA67AF4EEC77AF1EE10FA41
:1007F00001D5012920D09FED157AF4EEC77AF1EEEC
:1008000010FA17D4B1EE0C7AF4EEC77AF1EE10FAC2
:1008100016D49FED0F7AF4EEC77AF1EE10FA0DD4EC
:100820009FED0C7AF4EEC77AF1EE10FA4CBF04207B
:100830000520704701207047002070470320704753
:10084000022070470AD7233B666646403333A340F5
:1008500033334B410000944170B483B0114B9FED92
:10086000127A124E01930DF1050102AD0222012010
:10087000531EDBB2042B06EB83049ABFD4ED007A3F
:1008800077EEA77AF0EE477AF4EE407AF1EE10FABE
:1008900098BF1046A94202D011F8012BE8E703B037
:1008A00070BC704702030405000000008CED0008D6
:1008B000024B034A9B6B034900201847AC00002001
:1008C00094230108A423010870B48C8893680E89CE
:1008D0008D79CA799A70003C18BF01249E801C70E3
:1008E0005D70986070BC70470368D0F8E820C0F86D
:1008F000F0205A6818461047D0E90F23816B006931
:10090000184700BF0068C368184700BF704700BFA2
:10091000F8E700BF00688368184700BFFAE700BF28
:10092000F0E700BF836910B50446BBB10D4B93F8E7
:1009300040204AB963697BB10A4B0B4A9B6B0B4958
:1009400000209847002010BD9B6B094A07490120F1
:1009500098476369002BEFD1012010BDC369002BBC
:10096000E4D1E7E7AC000020F0230108D42301081C
:10097000B823010870B40169B0F8422090F838300B
:1009800031F81220032B08BF82F4004240F2E51335
:1009900003FB02F31B0C826CA3F589739BB21380DB
:1009A000828F31F812204AB1B0F8402031F812207D
:1009B000012A03D9C26C0124147002E0C26C002425
:1009C0001470C48F428F31F8145031F81240B0F9CE
:1009D000441040F2E51202FB05F2120CC2F58972D6
:1009E00013441BB2002BB8BF5B42D0E914651BB2A5
:1009F000A4F1010200689942B2FA82F24FEA52125F
:100A0000ACBF00230123327042682B7070BC1047CA
:100A100070B50446806978B1E36943B10F4B93F830
:100A2000402022B19B6B0E4A0E4901209847206856
:100A3000BDE8704083681847084D0B4AAB6B094905
:100A40009847E3693BB195F8403023B1AB6B044A5A
:100A5000044901209847002070BD00BFAC00002071
:100A60004424010834240108182401082DE9F04722
:100A7000C26DD0F8188006690023A8F80230044639
:100A80001D46137000F14C07994657F8043B03B319
:100A9000B3F838C0B3F89000B3F89210B3F8D82088
:100AA00006EB400006EB410106EB420206EB4C0C64
:100AB000C3E91301C3F8A420C3F814C088F8005098
:100AC0001868D3F8DC20416883F8E490C3F8E0208C
:100AD00088470135EDB2042DD7D12068BDE8F04735
:100AE00043681847704700BF704700BF704700BF9A
:100AF000704700BF52B101EB8202043850F8043F46
:100B00004B801B0C0B8004319142F7D1704700BF22
:100B100030B583B000EB42000D4601A91C46FFF73B
:100B20004FFD019A22F00F0204B12A4300920146C0
:100B300001226846FFF7DEFF03B030BD2DE9F04F1C
:100B400087B0BDF84070DDF844A003EBC7077B8891
:100B500083B381460E4601EB020800254FF0010BDE
:100B60007A6852F82540620092B2B242C4F3017032
:100B70001DD342451BDA01280CD0022836D0E8B13B
:100B8000324B334A9B6B334900209847002007B013
:100B9000BDE8F08FBAF10003A2EB060218BF0123F3
:100BA00092B2C4F303414846FFF7B2FF7B88013598
:100BB000AB42D5D8012007B0BDE8F08FC4F3445351
:100BC0000BFA03FC921BE24591B21ED30CF1FF33EA
:100BD0001E4A0193CDF800A0946B1F4A03900B4668
:100BE0001C49A047039807B0BDE8F08F921BBAFAE2
:100BF0008AF35B0992B2C4F303414846FFF788FFCA
:100C00007B880135AB42ABD8D4E709EB410004A99E
:100C10000393FFF7D5FC039B4FF0FF32C3F1200392
:100C2000C4F3044422FA03F3049AA34022EA030221
:100C30000AFA04F40146144305A801220594FFF7BB
:100C400059FF7B880135AB428AD8B3E7AC0000205E
:100C5000982401088C240108542401082DE9F04F40
:100C6000C2F51D669A461B68164C0E36B34298BFF5
:100C70009EB2154B054688BFB6B2500803EB800004
:100C800083B0174672088846023DFFF733FF04F130
:100C9000E10904F1E40B7D2301E014F8013F35F88C
:100CA000022F3946CDE9003240465B463246FFF717
:100CB00045FF4C4501D00028EFD1CAF8006003B0D1
:100CC000BDE8F08F18E50008CC0E01082DE9F04FC3
:100CD00002EB420C00EB8C0C8DB000268346824662
:100CE00080466746B14603A84FEA890586469FEDD0
:100CF000577A43466AB19C192C44D4ED007A1C46BD
:100D0000D4ED006A0C3367EEA67ABB4237EE277A41
:100D1000F1D104350C2DAEEC017AE8D109F10109CD
:100D2000B9F1030F00F1100008F10408A6F1040660
:100D300007F10407D8D19DED046ADDED055ADDED1C
:100D4000086A68460BF10C04DFED407A53463AB16D
:100D50001D4695ED007A0C33634577EE877AF7D11F
:100D60000AF1040AA245E0EC017A0CF1040CEBD183
:100D7000DDED037AF5EE407AF1EE10FA10D0B7EE21
:100D8000007A87EE274ADDED077A66EE044A26EE02
:100D9000245A77EEC57AF5EE407AF1EE10FA06D1D4
:100DA00000200023CBF800300DB0BDE8F08FC7EE77
:100DB000272A65EE843A25EEA47A66EE237A9DED25
:100DC0000B5A76EEE77A36EEC77A67EEA27A65EED0
:100DD000A36A75EE666A27EE275A76EEC56AF5EEC7
:100DE000406AF1EE10FADBD09DED005A9DED013A1C
:100DF0009DED022A64EE854A63EE853A73EE644AFD
:100E0000012067EEA47A002372EE677A77EEE33A68
:100E1000C3EEA67A27EE277AC1ED027A34EEC77ABE
:100E200065EEA75A67EE227A26EE276AC1ED017AAF
:100E300035EE466A76EE655A25EE844A81ED004A23
:100E4000CBF800300DB0BDE8F08F00BF000000000F
:100E50000028B8BF404270B4BABF00B201240024D9
:100E600000293FDB884238DB0022034668B308468E
:100E7000002643F628450004B0FBF3F1A9424AD905
:100E800046F2D633994236D948F67203994244D98C
:100E90004AF64943994242D94DF2A303994240D9B7
:100EA0004FF24B73994298BF052025D94FF24C75EC
:100EB00048F233234CF2A340491B03FB01F100EB42
:100EC000114016B1C0F5C9301F3014B1C0F549301A
:100ED0003F3002B1404270BC70470B46C1B9124866
:100EE0000A46F2E7494209B288424FF00102BCDAF1
:100EF0000B461646BDE701200C4B03EBC00503EB88
:100F00008003D5F88C08D3F8C038D5F88858D3E7D3
:100F100000220126ADE70020EEE70220ECE70320E7
:100F2000EAE70420E8E700BF1F92010018E5000887
:100F300010B4084C248D490864088C4228BF0C4624
:100F4000023C24F00104043010601C605DF8044B86
:100F5000704700BFAC000020F8B50688002A14BF17
:100F60004FF480524FF40052B6F59C6F38BF4FF4E7
:100F70009C66B24205460F461C4623D2134B144AC8
:100F80009B6B1449002098474FF0000E1249134AFA
:100F9000134BE360C4E901120FCD203676004FF009
:100FA000000CA4F802C004F1300C24F8106B0FC43C
:100FB00095E80F0007C497E8030023808CE803003E
:100FC0007046F8BD4FF0010EE0E700BFAC00002016
:100FD000BC240108DC2401080100020003001B00FE
:100FE0001C002000DFF864C02DE9F047DCF83C501D
:100FF0001DB12B46BDE8F047184712B35200A1F1CE
:101000000208A2F102090E469A46074649444446A0
:1010100034F8025F6DBA8C422580F9D1DCF8344097
:1010200038463146A047BAF1000F01D1BDE8F0873C
:101030004E4438F8023F5BBAB045A8F80030F8D10A
:10104000F4E7BDE8F047DCF834301847AC00002086
:1010500070B5012584B041F4A0430446164603A9A7
:101060002A4601A8ADF808300196ADF80A50FFF7FE
:1010700041FD204602A900230422FFF7B3FF04B07C
:1010800070BD00BF2DE9F04782B01D4643F44053C8
:10109000BDF82840ADF8003000278A4691466946E1
:1010A000012303228046ADF80270ADF80470FFF70B
:1010B00099FFBDF9046004FA0AF1714001EA0904DC
:1010C00045F4805540463B46694674400222ADF8DF
:1010D0000050ADF80240FFF785FF02B0BDE8F08791
:1010E00030B583B00025294600957B23FF220446B6
:1010F000FFF7C8FF0121204600918B230222FFF752
:10110000C1FF009520468B2380220721FFF7BAFFFD
:1011100003B030BD30B583B041F480541546002390
:10112000022201A9ADF80440ADF80650FFF75AFFBE
:1011300003B030BD30B583B041F4405114460025B2
:10114000ADF80010012303226946ADF80250ADF856
:101150000450FFF747FFBDF80430238003B030BDD3
:10116000F0B585B00024012907461646ADF80E40BB
:1011700038D0022933D0224B22499D6B224A0346A4
:101180002046A84721460DF10E023846FFF7D2FF50
:10119000BDF80E30738003F00705012D358024D093
:1011A00013F0060F0BD16DB9154A0097946B1549D2
:1011B000164A2846A0472C46204605B0F0BD023D01
:1011C000012DF9D90E4A0097946B0E49104A002060
:1011D000A04700210C462046318005B0F0BD3221E9
:1011E0000124D0E70C463321CDE7054A0097946BE4
:1011F0000449084A0020A0470024204605B0F0BD5D
:10120000AC0000200C250108F02401082425010869
:101210008825010854250108F0B583B00024012970
:1012200007461646ADF8064019D0022909D01A4BD8
:101230001A4A9D6B1A4903462046A847204603B028
:10124000F0BD46210DF106023846FFF773FFBDF8E9
:101250000650842475B1BEB9012003B0F0BD45210C
:101260000DF106023846FFF765FFBDF806508324EE
:10127000002DF0D1084B0B4A9C6B094928463B4690
:10128000A047284603B0F0BD384621460022FFF7AC
:1012900041FF3046D3E700BFAC000020F024010836
:1012A0000C250108BC25010870B582B00DF10602BD
:1012B0000E4600241C210546ADF80640FFF73AFF14
:1012C000BDF8062012F400620CD128461B21FFF75E
:1012D00021FF284646F400621B21FFF71BFF012077
:1012E00002B070BD044B054A9E6B054920462B4653
:1012F000B047204602B070BDAC000020F0250108C8
:101300000C25010870B582B00DF1060200243721CA
:101310000546ADF80640FFF70DFFBDF8063003F0B7
:10132000C003B3B90DF1060200241C212846ADF814
:101330000640FFF7FFFEBDF806301B0515D50E4B26
:101340000E4A9E6B0E4920462B46B047204602B0FF
:1013500070BD094B93F84020002AE3D09C6B094AEA
:1013600007492B460120A047DCE72846FFF7B8FED7
:10137000012002B070BD00BFAC0000204C26010867
:101380000C25010820260108F0B40C4D2F8D9E1C61
:10139000B7EB460F05D2AB6B094A0A49F0BC0020F7
:1013A0001847144641F4A041013B11805380214667
:1013B00026F000420023F0BC14E600BFAC00002081
:1013C0007C2601089C26010810B582B0044601AABB
:1013D0000121FFF7C5FE204600220121FFF71CFF77
:1013E000BDF80430022B08D00549064A8C6B06492B
:1013F0000020A047002002B010BD012002B010BDA7
:10140000AC000020B0260108F826010808B5044BFE
:10141000044A9B6B044900209847002008BD00BF88
:10142000AC000020182701083027010870B520B152
:101430000B4B04460068984207D00A4B0A4A9B6B44
:101440000A49BDE8704000201847032A0D46164699
:1014500002D9FFF7DBFF10B104EB0614A57470BDD1
:101460000FB03713AC0000203827010830270108DF
:1014700008B518B1064B02689A4207D0054B064AD8
:101480009B6B064900209847002008BD043008BD2A
:101490000FB03713AC0000203827010830270108AF
:1014A00018B1064B02689A4205D0054B054A9B6B62
:1014B00005490020184780ED120A70470FB0371316
:1014C000AC000020382701083027010870B520B192
:1014D0000B4B04460068984207D00A4B0A4A9B6BA4
:1014E0000A49BDE8704000201847032A0D461646F9
:1014F00002D9FFF78BFF10B104EB0614A58170BD74
:101500000FB03713AC00002038270108302701083E
:1015100070B520B10B4B04460068984207D00A4BC7
:101520000A4A9B6B0A49BDE8704000201847032A0D
:101530000D46164602D9FFF769FF10B104EB0614F9
:10154000E57470BD0FB03713AC00002038270108D8
:101550003027010838B520B10B4B02689A42044687
:1015600007D00A4B0A4A9B6B0A4900209847002083
:1015700038BD03290D4603D9FFF748FF0028F7D0EF
:1015800004EB0514608938BD0FB03713AC000020A0
:10159000382701083027010870B520B10B4B0446ED
:1015A0000068984207D00A4B0A4A9B6B0A49BDE87B
:1015B000704000201847032A0D46164602D9FFF74F
:1015C00025FF10B104EB0614658170BD0FB0371311
:1015D000AC000020382701083027010838B520B1B9
:1015E0000B4B02689A42044607D00A4B0A4A9B6B8F
:1015F0000A4900209847002038BD03290D4603D929
:10160000FFF704FF0028F7D004EB0514208938BD4C
:101610000FB03713AC00002038270108302701082D
:1016200070B520B10B4B04460068984207D00A4BB6
:101630000A4A9B6B0A49BDE8704000201847032AFC
:101640000D46164602D9FFF7E1FE10B104EB061471
:10165000258170BD0FB03713AC000020382701087A
:101660003027010838B520B10B4B02689A42044676
:1016700007D00A4B0A4A9B6B0A4900209847002072
:1016800038BD03290D4603D9FFF7C0FE0028F7D067
:1016900004EB0514606838BD0FB03713AC000020B0
:1016A000382701083027010870B520B10B4B0446DC
:1016B0000068984207D00A4B0A4A9B6B0A49BDE86A
:1016C000704000201847032A0D46164602D9FFF73E
:1016D0009DFE10B104EB0614656070BD0FB03713AA
:1016E000AC000020382701083027010808B518B1E0
:1016F000074B02689A4207D0064B074A9B6B074983
:1017000000209847012008BD90F8520008BD00BF96
:101710000FB03713AC00002038270108302701082C
:1017200018B1064B02689A4205D0054B054A9B6BDF
:1017300005490020184780F8521070470FB0371342
:10174000AC0000203827010830270108036853E85F
:10175000002F22F4907243E800210029F7D103F111
:10176000080252E8002F22F0010203F1080C4CE8B5
:1017700000210029F3D12022C267026E4166012AAE
:101780000DD1016653E8002F22F0100243E800213A
:101790000029F7D1DA69D20644BF10221A627047D5
:1017A000C26F222A06D00268138B9BB243F0080353
:1017B000138370470268416D928C10B490F85C40BE
:1017C00022400A70B0F85A20416D013A92B2A0F856
:1017D0005A20B0F85A20013192B2416512B95DF831
:1017E000044BB3E75DF8044B704700BFC26F222A79
:1017F00006D00268138B9BB243F008031383704733
:101800000268416D928C10B4B0F85C40224021F81F
:10181000022BB0F85A204165013A92B2A0F85A2042
:10182000B0F85A309BB213B95DF8044B8EE75DF8FF
:10183000044B7047836A0022A3F85A20A3F8522071
:10184000704700BF836A1B6E704700BF0368806AE1
:101850001A6812F0200227D10368A0F85A2053E832
:10186000002F22F4807243E800210029F7D103F110
:10187000080252E8002F22F0010203F1080C4CE8A4
:1018800000210029F3D103F1080252E8002F22F0D1
:10189000400203F1080C4CE800210029F3D120227A
:1018A000C267026E012A01D0036E704753E8002F11
:1018B00022F0100243E800210029F5D053E8002F60
:1018C00022F0100243E800210029EFD1ECE700BF2D
:1018D000836A19684A6822F0030210B44A601A6EDB
:1018E000012442F010021A6683F85D405DF8044B53
:1018F000704700BF704700BF704700BF70B50368F6
:101900001B4D2E681B689B062ED4846A2268536880
:1019100023F020035360204632464FF4C051FEF7B7
:1019200099FE58B931462046FEF7FCFE30B93246E2
:101930004FF4C0612046FEF78DFE38B1236E43F0B0
:1019400020032366236E43F02003236621684B683F
:10195000002223F0030301204B60E287A4F8462015
:1019600084F85D00236E13B9012385F8413070BD02
:10197000AC00002038B52E4A036815681B689B062A
:101980001FD4846A2368A268586820F02000586039
:10199000C2B15968606821F00101B0F5827F5960D9
:1019A00035D029462046FEF7BDFEC8B96368B3F5B9
:1019B000827F1CD001230022A4F8462084F85D30E9
:1019C000236E38BD6268B2F5827F5A6827D022F054
:1019D00001025A6029462046FEF7A4FE0028E5D001
:1019E000236E43F02003236620232366E2E7A368E7
:1019F000B3F5004F02D0B3F5806FDBD12A464FF428
:101A0000C0612046FEF726FE0028D3D0E8E7B2F5F5
:101A1000004F08D11A6822F040021A60C1E722F094
:101A200003025A60BDE7B2F5806FF3D0B9E700BF9B
:101A3000AC000020444AD36830B49C0708D0D36877
:101A4000046803F00303A34247D0012030BC704771
:101A50000368022B52D0032B49D0012BF5D1126819
:101A60009207F2D5384D4468EA6822F073021343B6
:101A7000013C43EA0413EB60334C344A236823F0FF
:101A800080632360156803E013685B1B022B39D861
:101A900023681B01F8D4002937D1D0E9025321690A
:101AA000DB0621F0784121F4FE4143EA05230B4394
:101AB000236125490B6843F080630B60146803E0E1
:101AC00013681B1B022B1DD80B681B01F8D58269FC
:101AD0000B6913430B610020B8E7002BB5D0D36826
:101AE0004268C3F3021301339342AED1C4E71468D2
:101AF000A403B7D412685203A7D5B3E712685505FB
:101B0000A3D5AFE7032030BC7047012923690DD06E
:101B10004169856823F0C06323F4FE43490843EA22
:101B20000523013943EA41632361C2E701698568FE
:101B300023F4C00323F4FE43490843EA0523013993
:101B400043EA41532361B4E700100240AC00002097
:101B5000064A074B92680749C2F3022213440868F9
:101B600093F8DC3803F01F03D840704700100240A0
:101B700018E50008000000202DE9F84F164C0A9ED9
:101B8000278D043A043F52087F0897420D4681464C
:101B9000984628BF174601F1040A0024331BBB42B4
:101BA00028BF3B466FEA84415A1E6FEA91419B462B
:101BB0006A8029805A0008EB440150461C440BF00F
:101BC000FFFD0BF10202002329464846FFF70AFAFF
:101BD000A642E3D8BDE8F88FAC0000202DE9F04F15
:101BE000254C85B00026CDE90266B4F82880019224
:101BF0008946002B3AD04FEA58088346A8F10408DA
:101C00009A460D461F4626E0019B48F200019A19AC
:101C10002980631E4FF00001E9806A80AB8062007A
:101C2000002105F108000BF0C1FD294601235846AB
:101C3000221DFFF7D7F902AB03CB26446960286069
:101C400009EB460559F81600696802AB564503C30F
:101C5000A7EB04070AD2B845444628BF3C46B8451E
:101C6000D2D200E0013CE307FCD4CDE709F1080043
:101C700005B0BDE8F08F00BFAC0000202DE9F04FAB
:101C800002EBC30689B07388129F4BB38046894626
:101C900000254FF0010B736853F82540C4F3017021
:101CA00001280CD0022833D0F0B1344B344A9B6B5E
:101CB000344900209847002009B0BDE8F08FA3B256
:101CC000194659F8232022F00F0217B1C4F3034438
:101CD00022434046FFF7BCF9738801359D42DAD3B1
:101CE000012009B0BDE8F08FC4F3445A0BFA0AF39F
:101CF0009F4216D3214A0097013B0193214903904B
:101D0000A3B2946B204AA047039809B0BDE8F08FB6
:101D1000A3B2194659F8232022F00F02002FD8D180
:101D2000D4E7A3B243F4204C03930522012305A971
:101D3000ADF81800CDF81A004046ADF814C0ADF863
:101D400016B0FFF74FF904A90DF11A00FEF738FCA1
:101D5000CAF1200A4FF0FF33C4F3044423FA0AFA0D
:101D6000049B03990AFA04FA23EA0A0207FA04F424
:101D700022434046FFF76CF9AEE700BFAC000020FD
:101D8000882701088C2401085027010870B5094EE6
:101D9000F36A05469847044628B12A4600210BF00D
:101DA00005FD204670BDB36B034A044998472046A1
:101DB00070BD00BFAC000020B0270108C02701089B
:101DC00008B52DED028BB0EE408A09F025FDDFED60
:101DD000087A70EE277AB4EEE78ABDEC028BF1EE5A
:101DE00010FAC4BFF7EE007A30EE270A08BD00BF34
:101DF000ACC527370138C0B2042801D9002070478C
:101E000008B5294B9FED297A03EB8000D0ED006ADD
:101E1000C6EE877AB3EE087AF4EEC77AF1EE10FADE
:101E20002DED028B0FD4FCEEE77A214B17EE902AB2
:101E300090B2A3FB0030000900EB4000C00080B26C
:101E4000BDEC028B08BDF5EEC07AF1EE10FA1DDD97
:101E500087EE278AB0EE480A09F0DEFCDFED157A3E
:101E600070EE277A1820B4EEE78AF1EE10FAC4BFBC
:101E7000F7EE007A30EE270ABDEC028BBCEEC00A0A
:101E800010EE103A9BB2B0FBF3F008BDFCEEE77A1F
:101E9000182217EE903A9BB2B3FBF2F303EB430325
:101EA000D80080B2CCE700BF8CED00080AD7233BF6
:101EB000ABAAAAAAACC527372DE9F04F2DED0C8BA4
:101EC00082469DB090F84E4090F84C000C90042C47
:101ED000BAF848000A90059190461F461AD8DAEDE4
:101EE000107AF5EEC07AF1EE10FA00F1E9819AF875
:101EF0005630DFF8C090002B00F0EB819AF84B30A1
:101F0000002B00F0E681274AD9F838302649002016
:101F1000984707E0DFF89C90244AD9F838302249E6
:101F200000209847DAED117A99ED117AF5EEC07A32
:101F3000F1EE10FAB8EE478A40DDC8EE278AF6EED9
:101F4000007A78EEA78A0A9B002B3CD107939AF877
:101F50004A300193002B3ED19AF85030022B41F0C9
:101F6000EA809AF84E40012C00F0C6820024329A92
:101F7000019B1471A8F8AC41002B32D09AF84F3075
:101F8000012B00F0AD87022B00F09987002B00F0A9
:101F9000B587D9F83830064A03490020984700230E
:101FA00001931EE014280108EC270108D02701083E
:101FB000D0280108AC000020000000000A9B5FED63
:101FC000028A002BC2D09AF84E3007939AF84A3012
:101FD0000193002BC0D0329A002313710193A8F80B
:101FE000AC31059C002C4AD02389B4F88610B4F893
:101FF0008420B4F88200A8F804109B00B4F888107C
:10200000A8F802209BB203F13002A8F80000608813
:10201000A8F80610A188A8F8080092B2E088A8F8ED
:102020000A106189A8F80C005F2A208CA8F80E100D
:10203000618CA8F81210A8F8100040F22282C6495C
:10204000A1FB0201890901EB4101A2EB411189B217
:1020500000201A4605460B4601210324A8F8143037
:102060000023A8F81620A8F81810A8F81C50A8F803
:102070001E00A8F82010A8F81A40A8F822300199EC
:10208000002201237A80BA817B81002901F04380FC
:1020900015460692039207F10E0308F13E029FEDEA
:1020A000AFAADFEDAFAADFEDAF9A9FEDAF9ACDF803
:1020B00008A0D346CDF8109008F146060992CDF855
:1020C0002080BA469946079AEBB29A4200F25881AC
:1020D000099A0023A9F80030A9F8083022F8153031
:1020E0000135042D09F102090BF1100B06F156061A
:1020F000E9D157460A9AB9897B89BDF81800DDF8FD
:102100002080DDF81090DDF808A0029011FB02F1AC
:1021100089B20B449BB25A1C1FFA82FEB8F8ACC1BC
:10212000BCF1010F04D1039A0A9800FB02F203925A
:102130009AF85220BAF854009AF853509AF8564038
:10214000A8F89E21039A4FF6FF7B5A454FEA5006A6
:1021500028BF5A460338A8F8A801033E0298A8F8F9
:10216000AA6185F0010592B2A8F8A651A8F8A001CD
:10217000A8F8A421B981BB80A7F806E0002C00F0E4
:102180006081413340213B8039810124059BA8F8BF
:10219000C04113B19B89A8F8C231019B002B40F0CC
:1021A0005A81329ADAED105A002313600C9BA8F87A
:1021B000B2310A9B012B40F24881BAF84830012223
:1021C000023BA8F8AE31A8F8B0219FED687A9FEDE8
:1021D000686A28EE077AF1EE007AC7EE066A68EEC2
:1021E000277AF5EE405A87EE867AC8EE067AB6EE82
:1021F000006A76EE866A37EE067AFCEEE66A77EEDD
:10220000867A16EE902ABCEEC77AF1EE10FAFCEE52
:10221000E77AA8F8B82117EE102A14BF012300238B
:10222000A8F8B621A8F8383017EE902A019BA8F834
:10223000B421002B00F0F180F5EE405AF1EE10FAD7
:102240000CD0C8EE257A37EE866AFCEEC67A17EE19
:10225000903A1A0CA8F83C30A8F83A20DAED117A36
:102260009AF84A309AF84B20A8F83030F5EE407AC8
:10227000F1EE10FA14BF01230023A8F83220A8F8C9
:102280002A3008D0FCEEE87A17EE903A1A0CA8F83B
:102290002E30A8F82C209AF851300198A8F8BE31B9
:1022A000012140F2FF7240F60103A8F82410A8F8BB
:1022B000BA21A8F8BC311DB0BDEC0C8BBDE8F08F85
:1022C000DFF8B8902B4AD9F838302B4900209847CE
:1022D00028E69AED117AD9ED116AB5EEC07AF1EEE1
:1022E00010FAB8EE668A16DDC8EE078AF6EE007AB6
:1022F00078EEA78A00F1F98018EE900A08F030FA1B
:10230000012908BF002880F0F0809AF84A30002B9D
:1023100040F0E28008E000F1E6809AF84A30002BB5
:1023200040F0CD80DFED0F8A9AF84F109AF85020D8
:102330000A98002814BF204600209142079000F21E
:10234000FD83002B40F00387022A00F0FC86329ABE
:102350001371A8F8AC3111E6ABAAAAAA2549123E1E
:10236000CDCC4C3E000000008FC2753D000096436E
:102370000024744900280108EC270108AC00002063
:10238000099A012322F81530029BBBF8082093F824
:102390004C8040F2FF1140F2FF33B8F1000F18BF3C
:1023A0000B46E2B19A421AD89BF80D30002B6CD143
:1023B0009BF80F309BF80E00002840F05383012B50
:1023C00000F0B280DDF810904F4AD9F838304F490C
:1023D000DDF820805746DDF808A098470CE0DDF8CE
:1023E00010904B4AD9F838304849DDF82080002059
:1023F0005746DDF808A098470A9AB9897B89BDF845
:102400001800029011FB02F189B20B449BB25A1CD6
:102410001FFA82FE0022019280E6DAED117A9AF824
:102420004A309AF84B20A8F83030F5EE407AF1EEB9
:1024300010FA14BF01230023A8F83220A8F82A308C
:1024400029E73C81A7F800E0A0E60023A8F8AE3118
:10245000A8F8B031B9E69AF84D10072927D82D4BC6
:102460009FED2D9A0B4493F80839A8F8A231329BBE
:1024700083ED009A079B002B40F03284DAED105A6E
:1024800094E6032001250021E7E59BF80F30022B9D
:1024900090D1DDF81090214AD9F838301B49DDF889
:1024A000208000205746DDF808A09847A4E7329A1C
:1024B000DAED105A002313600023019376E6B5EE9F
:1024C000407AF1EE10FA05D1F5EE407AF1EE10FA0D
:1024D00040F08385DFED108AD9F83830104A0B4977
:1024E000002098472FE5DFED0C8AD9F838300D4AE7
:1024F00006490020984726E59AF80F30013B012B4A
:102500003FF635AD32E500BF4C290108EC27010844
:102510001029010818E50008000000002029010822
:102520005428010840280108B84BBBF8067003EB9B
:102530008000182FD0F8E4380E93BBF804300D93C8
:1025400040F2128307EB870303EB031303EB032330
:1025500007EB4303C3F3CC0242EA43339BB240F69A
:10256000AA22934200F2D882A94BA3FB07231B099E
:102570000F93013B9BB214935C23109318230B938E
:102580000D98002840F04B84049BA24A9B6BA24903
:102590009847B8F1000F00F0CF824FF000080222F8
:1025A000DBF800300E9919440C4601F5C3430D9930
:1025B000283311FB02F2481E4CF2503192B28B428A
:1025C0000D9207FB004707D9049B944A9B6B9249E5
:1025D000002098474FF0000807F5C34328334CF21A
:1025E0005032934207D9049B8D4A9B6B8A49002045
:1025F00098474FF00008002CC0F26983894BE1171F
:1026000083FB0423C1EBA3031AB2002FC0F255834E
:10261000844B83FB0730FB17C3EBA0000E9300B283
:10262000804B83FB043C92B2C1EBAC01801A01EBFE
:1026300041010F9B1592B4EBC10182B2B2FBF3F2E0
:1026400003B202F1010216934FF018000B9BB0FB8E
:10265000F3F01FFA82FE00F129830FFA81FC89B2A0
:10266000704B0B9A83FB07340E9BC3EBA40303EB65
:102670004303B1FBF2F402FB1414A2B2B7EBC303A1
:102680000E9200F10D831AB219929BB2013882B2F8
:102690000E9C0B981A9212FB0040BEF1010F80B203
:1026A00000F08E82C41A0E9B18BF01248B4214BF07
:1026B00001230023AEEB0302A2EB0402A3B21194A8
:1026C00097B2179340F084820023189313931B93BF
:1026D0000E9B89009B00B187F387B8F1000F00F0D3
:1026E00058829BF80E30052B00F23884474A02EBE3
:1026F0004303B3F8F8385A08A3F14A00D91E033A45
:1027000080B2143B92B289B20F901293159B169827
:10271000B186C3F129040F9BF2861C4423B21593A2
:102720001B1A292BA4B207DC049B3F4A9B6B3A4936
:10273000002098474FF00008129B159A934207DC3F
:10274000049B3A4A9B6B3449002098474FF000089D
:102750000F9B3387109B74872C2B40F261820023E0
:10276000A6F85030A6F85230A6F85430149BA6F8BC
:102770004E30189BA6F84830002F00F03582012318
:10278000A6F84A30139B179AA6F84C20002B00F0AD
:10279000F9831B9BA6F842301A9BA6F84430119B84
:1027A000002B00F0EB83199B0E9A9C1A0B9B94FB59
:1027B000F3F4A6F846407A1E97B2A6F84070B8F136
:1027C000000F3ED09BF80A30172B00F2BF81092B77
:1027D00000F29A83C3F109031522738032800599B0
:1027E000002900F0748172889BF80F3001EB4202DF
:1027F000013B9289B280042B00F2B084DFE813F031
:102800001800260118010901290000BF18E5000879
:10281000ABAAAAAA98290108EC270108E429010813
:10282000F8290108ABAAAA2A2C2A01084C2A010877
:10283000059B9A8C04210023082A7385318540F278
:1028400027815746DDF82080DDF808A0DDF81090DC
:10285000D2E54FF00008C64643464FF4F0504FF41F
:1028600078544FF4F86202274FF00B0C0821B28124
:10287000F281029AA6F82AC03785318134827181AB
:10288000708292F84D20B8F1000F00F00F81002BFC
:1028900000F00C81022A00F20C81C1490A4492F82E
:1028A0000429B282059A002A61D006F114020020A0
:1028B00001213083118205990E93C86E0B908C6EA6
:1028C000DDF82CC0D1F864800F940027394604EB62
:1028D0001743A3EB0803734588B2674401F1010174
:1028E00080F209840F29F2D10E9B08460599CF6F1B
:1028F000D1F878C0D08007EB870405200CEB144199
:10290000C91A00F1010E3C4440F196831FFA8EF083
:102910001428F3D1DDF81090A24AD9F83830A24932
:10292000DDF8208000205746DDF808A0984763E5D1
:102930009B490A4492F80829B282059ABAB100224A
:10294000328306F11402B8F1000F40F07781A6F847
:102950002480A6F81A80A6F81680A2F80880A2F8AB
:102960000E80A2F80A80A6F8208000235382BBF8CC
:1029700008009BF80B203286012800F0C980012155
:10298000831EF185B3859BF80D10BAF80C30F180E9
:1029900081F0010171860D99A9F80030A9F808109D
:1029A0000B449BF80F10AAF80C300129338D6CD022
:1029B00002290CBFB0EE496AB0EE696A01339BB2DE
:1029C00007EE103ABBF80430B8EE477A07EE903ABB
:1029D000F1EE006A27EE267AF8EE677A06EE900AA4
:1029E00067EE277AF8EE666A069B67EEA67A1946C6
:1029F00067EE867A002B08BF114667EE8A7A039B42
:102A00000691FCEEE77A17EE902A13440393FFF742
:102A100067BB4FF00008C64643464FF4C0604FF412
:102A200060644FF4E07202274FF0060C08211EE7A5
:102A30004FF00008C64643464FF400704FF4C064A0
:102A4000C02202274FF0040C082110E700204FF4A9
:102A50000074402203274FF0020C08214FF0960E1D
:102A6000FA2304E7581EC0B204287FF65DADDDF8F6
:102A700010904E4AD9F838304B49DDF820800020BC
:102A80005746DDF808A09847B6E4B0EE6A6A95E7C5
:102A90004021328172814FF40070029A7382B181B9
:102AA000F181308292F84D2098469E46072A7FF6A3
:102AB0003FAFDDF810903E4AD9F838303A49DDF89A
:102AC000208000205746DDF808A0984794E49BF842
:102AD0000F30059AB280013B042B00F23F8301A224
:102AE00052F823F0F92A00084D2A0008312A00087C
:102AF000132A0008532800084FF000084046C44637
:102B0000C64643464FF40074402204270221AEE635
:102B10000023F385B38536E7049B264A9B6B224945
:102B200000201490044698470123CDE90F340B93FD
:102B3000B8F1000F7FF431AD042231E5D9F8383017
:102B40001D4A194900209847FFF701BADDF8109097
:102B50001A4AD9F838301449DDF820800020574649
:102B6000DDF808A0984747E4002FD5D01823B3FB21
:102B7000F7F307FB03F3C3F118039BB21493002B85
:102B8000CAD17B1E9B009BB2109301230B970F931E
:102B9000F6E46C23129336230F933D227D21B5E595
:102BA00018E500089C2A0108EC270108742901088F
:102BB0007C2A01088429010880280108642A010868
:102BC0008C4200F09B820022179218461746119201
:102BD000019B1393A0EB0C000B9B90FBF3F00123E4
:102BE000189383B21B9373E5179BA6F84C30139B85
:102BF000A6F84A70002B00F0C9811B9BA6F8423052
:102C00000023A6F84430119B002B00F0A381199BF0
:102C10000E9A9C1A0B9B94FBF3F4A6F84640CCE565
:102C2000109B1E2B40F28981A3F11E020F23A6F8F0
:102C30005420A6F85030A6F8523097E501211182B1
:102C4000002B7FF438AED38053801381D38153811E
:102C50001F4605990024D1F85CE0D1F86080214638
:102C600002E016293FF456AE0EEB1440C01B1FFACB
:102C700081FC444401F10101F3D4BCF1000F0CD0FC
:102C80005BB90CF1FF339BB208FB03F80EEB18485D
:102C9000A7EB08084045C8BF9C46A6F820C064E6DC
:102CA00003F1180422B2A3B21992EFE401F1180C57
:102CB0001FFA8CF10FFA8CFCD2E4CF4BF843A3FB44
:102CC00000306FEA1010FB1700B20E93A8E4CA4B55
:102CD000E243A3FB02236FEA13131AB2E11794E451
:102CE000BCF1010F00F0688107EE902A9FEDC3AAA6
:102CF000B8EE67CAB7EE089AF2EE02CAD9ED117AB9
:102D00009FEDBF0AF8EE679A80EE290A08F084FD6D
:102D10009AF85030022B69EE809A00F23A81B94A53
:102D20009AF84E1002EB830090ED00DAD0ED03BA72
:102D3000002900F0FD81019ADFEDBEDAB24E9FED71
:102D4000B3BADFEDB3AA00273D463AE04FF0300BAF
:102D500008240AEB05039B7B052B47D8AD4931F8C6
:102D6000133007EE903AF8EE677A89EEA77A554469
:102D70009AF84E302889A98800FB04440234640084
:102D8000A4B20137FDB2AB4207EE904A87EE2A6A41
:102D9000F8EE677A07EE10BAF8EE476A87EE867AA1
:102DA000C6EE865A07EE901AF8EE677A67EE277A33
:102DB00077EEA57A77EE8A7A77EE897A7DEEA7DAD2
:102DC0003FD90AEB05132D01DB7B052B18D8022B0D
:102DD000BCD8012B1FD0022B12D10AEB05034FF0F8
:102DE0003C0B9B7B052B4FF00A04B7D98A4AD9F8D4
:102DF00038308A4900209847F0EE4B7A0022B4E739
:102E00003246D9F838308549002098474FF0180BE2
:102E1000042400229DE74FF0480B0C2499E7B8F1F9
:102E2000000F40F0C6809BF80C30002B00F0E080D3
:102E3000049B7B4A9B6B7949404698470422FFF7E5
:102E4000AFBBB2B3DFED777ADFED716A9FED767AD3
:102E5000DAED105A329B89EEA75AF1EE0C7A85EE24
:102E6000266A2CEE27CA7BEE8DBACCEE067AB0EE3F
:102E7000006A77EEACCA7CEEADDA7DEEABBA6BEEF3
:102E8000877A77EE867A77EEABBAC6EEAB7AF4EE57
:102E9000E75AF1EE10FAC3ED007A7FF787A9FDEE4D
:102EA000E77AD9F83840614A5C4917EE903A002039
:102EB000A0470023DAED105A0193FFF777B90023FA
:102EC000A8F82630A8F828309AF85030012B10D0F6
:102ED000022B2BD013B3D9F83830554AFFF75CB822
:102EE0000022A8F82630A8F828209AF85030012BA4
:102EF000EED1C8F834300193FFF773B80123A8F876
:102F00002630A8F82830DFE7102B94BFC3F11E034A
:102F1000C3F1170300223380728060E44FF0011385
:102F2000C8F8343001230193FFF75BB80023C8F8D9
:102F3000343001230193FFF754B8109B0F2B42D973
:102F40000F3B0F22A6F852300023A6F85020A6F817
:102F500054300BE4119BA6F846302EE4049B2E4A15
:102F60009B6B2E49002098476C23129336230F93B6
:102F70003D227D214FF00008FFF7C8BB119BA6F84A
:102F8000463018E4139BA6F8423005E4A6F84270D8
:102F900036E6D9F83830264A2049002098479AF872
:102FA0004E30002B85D0DFED23BA0022B0EE6BDA75
:102FB000C2E60222FFF7F4BAB0EE49AAF0EE49CA1F
:102FC000B0EE49CA9AE60023109AA6F85020A6F857
:102FD0005230A6F85430FFF7C9BB9AF84F109AF850
:102FE0005020DFED148A91427FF476AAFFF7A0B952
:102FF000DDF80480A0E500BFABAAAAAA9A999D417A
:10300000F902154F28EE000874290108000000435A
:103010000024744910EE0008202A0108EC2701085A
:10302000AC290108000020430AD7233CC82A010824
:10303000F02801080000000005280BD000F1FF3E39
:103040001FFA8EFE07FB0EF40CEB14441C1BA1426E
:10305000C8BF704600210C4650801181D1810846BE
:1030600005991296096F0E9105990E9E496FCDE94B
:10307000101202E016283FF44DAC06EB1442D21AAF
:103080001FFA80FE0C4400F10100F3D41146DDE983
:103090001126BEF1000F0FD00EF1FF3080B211905B
:1030A000DDE9100400FB04F40E9800EB1440119CC1
:1030B000181A8142C8BFA646A2F80AE0718B0B9885
:1030C00000FB01F001460F9800EB1141B1EB080441
:1030D0003FF520ACF08B1099B6F816E001FB00F13B
:1030E000084607FB0EF10E9F0CEB114107EB104059
:1030F00008440719ADE50E9BFFF7F8BB98420CBFDB
:10310000012700270FD10023CDE917331193139323
:103110001B93FFF7DDBA019A02924FF0020E11469F
:103120000392FEF7FBBF00221792184611924FE55B
:103130005FED40DA86E6329B1A46019B1371A8F8D0
:10314000AC31FEF74EBF01230193FEF70CBF329A5C
:1031500000231371A8F8AC31FEF710BFDDF8109012
:10316000DDF82080D9F83830084A09490020574650
:10317000DDF808A09847562303FB05830022A3F837
:103180007020A3F86E20FFF737B900BF742901083B
:10319000EC27010870B5FEB004464FF4E2720D460C
:1031A0000DA8002103AE0AF001FB0DAA204605ABD5
:1031B00000960021FEF780FE08B97EB070BD94F83D
:1031C0004B202B46314605A8FDF7C6FEF5E700BFAC
:1031D00010B58EB00C46FEF74BF930B16946FFF7DB
:1031E000D9FF10B1BDF8003023600EB010BD00BF94
:1031F00008B5144B9FED140A2DED028B93ED118A47
:10320000B8EE488A08EE900A80EE080A08F004FB3F
:1032100028EE000AB3EE088A20EE080AB7EE007A1C
:10322000C7EE007AF8EEE88A9FED087A67EEA87A92
:10323000BDEC028B67EE877AB6EE000A27EE800AB5
:1032400008BD00BFAC000020F902154FC2F38E4D3F
:103250002DE9F0412DED028B0D460646FEF746FAAC
:103260000746002840D00024A04621463046FEF7FD
:10327000B5F900EB08039BB2AB4228D9A5EB0805D2
:10328000ADB221463046FEF7EDF908EE100A0120F6
:10329000FFF7AEFFB8EEC88A2146304668EE008AD6
:1032A000FEF758F907EE900AB8EE670A07EE905A53
:1032B000B8EE678A012028EE008AFFF799FF28EE12
:1032C000000A30EE280ABDEC028BBDE8F0812146F1
:1032D0003046FEF783F90134E4B24044A7421FFAB6
:1032E00080F8C2D10025CCE704460546C9E700BFF7
:1032F00008B50138C0B2042898BF194B2DED028BD8
:1033000098BF03EB8000B0EE408AB0EE600A94BF35
:10331000D0ED008ADFED138A08F02CFBDFED127A86
:1033200020EE277AB2EE040A77EE087A77EEE87A92
:10333000C7EE800A08F054FB08F06EFADFED0B0AC6
:1033400008F030FAF0EE400AB7EE000A08F00CFA86
:10335000BDEC028BBCEEC00A10EE103A98B208BD6C
:1033600040EE000800000000000020420080FF4303
:10337000B0EEC07AF0EEE07A2DE9F04FB4EEE77AE5
:10338000F1EE10FADFED776A58BFF0EE477A30EED3
:10339000607A67EEA67AB0EEC77A2DED068BB4EEB2
:1033A000E77AF1EE10FA98BFDFED6F7A89B0064642
:1033B0004FF00500B0EE608A1D469ABF30EEA78A36
:1033C0004FF000094FF00109F0EE408A8846174699
:1033D000FEF710FD032D09EE900A00F0B880042DD1
:1033E00000F0A980022D00F09E8000224FF07E5355
:1033F000039204930DF1100A38EE687ADFED5B7AE0
:103400000AEB8502544601E0F4EC017A67EE277A74
:10341000944277EEA87A44ED017AF5D145B305F1EF
:10342000FF3B5FFA8BF39FED52AADFED52AA0DF13D
:10343000140B0BEB830B0025BAEC017AB4EEE87A9F
:10344000F1EE10FA12DDF8EE697AB0EE688A67EEF6
:103450008A7A002438EE278A0134B4EEC78AF1EE66
:1034600010FAA4B2F6D464B9F0EE488AD345E3D199
:10347000B9F1000F47D1284609B0BDEC068BBDE875
:10348000F08F88EE0A0A08F0C7F97A19D2B23068CC
:10349000019205210135EDB2B0EE409AFEF738F801
:1034A000C8EE8A7A019A3068F0EE488A77EEAA7AF6
:1034B000FDEEE77A17EE901AFEF7F6F8019A3068FB
:1034C00019EE901AFEF768F8019A30682146FEF767
:1034D000A7F898ED000AF0EE480A0520FFF708FF6C
:1034E000019A01463068FDF7F1FFBDEEC99A05214A
:1034F00019EE103A18B2FDF76DF9019A01463068DD
:10350000FDF794FFB2E77A1E34682A44D2B211461E
:1035100020460192FEF762F8013081B2019A2046FE
:10352000FEF77EF8A7E70023134A03934FF07E537C
:10353000049205935EE70023104A0393104B049214
:103540000593104A06924FF07E53079352E70E4BB5
:103550000493002203924FF07E530C4A0592069387
:1035600048E700BF000000340AD7233C00000000F9
:103570000AD7233B17B7D138A4703D3FD7A3F03EFD
:103580003333333F52B85E3F713D0A3F295C4F3FB2
:103590002DE9F04FB0EEC07AF0EEE07AB4EEE77AC3
:1035A000F1EE10FADFEDA16A2DED088B58BFF0EEB9
:1035B000477A30EE607A67EEA67AB0EEC77A87B0C7
:1035C000B4EEE77AF1EE10FAB0EE409AB0EE60AAEF
:1035D000064601919046039305D8DFED957A0023C6
:1035E00030EEA7AA0393B0EE490AFDF735F9B0EE25
:1035F0004A0A0446FDF730F98E4B4FF00332052C92
:10360000CDE9042300F0EF8005284ED0012C00F016
:103610000781022C00F000819DF81650A54214BFCE
:1036200003240224012800F0F280022800F0F68032
:103630009DF81670874214BF03270227C4F10103C7
:103640003B445FFA83F9E343C1451F4405AB03EBF9
:103650000405214628BFC146002309E006AA1A44F2
:10366000013302F8084CDBB24A1CD1B2042921D044
:1036700015F8014B844204F0FD021BD8994519D975
:10368000012AEBD0022CE9D1A9EB030CCA19D2B262
:103690005FFA8CFC0DF1180E94459E4403F1010273
:1036A000E2D30EF8084CD3B2DEE7012C00F0B18073
:1036B0000420AEE7B9F1000F00F08D804FF0000854
:1036C00009F1FF339FED5CBADFED5C9ADFED5CAA98
:1036D000029345460DF1100A1AF8017B3846FEF7B1
:1036E00089FB029B4345834667D09AF80020013A44
:1036F000D2B2042A6CD8534901EB8202D2ED007A8F
:1037000077EEA77AF4EEC97AF1EE10FA5CDD07EEF7
:1037100010BAB8EE477AB0EE498A27EE297A00242B
:1037200038EE078A0134B4EEE78AF1EE10FAA4B25B
:10373000F6D488EE290A08F06FF82A463068394630
:1037400008F10108F0EE408AFDF7E2FEC9EE297AA1
:103750002A46306877EEAA7AFDEEE77A17EE901ADD
:10376000FDF7A2FF2A4630685946FDF715FF2A46A5
:1037700021463068FDF754FF019BF0EE480A93EDB7
:10378000000A3846FFF7B4FD2A4601463068FDF7C7
:103790009DFEFDEEE88A394618EE903A18B2FDF724
:1037A00019F82A4601465FFA88F53068FDF73EFEB3
:1037B000A94510D9B0EE489A8EE7F0EE4A7AF4EEB9
:1037C000C97AF1EE10FAA2DCB0EE498A0024B0E723
:1037D000F0EE4B7A96E7039B4BB9484607B0BDEC39
:1037E000088BBDE8F08F05281CD0042414E734684A
:1037F00009F1FF32D2B2114620460192FDF7EEFEEA
:10380000013081B2019A2046FDF70AFFE5E7002763
:1038100014E7002404200BE7012403E701270DE748
:103820000024FFE60324042002E700BF0000003468
:103830000AD7233C01020304000000000AD7233BFF
:1038400017B7D1388CED0008C0EE207A9FED107AC2
:10385000F4EEC77AF1EE10FA17D89FED0E0A08B50C
:1038600027EE800A07F0FEFFF7EE007AB0EE676AF7
:1038700000EE006A70EE006AB1EEC67A37EE400ADA
:1038800046EEC07AB0EE670A08BD9FED030A7047A6
:10389000A800003FDB0F494000000000F8B5956923
:1038A0002B78B5F802E0144602EB43030F46B3F859
:1038B000446063690146720003EB4E0009F08EFF1D
:1038C000E26D698813780E446E8003B93B791370FA
:1038D000F8BD00BF2DE9F04F2DED048B90F8383086
:1038E0008DB007900393002B00F0E7800798828F3C
:1038F0000469C38FB0F84C5034F912100995024690
:103900005B00408F08900193002D00F0D680104698
:10391000526C836CB0F84E50B0F840B0DFED708A56
:10392000DFF8C8810A95D318029300220901DB430E
:1039300005920B9104939146B6EE009A029A69495A
:10394000134681FB0331D317C3EBA10101EB410106
:10395000B2EBC101029A48BF1831002A09B2C0F285
:10396000B580604880FB0202C3EBA20212B20B9B3F
:10397000120482FB0356002D76F1000304DA4FF6A1
:10398000FF73ED1846F10006089B19442A0C34F920
:10399000111042EA0642A2EB011207EE902AF8EE5D
:1039A000E79A69EEA89AB0EE690A07F04FFEB0EE0A
:1039B000408AB0EE690A07F055FFBBF1000F6BD0EB
:1039C000079A136DB2F842A093F800E00693002026
:1039D000054647F6FF7709E0DDF80CE0E2520135D5
:1039E0001FFA85FCE3455044718052D9019A09EBD6
:1039F00050039BB202EB8303E618E25E07EE902AC7
:103A0000B6F9022006EE902AF8EEE77AF8EEE66ABA
:103A100027EE887A26EE806A67EE807A66EE886AFC
:103A200037EE467A77EEA67AB5EEC07AF1EE10FA66
:103A3000F5EEC07A4CBF37EE497A37EE097AF1EEEF
:103A400010FA4CBF77EEC97A77EE897ABDEEC77A65
:103A5000FDEEE77A17EE10CA17EE901A17EE102A4D
:103A6000C445B8BF42464145B8BF4146BA42A8BF67
:103A70003A46B942A8BF3946BEF1000FAED19445CF
:103A8000AAD117EE90CABCEB010E18BF4FF0010E81
:103A9000A4E7069B83F800E0059B029A01331FFA16
:103AA00083F911460593049A0A9B1944D31A049387
:103AB000099B02914B453FF641AF079B186843684D
:103AC0000DB0BDEC048BBDE8F04F1847049B1A46BF
:103AD000054BA3FB02326FEA121212B247E700BF96
:103AE00000008037ABAAAA2AABAAAAAA0080FFFFCF
:103AF00038B5524B93F824200021012A83F848104E
:103B000000F08D805A6853210225CA20012483F8D1
:103B1000255083F8244050625162916821F48061FD
:103B20009160D168C9B261F49061D160D1684906F1
:103B300064D51F2151619168414821F0070141F08E
:103B400003019160016841F480110160816841F4D2
:103B500080118160916841F4804191609168FF24F7
:103B600041F4806101209160546283F8250093F84C
:103B70004810002283F8242000295BD172B6BFF3DD
:103B80004F8FBFF36F8F93F8482002B930BF62B6F2
:103B9000BFF34F8FBFF36F8F93F84820002AEDD00B
:103BA00093F824200021012A83F8481037D0586860
:103BB000532201240225CA2183F8255083F824408A
:103BC00041624262826822F480628260826822F4EA
:103BD000804282601C6804E01968091BB1F57A7F95
:103BE0001FD8C26812F00402F6D0FF24012200217F
:103BF000446283F8241083F8252038BD1C68D168FE
:103C000011F0040195D11868001BB0F57A7FF6D940
:103C1000FF240320546283F8241083F8250006F063
:103C20008BFCFF240321446283F8242083F82510B1
:103C300006F082FC83F84820B9E700BFAC00002002
:103C400000040140024B4FF480529A6250E700BFDB
:103C5000000400480F49104A086813691B0704D57F
:103C60000D4B1869C0F3C00070470B681B1AB3F501
:103C70007A7FF5D272B613691B0700D430BF62B6E3
:103C8000BFF36F8F13691B07EFD5034B1869C0F3A0
:103C9000C0007047AC00002000040048154BDB68F2
:103CA000C3F3022310B4C3F107041A1D042C28BF68
:103CB0000424062A4FF0FF3202FA04F28CBF033BC1
:103CC000002321EA02019940431C0AD000F1604020
:103CD00000F561400901C9B280F800135DF8044B9A
:103CE0007047044B0901C9B283F823105DF8044BF7
:103CF000704700BF00ED00E02DE9F047724CD4F8AA
:103D000070C088B0BCF1000F5CD1236DB3F5827F29
:103D100001D0C4F868C094F8A930E16C002203F027
:103D2000FF056267002B59D0022384F8A9300B6885
:103D3000A26D23F04003B2F5E06F0B6046D800F0AF
:103D4000B9804FF4805700206067D4E91436E56DE0
:103D5000D4F864E006F4044603F48273334305F0B8
:103D600002052B43256E02F4706805F00105D4F8B6
:103D700080202B43D4E91A6502F0080242EA0802C7
:103D80004FEA1E480EF4007E08F0040843EA0E03D2
:103D900006F0380642EA0802334305F080050CF0CD
:103DA000100C42EA0C0C2B4303434CEA070700209B
:103DB00001220B604F60C4F8AC0084F8A92008B061
:103DC000BDE8F0870023C4E91733A4E7B2F5706FAC
:103DD00076D1636F002703F40050B6E73B4B84F8BD
:103DE000A8509942CDE90355CDE9055507959BD1DA
:103DF00003F560434FF0E00C1A6E354E42F48052EA
:103E00001A661A6E02F480520292029ADA6C42F03A
:103E10000102DA64DB6C059503F0010301930322D0
:103E2000052303A902274FF09040CDE903C7CDE950
:103E30000623DDF804E005F011FE264BC4F8B85067
:103E40004FF001094FF0800A30464FF480784FF46C
:103E50008067C4E92C39C4E93355C4E930A8C4F8F3
:103E6000BC50C4F8C870FCF70BFA034650BB06F10F
:103E700048051949C4F8A4601022643E2846C4E9E4
:103E8000413AC4E94473C4F8FC90C4F80C81C4F806
:103E90001831C4F8D860C4F8F810C4F80021FCF751
:103EA000EFF978B9E16CD4F870C0C4F8A050C4F848
:103EB000206139E7636F4FF4805703F4005044E703
:103EC000002740E706F038FBAC000020003001403E
:103ED0005C0100201C000240300002402DE9F0414E
:103EE000654C94F82430012B00F0C28061680122F7
:103EF000022384F8242084F825308E680278056A2D
:103F000016F0400616BFC678C670B605092A09D94C
:103F100000230A3AD2B2092A03F10103F9D842EA8E
:103F20000312D2B24378092B4FEA024209D9002783
:103F30000A3BDBB2092B07F10107F9D843EA071363
:103F4000DBB290F802E0BEF1090F4FEA03280DD969
:103F50000027AEF10A0E5FFA8EFEBEF1090F07F1DF
:103F60000107F6D84EEA071E5FFA8EFE90F824C0CD
:103F7000BCF1090F0DD90027ACF10A0C5FFA8CFCDB
:103F8000BCF1090F07F10107F6D84CEA071C5FFAEC
:103F90008CFC436947681D432E43324348EA0203C1
:103FA000826AC669CA2553204D6243EA0E0E4862F2
:103FB000B2F5807F4EEA0C638A6846EA070639D07C
:103FC00022F400728A60CA68D2B262F42072CA60B7
:103FD000256804E02068401BB0F57A7F20D8CA68C5
:103FE00012F00202F6D00B628E648B6843F4007309
:103FF0008B608B6843F400538B60204B1A6842F44B
:1040000080221A609A68FF2642F48022012500204F
:104010009A604E6284F8240084F82550BDE8F0814F
:104020000323FF2084F824204862184684F82530B2
:10403000BDE8F08122F480728A60CA68D2B262F46C
:10404000C072CA60256804E02068401BB0F57A7F22
:10405000E6D8CA6812F00102F6D0CB614E648B68D4
:1040600043F480738B608B6843F480538B60C4E7A8
:104070000220BDE8F08100BFAC0000200004014038
:1040800008B5114BDA6822F08002DA609A6892066D
:1040900003D4FCF74BF988B908BD9A6822F02002D6
:1040A0009A60FCF743F918B1084B032083F8250008
:1040B000054A936843F02003936008BD034B032037
:1040C00083F8250008BD00BF00280040AC00002098
:1040D0000E494A68D06810F0400001D000207047B7
:1040E0004FF0FF3330B4D3600C68032509E0032898
:1040F0000AD00B681B1BB3F57A7F84BF81F825506B
:104100000320D3685B06F2D530BC7047AC000020BA
:104110001C4991F82430012B32D030B44C68532321
:1041200001200225CA2281F8255081F8240062620C
:104130006362A36823F48073A360A36823F48053AD
:10414000A360086804E00A68121AB2F57A7F0DD8F5
:10415000E36813F00103F6D00020FF22012362621E
:1041600081F8240081F8253030BC7047FF200322FD
:10417000606281F8243081F82520104630BC7047F9
:1041800002207047AC000020024B034A9B6B03499E
:1041900000201847AC000020E82A0108A4230108E9
:1041A00010B1024B1B6B1847704700BFAC000020DA
:1041B000A0B110B50446406D18B1FFF7F1FF002320
:1041C0006365A06D18B1FFF7EBFF0023A365E06DF9
:1041D00018B1FFF7E5FF0023E36510BD704700BF8E
:1041E0002DE9F04107680446C7B1D7F8980080B1BF
:1041F00000F14C0500F15C064FF0000855F8040B87
:1042000018B1FFF7CDFF45F8048CB542F6D1D7F8C9
:104210009800FFF7C5FF3846FFF7C2FF2046BDE80C
:10422000F041BDE710B520B10C4B02689A4204463C
:1042300007D00B4B0B4A9B6B0B49BDE8104000208D
:104240001847406818B1C36898470023636000238B
:1042500023602046BDE81040A2E700BF0DB0371331
:10426000AC000020002B01081C2B010838B338B526
:104270000268144B9A42044603D0BDE83840FCF76C
:1042800017BBC56A1DB1104B2A689A420ED00F4B5E
:104290000F4A9B6B0F4900209847A06AFFF7C2FFA7
:1042A000002323602046BDE8384079E72846FFF721
:1042B0007FFF00232B602846FFF772FFEDE7FCF736
:1042C000F7BA00BF01B1371303B13713AC000020B8
:1042D000002B0108282B01082DE9F04F2DED068B4E
:1042E000B5B020B1C84B02689A4204460CD0FFF723
:1042F0004BFF00263046FFF7B9FF0026304635B0A9
:10430000BDEC068BBDE8F08F0D464FF4A172BF499E
:104310003820FDF73BFD0646002800F0FB8194F8AD
:104320006230BB4A34623260002B00F091819FED15
:10433000C58A94ED130A9FEDB79A80EE080AFDF73F
:104340003FFDF0EE408A94ED140A80EE080AFDF776
:1043500037FD68EE888A20EE088AB4EEC98AF1EE4D
:1043600010FA40F29080F4EEC98AF1EE10FA40F3B0
:10437000E08104F16401F0EE480AB0EE680A04231B
:10438000002204F14000FEF7F3FF0146206CFDF728
:10439000C7F9236C23B1A04A1968914200F0C0818B
:1043A000DFF89CA29D4ADAF838309D4900209847F2
:1043B000236C33B198491868B4F85420884200F04F
:1043C000B581DAF83830954A95490020984794ED40
:1043D000170A94F8603084ED030A002B00F0348152
:1043E0009FED900A206CFDF75BF8206C18A9FEF792
:1043F000EFFE00283FF47EAF189B206C033323F0C0
:1044000003033363FDF734F88046002800F07F8112
:10441000854967221020FDF7B9FC8146002800F08D
:104420007681824B036098F84E3023B1B8F848305B
:10443000002B40F0ED817E493D221020FDF7A6FCC7
:104440007B4903463E22FC200193FDF79FFC00239D
:1044500083461F46019A22B1BBF1000F01D003B37E
:10446000FFB90198FFF79CFE5846FFF799FE3846C2
:10447000FFF796FE0023C9F804304846FFF7D2FE46
:104480000023B36236E704F16401F0EE480AB0EEAF
:10449000680A0123042204F14000FFF779F801467D
:1044A00074E7019BCBF8987026A9C3F800B040468A
:1044B000FEF770FE002800F09F81BDF8A830BDF81F
:1044C000A670BDF8B220DBF8981005915B00CBF820
:1044D000E8300023CBF89430ABF89C300BF1F803B4
:1044E000CBF884300BF1F4033A44CBF888300BF16D
:1044F000F60390B2CBF88C300BF1F0020BF1F7031E
:10450000ABF838700990ABF89E00CBF82420CBF8BC
:10451000903039B10BF1EC0C0BF1F5034A62C1F8A4
:1045200018C0CB65CBE93629099BABF8E43098F885
:104530004E2006920DF1BE01002319A8944605E015
:1045400031F8022B520820F813200133DAB29445D7
:10455000F6D8BDF8AE309DF8CC10B8F848200291DE
:104560003B44BDF8B0109DED328A0A929BB2049193
:104570000393002A00F07984BDF8B430B3FBF2F362
:104580000E93BDF8AA30BDF8AC00BDF89A10279A7A
:10459000CBF878203B44ABF87C30264BCBF8483046
:1045A0000BF13C030744244A24481193059BABF8C4
:1045B0007E70ABF8761003270F21CBE910028BF841
:1045C0007470ABF88010002B00F05D840023BDF800
:1045D000A0200F92CDE91F33CDE92133CDE923335C
:1045E000BDF8A220069F109221A98C460DF1B602BB
:1045F000D8B2874240F2278132F8020B21F8020B31
:10460000D088C8800133F3E702B13713A42301082F
:1046100001B137130AD7233F0FB0371338270108EA
:1046200030270108000000001C2B01080DB03713D3
:104630008C2B0108210900081509000875090008DC
:10464000AC0000200AD7233B206CFCF729FFCCE606
:1046500094F84430002B40F0AA8094F8468094ED02
:10466000138A94F84530002B40F09980B4F848A0A4
:104670005FED0C8A88EE280A07F030F807EE90AA62
:1046800094ED147AF8EE677A37EE488A67EEA87AE6
:10469000BDEEC07A88EE270A17EE109AFDF790FB60
:1046A000F7EE007A30EE270A07F0B6F8BCEEC00A43
:1046B000206C10EE103A01219FB2FDF731F8206C0A
:1046C00041460022FCF724FF206C49460022FCF7FB
:1046D000EBFF206C39460022FCF7A2FF206C002281
:1046E0005146FCF759FF38B2013810FB0A90414699
:1046F00000B2FCF76FF800220146206CFCF796FE32
:10470000B4F85610206C0022FCF7E0FE41E60023CE
:10471000B362EFE5B84BB94A9B6BB9499847E9E5F5
:1047200094F8582083F85320B4F85420A3F84C2070
:104730004DE688EE090AFDF743FB07F06DF804F13A
:10474000400904F16401002348460191FCEEC07A5F
:10475000F0EE490A17EE908A08F1FF385FFA88F800
:10476000B8F1030F28BF4FF00308B8F1010F38BFAD
:104770004FF00108C8F10402B0EE680AD2B2FEF7A9
:1047800007FF0746019943464846F0EE480AB0EE57
:10479000490A3A46FEF7ECFD3844C1B2F6E508F1A5
:1047A000FF33DBB2042B48D94FF0010A60E7954B89
:1047B00094ED138A9FED947A9448269326A90122BA
:1047C00011F8018B08F1FF33DBB2042B00EB8303FC
:1047D00094BFD3ED007AF0EE477A77EEA77A0132F4
:1047E000B4EEE78AF1EE10FA92B2BFF63AAF052ABC
:1047F000E6D14FF0010834E77F4B854A9B6B854932
:1048000098470198FFF7ECFC0023C9F8043034E620
:1048100080493D221020FDF7B9FA7E4903463E2229
:10482000FC200193FDF7B2FA7A49834643226020C7
:10483000FDF7ACFA012307460CE6774A02EB430387
:10484000B3F83CA914E7059F744875490A9A3A875A
:10485000C7E901010E9A73487A8700233A46394620
:10486000DFF8ECE10C90CDE916456F48C7F80CE095
:10487000C7E913337B65BB654C3147463C320B902F
:104880006A48CDF85090CDE912B815960D90E246E1
:1048900091468B4698463E46069C65495FFA88F3EA
:1048A0009C4208934FF033024FF0E80040F2E1825F
:1048B0003AF8024B29F8024BBAF80650A9F806500C
:1048C000FDF764FA5B4ACDF81C800746002800F02B
:1048D000F082594B0364594BC0E91132F27B013A23
:1048E0003C30042A00F2F682DFE802F05B58035EF7
:1048F00003006FF00C0C099B96F80CE050491C4427
:104900000F9BA7F87630109BA7F878300A9BA7F882
:104910007C30A4B20E9BA7F87A40A7F87E30F288CC
:104920003368A7F88A2087F874E0B6F804E0A7F89F
:104930009240A7F8D8400C9CC7F898400B9CC7F849
:104940009C400D9CC7F880303A466B00C7F8A040E9
:10495000059CC7F884C0C7F8DC3007F1E00C0023E1
:10496000A7F888E007F1E40EC7E93441C7F824C08E
:10497000C7F8CCC03B87A7F89030C7F88CE042F866
:10498000940BFA63FBF7CAFF08F10108103670B107
:104990003868C36898474BF8047B7DE76FF0060CD6
:1049A000A9E76FF00B0CA6E76FF00F0CA3E7DFF899
:1049B00048A0244ADAF838301D490690DDE912B8DB
:1049C000DDE91496DDE9164598473846FFF7E8FB20
:1049D000059B079A03EB8202069BD364DAF8383012
:1049E000194A1A49002098474FF0000A0694059F7B
:1049F000089C079535E000BFAC000020482B01085B
:104A0000A423010805040302000000008CED000847
:104A1000682B01088C2B010818E500086D0A0008B6
:104A2000110A0008F9080008250900080D09000806
:104A30009C2B010811090008D53800081D09000841
:104A40009D380008B02B0108D02B01083424010840
:104A500005090008E86CCCB208B1FFF7A1FBC5F866
:104A60004CA0611ECBB207EB8305002CF2D1DDE92F
:104A70000645DBF8983005930C9ACBF8A4200B9AE6
:104A8000CBF8A8200D9ACBF8AC20119ACBF80020D7
:104A9000059ACB4BCBF8E0300BF1A003002A00F0D5
:104AA000F981CBF83C201360DBF80000836898475D
:104AB00028B9C44BC44A9B6BC4499847A1E6DBF8AC
:104AC0000000C36898470199C14A4A60C14BCB6056
:104AD00000228A60C9F80410F28098F84E701346DC
:104AE00096460DF1640C06F10802D9B28F4240F2ED
:104AF0006181F1883CF8130011800144F18010813C
:104B00000133042B02F10202EFD1B8F84830F288E9
:104B100086ED068A13FB02F3B380029A039B327779
:104B2000A9F80C30049BA9F80E30AB49C6F82890C0
:104B300040F237126020D4F84090FDF727F907467D
:104B4000002800F076814FF00008C0F80490A0F82B
:104B5000088006E0FCF742FD3B89184408F1010893
:104B600038814846FCF7C2FD5FFA88F103468B4264
:104B70004846EFD8238A94ED0D0A94ED038AA16983
:104B8000D4ED0F8AE2697B81A37C3B73E37C7B736A
:104B9000B5EEC00A237DBB73F1EE10FA8F4B87EDA3
:104BA000048A7961BA61C7ED098A3B6040F34A81A2
:104BB00028EE000AFFEE007A87EE800A06F09CFEDF
:104BC000D4ED0E7A87ED070AF5EEC07AF1EE10FA11
:104BD00040F3358168EE277ABFEE000A80EE270A9F
:104BE00006F08AFEB5EEC08AF1EE10FA87ED080AEB
:104BF00040F2F68094ED090AB5EEC00AF1EE10FA23
:104C000000F1EE8094ED0A9AB5EEC09AF1EE10FA3A
:104C100000F1E680D4ED089AF5EEC09AF1EE10FAB4
:104C200000F1DE8094ED0BAAB5EEC0AAF1EE10FA09
:104C300000F1D680D4ED0CAAF5EEC0AAF1EE10FA80
:104C400000F1CE80F0EE480AFEF7FEFDF0EE480AD5
:104C500087ED0A0AB0EE490AFEF7F6FDF5EEC09AB6
:104C6000F1EE10FA87ED0B0A40F31A8168EE299AEB
:104C7000BFEE000A80EE290A06F03EFEB5EEC0AA9D
:104C8000F1EE10FA87ED0C0A40F3108128EE0AAA23
:104C9000BFEE000A80EE0A0A06F02EFEF5EEC0AA6C
:104CA000F1EE10FA87ED0D0A40F3FD8068EE2AAAB6
:104CB000BFEE000A80EE2A0A06F01EFEF5EEC08A5C
:104CC000F1EE10FA87ED0E0A40F3E78028EE288A0D
:104CD000BFEE000A80EE080A06F00EFE3B893E4950
:104CE0002C2000FB03F0702287ED0F0AFDF74EF831
:104CF0003B893949786571229800FDF747F83B896F
:104D0000B865354998007222FDF740F87B6DF8656B
:104D1000002B00F09A80BB6D002B00F096800028DD
:104D200000F0938000234FF00008206C3B647B640C
:104D3000BB644146C7F85080A7F84C80F762FCF787
:104D400091FCFEF755FA206C85ED000AFCF7CEFCCD
:104D50000138C1B2206C0191FCF784FC01998146B5
:104D6000206CFCF73BFC01990746206CFCF7F2FB3A
:104D7000013F00FB0790FEF73BFAA5F80C8085ED9C
:104D8000010A07E0206CFCF729FCAB89184408F104
:104D90000108A881206CFCF7A9FC5FFA88F1884221
:104DA000F0D894F8621069B300220123AA60AB73B3
:104DB000FFF7A4BAA2F800E0A2F808E0A0E600BF5E
:104DC000C9080008AC000020B02B01088C2B01089A
:104DD000E9080008E1410008282B010803B1371356
:104DE0003E4C3F4AA36B3F4900209847A36B3E4A85
:104DF0003C49002098473846FFF7D2F90023F36278
:104E0000FFF778BA206CFCF7A5FBFEF7F1F9236CED
:104E100085ED020A1BB1354A1968914221D02F4B0A
:104E2000334A9B6B3349002098470223AB73FFF74B
:104E300065BA2A4B304A9B6B2A499847DEE79FEDBB
:104E40002F0ACFE69FED2D0ABAE6244C2C4AA36B1D
:104E50002449002098473846FFF7AAF9A36B294A4E
:104E6000C6E7DB7CAB73FFF749BA0A9B0E93FFF7EB
:104E700088BBDDE912B8DBF898300593DDE91496BC
:104E8000DDE91645F8E5204B0C93204B0B93204BA6
:104E90000D93F1E5CBF83C3006E69FED180A1DE7CF
:104EA0009FED160AEAE69FED150A07E79FED130A44
:104EB000F4E6059BDDF848B0DDF85090179DDFF86B
:104EC0001CA0424603EB8203DDE91564DDF84C804B
:104ED000D86483E54FF0000C0DE500BFAC00002066
:104EE000142C0108282B0108382C01080FB03713A7
:104EF0003827010830270108F42B010800000000C2
:104F00005C2C0108742C0108F90800082509000828
:104F10000D0900082DE9F04F2DED028BADF21C7D3F
:104F2000CDE9041203931B7804460A2B13D8DFE85B
:104F300013F023000B007400BF005D013302470330
:104F4000D8043C05AA052300FCF73EFA002840F0EF
:104F50005686039B1B78B94EB46BB94AB9490020F9
:104F6000A04700231C46039A204613700DF21C7DB7
:104F7000BDEC028BBDE8F08FB04EDDF848078C2207
:104F8000002108F013FCD6ED117ADFEDAF5ADFED0A
:104F9000AF6AF8EE677AB6EE006A85EEA77AF4EEAD
:104FA000E67A37EE067AF1EE10FABCEEC77A17EE23
:104FB000103A9FB200F3BB859FEDA57AF4EEC77A55
:104FC000F1EE10FA00F1B385A7F110039BB2EF2BBD
:104FD00040F2D2869FED9F7ADFED9F6A77EE877A67
:104FE00037EE877ABCEEE76ABCEEC77A16EE108A17
:104FF000B8EE477A77EEC77A67EEA67AFCEEE77AE4
:1050000017EE905ACDE90085944BB46B944A9549BC
:105010000020A047039B1B789EE7FCF7D5F90546C7
:10502000002896D00499412300222046FCF7D6FDA3
:105030000021038C0793A0F1020A8B468E464FF69F
:10504000FF781EE030F911703AF9119007F57A7285
:10505000A7EB09079F42C0F26585674500F36285AB
:1050600082EAE273A3EBE2739BB2434505D24FEAB7
:10507000860B98461FFA8BFBAE460F2E00F02D874D
:1050800001314B1E03FB03F3C3EBC3035A0002F5CC
:10509000167CC83B8EB20029D4D1B0F9003003F59C
:1050A0007A73002BB8BF5B429BB24345DFD3E7E77F
:1050B000FCF78AF900283FF44CAF04990022202322
:1050C0002046FCF78BFDB0F900200546012116466D
:1050D0000027134635F9022FC3F5487313449BB2DA
:1050E000B3F5C86F3FF635AFB242A8BF0F4601F126
:1050F0000101A8BF16462029EBD1072F00F2E68751
:10510000002307F10802D21A002A00F0F08746A90E
:10511000D51800EB4505069100EB430030F9026B12
:1051200007EE106A03FB03F606EE903A07EE906A6C
:10513000B8EEC77AF8EE677AF8EE666A854281EDD6
:10514000007AC1ED017AC1ED026A03F1010301F1B8
:105150000C01E3D106982EA9FBF7B8FD00283FF417
:10516000F8AE9DED2E6AB5EE406AF1EE10FA3FF40E
:10517000F0AEDDED2F6AF5EE406AF1EE10FA3FF485
:10518000E8AE9DED307AB1EE477AC7EE267AF5EEBD
:10519000C07AF1EE10FAFFF6DCAEF1EE666A86EE4A
:1051A000867AB5EEC07AF1EE10FA7FF5D2AEB7EEA0
:1051B000007A77EE877AFCEEE77A17EE903A9AB2A9
:1051C0003F2AC3F34E033FF6C4AEDDF8482783F011
:1051D0001003D38020464FF44571FCF765F8044670
:1051E0000423002C7FF4BFAE00F09CBCFCF7ECF86D
:1051F00000283FF4AEAE5023204604990022FCF76D
:10520000EDFC00F1A0030693DDF848370A3307EE02
:10521000904A4FF0300B1C46DFF84C90B0F900205C
:105220004FF0000847F6FF7EC246774606464FF627
:10523000EC716FF01B034D462FE000BFAC00002067
:10524000942C0108B82C0108F902154F8096984C4F
:105250008096984BBD370635002474490431010807
:10526000CC2C0108F82C01080080FFFF7245BCBF60
:1052700098469646242918D036F9022F36F8023C73
:10528000D31A1BB29F42A8BF1F4601F1080C9D42D2
:10529000B8BF1D460BB21FFA8CF1002AE6DA4A4568
:1052A000E8DD24299A469146E6D1A5F51C55103D26
:1052B000ADB244F620639D423FF64BAE002F7FF423
:1052C00048AE19F5004F47F6FF7300F04B869E4538
:1052D00000F09E86A8EB0A08B8F1080F7FF439AEFB
:1052E0004FEAC908AEEB090E98FBFEFEAAEB0E08CA
:1052F0000FFA88F8B8F1000FC0F27584B8F11F0FEB
:105300003FF727AE1FFA88F8A64A0BF1010382F88F
:1053100011B05FFA83FB069B24F8028F10308342A2
:105320007FF47AAF602317EE900ADDE90412009350
:105330009D4B17EE904AFCF71FFCDDF848379B4A5F
:105340009B890093DDF848379949DD88204607237B
:10535000FCF794FC954A9649009508232046FCF7F3
:105360008DFC0323914A9249009320460923FCF7C0
:1053700085FC06238D4A8E49009320460A23FCF7BC
:105380007DFC204640F2D531FBF78EFF0446052315
:10539000002C7FF4E8ADC5E3FCF716F800283FF4D5
:1053A000D8AD0499DFF81092DFF810824FF4407303
:1053B00000222046FCF712FC0DAB08930593002356
:1053C00000F5C061049307EE904A46AB07912EADFD
:1053D000069345AF824616AC5646B6F9021036F92A
:1053E000040BFBF735FD44F8040BA542F5D12DACB9
:1053F000A3465646B6F96210B6F96000FBF728FDE1
:105400004BF8040F5F4506F10406F3D1069B049A9E
:1054100015AE9818002154F8043F56F8042F9B1A33
:105420004B4540F3AE83A3F5C9237E3B4B45FADCE5
:10543000002BB8BF5B429942B8BF1946A74240F85B
:10544000043BE8D1059B491043F8041F0593049BD6
:1054500060330493079B0AF1C00A5345BBD1002077
:1054600017EE904A089E0146034656F8042F8A42DA
:10547000C8BF184603F10103C8BF1146082BF4D179
:105480000EAB00EB400153F82060069B0DF1B70214
:1054900003EB41110DF1CF0051F8043BB342ACBF17
:1054A0000023012302F8013F90421376F4D100203B
:1054B00001460123002900F06F83EA5C002A00F016
:1054C000638301300133302BF4D1A0F10C03082B9E
:1054D0003FF63FAD01EB5000172802D918381728C6
:1054E000FCD880B2820092B202F13005DDF8483774
:1054F000ADB25F2D188140F26F852E4BA3FB0513D3
:105500009B0903EB4303A5EB43139BB2002715460E
:10551000B8461A460126264900922123234A2046EE
:10552000FCF7ACFB214A2249009522232046FCF7D8
:10553000A5FB03251D4A1E49009601232046FCF7C2
:105540009DFB1A4A1A49009502232046FCF796FB58
:10555000164A1749CDF800802B462046FCF78EFBF3
:10556000124A1349009704232046FCF787FB0F4A91
:105570000F49009605232046FCF780FB00230B4AC9
:105580000B49009320460623FCF778FB20464FF496
:105590007B71FBF789FE04460623002C7FF4E3AC05
:1055A000C0E200BF00000020A0EF000860EE00088D
:1055B00038F80008ABAAAAAA3F240300C1DBFCFF0D
:1055C000FBF702FF079000283FF4C3ACD54EDDF88F
:1055D0004827D54D736CB2F880700499A5FB03235E
:1055E0009D0900224FF440732046FCF7F7FA46ABC2
:1055F00007FB05F7089000F1020806930DF58A797C
:105600000DF21475B8F9001038F9020CFBF720FC04
:1056100049F8040F4D4508F10408F3D1002307EBC6
:1056200047029A46CDE92E33CDE93033CDE9323306
:10563000CDE934330593D300069ADFF80C832EAD01
:1056400002F15C09AB464FF6FF7209955546DDF84D
:105650001CA0049207EE904A4C469946A4F15C00C7
:10566000FAF784FFA4F1600C00205CF8043FDCF83A
:1056700060206445A3EB02031844F6D10028C0F271
:10568000A482800940F6945303FB00F0400D07FB11
:1056900000F009EB1020CBF8000025B15BF8043CCA
:1056A000834240F29484DBF80030A3F16673A3F5E3
:1056B0004A33203B002BB8BF5B42434505F1010252
:1056C00038BFCDE9045A95B238BF9846082D0BF182
:1056D000040B04F1C004C1D1059B099D17EE904A4B
:1056E000002B00F07484DDF848379048904A194642
:1056F0003727049B4B8400938E4980F820700C233D
:1057000017EE900AFCF7BAFA204640F21641FBF772
:10571000CBFD002800F00782089B9FED876A2F468B
:105720001A4603F1C00403F5D86CF7EE006AA4F141
:10573000C0034FF0000EB3F90200B3F9001000FBF4
:1057400000F0043301FB01019C428E44F3D107EECB
:1057500090EAB8EE677AC034C7EE067AA445B1EE97
:10576000E77AC6EE877AE7EC017AE0D1089B03F589
:10577000C060069BB2F90010F5EC015A06EE101A53
:10578000B2F9021006EE901AB2F9601007EE101A84
:10579000B2F9621007EE901AB8EEC66AF8EEE66A41
:1057A000B8EEC77AF8EEE77A26EE256A66EEA56AC5
:1057B00067EEA57A27EE257A26EE065A67EE075A97
:1057C00026EE266A27EE277A66EEA66A67EEA77AA5
:1057D000C032904283ED005A83ED016AC3ED026A44
:1057E000C3ED185A83ED197AC3ED1A7A03F10C034D
:1057F000C0D1069816A91022FBF768FA04460028C3
:1058000000F091819DED166A9DED175A9DED187A75
:10581000DFED4A4A9FED4A4AF1EEC66AF1EE007AA0
:1058200026EE276A65EE057A26EE076AF6EE005A3E
:1058300036EE676A85EEA67AF1EEC67AB6EE086AAB
:1058400076EEC66A67EE277A66EEA46A27EE057AD8
:10585000B7EE005A77EEC67A37EE057A76EEA56A8D
:10586000B3EE0F6A27EE047A67EEA47AF4EEC66A06
:10587000F1EE10FA37EE257A77EEA57A00F3A381E0
:10588000F5EEC06AF1EE10FA48BF002040F14984FD
:10589000DFED2C6AB4EEE67AF1EE10FA00F39181B6
:1058A000B5EEC07AF1EE10FA48BF002140F1308425
:1058B000B3EE0F7AF4EEC77AF1EE10FA00F37E81C0
:1058C000F5EEC07AF1EE10FA48BF002340F11784DC
:1058D000DDF8482701430B43A2F858300723FFF7B0
:1058E00042BBFBF771FD00283FF433AB1023049952
:1058F00000222046FCF772F9DDF84837B3F858600B
:10590000002506F01F0EC6F3441CB60A00F102097A
:105910000EF1300E0CF1300C203E0495AB46A8463B
:105920002F461CE0AC000020D34D62100000002088
:1059300060EE000838F80008000040420000804295
:105940000000004200007C4240420F005B45474699
:1059500000F2F28198460135082D00F0C28130F93D
:10596000252039F925300EFB02F203FB06FA002A46
:1059700003FB0CF3B8BF3F32BAF1000FB8BF0AF116
:105980001F0A002BB8BF3F33921102EB6A1243F398
:105990008F1312B203FB03F302FB0233BB42A9B223
:1059A000D9D94345D2D81F46D5E7FBF70DFD0028CE
:1059B0003FF4CFAA6023049900222046FCF70EF999
:1059C00046AB05460693871C99464FF0000840F603
:1059D000B73637F9281035F9280001FB01F300FB31
:1059E0000033B34208F101087FF7B3AAFBF730FA9E
:1059F000B8F1300F49F8040BEBD1069B45AD0DF122
:105A0000B6062946324603F15C0751F8043F002BE5
:105A1000B8BF0F3302321B118F421380F5D10698A5
:105A2000FAF7A4FD002155F8043F2A6EAF42A3EB1C
:105A300002031944F7D1C24BC81783FB0131C0EBF5
:105A4000A11000F5994330334CF6621293423FF6B1
:105A500080AADDF848370DF1E601243336F8022F2D
:105A600023F8022FB142F9D1DDF8483740F27B41EB
:105A7000A3F856002046FBF717FC04460923002C28
:105A80007FF471AA4EE0FBF79FFC00283FF461AA67
:105A90000022049920464FF49C6314460DAEFCF797
:105AA0009DF82EAF0EAA00920194334646AA90218B
:105AB00034603C600E9416948046FAF767FC002828
:105AC0003FF447AACDE9007416AB46AAF02108F5C9
:105AD0009070FAF75BFC00283FF43BAA39680E98F7
