:020000040800F2
:100000000000012015D5000881C600087DC6000843
:1000100079C6000875C6000871C600080000000017
:1000200000000000000000000000000069C6000899
:100030006DC600080000000065C6000855C600082F
:1000400065D5000865D5000865D5000811C600080B
:1000500065D5000865D5000865D5000865D5000898
:1000600065D50008FDC5000865D5000865D5000800
:10007000F1C50008E5C5000865D5000865D500088C
:10008000D9C50008CDC5000865D5000865D50008AC
:1000900065D5000865D5000865D5000865D5000858
:1000A00065D5000865D5000865D5000865D5000848
:1000B00065D50008000000000000000065D50008BC
:1000C00065D50008ADC5000865D5000865D50008F0
:1000D00065D5000865D5000891C2000865D50008FF
:1000E0007DC2000801C200080000000000000000FE
:1000F0000000000000000000000000000000000000
:100100000000000065D500080000000065D500086B
:10011000000000000000000065D5000865D500085B
:1001200065D5000865D5000865D5000865D50008C7
:1001300065D500080000000000000000000000007D
:1001400065D5000865D5000865D5000800000000E9
:1001500065D5000865D5000865D5000865D5000897
:1001600065D5000865D5000865D5000800000000C9
:1001700065D5000865D500080000000000000000FB
:1001800065D5000865D5000865D5000800000000A9
:1001900010B5054C237833B9044B13B10448AFF3C1
:1001A00000800123237010BD980000200000000093
:1001B0006004010808B5034B1BB103490348AFF3C2
:1001C000008008BD000000009C00002060040108C1
:1001D0001149124A086813691B0718D410B442F277
:1001E0000F740B681B1AA3420AD872B613691B0757
:1001F00000D430BF62B6BFF36F8F13691B07F0D511
:10020000064B5DF8044B1869C0F3C0007047034B00
:100210001869C0F3C0007047B40000200004004813
:10022000F0B40568294F064601E0581C06D1EC6978
:1002300031EA0400F9D10020F0BC70473868801A18
:10024000834227D333B328684407F0D5E869000513
:10025000EDD54FF400632B6255E8003F23F4D073D3
:1002600045E80032002AF7D1326802F1080353E86A
:10027000003F23F0010302F1080040E800310029AB
:10028000F3D12023B36786F87410F3670320C6F810
:100290008030D1E755E8003F23F4D07345E80032C1
:1002A000002AF7D1326802F1080353E8003F23F037
:1002B000010302F1080040E800310029F3D12023B6
:1002C000B36786F874100320F367B5E7B400002025
:1002D000224A03460068904230B43BD8204A214964
:1002E000214C1C640244A1FB0212120992005A64C0
:1002F000022283F8252001689D68D3E9052421F4B2
:10030000FF4121F070012A430A43224342F0800258
:10031000B5F5804F026014D0196C134A914208BFA2
:1003200012495A6C18BF124902F01C000F240A68C7
:10033000844022EA04020A605A680C688240224320
:100340000A6000200122D86383F8240083F8252066
:1003500030BC7047074A0349074CC2E70704024014
:10036000F8FFFDBFCDCCCCCC00000240A80002407D
:10037000A8040240F8FBFDBF0004024009494A6896
:10038000D36823F0A003D360086804E00B681B1A4D
:10039000B3F57A7F04D8D3689B06F7D50020704761
:1003A00003207047B40000200288438843EA0243D8
:1003B0000B607047DFF880C02DE9F04F023802393A
:1003C0000CF1E2090CF1E40B4FF0000A40F6DE18E4
:1003D00030F8025F31F8024FA54220D09CF800406F
:1003E0000BEBC404658825B36768002607EB850E10
:1003F00047F6FF7557F8044BA4B2A54228BF25461F
:10040000A64238BF2646BE45F4D17600B6B26D008E
:10041000B24538BFB246ADB2A84528BFA8460CF1D8
:10042000010CCC45D4D1A2F80080A3F800A0BDE80F
:10043000F08F4FF6FE75EFE7780401080B4A30B4F1
:10044000411E00F18B054FF0FF3011F8014F0823DA
:100450006040C4074CBF82EA50004008013BF8D11D
:100460008D42F2D1C04330BC704700BF2083B8ED4D
:100470002DE9F04F054687B0002405EB410E0290B0
:100480000592104604910393AEF1120EAA1EA446E3
:100490000194A246A346012740F2EE2914E0BBF1E5
:1004A000000F2ED1534532DD9A460124019E76423B
:1004B000B342BCBFA8EB050301938C4538BF8C4603
:1004C000964500F1020027D0558A32F8021F6B1AB8
:1004D00003F50046B6F5803F38BF038088462CBF41
:1004E000002711884B45DADC564E9A45B8BF9A462C
:1004F000B342DBDA002C0ABF0027A3464FF0010B02
:10050000D4E7534505DD9A465C460027CEE7012433
:10051000CCE75C460027C9E72FB94FF0000B5846DF
:1005200007B0BDE8F08F002CF7D0BBF1000FF4D07E
:10053000049A059ECDF810C00023CDF814A0A2F1B6
:100540001C08123699469E461F469C469A4636F926
:10055000023F03EB830203EB4203344630460A2199
:1005600030F9025D34F9022F01FB053301FB023340
:100570000139F5D1734561DC4B4501DA9946BA463C
:1005800001374745E3D14CF250339E45604654460F
:10059000DDF810C0DDF814A0BFDD2B4B9945BCDAA7
:1005A000BAF1000FB9D0019B002BB6D0029B119A73
:1005B0001B884FEACC0CDB0042B1634504D2D9431F
:1005C00051446144B1FBFAF1119A1160109A002A6A
:1005D000A5D0039A002AA2D0024602990E3231F821
:1005E0001210B3EBC10F4FEAC10005D2DB435344F5
:1005F0000344B3FBFAF3D21A2046029B0E3033F8C1
:100600001030BCEBC30F4FEAC30106D9019C631E37
:1006100063445B1AB3FBF4F3C01A002AFFF67DAF04
:100620000028FFF67AAF82423FF777AF109BA0EB2E
:10063000020AC3F800A0039B1A6070E79E46BC46FE
:100640009EE700BF12FDFFFFB03CFFFF704700BFF9
:1006500070B4124E124D00F1BC04002143680B44EB
:10066000024640F8043F12689A1AB24209DD50F877
:10067000042CA3F5C9237E3BA1F5C92103607E3973
:100680009A1AAA4206DA03F5C9237E3301F5C92175
:1006900003607E318442E1D170BC70473F24030087
:1006A000C1DBFCFF70B48C8893680E898D79CA79A0
:1006B0009A70003C18BF01249E801C705D70986089
:1006C00070BC70470368D0F8E820C0F8F0205A6882
:1006D00018461047D0E90F23816B0069184700BF07
:1006E0000068C368184700BF704700BFF8E700BF45
:1006F00000688368184700BFFAE700BFF0E700BF53
:1007000007EE900ADFED1A6A9FED1A7AF8EEE77AA3
:1007100067EEA67AF4EEC77AF1EE10FA01D5012958
:1007200020D09FED157AF4EEC77AF1EE10FA17D4C7
:10073000B1EE0C7AF4EEC77AF1EE10FA16D49FED12
:100740000F7AF4EEC77AF1EE10FA0DD49FED0C7A21
:10075000F4EEC77AF1EE10FA4CBF04200520704782
:100760000120704700207047032070470220704727
:100770000AD7233B666646403333A34033334B41AD
:100780000000944170B483B0114B9FED127A124E69
:1007900001930DF1050102AD02220120531EDBB2CF
:1007A000042B06EB83049ABFD4ED007A77EEA77A88
:1007B000F0EE477AF4EE407AF1EE10FA98BF104668
:1007C000A94202D011F8012BE8E703B070BC7047D2
:1007D0000203040500000000EC0C0108024B034A70
:1007E0009B6B034900201847B4000020E84401082F
:1007F000F8440108836910B50446BBB10D4B93F86A
:1008000040204AB963697BB10A4B0B4A9B6B0B4989
:1008100000209847002010BD9B6B094A0749012022
:1008200098476369002BEFD1012010BDC369002BED
:10083000E4D1E7E7B4000020444501082845010859
:100840000C45010870B40169B0F8422090F83830C6
:1008500031F81220032B08BF82F4004240F2E51366
:1008600003FB02F31B0C826CA3F589739BB213800C
:10087000828F31F812204AB1B0F8402031F81220AE
:10088000012A03D9C26C0124147002E0C26C002456
:100890001470C48F428F31F8145031F81240B0F9FF
:1008A000441040F2E51202FB05F2120CC2F5897207
:1008B00013441BB2002BB8BF5B42D0E914651BB2D6
:1008C000A4F1010200689942B2FA82F24FEA521290
:1008D000ACBF00230123327042682B7070BC1047FC
:1008E00070B50446806978B1E36943B10F4B93F862
:1008F000402022B19B6B0E4A0E4901209847206888
:10090000BDE8704083681847084D0B4AAB6B094936
:100910009847E3693BB195F8403023B1AB6B044A8B
:10092000044901209847002070BD00BFB40000209A
:1009300098450108884501086C4501082DE9F047F4
:10094000C26DD0F8188006690023A8F8023004466A
:100950001D46137000F14C07994657F8043B03B34A
:10096000B3F838C0B3F89000B3F89210B3F8D820B9
:1009700006EB400006EB410106EB420206EB4C0C95
:10098000C3E91301C3F8A420C3F814C088F80050C9
:100990001868D3F8DC20416883F8E490C3F8E020BD
:1009A00088470135EDB2042DD7D12068BDE8F04766
:1009B00043681847704700BF704700BF704700BFCB
:1009C000704700BF52B101EB8202043850F8043F77
:1009D0004B801B0C0B8004319142F7D1704700BF54
:1009E00030B583B000EB42000D4601A91C46FFF76D
:1009F000DBFC019A22F00F0204B12A430092014667
:100A000001226846FFF7DEFF03B030BD2DE9F04F4D
:100A100087B0BDF84070DDF844A003EBC7077B88C2
:100A200083B381460E4601EB020800254FF0010B0F
:100A30007A6852F82540620092B2B242C4F3017063
:100A40001DD342451BDA01280CD0022836D0E8B16C
:100A5000324B334A9B6B334900209847002007B044
:100A6000BDE8F08FBAF10003A2EB060218BF012324
:100A700092B2C4F303414846FFF7B2FF7B880135C9
:100A8000AB42D5D8012007B0BDE8F08FC4F3445382
:100A90000BFA03FC921BE24591B21ED30CF1FF331B
:100AA0001E4A0193CDF800A0946B1F4A03900B4699
:100AB0001C49A047039807B0BDE8F08F921BBAFA13
:100AC0008AF35B0992B2C4F303414846FFF788FFFB
:100AD0007B880135AB42ABD8D4E709EB410004A9D0
:100AE0000393FFF761FC039B4FF0FF32C3F1200338
:100AF000C4F3044422FA03F3049AA34022EA030253
:100B00000AFA04F40146144305A801220594FFF7EC
:100B100059FF7B880135AB428AD8B3E7B400002087
:100B2000EC450108E0450108A84501082DE9F04F12
:100B3000C2F51D669A461B68164C0E36B34298BF26
:100B40009EB2154B054688BFB6B2500803EB800035
:100B500083B0174672088846023DFFF733FF04F161
:100B6000E10904F1E40B7D2301E014F8013F35F8BD
:100B7000022F3946CDE9003240465B463246FFF748
:100B800045FF4C4501D00028EFD1CAF8006003B002
:100B9000BDE8F08F78040108203001082DE9F04FFE
:100BA00002EB420C00EB8C0C8DB000268346824693
:100BB00080466746B14603A84FEA890586469FED01
:100BC000577A43466AB19C192C44D4ED007A1C46EE
:100BD000D4ED006A0C3367EEA67ABB4237EE277A73
:100BE000F1D104350C2DAEEC017AE8D109F10109FF
:100BF000B9F1030F00F1100008F10408A6F1040692
:100C000007F10407D8D19DED046ADDED055ADDED4D
:100C1000086A68460BF10C04DFED407A53463AB19E
:100C20001D4695ED007A0C33634577EE877AF7D150
:100C30000AF1040AA245E0EC017A0CF1040CEBD1B4
:100C4000DDED037AF5EE407AF1EE10FA10D0B7EE52
:100C5000007A87EE274ADDED077A66EE044A26EE33
:100C6000245A77EEC57AF5EE407AF1EE10FA06D105
:100C700000200023CBF800300DB0BDE8F08FC7EEA8
:100C8000272A65EE843A25EEA47A66EE237A9DED56
:100C90000B5A76EEE77A36EEC77A67EEA27A65EE01
:100CA000A36A75EE666A27EE275A76EEC56AF5EEF8
:100CB000406AF1EE10FADBD09DED005A9DED013A4D
:100CC0009DED022A64EE854A63EE853A73EE644A2E
:100CD000012067EEA47A002372EE677A77EEE33A9A
:100CE000C3EEA67A27EE277AC1ED027A34EEC77AF0
:100CF00065EEA75A67EE227A26EE276AC1ED017AE1
:100D000035EE466A76EE655A25EE844A81ED004A54
:100D1000CBF800300DB0BDE8F08F00BF0000000040
:100D20000028B8BF404270B4BABF00B2012400240A
:100D300000293FDB884238DB0022034668B30846BF
:100D4000002643F628450004B0FBF3F1A9424AD936
:100D500046F2D633994236D948F67203994244D9BD
:100D60004AF64943994242D94DF2A303994240D9E8
:100D70004FF24B73994298BF052025D94FF24C751D
:100D800048F233234CF2A340491B03FB01F100EB73
:100D9000114016B1C0F5C9301F3014B1C0F549304B
:100DA0003F3002B1404270BC70470B46C1B9124897
:100DB0000A46F2E7494209B288424FF00102BCDA22
:100DC0000B461646BDE701200C4B03EBC00503EBB9
:100DD0008003D5F88C08D3F8C038D5F88858D3E705
:100DE00000220126ADE70020EEE70220ECE7032019
:100DF000EAE70420E8E700BF1F9201007804010839
:100E000010B4084C248D490864088C4228BF0C4655
:100E1000023C24F00104043010601C605DF8044BB7
:100E2000704700BFB4000020F8B50688002A14BF40
:100E30004FF480524FF40052B6F59C6F38BF4FF418
:100E40009C66B24205460F461C4623D2134B144AF9
:100E50009B6B1449002098474FF0000E1249134A2B
:100E6000134BE360C4E901120FCD203676004FF03A
:100E7000000CA4F802C004F1300C24F8106B0FC46D
:100E800095E80F0007C497E8030023808CE803006F
:100E90007046F8BD4FF0010EE0E700BFB40000203F
:100EA00010460108304601080100020003001B0043
:100EB0001C00200010B1024B1B6B1847704700BF8D
:100EC000B4000020A0B110B50446406D18B1FFF782
:100ED000F1FF00236365A06D18B1FFF7EBFF00235E
:100EE000A365E06D18B1FFF7E5FF0023E36510BDD2
:100EF000704700BF2DE9F04107680446C7B1D7F835
:100F0000980080B100F14C0500F15C064FF000083C
:100F100055F8040B18B1FFF7CDFF45F8048CB54226
:100F2000F6D1D7F89800FFF7C5FF3846FFF7C2FFA4
:100F30002046BDE8F041BDE7DFF864C02DE9F04789
:100F4000DCF83C501DB12B46BDE8F047184712B302
:100F50005200A1F10208A2F102090E469A46074684
:100F60004944444634F8025F6DBA8C422580F9D179
:100F7000DCF8344038463146A047BAF1000F01D1C1
:100F8000BDE8F0874E4438F8023F5BBAB045A8F898
:100F90000030F8D1F4E7BDE8F047DCF8343018470A
:100FA000B400002070B5012584B041F4A04304468C
:100FB000164603A92A4601A8ADF808300196ADF8F7
:100FC0000A50FFF7FFFC204602A900230422FFF786
:100FD000B3FF04B070BD00BF2DE9F04782B01D46DD
:100FE00043F44053BDF82840ADF8003000278A464E
:100FF00091466946012303228046ADF80270ADF8A0
:101000000470FFF799FFBDF9046004FA0AF171401A
:1010100001EA090445F4805540463B466946744060
:101020000222ADF80050ADF80240FFF785FF02B094
:10103000BDE8F08730B583B00025294600957B23B5
:10104000FF220446FFF7C8FF0121204600918B23B1
:101050000222FFF7C1FF009520468B238022072143
:10106000FFF7BAFF03B030BD30B583B041F4805410
:1010700015460023022201A9ADF80440ADF8065040
:10108000FFF75AFF03B030BD70B582B003220E46A1
:1010900000210D460446009240F24913FFF79CFFE1
:1010A000204640F24913042202210095FFF794FFE5
:1010B000204640F24913102204210095FFF78CFFCF
:1010C000204640F24913202205210095FFF784FFB6
:1010D0000095204640F249134FF47F520621FFF756
:1010E0007BFF0EB902B070BD20464AF6C0423121E6
:1010F00002B0BDE87040B7E730B583B041F440516D
:1011000014460025ADF80010012303226946ADF80E
:101110000250ADF80450FFF70FFFBDF804302380F4
:1011200003B030BDF0B585B000240129074616464E
:10113000ADF80E4038D0022933D0224B22499D6BA6
:10114000224A03462046A84721460DF10E023846A2
:10115000FFF7D2FFBDF80E30738003F00705012DB5
:10116000358024D013F0060F0BD16DB9154A0097C6
:10117000946B1549164A2846A0472C46204605B0D0
:10118000F0BD023D012DF9D90E4A0097946B0E492E
:10119000104A0020A04700210C462046318005B0AF
:1011A000F0BD32210124D0E70C463321CDE7054ABA
:1011B0000097946B0449084A0020A0470024204669
:1011C00005B0F0BDB40000206046010844460108A7
:1011D00078460108DC460108A8460108F0B583B04E
:1011E0000024012907461646ADF8064019D0022909
:1011F00009D01A4B1A4A9D6B1A4903462046A84744
:10120000204603B0F0BD46210DF106023846FFF737
:1012100073FFBDF80650842475B1BEB9012003B038
:10122000F0BD45210DF106023846FFF765FFBDF818
:1012300006508324002DF0D1084B0B4A9C6B0949C2
:1012400028463B46A047284603B0F0BD3846214615
:101250000022FFF709FF3046D3E700BFB4000020AB
:1012600044460108604601081047010870B582B085
:101270000DF106020E4600241C210546ADF806407D
:10128000FFF73AFFBDF8062012F400620CD12846A1
:101290001B21FFF7E9FE284646F400621B21FFF7F9
:1012A000E3FE012002B070BD044B054A9E6B054968
:1012B00020462B46B047204602B070BDB400002047
:1012C000444701086046010870B582B00DF106027E
:1012D000002437210546ADF80640FFF70DFFBDF8A5
:1012E000063003F0C003B3B90DF1060200241C213F
:1012F0002846ADF80640FFF7FFFEBDF806301B0597
:1013000015D50E4B0E4A9E6B0E4920462B46B04714
:10131000204602B070BD094B93F84020002AE3D06C
:101320009C6B094A07492B460120A047DCE7284669
:10133000FFF780FE012002B070BD00BFB4000020A6
:10134000A04701086046010874470108F0B40C4D3D
:101350002F8D9E1CB7EB460F05D2AB6B094A0A498D
:10136000F0BC00201847144641F4A041013B118015
:101370005380214626F000420023F0BCDCE500BF8C
:10138000B4000020D0470108F047010810B582B032
:10139000044601AA0121FFF7C5FE204600220121D3
:1013A000FFF71CFFBDF80430022B08D00549064AA0
:1013B0008C6B06490020A047002002B010BD012020
:1013C00002B010BDB4000020044801084C480108D8
:1013D00010B520B10A4B02689A42044607D0094B67
:1013E000094A9B6B094900209847002010BD80687E
:1013F000FFF720FEA0680121FFF746FE012010BD87
:101400000EB03713B40000206C480108844801086E
:1014100070B584B020B1234B02689A42044608D0CC
:10142000214B224A9B6B224900209847002004B0A0
:1014300070BD032200210E468068009240F24913DD
:1014400001250390FFF7C8FD0398009640F2491369
:1014500004220221FFF7C0FD0398009540F24913D2
:1014600010220421FFF7B8FD0398009540F24913BC
:1014700020220521FFF7B0FDFF23039800934FF4CE
:101480007F5240F249130621FFF7A6FD039800950D
:101490002A46314640F24B13FFF79EFD284626733D
:1014A00004B070BD0EB03713B40000206C480108C2
:1014B0008448010810B520B10B4B02689A420446DB
:1014C00007D00A4B0A4A9B6B0A49BDE8104000202E
:1014D000184700690023236008B1FFF7EBFC2046A2
:1014E000BDE81040E6E400BF0EB03713B4000020A2
:1014F0006C4801088448010810B520B10C4B026803
:101500009A42044607D00B4B0B4A9B6B0B49BDE834
:10151000104000201847406818B1C368984700235E
:101520006360002323602046BDE81040C2E400BF92
:101530000DB03713B40000208C480108A8480108FA
:1015400008B5044B044A9B6B0449002098470020CF
:1015500008BD00BFB4000020B4480108CC48010811
:1015600070B520B10B4B04460068984207D00A4B77
:101570000A4A9B6B0A49BDE8704000201847032ABD
:101580000D46164602D9FFF7DBFF10B104EB061437
:10159000A57470BD0FB03713B4000020D448010803
:1015A000CC48010808B518B1064B02689A4207D02A
:1015B000054B064A9B6B064900209847002008BD52
:1015C000043008BD0FB03713B4000020D448010820
:1015D000CC48010818B1064B02689A4205D0054B69
:1015E000054A9B6B05490020184780ED120A704799
:1015F0000FB03713B4000020D4480108CC480108CC
:1016000070B520B10B4B04460068984207D00A4BD6
:101610000A4A9B6B0A49BDE8704000201847032A1C
:101620000D46164602D9FFF78BFF10B104EB0614E6
:10163000A58170BD0FB03713B4000020D448010855
:10164000CC48010870B520B10B4B044600689842A5
:1016500007D00A4B0A4A9B6B0A49BDE8704000203C
:101660001847032A0D46164602D9FFF769FF10B145
:1016700004EB0614E57470BD0FB03713B4000020FE
:10168000D4480108CC48010838B520B10B4B02689A
:101690009A42044607D00A4B0A4A9B6B0A4900202B
:1016A0009847002038BD03290D4603D9FFF748FFAE
:1016B0000028F7D004EB0514608938BD0FB037134C
:1016C000B4000020D4480108CC48010870B520B10E
:1016D0000B4B04460068984207D00A4B0A4A9B6BA2
:1016E0000A49BDE8704000201847032A0D461646F7
:1016F00002D9FFF725FF10B104EB0614658170BD18
:101700000FB03713B4000020D4480108CC480108BA
:1017100038B520B10B4B02689A42044607D00A4BF9
:101720000A4A9B6B0A4900209847002038BD0329CC
:101730000D4603D9FFF704FF0028F7D004EB05148A
:10174000208938BD0FB03713B4000020D4480108F9
:10175000CC48010870B520B10B4B04460068984294
:1017600007D00A4B0A4A9B6B0A49BDE8704000202B
:101770001847032A0D46164602D9FFF7E1FE10B1BD
:1017800004EB0614258170BD0FB03713B4000020A0
:10179000D4480108CC48010838B520B10B4B026889
:1017A0009A42044607D00A4B0A4A9B6B0A4900201A
:1017B0009847002038BD03290D4603D9FFF7C0FE26
:1017C0000028F7D004EB0514606838BD0FB037135C
:1017D000B4000020D4480108CC48010870B520B1FD
:1017E0000B4B04460068984207D00A4B0A4A9B6B91
:1017F0000A49BDE8704000201847032A0D461646E6
:1018000002D9FFF79DFE10B104EB0614656070BDB0
:101810000FB03713B4000020D4480108CC480108A9
:1018200008B518B1074B02689A4207D0064B074A21
:101830009B6B074900209847012008BD90F8520093
:1018400008BD00BF0FB03713B4000020D448010812
:10185000CC48010818B1064B02689A4205D0054BE6
:10186000054A9B6B05490020184780F852107047C5
:101870000FB03713B4000020D4480108CC48010849
:10188000836A0022A3F85A20A3F85220704700BFB1
:1018900038B5524B93F824200021012A83F84110D7
:1018A00000F08D805A6853210225CA20012483F854
:1018B000255083F8244050625162916821F4806180
:1018C0009160D168C9B261F49061D160D168490674
:1018D00064D51F2151619168414821F0070141F011
:1018E00003019160016841F480110160816841F455
:1018F00080118160916841F4804191609168FF247A
:1019000041F4806101209160546283F8250093F8CE
:101910004110002283F8242000295BD172B6BFF366
:101920004F8FBFF36F8F93F8412002B930BF62B67B
:10193000BFF34F8FBFF36F8F93F84120002AEDD094
:1019400093F824200021012A83F8411037D05868E9
:10195000532201240225CA2183F8255083F824400C
:1019600041624262826822F480628260826822F46C
:10197000804282601C6804E01968091BB1F57A7F17
:101980001FD8C26812F00402F6D0FF240122002101
:10199000446283F8241083F8252038BD1C68D16880
:1019A00011F0040195D11868001BB0F57A7FF6D9C3
:1019B000FF240320546283F8241083F8250009F0E3
:1019C00061FEFF240321446283F8242083F825105C
:1019D00009F058FE83F84120B9E700BFB4000020A9
:1019E0000004014008B52DED028BB0EE408A0BF0EB
:1019F000C3FEDFED087A70EE277AB4EEE78ABDEC1D
:101A0000028BF1EE10FAC4BFF7EE007A30EE270A2F
:101A100008BD00BFACC527370138C0B2042801D9C2
:101A20000020704708B5294B9FED297A03EB800011
:101A3000D0ED006AC6EE877AB3EE087AF4EEC77A84
:101A4000F1EE10FA2DED028B0FD4FCEEE77A214B6C
:101A500017EE902A90B2A3FB0030000900EB400083
:101A6000C00080B2BDEC028B08BDF5EEC07AF1EE8D
:101A700010FA1DDD87EE278AB0EE480A0BF07CFED7
:101A8000DFED157A70EE277A1820B4EEE78AF1EED2
:101A900010FAC4BFF7EE007A30EE270ABDEC028BD5
:101AA000BCEEC00A10EE103A9BB2B0FBF3F008BDDA
:101AB000FCEEE77A182217EE903A9BB2B3FBF2F3F2
:101AC00003EB4303D80080B2CCE700BFEC0C010865
:101AD0000AD7233BABAAAAAAACC527372DE9F04FFA
:101AE0002DED0C8B82469DB090F84E4090F84C0046
:101AF0000C90042CBAF848000A90059190461F46B5
:101B00001AD8DAED107AF5EEC07AF1EE10FA00F19B
:101B1000E9819AF85630DFF8C090002B00F0EB8195
:101B20009AF84B30002B00F0E681274AD9F838307C
:101B300026490020984707E0DFF89C90244AD9F80E
:101B40003830224900209847DAED117A99ED117A60
:101B5000F5EEC07AF1EE10FAB8EE478A40DDC8EE35
:101B6000278AF6EE007A78EEA78A0A9B002B3CD1F2
:101B700007939AF84A300193002B3ED19AF85030DF
:101B8000022B41F0EA809AF84E40012C00F0C68208
:101B90000024329A019B1471A8F8AC41002B32D07A
:101BA0009AF84F30012B00F0AD87022B00F0998797
:101BB000002B00F0B587D9F83830064A03490020D9
:101BC0009847002301931EE03049010808490108A5
:101BD000EC480108EC490108B400002000000000B6
:101BE0000A9B5FED028A002BC2D09AF84E30079311
:101BF0009AF84A300193002BC0D0329A0023137117
:101C00000193A8F8AC31059C002C4AD02389B4F884
:101C10008610B4F88420B4F88200A8F804109B0061
:101C2000B4F88810A8F802209BB203F13002A8F89B
:101C300000006088A8F80610A188A8F8080092B2F1
:101C4000E088A8F80A106189A8F80C005F2A208CA7
:101C5000A8F80E10618CA8F81210A8F8100040F235
:101C60002282C649A1FB0201890901EB4101A2EBD5
:101C7000411189B200201A4605460B460121032472
:101C8000A8F814300023A8F81620A8F81810A8F80F
:101C90001C50A8F81E00A8F82010A8F81A40A8F8B0
:101CA00022300199002201237A80BA817B810029A8
:101CB00001F0438015460692039207F10E0308F1E6
:101CC0003E029FEDAFAADFEDAFAADFEDAF9A9FED29
:101CD000AF9ACDF808A0D346CDF8109008F146068B
:101CE0000992CDF82080BA469946079AEBB29A42FB
:101CF00000F25881099A0023A9F80030A9F80830A9
:101D000022F815300135042D09F102090BF1100BF1
:101D100006F15606E9D157460A9AB9897B89BDF87A
:101D20001800DDF82080DDF81090DDF808A00290A2
:101D300011FB02F189B20B449BB25A1C1FFA82FEBE
:101D4000B8F8ACC1BCF1010F04D1039A0A9800FBAA
:101D500002F203929AF85220BAF854009AF85350BB
:101D60009AF85640A8F89E21039A4FF6FF7B5A45F1
:101D70004FEA500628BF5A460338A8F8A801033E88
:101D80000298A8F8AA6185F0010592B2A8F8A651B8
:101D9000A8F8A001A8F8A421B981BB80A7F806E0A3
:101DA000002C00F06081413340213B8039810124C7
:101DB000059BA8F8C04113B19B89A8F8C231019BCB
:101DC000002B40F05A81329ADAED105A002313604A
:101DD0000C9BA8F8B2310A9B012B40F24881BAF85B
:101DE00048300122023BA8F8AE31A8F8B0219FED9F
:101DF000687A9FED686A28EE077AF1EE007AC7EEFE
:101E0000066A68EE277AF5EE405A87EE867AC8EEC3
:101E1000067AB6EE006A76EE866A37EE067AFCEE51
:101E2000E66A77EE867A16EE902ABCEEC77AF1EE75
:101E300010FAFCEEE77AA8F8B82117EE102A14BFC2
:101E400001230023A8F8B621A8F8383017EE902A0D
:101E5000019BA8F8B421002B00F0F180F5EE405A68
:101E6000F1EE10FA0CD0C8EE257A37EE866AFCEE59
:101E7000C67A17EE903A1A0CA8F83C30A8F83A2027
:101E8000DAED117A9AF84A309AF84B20A8F83030F7
:101E9000F5EE407AF1EE10FA14BF01230023A8F802
:101EA0003220A8F82A3008D0FCEEE87A17EE903AF3
:101EB0001A0CA8F82E30A8F82C209AF85130019866
:101EC000A8F8BE31012140F2FF7240F60103A8F8E4
:101ED0002410A8F8BA21A8F8BC311DB0BDEC0C8BB9
:101EE000BDE8F08FDFF8B8902B4AD9F838302B498D
:101EF0000020984728E69AED117AD9ED116AB5EEDF
:101F0000C07AF1EE10FAB8EE668A16DDC8EE078ADE
:101F1000F6EE007A78EEA78A00F1F98018EE900AC2
:101F20000AF0D0FB012908BF002880F0F0809AF861
:101F30004A30002B40F0E28008E000F1E6809AF899
:101F40004A30002B40F0CD80DFED0F8A9AF84F1019
:101F50009AF850200A98002814BF20460020914289
:101F6000079000F2FD83002B40F00387022A00F067
:101F7000FC86329A1371A8F8AC3111E6ABAAAAAA72
:101F80002549123ECDCC4C3E000000008FC2753D6D
:101F900000009643002474491C49010808490108BF
:101FA000B4000020099A012322F81530029BBBF8E7
:101FB000082093F84C8040F2FF1140F2FF33B8F153
:101FC000000F18BF0B46E2B19A421AD89BF80D30A9
:101FD000002B6CD19BF80F309BF80E00002840F0CE
:101FE0005383012B00F0B280DDF810904F4AD9F8EE
:101FF00038304F49DDF820805746DDF808A0984773
:102000000CE0DDF810904B4AD9F838304849DDF83B
:10201000208000205746DDF808A098470A9AB98921
:102020007B89BDF81800029011FB02F189B20B44C4
:102030009BB25A1C1FFA82FE0022019280E6DAED62
:10204000117A9AF84A309AF84B20A8F83030F5EE19
:10205000407AF1EE10FA14BF01230023A8F83220D1
:10206000A8F82A3029E73C81A7F800E0A0E6002381
:10207000A8F8AE31A8F8B031B9E69AF84D100729A2
:1020800027D82D4B9FED2D9A0B4493F80039A8F8D3
:10209000A231329B83ED009A079B002B40F03284E3
:1020A000DAED105A94E6032001250021E7E59BF8BC
:1020B0000F30022B90D1DDF81090214AD9F838303A
:1020C0001B49DDF8208000205746DDF808A098471E
:1020D000A4E7329ADAED105A00231360002301932B
:1020E00076E6B5EE407AF1EE10FA05D1F5EE407ADB
:1020F000F1EE10FA40F08385DFED108AD9F8383020
:10210000104A0B49002098472FE5DFED0C8AD9F8DB
:1021100038300D4A06490020984726E59AF80F30D6
:10212000013B012B3FF635AD32E500BF684A01089F
:10213000084901082C4A0108780401080000000041
:102140003C4A0108704901085C490108B84BBBF8DA
:10215000067003EB8000182FD0F8DC380E93BBF824
:1021600004300D9340F2128307EB870303EB031354
:1021700003EB032307EB4303C3F3CC0242EA4333ED
:102180009BB240F6AA22934200F2D882A94BA3FB4D
:1021900007231B090F93013B9BB214935C231093FD
:1021A00018230B930D98002840F04B84049BA24AFF
:1021B0009B6BA2499847B8F1000F00F0CF824FF017
:1021C00000080222DBF800300E9919440C4601F594
:1021D000C3430D99283311FB02F2481E4CF25031D3
:1021E00092B28B420D9207FB004707D9049B944A99
:1021F0009B6B9249002098474FF0000807F5C343B6
:1022000028334CF25032934207D9049B8D4A9B6B82
:102210008A49002098474FF00008002CC0F26983DB
:10222000894BE11783FB0423C1EBA3031AB2002FF0
:10223000C0F25583844B83FB0730FB17C3EBA00030
:102240000E9300B2804B83FB043C92B2C1EBAC0115
:10225000801A01EB41010F9B1592B4EBC10182B2D0
:10226000B2FBF3F203B202F1010216934FF0180031
:102270000B9BB0FBF3F01FFA82FE00F129830FFAEB
:1022800081FC89B2704B0B9A83FB07340E9BC3EB26
:10229000A40303EB4303B1FBF2F402FB1414A2B258
:1022A000B7EBC3030E9200F10D831AB219929BB2E1
:1022B000013882B20E9C0B981A9212FB0040BEF1BC
:1022C000010F80B200F08E82C41A0E9B18BF012449
:1022D0008B4214BF01230023AEEB0302A2EB0402E6
:1022E000A3B2119497B2179340F0848200231893FD
:1022F00013931B930E9B89009B00B187F387B8F162
:10230000000F00F058829BF80E30052B00F2388445
:10231000474A02EB4303B3F8F0385A08A3F14A00E6
:10232000D91E033A80B2143B92B289B20F90129335
:10233000159B1698B186C3F129040F9BF2861C44A5
:1023400023B215931B1A292BA4B207DC049B3F4A26
:102350009B6B3A49002098474FF00008129B159A52
:10236000934207DC049B3A4A9B6B34490020984710
:102370004FF000080F9B3387109B74872C2B40F283
:1023800061820023A6F85030A6F85230A6F85430E7
:10239000149BA6F84E30189BA6F84830002F00F08A
:1023A00035820123A6F84A30139B179AA6F84C20D1
:1023B000002B00F0F9831B9BA6F842301A9BA6F86D
:1023C0004430119B002B00F0EB83199B0E9A9C1A52
:1023D0000B9B94FBF3F4A6F846407A1E97B2A6F83E
:1023E0004070B8F1000F3ED09BF80A30172B00F276
:1023F000BF81092B00F29A83C3F109031522738070
:1024000032800599002900F0748172889BF80F30A2
:1024100001EB4202013B9289B280042B00F2B084AE
:10242000DFE813F01800260118010901290000BF98
:1024300078040108ABAAAAAAB44A0108084901080D
:10244000004B0108144B0108ABAAAA2A484B01080B
:10245000684B0108059B9A8C04210023082A738588
:10246000318540F227815746DDF82080DDF808A04D
:10247000DDF81090D2E54FF00008C64643464FF411
:10248000F0504FF478544FF4F86202274FF00B0CE1
:102490000821B281F281029AA6F82AC037853181DB
:1024A00034827181708292F84D20B8F1000F00F0F3
:1024B0000F81002B00F00C81022A00F20C81C1492F
:1024C0000A4492F8FC28B282059A002A61D006F1EB
:1024D0001402002001213083118205990E93C86EE9
:1024E0000B908C6EDDF82CC0D1F864800F9400271F
:1024F000394604EB1743A3EB0803734588B26744DE
:1025000001F1010180F209840F29F2D10E9B0846E6
:102510000599CF6FD1F878C0D08007EB87040520EC
:102520000CEB1441C91A00F1010E3C4440F19683B2
:102530001FFA8EF01428F3D1DDF81090A24AD9F8D2
:102540003830A249DDF8208000205746DDF808A089
:10255000984763E59B490A4492F80029B282059A9C
:10256000BAB10022328306F11402B8F1000F40F034
:102570007781A6F82480A6F81A80A6F81680A2F81B
:102580000880A2F80E80A2F80A80A6F82080002316
:102590005382BBF808009BF80B203286012800F01C
:1025A000C9800121831EF185B3859BF80D10BAF80F
:1025B0000C30F18081F0010171860D99A9F800308D
:1025C000A9F808100B449BF80F10AAF80C30012949
:1025D000338D6CD002290CBFB0EE496AB0EE696A47
:1025E00001339BB207EE103ABBF80430B8EE477ADD
:1025F00007EE903AF1EE006A27EE267AF8EE677A57
:1026000006EE900A67EE277AF8EE666A069B67EE9A
:10261000A67A194667EE867A002B08BF114667EE48
:102620008A7A039B0691FCEEE77A17EE902A134410
:102630000393FFF767BB4FF00008C64643464FF4CD
:10264000C0604FF460644FF4E07202274FF0060C54
:1026500008211EE74FF00008C64643464FF40070BD
:102660004FF4C064C02202274FF0040C082110E789
:1026700000204FF40074402203274FF0020C082181
:102680004FF0960EFA2304E7581EC0B204287FF6D6
:102690005DADDDF810904E4AD9F838304B49DDF881
:1026A000208000205746DDF808A09847B6E4B0EE39
:1026B0006A6A95E74021328172814FF40070029A74
:1026C0007382B181F181308292F84D2098469E4606
:1026D000072A7FF63FAFDDF810903E4AD9F8383030
:1026E0003A49DDF8208000205746DDF808A09847D9
:1026F00094E49BF80F30059AB280013B042B00F262
:102700003F8301A252F823F01D270008712600081C
:102710005526000837260008772400084FF00008E7
:102720004046C446C64643464FF400744022042740
:102730000221AEE60023F385B38536E7049B264AE3
:102740009B6B224900201490044698470123CDE951
:102750000F340B93B8F1000F7FF431AD042231E553
:10276000D9F838301D4A194900209847FFF701BAB7
:10277000DDF810901A4AD9F838301449DDF8208075
:1027800000205746DDF808A0984747E4002FD5D031
:102790001823B3FBF7F307FB03F3C3F118039BB252
:1027A0001493002BCAD17B1E9B009BB21093012374
:1027B0000B970F93F6E46C23129336230F933D226D
:1027C0007D21B5E578040108B84B010808490108E6
:1027D000904A0108984B0108A04A01089C49010849
:1027E000804B01088C4200F09B8200221792184611
:1027F00017461192019B1393A0EB0C000B9B90FBCF
:10280000F3F00123189383B21B9373E5179BA6F88B
:102810004C30139BA6F84A70002B00F0C9811B9B1B
:10282000A6F842300023A6F84430119B002B00F09C
:10283000A381199B0E9A9C1A0B9B94FBF3F4A6F8A8
:102840004640CCE5109B1E2B40F28981A3F11E026D
:102850000F23A6F85420A6F85030A6F8523097E57A
:1028600001211182002B7FF438AED3805380138175
:10287000D38153811F4605990024D1F85CE0D1F83B
:102880006080214602E016293FF456AE0EEB14405C
:10289000C01B1FFA81FC444401F10101F3D4BCF1D7
:1028A000000F0CD05BB90CF1FF339BB208FB03F8AF
:1028B0000EEB1848A7EB08084045C8BF9C46A6F891
:1028C00020C064E603F1180422B2A3B21992EFE427
:1028D00001F1180C1FFA8CF10FFA8CFCD2E4CF4BEB
:1028E000F843A3FB00306FEA1010FB1700B20E9301
:1028F000A8E4CA4BE243A3FB02236FEA13131AB204
:10290000E11794E4BCF1010F00F0688107EE902A12
:102910009FEDC3AAB8EE67CAB7EE089AF2EE02CAF4
:10292000D9ED117A9FEDBF0AF8EE679A80EE290A79
:102930000AF022FF9AF85030022B69EE809A00F2DA
:102940003A81B94A9AF84E1002EB830090ED00DA12
:10295000D0ED03BA002900F0FD81019ADFEDBEDA67
:10296000B24E9FEDB3BADFEDB3AA00273D463AE081
:102970004FF0300B08240AEB05039B7B052B47D84F
:10298000AD4931F8133007EE903AF8EE677A89EEE8
:10299000A77A55449AF84E302889A98800FB044448
:1029A00002346400A4B20137FDB2AB4207EE904A94
:1029B00087EE2A6AF8EE677A07EE10BAF8EE476AF1
:1029C00087EE867AC6EE865A07EE901AF8EE677A98
:1029D00067EE277A77EEA57A77EE8A7A77EE897AAC
:1029E0007DEEA7DA3FD90AEB05132D01DB7B052B22
:1029F00018D8022BBCD8012B1FD0022B12D10AEB06
:102A000005034FF03C0B9B7B052B4FF00A04B7D915
:102A10008A4AD9F838308A4900209847F0EE4B7A34
:102A20000022B4E73246D9F838308549002098476B
:102A30004FF0180B042400229DE74FF0480B0C24A4
:102A400099E7B8F1000F40F0C6809BF80C30002BDE
:102A500000F0E080049B7B4A9B6B79494046984795
:102A60000422FFF7AFBBB2B3DFED777ADFED716A17
:102A70009FED767ADAED105A329B89EEA75AF1EE85
:102A80000C7A85EE266A2CEE27CA7BEE8DBACCEE48
:102A9000067AB0EE006A77EEACCA7CEEADDA7DEE77
:102AA000ABBA6BEE877A77EE867A77EEABBAC6EE84
:102AB000AB7AF4EEE75AF1EE10FAC3ED007A7FF745
:102AC00087A9FDEEE77AD9F83840614A5C4917EEEC
:102AD000903A0020A0470023DAED105A0193FFF747
:102AE00077B90023A8F82630A8F828309AF8503093
:102AF000012B10D0022B2BD013B3D9F83830554A04
:102B0000FFF75CB80022A8F82630A8F828209AF829
:102B10005030012BEED1C8F834300193FFF773B871
:102B20000123A8F82630A8F82830DFE7102B94BF3F
:102B3000C3F11E03C3F1170300223380728060E4E7
:102B40004FF00113C8F8343001230193FFF75BB84D
:102B50000023C8F8343001230193FFF754B8109BC9
:102B60000F2B42D90F3B0F22A6F852300023A6F8B4
:102B70005020A6F854300BE4119BA6F846302EE402
:102B8000049B2E4A9B6B2E49002098476C2312937E
:102B900036230F933D227D214FF00008FFF7C8BB7D
:102BA000119BA6F8463018E4139BA6F8423005E4C2
:102BB000A6F8427036E6D9F83830264A2049002077
:102BC00098479AF84E30002B85D0DFED23BA0022CB
:102BD000B0EE6BDAC2E60222FFF7F4BAB0EE49AA11
:102BE000F0EE49CAB0EE49CA9AE60023109AA6F858
:102BF0005020A6F85230A6F85430FFF7C9BB9AF817
:102C00004F109AF85020DFED148A91427FF476AA93
:102C1000FFF7A0B9DDF80480A0E500BFABAAAAAA1F
:102C20009A999D41F902154F800D0108904A0108BB
:102C30000000004300247449680D01083C4B010862
:102C400008490108C84A0108000020430AD7233C6C
:102C5000E44B01080C4A01080000000005280BD0D5
:102C600000F1FF3E1FFA8EFE07FB0EF40CEB14443E
:102C70001C1BA142C8BF704600210C465080118128
:102C8000D181084605991296096F0E9105990E9EFD
:102C9000496FCDE9101202E016283FF44DAC06EB67
:102CA0001442D21A1FFA80FE0C4400F10100F3D442
:102CB0001146DDE91126BEF1000F0FD00EF1FF30F5
:102CC00080B21190DDE9100400FB04F40E9800EBD3
:102CD0001440119C181A8142C8BFA646A2F80AE007
:102CE000718B0B9800FB01F001460F9800EB11412E
:102CF000B1EB08043FF520ACF08B1099B6F816E064
:102D000001FB00F1084607FB0EF10E9F0CEB114191
:102D100007EB104008440719ADE50E9BFFF7F8BB21
:102D200098420CBF012700270FD10023CDE91733AC
:102D3000119313931B93FFF7DDBA019A02924FF0A0
:102D4000020E11460392FEF7FBBF002217921846AF
:102D500011924FE55FED40DA86E6329B1A46019B01
:102D60001371A8F8AC31FEF74EBF01230193FEF7B3
:102D70000CBF329A00231371A8F8AC31FEF710BFD4
:102D8000DDF81090DDF82080D9F83830084A09497C
:102D900000205746DDF808A09847562303FB05831B
:102DA0000022A3F87020A3F86E20FFF737B900BF08
:102DB000904A01080849010870B5FEB004464FF476
:102DC000E2720D460DA8002103AE0CF09FFC0DAA87
:102DD000204605AB00960021FEF780FE08B97EB0C4
:102DE00070BD94F84B202B46314605A8FEF71CF821
:102DF0007EB070BD10B58EB00C46FEF7D3FB30B17F
:102E00006946FFF7D9FF10B1BDF8003023600EB05E
:102E100010BD00BF08B5144B9FED140A2DED028BB9
:102E200093ED118AB8EE488A08EE900A80EE080AFF
:102E30000AF0A2FC28EE000AB3EE088A20EE080A87
:102E4000B7EE007AC7EE007AF8EEE88A9FED087ACE
:102E500067EEA87ABDEC028B67EE877AB6EE000AC1
:102E600027EE800A08BD00BFB4000020F902154F0C
:102E7000C2F38E4D2DE9F0412DED028B0D46064635
:102E8000FEF7CEFC0746002840D00024A04621468D
:102E90003046FEF73DFC00EB08039BB2AB4228D95D
:102EA000A5EB0805ADB221463046FEF775FC08EEED
:102EB000100A0120FFF7AEFFB8EEC88A214630465F
:102EC00068EE008AFEF7E0FB07EE900AB8EE670AAC
:102ED00007EE905AB8EE678A012028EE008AFFF7C5
:102EE00099FF28EE000A30EE280ABDEC028BBDE8FF
:102EF000F08121463046FEF70BFC0134E4B2404439
:102F0000A7421FFA80F8C2D10025CCE70446054647
:102F1000C9E700BF2DE9F04FADF5137D06469C9C37
:102F200003930D46904600214FF4E27221A80CF065
:102F3000EDFB13A8382200210CF0E8FB94F8C591B2
:102F4000B9F1000F0BD0754B754A9B6B754900208A
:102F50009847002738460DF5137DBDE8F08FDFF860
:102F6000BCB109AF0BF18C010BAB009721AA28462D
:102F7000FEF7B4FD0028ECD0394695F84B200BA89D
:102F800013ABFDF751FF07460028E2D09D99BDF82D
:102F900058200A809E9ABDF85C30138021A908ABA6
:102FA00007AA2046FDF706FABDF82020BDF81C3020
:102FB0009A4238D221A94FF4E27220460CF0B0FBBD
:102FC000B5F848303BBB95F84B10574BBBF88C20FD
:102FD00084F8C5110121A4F8C82184F8C49103F133
:102FE000300C84F8C61104F5E5721D6858689968BC
:102FF000DE68D6601033634515605060916002F161
:103000001002F2D1BBF8E230A4F8FA3138460DF5DF
:10301000137DBDE8F08F95F84E90B9F1000918BF07
:103020004FF00109CFE708AA37213046ADF82090CC
:10303000FEF762F8BDF820A01AF0C00A12D008AB63
:1030400007AA21A92046FDF7B5F9BDF82030BDF843
:103050001CA004939A4520D9304601228021FEF716
:1030600003F8A7E708AA31213046ADF820A0FEF703
:1030700043F8BDF820204AF6C0439A42DFD09BF8BF
:103080004030002B3FF465AFDBF83840274A284931
:10309000334601205746A0475CE7049B0398023360
:1030A000414606AAA3EB0A0807ABFDF7A9FE07985D
:1030B000CDF814901FFA88F8404528BF4046079085
:1030C000DDF810800495A146039D05E00798824431
:1030D0001FFA8AFAD04511D30890069908AB5246D8
:1030E00021A8FDF723FD04460028EFD0089B2A46BF
:1030F0004FEA5A013046FEF729F9E7E7A046304685
:10310000012280214C46049DDDF81490FDF7ACFFB0
:10311000B8F1000F3FF41DAF4CE700BFB400002032
:10312000044C01083046010866010020444C0108A7
:10313000684C01082DE9F84F164C0A9E278D043A79
:10314000043F52087F0897420D468146984628BFA3
:10315000174601F1040A0024331BBB4228BF3B463B
:103160006FEA84415A1E6FEA91419B466A8029802A
:103170005A0008EB440150461C440CF0D1FA0BF104
:103180000202002329464846FDF7D6FEA642E3D8B0
:10319000BDE8F88FB40000202DE9F04FADF50F7DAC
:1031A0000C460646002192461DA84FF4E2721F46C7
:1031B000DDF8609205AD0CF0A9FA382200210FA8C5
:1031C0000CF0A4FA4749009520461DAA07ABFEF76C
:1031D00085FC30B94FF0000840460DF50F7DBDE885
:1031E000F08F94F84B20294607A80FABFDF71CFE83
:1031F0000028EFD09999BDF848200A809A9ABDF826
:103200004C301380384602AA002503AB5146CDE965
:103210000255FDF7F5FD3046FEF756F8C0B10398AC
:1032200040F6DD1B2A460299049004AB1DA8FDF769
:103230007DFC6908049B80463A463046FEF786F8D6
:1032400003980544ADB25D4509D8B8F1000FE9D146
:10325000254B264A9B6B264900209847BAE7B8F1D0
:10326000000FF5D060235246394630460093214B7B
:10327000FFF760FF1DA94FF4E27248460CF050FAC8
:10328000B4F8483023B194F84E30003B18BF012306
:10329000154E94F84B20B6F88C1089F8C521012200
:1032A00089F8C43189F8C621A9F8C81106F1B2031A
:1032B00006F1E20709F5E5721C6858689968DD684F
:1032C000D5601033BB4214605060916002F110026F
:1032D000F2D1B6F8E230A9F8FA3140460DF50F7D8B
:1032E000BDE8F08F40010020B4000020804C0108B0
:1032F00030460108980D01082DE9F04F254C85B0A6
:103300000026CDE90266B4F8288001928946002B98
:103310003AD04FEA58088346A8F104089A460D4669
:103320001F4626E0019B48F200019A192980631E7E
:103330004FF00001E9806A80AB806200002105F156
:1033400008000CF0E3F9294601235846221DFDF739
:10335000F3FD02AB03CB26446960286009EB460508
:1033600059F81600696802AB564503C3A7EB04077A
:103370000AD2B845444628BF3C46B845D2D200E000
:10338000013CE307FCD4CDE709F1080005B0BDE836
:10339000F08F00BFB40000202DE9F04F02EBC30610
:1033A00089B07388129F4BB38046894600254FF041
:1033B000010B736853F82540C4F3017001280CD049
:1033C000022833D0F0B1344B344A9B6B344900208F
:1033D0009847002009B0BDE8F08FA3B2194659F80C
:1033E000232022F00F0217B1C4F3034422434046C6
:1033F000FDF7D8FD738801359D42DAD3012009B06D
:10340000BDE8F08FC4F3445A0BFA0AF39F4216D377
:10341000214A0097013B019321490390A3B2946B89
:10342000204AA047039809B0BDE8F08FA3B219461F
:1034300059F8232022F00F02002FD8D1D4E7A3B2ED
:1034400043F4204C03930522012305A9ADF818008D
:10345000CDF81A004046ADF814C0ADF816B0FDF72F
:103460006BFD04A90DF11A00FCF79EFFCAF1200ABA
:103470004FF0FF33C4F3044423FA0AFA049B039980
:103480000AFA04FA23EA0A0207FA04F4224340463D
:10349000FDF788FDAEE700BFB4000020CC4C01086A
:1034A000E0450108944C010870B5094EF36A0546E1
:1034B0009847044628B12A4600210CF027F92046F7
:1034C00070BDB36B034A04499847204670BD00BFE6
:1034D000B4000020F44C0108044D010830B5124836
:1034E000124D83B008F0A6F8114BA86C01904FF470
:1034F00080529A61FEF7CCF90198FDF769FF044606
:1035000068B10B4B4FF480529A62FEF7C1F9002369
:10351000C5F8543108F09EFC204603B030BD054884
:103520000CF010FAEDE700BF144D0108B4000020C4
:10353000000400482C4D010810B51A4C1A4AD4F862
:10354000583193421FD0194A934200D010BD02F562
:10355000E6320F21936D23F4003393654FF09040D2
:1035600007F052FED4F8C80107F0FAFFD4F8C401FE
:1035700007F0F6FF0E4B4022C3F88420BFF34F8FB5
:10358000BFF36F8F10BD02F55842BDE81040136EB7
:1035900023F4804313664FF4C0614FF0904007F06E
:1035A00033BE00BFB400002000380140004400409A
:1035B00000E100E02DE9F04F2DED028BADF21C7D16
:1035C000CDE9041203931B7804460A2B13D8DFE8D5
:1035D00013F023000B007400BF005D0133024703AA
:1035E000D7043C05AA052300FDF7D0FE002840F0D3
:1035F0005686039B1B78B94EB46BB94AB949002073
:10360000A04700231C46039A204613700DF21C7D30
:10361000BDEC028BBDE8F08FB04EDDF848078C2280
:1036200000210CF073F8D6ED117ADFEDAF5ADFED23
:10363000AF6AF8EE677AB6EE006A85EEA77AF4EE26
:10364000E67A37EE067AF1EE10FABCEEC77A17EE9C
:10365000103A9FB200F3BB859FEDA57AF4EEC77ACE
:10366000F1EE10FA00F1B385A7F110039BB2EF2B36
:1036700040F2D2869FED9F7ADFED9F6A77EE877AE0
:1036800037EE877ABCEEE76ABCEEC77A16EE108A90
:10369000B8EE477A77EEC77A67EEA67AFCEEE77A5D
:1036A00017EE905ACDE90085944BB46B944A954936
:1036B0000020A047039B1B789EE7FDF767FE0546A9
:1036C000002896D00499412300222046FFF714FEDB
:1036D0000021038C0793A0F1020A8B468E464FF619
:1036E000FF781EE030F911703AF9119007F57A72FF
:1036F000A7EB09079F42C0F26585674500F3628525
:1037000082EAE273A3EBE2739BB2434505D24FEA30
:10371000860B98461FFA8BFBAE460F2E00F02D87C6
:1037200001314B1E03FB03F3C3EBC3035A0002F545
:10373000167CC83B8EB20029D4D1B0F9003003F515
:103740007A73002BB8BF5B429BB24345DFD3E7E7F8
:10375000FDF71CFE00283FF44CAF04990022202303
:103760002046FFF7C9FDB0F90020054601211646A5
:103770000027134635F9022FC3F5487313449BB253
:10378000B3F5C86F3FF635AFB242A8BF0F4601F19F
:103790000101A8BF16462029EBD1072F00F2E587CB
:1037A000002307F10802D21A002A00F0EF8746A989
:1037B000D51800EB4505069100EB430030F9026B8C
:1037C00007EE106A03FB03F606EE903A07EE906AE6
:1037D000B8EEC77AF8EE677AF8EE666A854281ED50
:1037E000007AC1ED017AC1ED026A03F1010301F132
:1037F0000C01E3D106982EA9FDF7D0F900283FF47B
:10380000F8AE9DED2E6AB5EE406AF1EE10FA3FF487
:10381000F0AEDDED2F6AF5EE406AF1EE10FA3FF4FE
:10382000E8AE9DED307AB1EE477AC7EE267AF5EE36
:10383000C07AF1EE10FAFFF6DCAEF1EE666A86EEC3
:10384000867AB5EEC07AF1EE10FA7FF5D2AEB7EE19
:10385000007A77EE877AFCEEE77A17EE903A9AB222
:103860003F2AC3F34E033FF6C4AEDDF8482783F08A
:103870001003D38020464FF44571FDF7F7FC044652
:103880000423002C7FF4BFAE00F09CBCFDF77EFD4E
:1038900000283FF4AEAE5023204604990022FFF7E3
:1038A0002BFD00F1A0030693DDF848370A3307EE3D
:1038B000904A4FF0300B1C46DFF84C90B0F90020D6
:1038C0004FF0000847F6FF7EC246774606464FF6A1
:1038D000EC716FF01B034D462FE000BFB4000020D9
:1038E000544D0108784D0108F902154F8096984C07
:1038F0008096984BBD370635002474494C57010813
:103900008C4D0108B84D01080080FFFF7245BCBF17
:1039100098469646242918D036F9022F36F8023CEC
:10392000D31A1BB29F42A8BF1F4601F1080C9D424B
:10393000B8BF1D460BB21FFA8CF1002AE6DA4A45E1
:10394000E8DD24299A469146E6D1A5F51C55103D9F
:10395000ADB244F620639D423FF64BAE002F7FF49C
:1039600048AE19F5004F47F6FF7300F04B869E45B1
:1039700000F09D86A8EB0A08B8F1080F7FF439AE75
:103980004FEAC908AEEB090E98FBFEFEAAEB0E0843
:103990000FFA88F8B8F1000FC0F27584B8F11F0F64
:1039A0003FF727AE1FFA88F8A64A0BF1010382F809
:1039B0000DB05FFA83FB069B24F8028F1030834220
:1039C0007FF47AAF602317EE900ADDE904120093CA
:1039D0009D4B17EE904AFFF7ADFBDDF848379B4A49
:1039E0009B890093DDF848379949DD8820460723F5
:1039F000FFF7D2FC954A9649009508232046FFF729
:103A0000CBFC0323914A9249009320460923FFF7F8
:103A1000C3FC06238D4A8E49009320460A23FFF7F4
:103A2000BBFC204640F2D531FDF720FC04460523BF
:103A3000002C7FF4E8ADC5E3FDF7A8FC00283FF4B7
:103A4000D8AD0499DFF81092DFF810824FF440737C
:103A500000222046FFF750FC0DAB0893059300238E
:103A600000F5C061049307EE904A46AB07912EAD76
:103A7000069345AF824616AC5646B6F9021036F9A3
:103A8000040BFDF74DF944F8040BA542F5D12DAC1C
:103A9000A3465646B6F96210B6F96000FDF740F944
:103AA0004BF8040F5F4506F10406F3D1069B049A18
:103AB00015AE9818002154F8043F56F8042F9B1AAD
:103AC0004B4540F3AE83A3F5C9237E3B4B45FADC5F
:103AD000002BB8BF5B429942B8BF1946A74240F8D5
:103AE000043BE8D1059B491043F8041F0593049B50
:103AF00060330493079B0AF1C00A5345BBD10020F1
:103B000017EE904A089E0146034656F8042F8A4253
:103B1000C8BF184603F10103C8BF1146082BF4D1F2
:103B20000EAB00EB400153F82060069B0DF1B7028D
:103B300003EB41110DF1CF0051F8043BB342ACBF90
:103B40000023012302F8013F90421376F4D10020B4
:103B500001460123002900F06F83EA5C002A00F08F
:103B6000638301300133302BF4D1A0F10C03082B17
:103B70003FF63FAD01EB5000172802D9183817283F
:103B8000FCD880B2820092B202F13005DDF84837ED
:103B9000ADB25F2D188140F26E852E4BA3FB05134D
:103BA0009B0903EB4303A5EB43139BB20027154688
:103BB000B8461A460126264900922123234A204668
:103BC000FFF7EAFB214A2249009522232046FFF70E
:103BD000E3FB03251D4A1E49009601232046FFF7FB
:103BE000DBFB1A4A1A49009502232046FFF7D4FB53
:103BF000164A1749CDF800802B462046FFF7CCFB2C
:103C0000124A1349009704232046FFF7C5FB0F4AC9
:103C10000F49009605232046FFF7BEFB00230B4A01
:103C20000B49009320460623FFF7B6FB20464FF4CE
:103C30007B71FDF71BFB04460623002C7FF4E3ACED
:103C4000C0E200BF00000020980D0108580E0108D6
:103C50008C190108ABAAAAAA3F240300C1DBFCFF10
:103C6000FDF794FB079000283FF4C3ACD54EDDF878
:103C70004827D54D736CB2F880700499A5FB0323D7
:103C80009D0900224FF440732046FFF735FB46ABF9
:103C900007FB05F7089000F1020806930DF58A79F5
:103CA0000DF21475B8F9001038F9020CFDF738F868
:103CB00049F8040F4D4508F10408F3D1002307EB40
:103CC00047029A46CDE92E33CDE93033CDE9323380
:103CD000CDE934330593D300069ADFF80C832EAD7B
:103CE00002F15C09AB464FF6FF7209955546DDF8C7
:103CF0001CA0049207EE904A4C469946A4F15C0041
:103D0000FCF7A6FCA4F1600C00205CF8043FDCF892
:103D100060206445A3EB02031844F6D10028C0F2EA
:103D2000A482800940F6945303FB00F0400D07FB8A
:103D300000F009EB1020CBF8000025B15BF8043C43
:103D4000834240F29484DBF80030A3F16673A3F55C
:103D50004A33203B002BB8BF5B42434505F10102CB
:103D600038BFCDE9045A95B238BF9846082D0BF1FB
:103D7000040B04F1C004C1D1059B099D17EE904AC4
:103D8000002B00F07484DDF848379048904A1946BB
:103D90003727049B4B8400938E4907770C2317EE3B
:103DA000900AFFF7F9FA204640F21641FDF75EFA55
:103DB000002800F00882089B9FED876A2F461A466C
:103DC00003F1C00403F5D86CF7EE006AA4F1C00358
:103DD0004FF0000EB3F90200B3F9001000FB00F041
:103DE000043301FB01019C428E44F3D107EE90EABB
:103DF000B8EE677AC034C7EE067AA445B1EEE77A2A
:103E0000C6EE877AE7EC017AE0D1089B03F5C06043
:103E1000069BB2F90010F5EC015A06EE101AB2F941
:103E2000021006EE901AB2F9601007EE101AB2F9FD
:103E3000621007EE901AB8EEC66AF8EEE66AB8EEBF
:103E4000C77AF8EEE77A26EE256A66EEA56A67EE8F
:103E5000A57A27EE257A26EE065A67EE075A26EE51
:103E6000266A27EE277A66EEA66A67EEA77AC03240
:103E7000904283ED005A83ED016AC3ED026AC3EDFF
:103E8000185A83ED197AC3ED1A7A03F10C03C0D1E5
:103E9000069816A91022FCF781FE0446002800F0BF
:103EA00092819DED166A9DED175A9DED187ADFED12
:103EB0004B4A9FED4B4AF1EEC66AF1EE007A26EED0
:103EC000276A65EE057A26EE076AF6EE005A36EEA8
:103ED000676A85EEA67AF1EEC67AB6EE086A76EEE5
:103EE000C66A67EE277A66EEA46A27EE057AB7EE11
:103EF000005A77EEC67A37EE057A76EEA56AB3EE0B
:103F00000F6A27EE047A67EEA47AF4EEC66AF1EE41
:103F100010FA37EE257A77EEA57A00F3A481F5EE54
:103F2000C06AF1EE10FA48BF002040F14984DFED8D
:103F30002D6AB4EEE67AF1EE10FA00F39281B5EE56
:103F4000C07AF1EE10FA48BF002140F13084B3EEA0
:103F50000F7AF4EEC77AF1EE10FA00F37F81F5EEF6
:103F6000C07AF1EE10FA48BF002340F11784DDF863
:103F7000482701430B43A2F858300723FFF743BB00
:103F8000FDF704FA00283FF434AB10230499002213
:103F90002046FFF7B1F9DDF84837B3F8586000253F
:103FA00006F01F0EC6F3441CB60A00F102090EF11A
:103FB000300E0CF1300C203E0495AB46A8462F463F
:103FC0001DE000BFB4000020D34D621000000020AF
:103FD000580E01088C190108000040420000804280
:103FE0000000004200007C4240420F005B45474613
:103FF00000F2F28198460135082D00F0C28130F9B7
:10400000252039F925300EFB02F203FB06FA002ABF
:1040100003FB0CF3B8BF3F32BAF1000FB8BF0AF18F
:104020001F0A002BB8BF3F33921102EB6A1243F311
:104030008F1312B203FB03F302FB0233BB42A9B29C
:10404000D9D94345D2D81F46D5E7FDF79FF90028B7
:104050003FF4CFAA6023049900222046FFF74CF9D1
:1040600046AB05460693871C99464FF0000840F67C
:10407000B73637F9281035F9280001FB01F300FBAA
:104080000033B34208F101087FF7B3AAFCF748FEFA
:10409000B8F1300F49F8040BEBD1069B45AD0DF19B
:1040A000B6062946324603F15C0751F8043F002B5F
:1040B000B8BF0F3302321B118F421380F5D106981F
:1040C000FCF7C6FA002155F8043F2A6EAF42A3EB75
:1040D00002031944F7D1C24BC81783FB0131C0EB6F
:1040E000A11000F5994330334CF6621293423FF62B
:1040F00080AADDF848370DF1E601243336F8022FA7
:1041000023F8022FB142F9D1DDF8483740F27B4164
:10411000A3F856002046FDF7A9F804460923002C11
:104120007FF471AA4EE0FDF731F900283FF461AA4F
:104130000022049920464FF49C6314460DAEFFF70D
:10414000DBF82EAF0EAA00920194334646AA9021C6
:1041500034603C600E9416948046FCF789F9002880
:104160003FF447AACDE9007416AB46AAF02108F542
:104170009070FCF77DF900283FF43BAA39680E984F
:10418000984B994D32680194091A03FB01F305FB22
:1041900000F01B0CC3EB503305FB02F2DDF84807BF
:1041A000009605FB01F1520BC0E91812C36546AA3F
:1041B0000CAB40F21F1108F20230FCF759F900284D
:1041C00040F07882894E039B1B78FFF715BA9FED6C
:1041D000887ADFED886A884B884A894977EE877A42
:1041E000002037EE877ABCEEE76ABCEEC77A8DED29
:1041F000006AB8EE477A103F77EEC77A16EE108A5B
:1042000067EEA67AFCEEE77ACDED017AB46B17EE95
:10421000905AA047EF2F3FF645AAD4E703F5C923EC
:104220007E334345FADB53E40B283FF69EAC013363
:10423000302B3FF4DEA910465A1E2A44591C12F8AE
:10424000016F4B1E2EB112F8016C16B919460120F0
:1042500088E4302900F092820131F0E74FF478735E
:1042600085E6684973E61F2061E64042800940F612
:10427000945303FB00F0400D07FB00F0A9EB102066
:10428000CBF8000059E5C8F100081FFA88F8B8F12A
:104290001F0F3FF6AEA948F02008FFF785BB46AADE
:1042A00032212046FCF728FF1223049900222046E1
:1042B000FFF722F8054600236F88BDF8180135F88E
:1042C00004EB9C464FF6FF7640FA03F2D20799B210
:1042D0000AD535F81320D21B002AB8BF524292B239
:1042E000B2423CBF16468C460133102BECD10CF188
:1042F000FF330D2B3FF67DA90CF10043013B05EB8D
:10430000430635F81330728841F287319B1A8B428D
:104310007FF76FA9B388D21A8A427FF76AA94FF64E
:10432000FF7398423FF465A940F2E51303FB0EF3D7
:104330001B0CA3F5897313F1140F1AB2C0F22C826F
:104340002C2A40F32782502AB4BF03230423DDF82C
:1043500048272D49A2F800E0A2F802C09384204625
:1043600025232A4ACDF800C0FFF716F8204640F270
:104370003221FCF77BFF04460223002C7FF443A983
:1043800020E7B7EB5B0FBFF434A9DDF848371F4ACD
:104390001946049B0B8420461B4900930B23FEF710
:1043A000FBFF0023194A1849009320460923FEF712
:1043B000F3FF7E23154A1449009320460A23FEF793
:1043C000EBFF204640F25241FCF750FF04462B46DB
:1043D000002C7FF418A9F5E6D84604919B460AE61E
:1043E000ABAAAA2AA82A0400AA0A0100B400002045
:1043F000BD370635002474494C5701088C4D01081F
:10440000B84D010800FCFFFF8C190108580E010887
:10441000E8385BB500007C4277EEC77A5FED046A4E
:104420001FED047ADDF8482767EEA67A3F2F77EE76
:10443000877AFCEEE77A17EE901AA2F8881000F25D
:104440002081DDF8481700222F2F88BF3B46A1F8B6
:104450008430A1F88220A1F88620DDF8482704984E
:10446000A2F8807046AB2EAD4FF000080599069378
:104470002A46C5F80080C3F80080FCF7C1FC20463E
:10448000FCF722FF00283FF49EAE069BDFF848B3FE
:104490001B68DDF848A708EE104AC8F534640A34F2
:1044A000A34298BF9CB22F68C94B88BFA4B24FEA01
:1044B000580903EB890062083946FCF783FABAF819
:1044C00082301C22CDE9002341465B462246384615
:1044D000FCF79CFA00283FF476AEBAF884201A2341
:1044E000CDE9003241465B4622463846FCF78EFA5B
:1044F00086464FF01B0C41465B4622463846BEF1CD
:10450000000F3FF460AECDF800C0BAF886C0CDF819
:1045100004C0FCF77BFA86464FF0190C41465B4617
:1045200022463846BEF1000F3FF44DAECDF800C034
:10453000BAF888700197FCF769FA0746049A18EEF2
:10454000100A23464946002F3FF43DAEFCF7FEFE1D
:10455000069B1B6898441FFA88F840F6493290453C
:104560009BD918EE100A40F25B11FCF77FFE04465F
:104570000123002C7FF447A824E6BEF1000F3FF48E
:1045800038A8DDF848278BF030039380418C0693E0
:10459000B0F880305B1AB3F5FA6FFFF62AA88D4A9F
:1045A000DDF81CC04FEA034AA2FB0A3A002507EED9
:1045B000904A22304FEA5A1A2F468B4610224FF665
:1045C000FF780AE0A64288BF4FF0000E013292B297
:1045D000402A55441BD030F8021FA1EB0C03002BDE
:1045E000B8BF5B429BB20BEB1546434506F54879D5
:1045F0003CBF98461746494501F54874E2D94FF04B
:10460000000EE3E79E457FF4C5A9FEF7F2BF17EE63
:10461000904ABEF1000F3EF4ECAFDDF848270123CD
:104620004FF47E505781ADF81801DDE9041217EE02
:10463000900A009346ABFEF77DFD674A64490097F8
:1046400026232046FEF7A8FE069B634A6049009396
:1046500020462423FEF7A0FE204640F2C521FCF7A9
:1046600005FE04460323002C7EF4CDAFAAE55B4B88
:1046700037221A77A7E503274FF001080026FFF736
:104680009ABADDF84827DDF84817BF2F4FF001032D
:10469000A2F8823096BFA7F14002FA08C2F3CF0217
:1046A00007F00703A1F88420A1F88630D5E6D046AC
:1046B000FFF770B916AB01930EAB009346AA0BAB94
:1046C0004FF4907108F5A860FBF7D2FE00283FF484
:1046D00079ADCDE90047234646AA08F5F0604FF4CE
:1046E0009071FBF7C5FE044600283FF46BADDDE991
:1046F0000BE9D6F80080DDF858C00E983F683849BD
:10470000384A394BA7EB0C07A9EB0E06A0EB0800C3
:1047100001FB06F102FB00F203FB07F305FB0EFEB3
:1047200005FB0CFC05FB00F005FB08F805FB06F695
:10473000090C05FB07F5120CDDF848771B0CC3EBE1
:104740005C33C1EB5E31C2EB5832C7E91E35786786
:10475000C7E91B62B9663846FBF770FEDDF84837DB
:10476000C3F88C000A23FEF74EBFFB1F172F88BF2C
:10477000C3F120023FF618A8FFF713B8A0F10C030D
:10478000082B3EF636AF4008FFF7FBB946AB069361
:10479000FFF730B80223DAE50123D8E5FCEEE77A2B
:1047A00017EE902A42F30A025301FFF7E0BBBCEE7A
:1047B000C77A17EE102A42F305029102FFF7C7BB32
:1047C000FCEEE66A16EE903A18B2FFF7B0BB00BFF7
:1047D0008C190108ABAAAAAA580E010800000020F3
:1047E00054150200A64A07004E750B002DE9F04152
:1047F000284B294D294F4FF4805282B09A61FDF722
:1048000047F807F0E9FBD5F8DC4124F00814C5F8B7
:10481000DC4107F0DBFB2248214606F00BFF05F1E7
:104820008C08AC6C14B12368BB4216D0AB6B1D4A2C
:104830001D49002098474FF4002007F0D3FB1B4888
:104840000BF080F80026134B4FF480529A62FDF76C
:104850001FF8304602B0BDE8F081D5F84C1104F1E4
:104860000D030029E7D0A068D5F85021CDF80080CD
:10487000FEF7A0FE06460028DDD0637B0A2B04D09D
:10488000FBF7A6FC0028CCD1D5E7082007F0AAFB4F
:10489000D9E700BF00040048B40000200EB0371371
:1048A000CC4D01086C48010884480108E84D010816
:1048B000F8B595692B78B5F802E0144602EB43038E
:1048C0000F46B3F8446063690146720003EB4E0083
:1048D0000AF034FFE26D698813780E446E8003B9E4
:1048E0003B791370F8BD00BFC0EE207A9FED107ABF
:1048F000F4EEC77AF1EE10FA17D89FED0E0A08B55C
:1049000027EE800A08F05EFF20EE006AF7EE007ADC
:1049100036EE276A30EE007AF1EEC66A36EEC00A4D
:1049200027EE000A37EEC00A08BD9FED030A704764
:10493000A800003FDB0F4940000000002DE9F04FC8
:104940002DED048B90F838308DB007900393002B39
:1049500000F0E7800798828F0469C38FB0F84C504D
:1049600034F91210099502465B00408F08900193BC
:10497000002D00F0D6801046526C836CB0F84E507B
:10498000B0F840B0DFED708ADFF8C8810A95D3181F
:10499000029300220901DB4305920B910493914697
:1049A000B6EE009A029A6949134681FB0331D31788
:1049B000C3EBA10101EB4101B2EBC101029A48BF77
:1049C0001831002A09B2C0F2B580604880FB0202AB
:1049D000C3EBA20212B20B9B120482FB0356002D02
:1049E00076F1000304DA4FF6FF73ED1846F1000686
:1049F000089B19442A0C34F9111042EA0642A2EB32
:104A0000011207EE902AF8EEE79A69EEA89AB0EE46
:104A1000690A08F0CBFDB0EE408AB0EE690A08F0F2
:104A2000D1FEBBF1000F6BD0079A136DB2F842A014
:104A300093F800E006930020054647F6FF7709E06B
:104A4000DDF80CE0E25201351FFA85FCE3455044E5
:104A5000718052D9019A09EB50039BB202EB830398
:104A6000E618E25E07EE902AB6F9022006EE902ADA
:104A7000F8EEE77AF8EEE66A27EE887A26EE806AA4
:104A800067EE807A66EE886A37EE467A77EEA67A27
:104A9000B5EEC07AF1EE10FAF5EEC07A4CBF37EE03
:104AA000497A37EE097AF1EE10FA4CBF77EEC97AFF
:104AB00077EE897ABDEEC77AFDEEE77A17EE10CA77
:104AC00017EE901A17EE102AC445B8BF424641456A
:104AD000B8BF4146BA42A8BF3A46B942A8BF394614
:104AE000BEF1000FAED19445AAD117EE90CABCEB2F
:104AF000010E18BF4FF0010EA4E7069B83F800E0FB
:104B0000059B029A01331FFA83F911460593049A13
:104B10000A9B1944D31A0493099B02914B453FF613
:104B200041AF079B186843680DB0BDEC048BBDE82E
:104B3000F04F1847049B1A46054BA3FB02326FEA5D
:104B4000121212B247E700BF00008037ABAAAA2AB0
:104B5000ABAAAAAA0080FFFF08B50138C0B204289A
:104B600098BF194B2DED028B98BF03EB8000B0EE80
:104B7000408AB0EE600A94BFD0ED008ADFED138A60
:104B800008F0A8FEDFED127A20EE277AB2EE040AD2
:104B900077EE087A77EEE87AC7EE800A08F0D0FE62
:104BA00008F0EAFDDFED0B0A08F0ACFDF0EE400A7C
:104BB000B7EE000A08F088FDBDEC028BBCEEC00A1F
:104BC00010EE103A98B208BD980F010800000000DE
:104BD000000020420080FF43B0EEC07AF0EEE07AA1
:104BE0002DE9F04FB4EEE77AF1EE10FADFED796AD5
:104BF00058BFF0EE477A30EE607A67EEA67AB0EEF4
:104C0000C77A2DED068BB4EEE77AF1EE10FA98BF75
:104C1000DFED717A89B006464FF00500B0EE608A8C
:104C20001D469ABF30EEA78A4FF000094FF00109E8
:104C3000F0EE408A88461746FCF7EEFE032D09EE9B
:104C4000900A00F0BD80042D00F0AE80022D00F02F
:104C5000A38000224FF07E53039204930DF1100ABB
:104C600038EE687ADFED5D7A0AEB8502544601E0A2
:104C7000F4EC017A67EE277A944277EEA87A44ED55
:104C8000017AF5D145B305F1FF3B5FFA8BF39FED58
:104C900054AADFED54AA0DF1140B0BEB830B002586
:104CA000BAEC017AB4EEE87AF1EE10FA12DDF8EE21
:104CB000697AB0EE688A67EE8A7A002438EE278A2D
:104CC0000134B4EEC78AF1EE10FAA4B2F6D464B996
:104CD000F0EE488AD345E3D1B9F1000F47D1284619
:104CE00009B0BDEC068BBDE8F08F88EE0A0A08F02B
:104CF00043FD7A19D2B23068019205210135EDB237
:104D0000B0EE409AFCF79EFCC8EE8A7A019A3068B1
:104D1000F0EE488A77EEAA7AFDEEE77A17EE901A5F
:104D2000FCF75CFD019A306819EE901AFCF7CEFC96
:104D3000019A30682146FCF70DFD98ED000AF0EE6F
:104D4000480A0520FFF708FF019A01463068FCF782
:104D500057FCBDEEC99A052119EE103A18B2FBF7BF
:104D6000CFFC019A01463068FCF7FAFBB2E77A1EE5
:104D700034682A44D2B2114620460192FCF7C8FC9E
:104D8000013081B2019A2046FCF7E4FC284609B0C4
:104D9000BDEC068BBDE8F08F0023134A03934FF060
:104DA0007E530492059359E70023104A0393104B56
:104DB000049205930F4A06924FF07E5307934DE7F6
:104DC0000D4B0493002203924FF07E530B4A059241
:104DD000069343E7000000340AD7233C000000009C
:104DE0000AD7233B17B7D138A4703D3FD7A3F03E75
:104DF0003333333F52B85E3F713D0A3F295C4F3F2A
:104E00002DE9F04FB0EEC07AF0EEE07AB4EEE77A3A
:104E1000F1EE10FADFEDAB6A2DED088B58BFF0EE26
:104E2000477A30EE607A67EEA67AB0EEC77A87B03E
:104E3000B4EEE77AF1EE10FAB0EE409AF0EE60AA26
:104E4000064601911546039305D8DFED9F7A0023AE
:104E500070EEA7AA0393B0EE490AFBF793FCB0EEFD
:104E60006A0A0446FBF78EFC052C00F0FC80974B89
:104E70004FF003320528CDE9042300F0D580012C42
:104E800000F01481022C00F0D6809DF81630A34269
:104E900014BF03230223C3F10104E4B2012800F08C
:104EA0000081022800F004819DF81670874214BF2B
:104EB000032702273C44DA435FFA84F8A8451744E5
:104EC00005AA194628BFA846D518002309E006AA56
:104ED0001A44013302F8084CDBB24A1CD1B204294F
:104EE0001FD015F8014B844204F0FD0219D89845F3
:104EF00017D9012AEBD0022CE9D1A8EB030CCA196F
:104F0000D2B25FFA8CFC0DF1180E94459E4403F169
:104F10000102E2D3D3B24A1CD1B204290EF8084CE4
:104F2000DFD1B8F1000F00F096804FF0000908F1D2
:104F3000FF339FED67BADFED679A9FED67AA029393
:104F40004D460DF1100A1AF8017B3846FCF764FD56
:104F5000029B4B45834670D09AF80020013AD2B2AA
:104F6000042A75D85D4901EB8202D2ED007A77EE12
:104F7000A77AF4EEC97AF1EE10FA65DD07EE10BA01
:104F8000B8EE477AB0EE498A27EE297A002438EE47
:104F9000078A0134B4EEE78AF1EE10FAA4B2F6D42F
:104FA00088EE290A08F0E8FB2A463068394609F1FC
:104FB0000109F0EE408AFCF745FBC9EE297A2A4642
:104FC000306877EE8A7AFDEEE77A17EE901AFCF7F2
:104FD00005FC2A4630685946FCF778FB2A462146EC
:104FE0003068FCF7B7FB019BF0EE480A93ED000A2E
:104FF0003846FFF7B1FD2A4601463068FCF700FB52
:10500000FDEEE88A394618EE903A18B2FBF778FBC5
:105010002A4601465FFA89F53068FCF7A1FAA845EF
:1050200019D9B0EE489A8EE7012C3CD0022C4FF0F3
:1050300004007FF42AAF01232DE7F0EE6A7AF4EE44
:10504000C97AF1EE10FA99DCB0EE498A0024A7E79C
:10505000F0EE4B7A8DE7039B73B9404607B0BDEC89
:10506000088BBDE8F08F052824D0184B4FF0033291
:10507000CDE90423042408E7346808F1FF32D2B2F2
:10508000114620460192FCF743FB013081B2019AA0
:105090002046FCF75FFB404607B0BDEC088BBDE83F
:1050A000F08F002706E700230420FDE60023F5E645
:1050B0000127FFE6054B4FF00332CDE90423FE2420
:1050C0000323F1E7000000340AD7233C0102030464
:1050D000000000000AD7233B17B7D138EC0C0108B9
:1050E0002DE9F0412DED048B90F8623084B0044638
:1050F000002B54D09FEDA08A90ED130A9FED9F9A4C
:1051000080EE080AFCF76EFCF0EE408A94ED140A7B
:1051100080EE080AFCF766FC68EE888A20EE088AB2
:10512000B4EEC98AF1EE10FA40F2DC80F4EEC98ADE
:10513000F1EE10FA00F3C88088EE090AFCF752FC81
:1051400008F01AFB04F1400704F16401002338461B
:105150000191FCEEC07AF0EE490A17EE906A013E2A
:10516000F6B2032E28BF0326012E38BF0126C6F152
:105170000402B0EE680AD2B2FFF742FE054601997A
:1051800033463846F0EE480AB0EE490A2A46FFF7A1
:1051900023FD2844C1B2206CFCF75CFB5FE090F873
:1051A0004430002B40F0BE8090F8466090ED138AAA
:1051B00094F84530002B40F0A380B4F84880DFED30
:1051C0006E7A07EE108AF8EE478A68EEA78A9FED9E
:1051D0006A0A88EE000A08F031FAD4ED147A37EE44
:1051E000C88AFDEEC07A88EE280A17EE907AFCF79E
:1051F000F9FBF7EE007A30EE270A08F0BDFABCEEB4
:10520000C00A206C10EE103A01219DB2FCF722FB7F
:10521000206C00223146FCF715FA206C394600223A
:10522000FCF7DCFA206C29460022FCF793FA0022F6
:10523000206C4146FCF74AFA28B2013810FB08708E
:10524000314600B2FBF75CFA00220146206CFCF705
:1052500087F9B4F85610206C0022FCF7D1F9236CC2
:105260001BB1474A1968914224D0464D464AAB6B60
:10527000464900209847206C034628B140490668FB
:10528000B4F854208E421CD00020AB6B3E4A3F49FC
:105290009847206C94ED170A94F8603084ED030A67
:1052A0000BB19FED3B0A04B0BDEC048BBDE8F041AF
:1052B000FCF790B994F8582083F85320B4F85420A0
:1052C000206CA3F84C20E5E704F16401F0EE480AF5
:1052D000B0EE680A0423002204F14000FFF77CFCD2
:1052E000014658E704F16401F0EE480AB0EE680A9E
:1052F0000123042204F14000FFF782FD01464AE742
:10530000731EDBB2042B31D8224ADFED1B7A02EB8D
:105310004303B3F8348B07EE108AF8EE478A68EE41
:10532000A78A54E71C4B90ED138A9FED197A1B480E
:1053300002930DF1090203AD0526731EDBB2042BA7
:1053400000EB83019ABFD1ED007A77EEA77AF0EEF9
:10535000477AB4EEE78AF1EE10FABFF629AFAA4217
:1053600002D012F8016BE8E7012621E7DFED028A9F
:105370004FF001082BE700BF0AD7233B0AD7233F92
:105380000FB03713B4000020D4480108CC480108FE
:10539000000000007804010805040302EC0C010879
:1053A0002DE9F04FC74C85B00646FFF799FE94F8FB
:1053B0004030012B40F27F84A36BC34AC3490220D3
:1053C000984794F84030012B40F275847368A56BC0
:1053D000BF4ABE490220A84794F84030012B40F252
:1053E0006A8496F84430BB4FDFF83883BA4AB7492D
:1053F000A56B002B14BF3B4643460220A84794F8F8
:105400004030012B40F2578496F84530B34AAF49FB
:10541000A56B002B14BF3B4643460220A84794F8D7
:105420004030012B40F2478496F84630A56BA749DF
:10543000013BDBB2042B96BFA94AAA4B02EB8303C4
:105440004FF0020098BFD3F8403BA74AA84794F812
:105450004030012B40F22F84B6F84830A56BA34AA8
:105460009A490220A84794F84030012B40F2238447
:10547000D6ED137A9FED9E7A9FED9D6ADFED9D6AD2
:10548000A56B9249F5EEC07AF1EE10FA48BFF1EE45
:10549000677A77EE877A4CBF974B984BBCEEE77AEA
:1054A000F5EEC07AF1EE10FA17EE102A4CBFB1EE0D
:1054B000677AB0EE677A37EE067A0092BCEEC77A6A
:1054C0008F4AB8EE477A022077EEC77A67EEA67A5F
:1054D000FCEEE77ACDED017AA84794F84030012B35
:1054E00040F2E983D6ED147A9FED817A9FED806AD0
:1054F000DFED806AA56B7549F5EEC07AF1EE10FA22
:1055000048BFF1EE677A77EE877A4CBF7A4B7B4BD8
:10551000BCEEE77AF5EEC07AF1EE10FA17EE102A3B
:105520004CBFB1EE677AB0EE677A37EE067A00923A
:10553000BCEEC77A734AB8EE477A022077EEC77A94
:1055400067EEA67AFCEEE77ACDED017AA84794F8EB
:105550004030012B40F2AF83B6F85430A56B6A4A55
:105560005A490220A84794F84030012B40F2A38307
:10557000B6F85630A56B654A54490220A84794F8FE
:105580004030012B40F2978396F85830A56B4F4975
:10559000022B96BF524A534B02EB83034FF002009B
:1055A00098BFD3F8543B5A4AA84794F84030012B8F
:1055B00040F28183D6ED177A9FED4D7A9FED4C6ACC
:1055C000DFED4C6AA56B4149F5EEC07AF1EE10FAB9
:1055D00048BFF1EE677A77EE877A4CBF464B474B70
:1055E000BCEEE77AF5EEC07AF1EE10FA17EE102A6B
:1055F0004CBFB1EE677AB0EE677A37EE067A00926A
:10560000BCEEC77A434AB8EE477A022077EEC77AF3
:1056100067EEA67AFCEEE77ACDED017AA84794F81A
:105620004030012B40F2478396F86030294FDFF875
:10563000F480394A2549A56B002B14BF3B464346ED
:105640000220A84794F84030012B40F2348396F8AA
:105650006130324A1D49A56B002B14BF3B464346BF
:105660000220A84794F84030012B40F2248396F89A
:1056700062302B4A1549A56B002B14BF3B464346AD
:105680000220A84794F84030012B40F21483D6ED55
:10569000197A9FED177A9FED166ADFED166AA56BF2
:1056A0000A49F5EEC07AF1EE10FA48BFF1EE677ADA
:1056B00077EE877A4CBF104B104BBCEEE77AF5EED5
:1056C000C07A31E0B40000202C4E0108F8440108F3
:1056D000484E0108104E0108544E0108704E010852
:1056E00078040108204E0108904E0108A44E0108DC
:1056F000BD37063500247449284E01084C5701086F
:10570000BC4E0108D44E0108E84E0108004F0108C4
:105710000C4F0108284F0108404F01085C4F010859
:105720007C4F0108184E0108F1EE10FA17EE102A0E
:105730004CBFB1EE677AB0EE677A37EE067A009228
:10574000BCEEC77AD04AB8EE477A022077EEC77A25
:1057500067EEA67AFCEEE77ACDED017AA84794F8D9
:105760004030012B40F2A782A36BC84AC8490220EF
:10577000984794F84030012B40F29D82338AA56B04
:10578000C44AC3490220A84794F84030012B40F294
:105790009282B37CC04FDFF83483C04ABC49A56B0A
:1057A000002B14BF3B4643460220A84794F84030E4
:1057B000012B40F28082F37CB94AB549A56B002BDE
:1057C00014BF3B4643460220A84794F84030012BC3
:1057D00040F27182337DB34AAD49A56B002B14BFF3
:1057E0003B4643460220A84794F84030012B40F244
:1057F0006282D6ED067A9FEDAC7A9FEDAB6ADFED63
:10580000AB6AA56BA249F5EEC07AF1EE10FA48BF7B
:10581000F1EE677A77EE877A4CBFA54BA54BBCEECD
:10582000E77AF5EEC07AF1EE10FA17EE102A4CBFC7
:10583000B1EE677AB0EE677A37EE067A0092BCEE88
:10584000C77A9D4AB8EE477A022077EEC77A67EEAC
:10585000A67AFCEEE77ACDED017AA84794F84030BD
:10586000012B40F22882D6ED077A9FED8F7A9FEDCB
:105870008E6ADFED8E6AA56B8549F5EEC07AF1EE92
:1058800010FA48BFF1EE677A77EE877A4CBF884B03
:10589000884BBCEEE77AF5EEC07AF1EE10FA17EE1F
:1058A000102A4CBFB1EE677AB0EE677A37EE067A0F
:1058B0000092BCEEC77A814AB8EE477A022077EEB2
:1058C000C77A67EEA67AFCEEE77ACDED017AA847B3
:1058D00094F84030012B40F2EE81D6ED087A9FED2E
:1058E000727A9FED716ADFED716AA56B6849F5EE1A
:1058F000C07AF1EE10FA48BFF1EE677A77EE877A58
:105900004CBF6B4B6B4BBCEEE77AF5EEC07AF1EE19
:1059100010FA17EE102A4CBFB1EE677AB0EE677A34
:1059200037EE067A0092BCEEC77A654AB8EE477A3F
:10593000022077EEC77A67EEA67AFCEEE77ACDED25
:10594000017AA84794F84030012B40F2B481D6ED9B
:10595000097A9FED557A9FED546ADFED546AA56B85
:105960004B49F5EEC07AF1EE10FA48BFF1EE677AD6
:1059700077EE877A4CBF4E4B4E4BBCEEE77AF5EE96
:10598000C07AF1EE10FA17EE102A4CBFB1EE677A2A
:10599000B0EE677A37EE067A0092BCEEC77A494AD3
:1059A000B8EE477A022077EEC77A67EEA67AFCEE69
:1059B000E77ACDED017AA84794F84030012B40F208
:1059C0007A81D6ED0A7A9FED387A9FED376ADFED5E
:1059D000376AA56B2E49F5EEC07AF1EE10FA48BF92
:1059E000F1EE677A77EE877A4CBF314B314BBCEEE4
:1059F000E77AF5EEC07AF1EE10FA17EE102A4CBFF6
:105A0000B1EE677AB0EE677A37EE067A0092BCEEB6
:105A1000C77A2D4AB8EE477A022077EEC77A67EE4A
:105A2000A67AFCEEE77ACDED017AA84794F84030EB
:105A3000012B40F24081D6ED0B7A9FED1B7A9FED52
:105A40001A6ADFED1A6AA56B1149F5EEC07AF1EE1C
:105A500010FA48BFF1EE677A77EE877A4CBF144BA5
:105A6000144BBCEEE77AF5EEC07AF1EE10FA17EEC1
:105A7000102A4CBFB1EE677AB0EE677A37EE067A3D
:105A80000092BCEEC77A23E0944F0108B04F0108A2
:105A9000F8440108D44F0108104E0108F84F0108DE
:105AA0001850010834500108BD37063500247449E8
:105AB000284E01084C570108505001087850010841
:105AC000A0500108D0500108F8500108184E0108F4
:105AD000854AB8EE477A022077EEC77A67EEA67A53
