:020000040800F2
:10000000000001208DD200085DBB000859BB00082C
:1000100055BB000851BB00084DBB000800000000A4
:1000200000000000000000000000000045BB0008C8
:1000300049BB00080000000041BB000831BB0008BC
:10004000DDD20008DDD20008DDD20008EDBA0008DC
:10005000DDD20008DDD20008DDD20008DDD20008C4
:10006000DDD20008D9BA0008DDD20008DDD20008D0
:10007000CDBA0008C1BA0008DDD20008DDD2000800
:10008000B5BA0008A9BA0008DDD20008DDD2000820
:10009000DDD20008DDD20008DDD20008DDD2000884
:1000A000DDD20008DDD20008DDD20008DDD2000874
:1000B000DDD200080000000000000000DDD20008D2
:1000C000DDD2000889BA0008DDD20008DDD20008C0
:1000D000DDD20008DDD20008B5B70008DDD2000887
:1000E000A1B7000871C30008000000000000000074
:1000F0000000000000000000000000000000000000
:1001000000000000DDD2000800000000DDD2000881
:100110000000000000000000DDD20008DDD2000871
:10012000DDD20008DDD20008DDD20008DDD20008F3
:10013000DDD2000800000000000000000000000008
:10014000DDD20008DDD20008DDD20008000000008A
:10015000DDD20008DDD20008DDD20008DDD20008C3
:10016000DDD20008DDD20008DDD20008000000006A
:10017000DDD20008DDD20008000000000000000011
:10018000DDD20008DDD20008DDD20008000000004A
:1001900010B5054C237833B9044B13B10448AFF3C1
:1001A00000800123237010BD980000200000000093
:1001B000D409010808B5034B1BB103490348AFF349
:1001C000008008BD000000009C000020D409010848
:1001D00009490A68D36823F0A003D360486A04E0A1
:1001E0004B6A1B1AB3F57A7F04D8D3689B06F7D500
:1001F0000020704703207047B40000200288438825
:1002000043EA02430B607047DFF880C02DE9F04FEE
:10021000023802390CF1E2090CF1E40B4FF0000A4C
:1002200040F6DE1830F8025F31F8024FA54220D0C8
:100230009CF800400BEBC404658825B36768002672
:1002400007EB850E47F6FF7557F8044BA4B2A5429D
:1002500028BF2546A64238BF2646BE45F4D17600C3
:10026000B6B26D00B24538BFB246ADB2A84528BFA0
:10027000A8460CF1010CCC45D4D1A2F80080A3F81B
:1002800000A0BDE8F08F4FF6FE75EFE7F00901081A
:100290002DE9F04F054687B0002405EB410E029092
:1002A0000592104604910393AEF1120EAA1EA446C5
:1002B0000194A246A346012740F2EE2914E0BBF1C7
:1002C000000F2ED1534532DD9A460124019E76421D
:1002D000B342BCBFA8EB050301938C4538BF8C46E5
:1002E000964500F1020027D0558A32F8021F6B1A9A
:1002F00003F50046B6F5803F38BF038088462CBF23
:10030000002711884B45DADC564E9A45B8BF9A460D
:10031000B342DBDA002C0ABF0027A3464FF0010BE3
:10032000D4E7534505DD9A465C460027CEE7012415
:10033000CCE75C460027C9E72FB94FF0000B5846C1
:1003400007B0BDE8F08F002CF7D0BBF1000FF4D060
:10035000049A059ECDF810C00023CDF814A0A2F198
:100360001C08123699469E461F469C469A4636F908
:10037000023F03EB830203EB4203344630460A217B
:1003800030F9025D34F9022F01FB053301FB023322
:100390000139F5D1734561DC4B4501DA9946BA461E
:1003A00001374745E3D14CF250339E4560465446F1
:1003B000DDF810C0DDF814A0BFDD2B4B9945BCDA89
:1003C000BAF1000FB9D0019B002BB6D0029B119A55
:1003D0001B884FEACC0CDB0042B1634504D2D94301
:1003E00051446144B1FBFAF1119A1160109A002A4C
:1003F000A5D0039A002AA2D0024602990E3231F803
:100400001210B3EBC10F4FEAC10005D2DB435344D6
:100410000344B3FBFAF3D21A2046029B0E3033F8A2
:100420001030BCEBC30F4FEAC30106D9019C631E19
:1004300063445B1AB3FBF4F3C01A002AFFF67DAFE6
:100440000028FFF67AAF82423FF777AF109BA0EB10
:10045000020AC3F800A0039B1A6070E79E46BC46E0
:100460009EE700BF12FDFFFFB03CFFFF704700BFDB
:1004700070B4124E124D00F1BC04002143680B44CD
:10048000024640F8043F12689A1AB24209DD50F859
:10049000042CA3F5C9237E3BA1F5C92103607E3955
:1004A0009A1AAA4206DA03F5C9237E3301F5C92157
:1004B00003607E318442E1D170BC70473F24030069
:1004C000C1DBFCFF07EE900ADFED1A6A9FED1A7A96
:1004D000F8EEE77A67EEA67AF4EEC77AF1EE10FA54
:1004E00001D5012920D09FED157AF4EEC77AF1EEFF
:1004F00010FA17D4B1EE0C7AF4EEC77AF1EE10FAD6
:1005000016D49FED0F7AF4EEC77AF1EE10FA0DD4FF
:100510009FED0C7AF4EEC77AF1EE10FA4CBF04208E
:100520000520704701207047002070470320704766
:10053000022070470AD7233B666646403333A34008
:1005400033334B410000944170B483B0114B9FEDA5
:10055000127A124E01930DF1050102AD0222012023
:10056000531EDBB2042B06EB83049ABFD4ED007A52
:1005700077EEA77AF0EE477AF4EE407AF1EE10FAD1
:1005800098BF1046A94202D011F8012BE8E703B04A
:1005900070BC7047020304050000000064120108EB
:1005A00070B48C8893680E898D79CA799A70003CF2
:1005B00018BF01249E801C705D70986070BC7047ED
:1005C0000368D0F8E820C0F8F0205A6818461047B1
:1005D000D0E90F23816B0069184700BF0068C3682A
:1005E000184700BF704700BFF8E700BF0068836886
:1005F000184700BFFAE700BFF0E700BF836910B5F6
:100600000446BBB10D4B93F828204AB963697BB10E
:100610000A4B0B4ADB6B0B4900209847002010BDAA
:10062000DB6B094A0749012098476369002BEFD12A
:10063000012010BDC369002BE4D1E7E7B40000201E
:100640008C490108704901085449010870B40169D6
:10065000B0F8422090F8383031F81220032B08BF50
:1006600082F4004240F2E51303FB02F31B0C826CA0
:10067000A3F589739BB21380828F31F812204AB19F
:10068000B0F8402031F81220012A03D9C26C0124AD
:10069000147002E0C26C00241470C48F428F31F8D1
:1006A000145031F81240B0F9441040F2E51202FB48
:1006B00005F2120CC2F5897213441BB2002BB8BFAD
:1006C0005B42D0E914651BB2A4F1010200689942B3
:1006D000B2FA82F24FEA5212ACBF00230123327009
:1006E00042682B7070BC104770B50446806978B1C1
:1006F000E36943B10F4B93F8282022B1DB6B0E4A1C
:100700000E49012098472068BDE87040836818476B
:10071000084D0B4AEB6B09499847E3693BB195F8E3
:10072000283023B1EB6B044A04490120984700208C
:1007300070BD00BFB4000020E0490108D0490108A5
:10074000B44901082DE9F047C26DD0F81880066958
:100750000023A8F8023004461D46137000F14C0730
:10076000994657F8043B03B3B3F838C0B3F8900088
:10077000B3F89210B3F8D82006EB400006EB410125
:1007800006EB420206EB4C0CC3E91301C3F8A420AC
:10079000C3F814C088F800501868D3F8DC2041680A
:1007A00083F8E490C3F8E02088470135EDB2042DCA
:1007B000D7D12068BDE8F04743681847704700BFAD
:1007C000704700BF704700BF704700BF52B101EBD8
:1007D0008202043850F8043F4B801B0C0B8004311C
:1007E0009142F7D1704700BF30B583B000EB4200B3
:1007F0000D4601A91C46FFF701FD019A22F00F02E8
:1008000004B12A430092014601226846FFF7DEFF49
:1008100003B030BD2DE9F04F87B0BDF84070DDF872
:1008200044A003EBC7077B8883B381460E4601EBE8
:10083000020800254FF0010B7A6852F8254062004B
:1008400092B2B242C4F301701DD342451BDA0128B3
:100850000CD0022836D0E8B1324B334ADB6B334937
:1008600000209847002007B0BDE8F08FBAF10003E0
:10087000A2EB060218BF012392B2C4F3034148461B
:10088000FFF7B2FF7B880135AB42D5D8012007B016
:10089000BDE8F08FC4F344530BFA03FC921BE2450E
:1008A00091B21ED30CF1FF331E4A0193CDF800A084
:1008B000D46B1F4A03900B461C49A047039807B00E
:1008C000BDE8F08F921BBAFA8AF35B0992B2C4F3C7
:1008D00003414846FFF788FF7B880135AB42ABD820
:1008E000D4E709EB410004A90393FFF787FC039BBE
:1008F0004FF0FF32C3F12003C4F3044422FA03F3A0
:10090000049AA34022EA03020AFA04F401461443BB
:1009100005A801220594FFF759FF7B880135AB42FA
:100920008AD8B3E7B4000020344A0108284A0108F5
:10093000F04901082DE9F04FC2F51D669A461B6883
:10094000164C0E36B34298BF9EB2154B054688BF73
:10095000B6B2500803EB800083B017467208884691
:10096000023DFFF733FF04F1E10904F1E40B7D23BD
:1009700001E014F8013F35F8022F3946CDE9003285
:1009800040465B463246FFF745FF4C4501D0002804
:10099000EFD1CAF8006003B0BDE8F08FF00901089C
:1009A000703401082DE9F04F02EB420C00EB8C0C87
:1009B0008DB000268346824680466746B14603A82E
:1009C0004FEA890586469FED577A43466AB19C19DE
:1009D0002C44D4ED007A1C46D4ED006A0C3367EE4B
:1009E000A67ABB4237EE277AF1D104350C2DAEEC56
:1009F000017AE8D109F10109B9F1030F00F1100002
:100A000008F10408A6F1040607F10407D8D19DED0A
:100A1000046ADDED055ADDED086A68460BF10C0449
:100A2000DFED407A53463AB11D4695ED007A0C331E
:100A3000634577EE877AF7D10AF1040AA245E0EC24
:100A4000017A0CF1040CEBD1DDED037AF5EE407A7E
:100A5000F1EE10FA10D0B7EE007A87EE274ADDEDFE
:100A6000077A66EE044A26EE245A77EEC57AF5EE4A
:100A7000407AF1EE10FA06D100200023CBF80030C6
:100A80000DB0BDE8F08FC7EE272A65EE843A25EE5B
:100A9000A47A66EE237A9DED0B5A76EEE77A36EE6F
:100AA000C77A67EEA27A65EEA36A75EE666A27EEEC
:100AB000275A76EEC56AF5EE406AF1EE10FADBD001
:100AC0009DED005A9DED013A9DED022A64EE854AA6
:100AD00063EE853A73EE644A012067EEA47A002340
:100AE00072EE677A77EEE33AC3EEA67A27EE277ABC
:100AF000C1ED027A34EEC77A65EEA75A67EE227A24
:100B000026EE276AC1ED017A35EE466A76EE655A21
:100B100025EE844A81ED004ACBF800300DB0BDE8E7
:100B2000F08F00BF000000000028B8BF404270B442
:100B3000BABF00B20124002400293FDB884238DB21
:100B40000022034668B30846002643F62845000401
:100B5000B0FBF3F1A9424AD946F2D633994236D9CD
:100B600048F67203994244D94AF64943994242D918
:100B70004DF2A303994240D94FF24B73994298BF6B
:100B8000052025D94FF24C7548F233234CF2A3408F
:100B9000491B03FB01F100EB114016B1C0F5C93050
:100BA0001F3014B1C0F549303F3002B1404270BC33
:100BB00070470B46C1B912480A46F2E7494209B2EA
:100BC00088424FF00102BCDA0B461646BDE7012011
:100BD0000C4B03EBC00503EB8003D5F88C08D3F86E
:100BE000C038D5F88858D3E700220126ADE70020A9
:100BF000EEE70220ECE70320EAE70420E8E700BF85
:100C00001F920100F00901082DE9F04F1E4EDFF898
:100C10008480814615460FCE91B002AC0FC40FCE32
:100C20000FC40FCE0FC496E8030098F82830012BAC
:100C300084E8030007D9D8F83C40144A14490095C9
:100C40004B460220A047DFF850B0DFF844A002ACCA
:100C500010AE02E00834B44213D0A3881D42F9D08C
:100C600098F82830012B5A464B4651464FF0020067
:100C7000F0D9276800970834D8F83C70B847B442D8
:100C8000EBD111B0BDE8F08FCC120108C44A0108C5
:100C9000E04A0108B4000020F44A010830B50A4CCB
:100CA00094F82850012D85B00BD9CDE901120346E7
:100CB000A1F58C7080B20090E46B044A04490220D4
:100CC000A04705B030BD00BFB4000020084B0108AC
:100CD000E04A010830B50346A1F16204104814F05F
:100CE000010FA5B285B090F828400CD1012C08D98D
:100CF000CDE901126D080095C46B0A4A0A49022029
:100D0000A04705B030BD012CFBD9CDE901126D081B
:100D10000095C46B054A04490220A04705B030BDC8
:100D2000B4000020304B0108E04A0108684B01087C
:100D300030B5094C94F82850012D83B009D97D397C
:100D400089B2CDE900120346E46B044A044902204B
:100D5000A04703B030BD00BFB4000020A04B010885
:100D6000E04A010810B5084991F82840012C82B0EA
:100D700008D902F00F020092CC6B044A04490346E2
:100D80000220A04702B010BDB4000020D04B0108E3
:100D9000E04A010830B5094C94F82850012D83B081
:100DA00009D92C3989B2CDE900120346E46B044A13
:100DB00004490220A04703B030BD00BFB4000020AA
:100DC000F04B0108E04A010830B50C4C94F828506B
:100DD000012D83B010D91146094DE46B094A11F475
:100DE000006F03460848C1F30A0118BF2846CDE941
:100DF000000106490220A04703B030BDB400002026
:100E0000204C0108284C0108184C0108E04A010850
:100E100010B4084CA48D490864088C4228BF0C46C5
:100E2000023C24F00104043010601C605DF8044BA7
:100E3000704700BFB4000020F8B50688002A14BF30
:100E40004FF480524FF40052B6F59C6F38BF4FF408
:100E50009C66B24205460F461C4623D2134B144AE9
:100E6000DB6B1449002098474FF0000E1249134ADB
:100E7000134BE360C4E901120FCD203676004FF02A
:100E8000000CA4F802C004F1300C24F8106B0FC45D
:100E900095E80F0007C497E8030023808CE803005F
:100EA0007046F8BD4FF0010EE0E700BFB40000202F
:100EB0003C4C01085C4C01080100020003001B00CF
:100EC0001C00200010B1024B5B6B1847704700BF3D
:100ED000B40000202DE9F04107680446C7B1D7F8F7
:100EE000980080B100F14C0500F15C064FF000085D
:100EF00055F8040B18B1FFF7E5FF45F8048CB5422F
:100F0000F6D1D7F89800FFF7DDFF3846FFF7DAFF94
:100F10002046BDE8F041D5E7DFF864C02DE9F04791
:100F2000DCF840501DB12B46BDE8F047184712B31E
:100F30005200A1F10208A2F102090E469A460746A4
:100F40004944444634F8025F6DBA8C422580F9D199
:100F5000DCF8384038463146A047BAF1000F01D1DD
:100F6000BDE8F0874E4438F8023F5BBAB045A8F8B8
:100F70000030F8D1F4E7BDE8F047DCF83830184726
:100F8000B400002070B5012584B041F4A0430446AC
:100F9000164603A92A4601A8ADF808300196ADF817
:100FA0000A50FFF713FC204602A900230422FFF792
:100FB000B3FF04B070BD00BF30B583B041F48054BE
:100FC00015460023022201A9ADF80440ADF80650F1
:100FD000FFF7A2FF03B030BDF0B40C4DAF8D9E1CE7
:100FE000B7EB460F05D2EB6B094A0A49F0BC00206B
:100FF0001847144641F4A041013B1180538021461B
:1010000026F000420023F0BC86E700BFB4000020B9
:10101000704C0108904C010810B520B10C4B0268CF
:101020009A42044607D00B4B0B4ADB6B0B49BDE8D9
:10103000104000201847406818B1C3689847002343
:101040006360002323602046BDE810403AE700BFFC
:101050000DB03713B4000020A44C0108C04C0108A7
:1010600008B5044B044ADB6B044900209847002074
:1010700008BD00BFB4000020CC4C0108E44C0108BE
:1010800070B520B10B4B04460068984207D00A4B5C
:101090000A4ADB6B0A49BDE8704000201847032A62
:1010A0000D46164602D9FFF7DBFF10B104EB06141C
:1010B000A57470BD0FB03713B4000020EC4C0108CC
:1010C000E44C010818B1064B02689A4205D0054B62
:1010D000054ADB6B05490020184780ED120A70476E
:1010E0000FB03713B4000020EC4C0108E44C0108A9
:1010F00070B520B10B4B04460068984207D00A4BEC
:101100000A4ADB6B0A49BDE8704000201847032AF1
:101110000D46164602D9FFF7A3FF10B104EB0614E3
:10112000A58170BD0FB03713B4000020EC4C01084E
:10113000E44C010870B520B10B4B0446006898429E
:1011400007D00A4B0A4ADB6B0A49BDE87040002011
:101150001847032A0D46164602D9FFF781FF10B142
:1011600004EB0614E57470BD0FB03713B400002013
:10117000EC4C0108E44C010838B520B10B4B026877
:101180009A42044607D00A4B0A4ADB6B0A49002000
:101190009847002038BD03290D4603D9FFF760FFAB
:1011A0000028F7D004EB0514608938BD0FB0371361
:1011B000B4000020EC4C0108E44C010870B520B1EB
:1011C0000B4B04460068984207D00A4B0A4ADB6B77
:1011D0000A49BDE8704000201847032A0D4616460C
:1011E00002D9FFF73DFF10B104EB0614658170BD15
:1011F0000FB03713B4000020EC4C0108E44C010898
:1012000038B520B10B4B02689A42044607D00A4B0E
:101210000A4ADB6B0A4900209847002038BD0329A1
:101220000D4603D9FFF71CFF0028F7D004EB051487
:10123000208938BD0FB03713B4000020EC4C0108F2
:10124000E44C010870B520B10B4B0446006898428D
:1012500007D00A4B0A4ADB6B0A49BDE87040002000
:101260001847032A0D46164602D9FFF7F9FE10B1BA
:1012700004EB0614258170BD0FB03713B4000020B5
:10128000EC4C0108E44C010838B520B10B4B026866
:101290009A42044607D00A4B0A4ADB6B0A490020EF
:1012A0009847002038BD03290D4603D9FFF7D8FE23
:1012B0000028F7D004EB0514606838BD0FB0371371
:1012C000B4000020EC4C0108E44C010870B520B1DA
:1012D0000B4B04460068984207D00A4B0A4ADB6B66
:1012E0000A49BDE8704000201847032A0D461646FB
:1012F00002D9FFF7B5FE10B104EB0614656070BDAE
:101300000FB03713B4000020EC4C0108E44C010886
:1013100008B518B1074B02689A4207D0064B074A36
:10132000DB6B074900209847012008BD90F8520068
:1013300008BD00BF0FB03713B4000020EC4C01080B
:10134000E44C010818B1064B02689A4205D0054BDF
:10135000054ADB6B05490020184780F8521070479A
:101360000FB03713B4000020EC4C0108E44C010826
:101370002DE9F84F164C0A9EA78D043A043F5208F7
:101380007F0897420D468146984628BF174601F1CF
:10139000040A0024331BBB4228BF3B466FEA84414A
:1013A0005A1E6FEA91419B466A8029805A0008EBD9
:1013B000440150461C440EF04BFB0BF1020200238B
:1013C00029464846FFF7A8FDA642E3D8BDE8F88FB6
:1013D000B40000202DE9F04F254C85B00026CDE962
:1013E0000266B4F82C8001928946002B3AD04FEA6D
:1013F00058088346A8F104089A460D461F4626E081
:10140000019B48F200019A192980631E4FF00001E8
:10141000E9806A80AB806200002105F108000EF0CF
:1014200031F8294601235846221DFFF775FD02AB0E
:1014300003CB26446960286009EB460559F816007D
:10144000696802AB564503C3A7EB04070AD2B84547
:10145000444628BF3C46B845D2D200E0013CE307F1
:10146000FCD4CDE709F1080005B0BDE8F08F00BF5E
:10147000B40000202DE9F04F02EBC30689B0738859
:10148000129F4BB38046894600254FF0010B7368CD
:1014900053F82540C4F3017001280CD0022833D042
:1014A000F0B1344B344ADB6B3449002098470020BC
:1014B00009B0BDE8F08FA3B2194659F8232022F0F5
:1014C0000F0217B1C4F3034422434046FFF75AFD0D
:1014D000738801359D42DAD3012009B0BDE8F08F51
:1014E000C4F3445A0BFA0AF39F4216D3214A0097D9
:1014F000013B019321490390A3B2D46B204AA0473A
:10150000039809B0BDE8F08FA3B2194659F823201B
:1015100022F00F02002FD8D1D4E7A3B243F4204C1D
:1015200003930522012305A9ADF81800CDF81A0090
:101530004046ADF814C0ADF816B0FFF7EDFC04A9B5
:101540000DF11A00FEF75AFECAF1200A4FF0FF33E0
:10155000C4F3044423FA0AFA049B03990AFA04FA2E
:1015600023EA0A0207FA04F422434046FFF70AFD81
:10157000AEE700BFB40000203C4D0108284A010836
:10158000044D010870B5094E336B05469847044673
:1015900028B12A4600210DF075FF204670BDF36B7F
:1015A000034A04499847204670BD00BFB40000209C
:1015B000644D0108744D010870B52C49A3226820C0
:1015C000FFF7E0FF044600284AD0294A29490123B1
:1015D000C0E9002356225C20FFF7D4FF054630B156
:1015E000254B40F8043B254958220EF031FA244B94
:1015F00024482549254A2564E36440F201156363C4
:10160000A06101231820A162E2622149214AA4F8C5
:10161000445084F84630002584F862302375A4F8DD
:1016200048004FF07E531C48616622654FF480717C
:101630001A4A1B4E84F85850E0654FF07C55194803
:10164000A4F8601022614FF08041174AE361174B04
:10165000666525626062A163E2632363204670BD14
:10166000134B144ADB6B01499847F7E7844D010897
:1016700002B13713E44C01080FB03713041301080B
:101680009A99993E6666A63FCDCC4C3E9A99193EF2
:101690000000A04100002040000040410300000184
:1016A000100020000000C0400000A04000002041C9
:1016B000B4000020984D010808B52DED028BB0EE66
:1016C000408A0BF015FFDFED087A70EE277AB4EE52
:1016D000E78ABDEC028BF1EE10FAC4BFF7EE007A98
:1016E00030EE270A08BD00BFACC527370138C0B2AD
:1016F000042801D90020704708B5294B9FED297AAD
:1017000003EB8000D0ED006AC6EE877AB3EE087A6C
:10171000F4EEC77AF1EE10FA2DED028B0FD4FCEE49
:10172000E77A214B17EE902A90B2A3FB0030000914
:1017300000EB4000C00080B2BDEC028B08BDF5EEAE
:10174000C07AF1EE10FA1DDD87EE278AB0EE480A66
:101750000BF0CEFEDFED157A70EE277A1820B4EE8E
:10176000E78AF1EE10FAC4BFF7EE007A30EE270AEE
:10177000BDEC028BBCEEC00A10EE103A9BB2B0FB7F
:10178000F3F008BDFCEEE77A182217EE903A9BB210
:10179000B3FBF2F303EB4303D80080B2CCE700BF06
:1017A000641201080AD7233BABAAAAAAACC5273703
:1017B0002DE9F04F2DED0C8B82469DB090F84E40F8
:1017C00090F84C000C90042CBAF848000A9005914F
:1017D00090461F461AD8DAED107AF5EEC07AF1EE8F
:1017E00010FA00F1E9819AF85630DFF8C090002B2A
:1017F00000F0EB819AF84B30002B00F0E681274A8D
:10180000D9F83C3026490020984707E0DFF89C9043
:10181000244AD9F83C30224900209847DAED117A61
:1018200099ED117AF5EEC07AF1EE10FAB8EE478A2A
:1018300040DDC8EE278AF6EE007A78EEA78A0A9B8A
:10184000002B3CD107939AF84A300193002B3ED1EC
:101850009AF85030022B41F0EA809AF84E40012C61
:1018600000F0C6820024329A019B1471A8F8AC41A2
:10187000002B32D09AF84F30012B00F0AD87022BAD
:1018800000F09987002B00F0B587D9F83C30064A64
:10189000034900209847002301931EE0FC4D0108F6
:1018A000D44D0108B84D0108B84E0108B40000201D
:1018B000000000000A9B5FED028A002BC2D09AF85C
:1018C0004E3007939AF84A300193002BC0D0329AD9
:1018D000002313710193A8F8AC31059C002C4AD069
:1018E0002389B4F88610B4F88420B4F88200A8F8EC
:1018F00004109B00B4F88810A8F802209BB203F1F2
:101900003002A8F800006088A8F80610A188A8F89E
:10191000080092B2E088A8F80A106189A8F80C00C3
:101920005F2A208CA8F80E10618CA8F81210A8F875
:10193000100040F22282C649A1FB0201890901EB95
:101940004101A2EB411189B200201A4605460B461F
:1019500001210324A8F814300023A8F81620A8F8C1
:101960001810A8F81C50A8F81E00A8F82010A8F815
:101970001A40A8F822300199002201237A80BA8106
:101980007B81002901F0438015460692039207F1FE
:101990000E0308F13E029FEDAFAADFEDAFAADFED27
:1019A000AF9A9FEDAF9ACDF808A0D346CDF810902E
:1019B00008F146060992CDF82080BA469946079A62
:1019C000EBB29A4200F25881099A0023A9F800303C
:1019D000A9F8083022F815300135042D09F1020963
:1019E0000BF1100B06F15606E9D157460A9AB98950
:1019F0007B89BDF81800DDF82080DDF81090DDF857
:101A000008A0029011FB02F189B20B449BB25A1C50
:101A10001FFA82FEB8F8ACC1BCF1010F04D1039AE1
:101A20000A9800FB02F203929AF85220BAF8540086
:101A30009AF853509AF85640A8F89E21039A4FF608
:101A4000FF7B5A454FEA500628BF5A460338A8F88C
:101A5000A801033E0298A8F8AA6185F0010592B298
:101A6000A8F8A651A8F8A001A8F8A421B981BB80C4
:101A7000A7F806E0002C00F06081413340213B8054
:101A800039810124059BA8F8C04113B19B89A8F8AE
:101A9000C231019B002B40F05A81329ADAED105A84
:101AA000002313600C9BA8F8B2310A9B012B40F273
:101AB0004881BAF848300122023BA8F8AE31A8F8B4
:101AC000B0219FED687A9FED686A28EE077AF1EE03
:101AD000007AC7EE066A68EE277AF5EE405A87EE7E
:101AE000867AC8EE067AB6EE006A76EE866A37EE39
:101AF000067AFCEEE66A77EE867A16EE902ABCEE5F
:101B0000C77AF1EE10FAFCEEE77AA8F8B82117EEE2
:101B1000102A14BF01230023A8F8B621A8F83830F2
:101B200017EE902A019BA8F8B421002B00F0F18059
:101B3000F5EE405AF1EE10FA0CD0C8EE257A37EEE9
:101B4000866AFCEEC67A17EE903A1A0CA8F83C307A
:101B5000A8F83A20DAED117A9AF84A309AF84B2030
:101B6000A8F83030F5EE407AF1EE10FA14BF0123F8
:101B70000023A8F83220A8F82A3008D0FCEEE87A32
:101B800017EE903A1A0CA8F82E30A8F82C209AF8E4
:101B900051300198A8F8BE31012140F2FF7240F6A1
:101BA0000103A8F82410A8F8BA21A8F8BC311DB088
:101BB000BDEC0C8BBDE8F08FDFF8B8902B4AD9F85C
:101BC0003C302B490020984728E69AED117AD9ED50
:101BD000116AB5EEC07AF1EE10FAB8EE668A16DD3B
:101BE000C8EE078AF6EE007A78EEA78A00F1F9804F
:101BF00018EE900A0AF00EFC012908BF002880F0B8
:101C0000F0809AF84A30002B40F0E28008E000F1C2
:101C1000E6809AF84A30002B40F0CD80DFED0F8A45
:101C20009AF84F109AF850200A98002814BF2046BE
:101C300000209142079000F2FD83002B40F00387C3
:101C4000022A00F0FC86329A1371A8F8AC3111E632
:101C5000ABAAAAAA2549123ECDCC4C3E00000000FA
:101C60008FC2753D0000964300247449E84D010879
:101C7000D44D0108B4000020099A012322F8153040
:101C8000029BBBF8082093F84C8040F2FF1140F211
:101C9000FF33B8F1000F18BF0B46E2B19A421AD8D1
:101CA0009BF80D30002B6CD19BF80F309BF80E0089
:101CB000002840F05383012B00F0B280DDF8109033
:101CC0004F4AD9F83C304F49DDF820805746DDF8BF
:101CD00008A098470CE0DDF810904B4AD9F83C304A
:101CE0004849DDF8208000205746DDF808A09847D5
:101CF0000A9AB9897B89BDF81800029011FB02F19C
:101D000089B20B449BB25A1C1FFA82FE0022019238
:101D100080E6DAED117A9AF84A309AF84B20A8F862
:101D20003030F5EE407AF1EE10FA14BF01230023B3
:101D3000A8F83220A8F82A3029E73C81A7F800E06B
:101D4000A0E60023A8F8AE31A8F8B031B9E69AF8B9
:101D50004D10072927D82D4B9FED2D9A0B4493F852
:101D60009039A8F8A231329B83ED009A079B002B93
:101D700040F03284DAED105A94E603200125002168
:101D8000E7E59BF80F30022B90D1DDF81090214A47
:101D9000D9F83C301B49DDF8208000205746DDF89B
:101DA00008A09847A4E7329ADAED105A002313608E
:101DB0000023019376E6B5EE407AF1EE10FA05D1F4
:101DC000F5EE407AF1EE10FA40F08385DFED108AEF
:101DD000D9F83C30104A0B49002098472FE5DFED39
:101DE0000C8AD9F83C300D4A06490020984726E570
:101DF0009AF80F30013B012B3FF635AD32E500BFBD
:101E0000344F0108D44D0108F84E0108F0090108CB
:101E100000000000084F01083C4E0108284E010850
:101E2000B84BBBF8067003EB8000182FD0F86C3964
:101E30000E93BBF804300D9340F2128307EB870337
:101E400003EB031303EB032307EB4303C3F3CC02BE
:101E500042EA43339BB240F6AA22934200F2D88270
:101E6000A94BA3FB07231B090F93013B9BB21493C0
:101E70005C23109318230B930D98002840F04B849B
:101E8000049BA24ADB6BA2499847B8F1000F00F00F
:101E9000CF824FF000080222DBF800300E9919447F
:101EA0000C4601F5C3430D99283311FB02F2481E7D
:101EB0004CF2503192B28B420D9207FB004707D98A
:101EC000049B944ADB6B9249002098474FF000082E
:101ED00007F5C34328334CF25032934207D9049B91
:101EE0008D4ADB6B8A49002098474FF00008002C90
:101EF000C0F26983894BE11783FB0423C1EBA30381
:101F00001AB2002FC0F25583844B83FB0730FB17B6
:101F1000C3EBA0000E9300B2804B83FB043C92B253
:101F2000C1EBAC01801A01EB41010F9B1592B4EBA0
:101F3000C10182B2B2FBF3F203B202F101021693C5
:101F40004FF018000B9BB0FBF3F01FFA82FE00F17C
:101F500029830FFA81FC89B2704B0B9A83FB0734FB
:101F60000E9BC3EBA40303EB4303B1FBF2F402FBB0
:101F70001414A2B2B7EBC3030E9200F10D831AB290
:101F800019929BB2013882B20E9C0B981A9212FBE6
:101F90000040BEF1010F80B200F08E82C41A0E9B89
:101FA00018BF01248B4214BF01230023AEEB0302B0
:101FB000A2EB0402A3B2119497B2179340F084826B
:101FC0000023189313931B930E9B89009B00B187EA
:101FD000F387B8F1000F00F058829BF80E30052B04
:101FE00000F23884474A02EB4303B3F880395A08B9
:101FF000A3F14A00D91E033A80B2143B92B289B2CF
:102000000F901293159B1698B186C3F129040F9B6C
:10201000F2861C4423B215931B1A292BA4B207DCA9
:10202000049B3F4ADB6B3A49002098474FF0000879
:10203000129B159A934207DC049B3A4ADB6B3449A6
:10204000002098474FF000080F9B3387109B748740
:102050002C2B40F261820023A6F85030A6F85230B3
:10206000A6F85430149BA6F84E30189BA6F84830BA
:10207000002F00F035820123A6F84A30139B179AEF
:10208000A6F84C20002B00F0F9831B9BA6F84230E9
:102090001A9BA6F84430119B002B00F0EB83199B90
:1020A0000E9A9C1A0B9B94FBF3F4A6F846407A1EFA
:1020B00097B2A6F84070B8F1000F3ED09BF80A30F6
:1020C000172B00F2BF81092B00F29A83C3F1090399
:1020D0001522738032800599002900F0748172887E
:1020E0009BF80F3001EB4202013B9289B280042B36
:1020F00000F2B084DFE813F018002601180109018E
:10210000290000BFF0090108ABAAAAAA804F010864
:10211000D44D0108CC4F0108E04F0108ABAAAA2A10
:102120001450010834500108059B9A8C04210023A7
:10213000082A7385318540F227815746DDF82080D3
:10214000DDF808A0DDF81090D2E54FF00008C64693
:1021500043464FF4F0504FF478544FF4F86202279E
:102160004FF00B0C0821B281F281029AA6F82AC026
:102170003785318134827181708292F84D20B8F1B7
:10218000000F00F00F81002B00F00C81022A00F2FA
:102190000C81C1490A4492F88C29B282059A002A1E
:1021A00061D006F1140200200121308311820599CB
:1021B0000E93C86E0B908C6EDDF82CC0D1F8648045
:1021C0000F940027394604EB1743A3EB080373452C
:1021D00088B2674401F1010180F209840F29F2D12C
:1021E0000E9B08460599CF6FD1F878C0D08007EBD9
:1021F000870405200CEB1441C91A00F1010E3C4480
:1022000040F196831FFA8EF01428F3D1DDF8109078
:10221000A24AD9F83C30A249DDF820800020574678
:10222000DDF808A0984763E59B490A4492F8902995
:10223000B282059ABAB10022328306F11402B8F1D3
:10224000000F40F07781A6F82480A6F81A80A6F83F
:102250001680A2F80880A2F80E80A2F80A80A6F8DC
:10226000208000235382BBF808009BF80B203286A5
:10227000012800F0C9800121831EF185B3859BF8F8
:102280000D10BAF80C30F18081F0010171860D99C2
:10229000A9F80030A9F808100B449BF80F10AAF811
:1022A0000C300129338D6CD002290CBFB0EE496A85
:1022B000B0EE696A01339BB207EE103ABBF8043006
:1022C000B8EE477A07EE903AF1EE006A27EE267AEA
:1022D000F8EE677A06EE900A67EE277AF8EE666AFD
:1022E000069B67EEA67A194667EE867A002B08BF32
:1022F000114667EE8A7A039B0691FCEEE77A17EEA9
:10230000902A13440393FFF767BB4FF00008C646BB
:1023100043464FF4C0604FF460644FF4E07202270C
:102320004FF0060C08211EE74FF00008C646434652
:102330004FF400704FF4C064C02202274FF0040C29
:10234000082110E700204FF40074402203274FF0CB
:10235000020C08214FF0960EFA2304E7581EC0B273
:1023600004287FF65DADDDF810904E4AD9F83C3078
:102370004B49DDF8208000205746DDF808A098473B
:10238000B6E4B0EE6A6A95E74021328172814FF47B
:102390000070029A7382B181F181308292F84D20EF
:1023A00098469E46072A7FF63FAFDDF810903E4ADA
:1023B000D9F83C303A49DDF8208000205746DDF856
:1023C00008A0984794E49BF80F30059AB280013B2F
:1023D000042B00F23F8301A252F823F0F1230008FE
:1023E00045230008292300080B2300084B2100087F
:1023F0004FF000084046C446C64643464FF40074BA
:10240000402204270221AEE60023F385B38536E798
:10241000049B264ADB6B224900201490044698470F
:102420000123CDE90F340B93B8F1000F7FF431ADE8
:10243000042231E5D9F83C301D4A1949002098475B
:10244000FFF701BADDF810901A4AD9F83C30144968
:10245000DDF8208000205746DDF808A0984747E4C3
:10246000002FD5D01823B3FBF7F307FB03F3C3F119
:1024700018039BB21493002BCAD17B1E9B009BB206
:10248000109301230B970F93F6E46C2312933623DA
:102490000F933D227D21B5E5F00901088450010824
:1024A000D44D01085C4F0108645001086C4F0108CD
:1024B000684E01084C5001088C4200F09B820022BB
:1024C0001792184617461192019B1393A0EB0C002C
:1024D0000B9B90FBF3F00123189383B21B9373E5DE
:1024E000179BA6F84C30139BA6F84A70002B00F0FF
:1024F000C9811B9BA6F842300023A6F84430119BEB
:10250000002B00F0A381199B0E9A9C1A0B9B94FB45
:10251000F3F4A6F84640CCE5109B1E2B40F28981CF
:10252000A3F11E020F23A6F85420A6F85030A6F8F7
:10253000523097E501211182002B7FF438AED38011
:1025400053801381D38153811F4605990024D1F80C
:102550005CE0D1F86080214602E016293FF456AED7
:102560000EEB1440C01B1FFA81FC444401F1010131
:10257000F3D4BCF1000F0CD05BB90CF1FF339BB26C
:1025800008FB03F80EEB1848A7EB08084045C8BF46
:102590009C46A6F820C064E603F1180422B2A3B258
:1025A0001992EFE401F1180C1FFA8CF10FFA8CFC70
:1025B000D2E4CF4BF843A3FB00306FEA1010FB17B7
:1025C00000B20E93A8E4CA4BE243A3FB02236FEAD6
:1025D00013131AB2E11794E4BCF1010F00F0688103
:1025E00007EE902A9FEDC3AAB8EE67CAB7EE089A25
:1025F000F2EE02CAD9ED117A9FEDBF0AF8EE679AA2
:1026000080EE290A0AF074FF9AF85030022B69EE26
:10261000809A00F23A81B94A9AF84E1002EB830090
:1026200090ED00DAD0ED03BA002900F0FD81019AA7
:10263000DFEDBEDAB24E9FEDB3BADFEDB3AA0027ED
:102640003D463AE04FF0300B08240AEB05039B7B34
:10265000052B47D8AD4931F8133007EE903AF8EE24
:10266000677A89EEA77A55449AF84E302889A98866
:1026700000FB044402346400A4B20137FDB2AB4253
:1026800007EE904A87EE2A6AF8EE677A07EE10BAEC
:10269000F8EE476A87EE867AC6EE865A07EE901AFB
:1026A000F8EE677A67EE277A77EEA57A77EE8A7A80
:1026B00077EE897A7DEEA7DA3FD90AEB05132D0173
:1026C000DB7B052B18D8022BBCD8012B1FD0022B8B
:1026D00012D10AEB05034FF03C0B9B7B052B4FF00F
:1026E0000A04B7D98A4AD9F83C308A490020984769
:1026F000F0EE4B7A0022B4E73246D9F83C308549F7
:10270000002098474FF0180B042400229DE74FF05B
:10271000480B0C2499E7B8F1000F40F0C6809BF8F5
:102720000C30002B00F0E080049B7B4ADB6B794986
:10273000404698470422FFF7AFBBB2B3DFED777A8C
:10274000DFED716A9FED767ADAED105A329B89EEF1
:10275000A75AF1EE0C7A85EE266A2CEE27CA7BEE9C
:102760008DBACCEE067AB0EE006A77EEACCA7CEE9B
:10277000ADDA7DEEABBA6BEE877A77EE867A77EEDE
:10278000ABBAC6EEAB7AF4EEE75AF1EE10FAC3ED4F
:10279000007A7FF787A9FDEEE77AD9F83C40614AD5
:1027A0005C4917EE903A0020A0470023DAED105A5A
:1027B0000193FFF777B90023A8F82630A8F828304E
:1027C0009AF85030012B10D0022B2BD013B3D9F82C
:1027D0003C30554AFFF75CB80022A8F82630A8F82C
:1027E00028209AF85030012BEED1C8F834300193EC
:1027F000FFF773B80123A8F82630A8F82830DFE7E0
:10280000102B94BFC3F11E03C3F1170300223380C2
:10281000728060E44FF00113C8F834300123019353
:10282000FFF75BB80023C8F8343001230193FFF7AA
:1028300054B8109B0F2B42D90F3B0F22A6F85230F1
:102840000023A6F85020A6F854300BE4119BA6F8FC
:1028500046302EE4049B2E4ADB6B2E49002098471D
:102860006C23129336230F933D227D214FF00008F5
:10287000FFF7C8BB119BA6F8463018E4139BA6F8D7
:10288000423005E4A6F8427036E6D9F83C30264AD4
:102890002049002098479AF84E30002B85D0DFED74
:1028A00023BA0022B0EE6BDAC2E60222FFF7F4BAD6
:1028B000B0EE49AAF0EE49CAB0EE49CA9AE6002342
:1028C000109AA6F85020A6F85230A6F85430FFF718
:1028D000C9BB9AF84F109AF85020DFED148A914244
:1028E0007FF476AAFFF7A0B9DDF80480A0E500BF69
:1028F000ABAAAAAA9A999D41F902154F881301081B
:102900005C4F010800000043002474497013010863
:1029100008500108D44D0108944F010800002043DD
:102920000AD7233CB0500108D84E0108000000002F
:1029300005280BD000F1FF3E1FFA8EFE07FB0EF4B8
:102940000CEB14441C1BA142C8BF704600210C466E
:1029500050801181D181084605991296096F0E9118
:1029600005990E9E496FCDE9101202E016283FF43A
:102970004DAC06EB1442D21A1FFA80FE0C4400F153
:102980000100F3D41146DDE91126BEF1000F0FD08E
:102990000EF1FF3080B21190DDE9100400FB04F469
:1029A0000E9800EB1440119C181A8142C8BFA6462D
:1029B000A2F80AE0718B0B9800FB01F001460F981A
:1029C00000EB1141B1EB08043FF520ACF08B1099FE
:1029D000B6F816E001FB00F1084607FB0EF10E9F6A
:1029E0000CEB114107EB104008440719ADE50E9BB5
:1029F000FFF7F8BB98420CBF012700270FD1002337
:102A0000CDE91733119313931B93FFF7DDBA019AA6
:102A100002924FF0020E11460392FEF7FBBF002216
:102A20001792184611924FE55FED40DA86E6329B29
:102A30001A46019B1371A8F8AC31FEF74EBF012373
:102A40000193FEF70CBF329A00231371A8F8AC3142
:102A5000FEF710BFDDF81090DDF82080D9F83C308B
:102A6000084A094900205746DDF808A09847562330
:102A700003FB05830022A3F87020A3F86E20FFF764
:102A800037B900BF5C4F0108D44D010870B5FEB0E6
:102A900004464FF4E2720D460DA8002103AE0CF07F
:102AA000F1FC0DAA204605AB00960021FEF780FE42
:102AB00008B97EB070BD94F84B202B46314605A86E
:102AC000FEF7BAF9F5E700BF08B5144B9FED140AFD
:102AD0002DED028B93ED118AB8EE488A08EE900A2C
:102AE00080EE080A0AF004FD28EE000AB3EE088A18
:102AF00020EE080AB7EE007AC7EE007AF8EEE88A10
:102B00009FED087A67EEA87ABDEC028B67EE877AB4
:102B1000B6EE000A27EE800A08BD00BFB400002010
:102B2000F902154FC2F38E4D2DE9F0412DED028BC8
:102B30000D460646FEF7ECFB0746002840D0002471
:102B4000A04621463046FEF75BFB00EB08039BB234
:102B5000AB4228D9A5EB0805ADB221463046FEF7B9
:102B600093FB08EE100A0120FFF7AEFFB8EEC88A0B
:102B70002146304668EE008AFEF7FEFA07EE900A1C
:102B8000B8EE670A07EE905AB8EE678A012028EE81
:102B9000008AFFF799FF28EE000A30EE280ABDEC04
:102BA000028BBDE8F08121463046FEF729FB013457
:102BB000E4B24044A7421FFA80F8C2D10025CCE716
:102BC00004460546C9E700BF08B50138C0B204286D
:102BD00098BF194B2DED028B98BF03EB8000B0EE30
:102BE000408AB0EE600A94BFD0ED008ADFED138A10
:102BF0000AF02CFDDFED127A20EE277AB2EE040AFD
:102C000077EE087A77EEE87AC7EE800A0AF054FD8C
:102C10000AF06EFCDFED0B0A0AF030FCF0EE400A21
:102C2000B7EE000A0AF00CFCBDEC028BBCEEC00A49
:102C300010EE103A98B208BDA01301080000000081
:102C4000000020420080FF43B0EEC07AF0EEE07A50
:102C50002DE9F04FB4EEE77AF1EE10FADFED776A86
:102C600058BFF0EE477A30EE607A67EEA67AB0EEA3
:102C7000C77A2DED068BB4EEE77AF1EE10FA98BF25
:102C8000DFED6F7A89B006464FF00500B0EE608A3E
:102C90001D469ABF30EEA78A4FF000094FF0010998
:102CA000F0EE408A88461746FEF720FD032D09EE18
:102CB000900A00F0B880042D00F0A980022D00F0E9
:102CC0009E8000224FF07E53039204930DF1100A70
:102CD00038EE687ADFED5B7A0AEB8502544601E054
:102CE000F4EC017A67EE277A944277EEA87A44ED05
:102CF000017AF5D145B305F1FF3B5FFA8BF39FED08
:102D000052AADFED52AA0DF1140B0BEB830B002539
:102D1000BAEC017AB4EEE87AF1EE10FA12DDF8EED0
:102D2000697AB0EE688A67EE8A7A002438EE278ADC
:102D30000134B4EEC78AF1EE10FAA4B2F6D464B945
:102D4000F0EE488AD345E3D1B9F1000F47D12846C8
:102D500009B0BDEC068BBDE8F08F88EE0A0A0AF0D8
:102D6000C7FB7A19D2B23068019205210135EDB264
:102D7000B0EE409AFEF7DEF9C8EE8A7A019A306822
:102D8000F0EE488A77EEAA7AFDEEE77A17EE901A0F
:102D9000FEF79CFA019A306819EE901AFEF70EFAC7
:102DA000019A30682146FEF74DFA98ED000AF0EEE0
:102DB000480A0520FFF708FF019A01463068FEF730
:102DC00097F9BDEEC99A052119EE103A18B2FDF730
:102DD00079FB019A01463068FEF752F9B2E77A1E94
:102DE00034682A44D2B2114620460192FEF708FA0E
:102DF000013081B2019A2046FEF724FAA7E70023AA
:102E0000134A03934FF07E53049205935EE7002329
:102E1000104A0393104B04920593104A06924FF008
:102E20007E53079352E70E4B0493002203924FF018
:102E30007E530C4A0592069348E700BF0000003419
:102E40000AD7233C000000000AD7233B17B7D1382C
:102E5000A4703D3FD7A3F03E3333333F52B85E3FBB
:102E6000713D0A3F295C4F3F2DE9F04FB0EEC07A2B
:102E7000F0EEE07AB4EEE77AF1EE10FADFEDA16A57
:102E80002DED088B58BFF0EE477A30EE607A67EE92
:102E9000A67AB0EEC77A87B0B4EEE77AF1EE10FA10
:102EA000B0EE409AB0EE60AA0646019190460393B8
:102EB00005D8DFED957A002330EEA7AA0393B0EE94
:102EC000490AFDF741FBB0EE4A0A0446FDF73CFB18
:102ED0008E4B4FF00332052CCDE9042300F0EF8038
:102EE00005284ED0012C00F00781022C00F0008153
:102EF0009DF81650A54214BF03240224012800F0B7
:102F0000F280022800F0F6809DF81670874214BF08
:102F100003270227C4F101033B445FFA83F9E3432B
:102F2000C1451F4405AB03EB0405214628BFC1463C
:102F3000002309E006AA1A44013302F8084CDBB268
:102F40004A1CD1B2042921D015F8014B844204F067
:102F5000FD021BD8994519D9012AEBD0022CE9D1E1
:102F6000A9EB030CCA19D2B25FFA8CFC0DF1180E52
:102F700094459E4403F10102E2D30EF8084CD3B20B
:102F8000DEE7012C00F0B1800420AEE7B9F1000FBC
:102F900000F08D804FF0000809F1FF339FED5CBA1F
:102FA000DFED5C9ADFED5CAA029345460DF1100A55
:102FB0001AF8017B3846FEF799FB029B434583468E
:102FC00067D09AF80020013AD2B2042A6CD853494B
:102FD00001EB8202D2ED007A77EEA77AF4EEC97A9D
:102FE000F1EE10FA5CDD07EE10BAB8EE477AB0EEFB
:102FF000498A27EE297A002438EE078A0134B4EE94
:10300000E78AF1EE10FAA4B2F6D488EE290A0AF0A3
:103010006FFA2A463068394608F10108F0EE408A16
:10302000FEF788F8C9EE297A2A46306877EEAA7A40
:10303000FDEEE77A17EE901AFEF748F92A46306857
:103040005946FEF7BBF82A4621463068FEF7FAF8E3
:10305000019BF0EE480A93ED000A3846FFF7B4FDF5
:103060002A4601463068FEF743F8FDEEE88A394605
:1030700018EE903A18B2FDF725FA2A4601465FFA93
:1030800088F53068FDF7FCFFA94510D9B0EE489AE5
:103090008EE7F0EE4A7AF4EEC97AF1EE10FAA2DC8D
:1030A000B0EE498A0024B0E7F0EE4B7A96E7039B36
:1030B0004BB9484607B0BDEC088BBDE8F08F05283A
:1030C0001CD0042414E7346809F1FF32D2B211464F
:1030D00020460192FEF794F8013081B2019A204611
:1030E000FEF7B0F8E5E7002714E7002404200BE71B
:1030F000012403E701270DE70024FFE60324042051
:1031000002E700BF000000340AD7233C0102030499
:10311000000000000AD7233B17B7D138641201081A
:103120002DE9F0412DED048B90F8623084B0044617
:10313000002B54D09FED988A90ED130A9FED979A3B
:1031400080EE080AFEF7B8FAF0EE408A94ED140A11
:1031500080EE080AFEF7B0FA68EE888A20EE088A48
:10316000B4EEC98AF1EE10FA40F2D880F4EEC98AC2
:10317000F1EE10FA00F3C48088EE090AFEF79CFA1B
:103180000AF0B6F904F1400704F16401002338465F
:103190000191FCEEC07AF0EE490A17EE906A013E0A
:1031A000F6B2032E28BF0326012E38BF0126C6F132
:1031B0000402B0EE680AD2B2FFF756FE0546019946
:1031C00033463846F0EE480AB0EE490A2A46FFF781
:1031D0003BFD2844C1B2206CFEF7B4F85DE090F8E6
:1031E0004430002B40F0B28090F8466090ED138A96
:1031F00094F84530002B40F09F80B4F84880DFED14
:10320000668A88EE280A0AF0D5F807EE908A94EDCF
:10321000147AF8EE677A37EE488A67EEA87ABDEE40
:10322000C07A88EE270A17EE107AFEF745FAF7EE15
:10323000007A30EE270A0AF05BF9BCEEC00A206C77
:1032400010EE103A01219DB2FEF77CF8206C0022AE
:103250003146FDF76FFF206C39460022FEF736F845
:10326000206C29460022FDF7EDFF0022206C41462C
:10327000FDF7A4FF28B2013810FB0870314600B2F8
:10328000FDF720F900220146206CFDF7F9FEB4F8A5
:103290005610206C0022FDF72BFF236C1BB1404A17
:1032A0001968914223D03F4D3F4AEB6B3F490020C4
:1032B0009847236C2BB13A491868B4F854208842D7
:1032C0001BD0EB6B384A39490020984794ED170A18
:1032D00094F86030206C84ED030A0BB19FED340A42
:1032E00004B0BDEC048BBDE8F041FDF7EBBE94F8F3
:1032F000582083F85320B4F85420A3F84C20E5E775
:1033000004F16401F0EE480AB0EE680A04230022DA
:1033100004F14000FFF798FC01465CE704F164010A
:10332000F0EE480AB0EE680A0123042204F14000DE
:10333000FFF79AFD01464EE7731EDBB2042B28D837
:103340001C4A02EB4303B3F8C48958E71A4B90EDCB
:10335000138A9FED177A1948029302A9012211F8E6
:10336000016B731EDBB2042B00EB830394BFD3ED20
:10337000007AF0EE477A77EEA77A0132B4EEE78A68
:10338000F1EE10FA92B2BFF633AF052AE7D101266B
:103390002EE74FF0010832E70AD7233B0AD7233F35
:1033A0000FB03713B4000020EC4C0108E44C0108C6
:1033B00000000000F009010805040302641201087E
:1033C000C0EE207A9FED107AF4EEC77AF1EE10FA93
:1033D00017D89FED0E0A08B527EE800A0AF0AEF85E
:1033E000F7EE007AB0EE676A00EE006A70EE006AEF
:1033F000B1EEC67A37EE400A46EEC07AB0EE670A02
:1034000008BD9FED030A7047A800003FDB0F49404D
:1034100000000000F8B595692B78B5F802E0144675
:1034200002EB43030F46B3F8446063690146720040
:1034300003EB4E000CF01AFBE26D698813780E4422
:103440006E8003B93B791370F8BD00BF2DE9F04FD2
:103450002DED048B90F838308DB007900393002B3E
:1034600000F0E7800798828F0469C38FB0F84C5052
:1034700034F91210099502465B00408F08900193C1
:10348000002D00F0D6801046526C836CB0F84E5080
:10349000B0F840B0DFED708ADFF8C8810A95D31824
:1034A000029300220901DB4305920B91049391469C
:1034B000B6EE009A029A6949134681FB0331D3178D
:1034C000C3EBA10101EB4101B2EBC101029A48BF7C
:1034D0001831002A09B2C0F2B580604880FB0202B0
:1034E000C3EBA20212B20B9B120482FB0356002D07
:1034F00076F1000304DA4FF6FF73ED1846F100068B
:10350000089B19442A0C34F9111042EA0642A2EB36
:10351000011207EE902AF8EEE79A69EEA89AB0EE4B
:10352000690A09F0FFFEB0EE408AB0EE690A0AF0BF
:1035300005F8BBF1000F6BD0079A136DB2F842A0EB
:1035400093F800E006930020054647F6FF7709E070
:10355000DDF80CE0E25201351FFA85FCE3455044EA
:10356000718052D9019A09EB50039BB202EB83039D
:10357000E618E25E07EE902AB6F9022006EE902ADF
:10358000F8EEE77AF8EEE66A27EE887A26EE806AA9
:1035900067EE807A66EE886A37EE467A77EEA67A2C
:1035A000B5EEC07AF1EE10FAF5EEC07A4CBF37EE08
:1035B000497A37EE097AF1EE10FA4CBF77EEC97A04
:1035C00077EE897ABDEEC77AFDEEE77A17EE10CA7C
:1035D00017EE901A17EE102AC445B8BF424641456F
:1035E000B8BF4146BA42A8BF3A46B942A8BF394619
:1035F000BEF1000FAED19445AAD117EE90CABCEB34
:10360000010E18BF4FF0010EA4E7069B83F800E0FF
:10361000059B029A01331FFA83F911460593049A18
:103620000A9B1944D31A0493099B02914B453FF618
:1036300041AF079B186843680DB0BDEC048BBDE833
:10364000F04F1847049B1A46054BA3FB02326FEA62
:10365000121212B247E700BF00008037ABAAAA2AB5
:10366000ABAAAAAA0080FFFF38B5524B93F82020DE
:103670000021012A83F8481000F08D801A68532138
:103680000225CA20012483F8215083F8204050628B
:103690005162916821F480619160D168C9B261F48E
:1036A0009061D160D168490664D51F21516191684C
:1036B000414821F0070141F003019160016841F4A4
:1036C00080110160816841F480118160916841F44A
:1036D000804191609168FF2441F4806101209160F4
:1036E000546283F8210093F84810002283F82020C8
:1036F00000295BD172B6BFF34F8FBFF36F8F93F882
:10370000482002B930BF62B6BFF34F8FBFF36F8F4F
:1037100093F84820002AEDD093F820200021012AB8
:1037200083F8481037D01868532201240225CA2193
:1037300083F8215083F8204041624262826822F47B
:1037400080628260826822F4804282605C6A04E067
:10375000596A091BB1F57A7F1FD8C26812F00402BA
:10376000F6D0FF2401220021446283F8201083F860
:10377000212038BD5C6AD16811F0040195D1586AE6
:10378000001BB0F57A7FF6D9FF240320546283F83A
:10379000201083F8210008F019FAFF240321446265
:1037A00083F8202083F8211008F010FA83F84820CD
:1037B000B9E700BFB4000020000401400F49104ADF
:1037C000486A13691B0704D50D4B1869C0F3C00084
:1037D00070474B6A1B1AB3F57A7FF5D272B613693C
:1037E0001B0700D430BF62B6BFF36F8F13691B078E
:1037F000EFD5034B1869C0F3C0007047B400002038
:1038000000040048154BDB68C3F3022310B4C3F176
:1038100007041A1D042C28BF0424062A4FF0FF3287
:1038200002FA04F28CBF033B002321EA0201994013
:10383000431C0AD000F1604000F561400901C9B2A3
:1038400080F800135DF8044B7047044B0901C9B2BE
:1038500083F823105DF8044B704700BF00ED00E0D3
:10386000F0B40568294F064601E0581C06D1EC6902
:1038700031EA0400F9D10020F0BC7047786A801A60
:10388000834227D333B328684407F0D5E86900059D
:10389000EDD54FF400632B6255E8003F23F4D0735D
:1038A00045E80032002AF7D1326802F1080353E8F4
:1038B000003F23F0010302F1080040E80031002935
:1038C000F3D12023B36786F87410F3670320C6F89A
:1038D0008030D1E755E8003F23F4D07345E800324B
:1038E000002AF7D1326802F1080353E8003F23F0C1
:1038F000010302F1080040E800310029F3D1202340
:10390000B36786F874100320F367B5E7B4000020AE
:10391000224A03460068904230B43BD8204A2149ED
:10392000214C1C640244A1FB0212120992005A6449
:10393000022283F8252001689D68D3E9052421F43B
:10394000FF4121F070012A430A43224342F08002E2
:10395000B5F5804F026014D0196C134A914208BF2C
:1039600012495A6C18BF124902F01C000F240A6851
:10397000844022EA04020A605A680C6882402243AA
:103980000A6000200122D86383F8240083F82520F0
:1039900030BC7047074A0349074CC2E7070402409E
:1039A000F8FFFDBFCDCCCCCC00000240A800024007
:1039B000A8040240F8FBFDBF000402402DE9F047D7
:1039C000724CD4F870C088B0BCF1000F5CD1236D8C
:1039D000B3F5827F01D0C4F868C094F8A930E16CD7
:1039E000002203F0FF056267002B59D0022384F800
:1039F000A9300B68A26D23F04003B2F5E06F0B60B5
:103A000046D800F0B9804FF4805700206067D4E9B1
:103A10001436E56DD4F864E006F4044603F48273CA
:103A2000334305F002052B43256E02F4706805F060
:103A30000105D4F880202B43D4E91A6502F008026E
:103A400042EA08024FEA1E480EF4007E08F004081D
:103A500043EA0E0306F0380642EA0802334305F053
:103A600080050CF0100C42EA0C0C2B4303434CEA8B
:103A70000707002001220B604F60C4F8AC0084F8F7
:103A8000A92008B0BDE8F0870023C4E91733A4E7F4
:103A9000B2F5706F76D1636F002703F40050B6E77C
:103AA0003B4B84F8A8509942CDE90355CDE9055523
:103AB00007959BD103F560434FF0E00C1A6E354E2D
:103AC00042F480521A661A6E02F480520292029AEE
:103AD000DA6C42F00102DA64DB6C059503F0010355
:103AE00001930322052303A902274FF09040CDE95B
:103AF00003C7CDE90623DDF804E007F09BF8264B69
:103B0000C4F8B8504FF001094FF0800A30464FF426
:103B100080784FF48067C4E92C39C4E93355C4E98F
:103B200030A8C4F8BC50C4F8C870FFF7F1FE0346D3
:103B300050BB06F148051949C4F8A4601022643E40
:103B40002846C4E9413AC4E94473C4F8FC90C4F877
:103B50000C81C4F81831C4F8D860C4F8F810C4F85F
:103B60000021FFF7D5FE78B9E16CD4F870C0C4F835
:103B7000A050C4F8206139E7636F4FF4805703F415
:103B8000005044E7002740E708F020F8B400002088
:103B900000300140640100201C000240300002405F
:103BA00070B54D4C94F881319EB0002B4BD0D4F8B9
:103BB0004031D4F84421D4F84C01242184F88111F7
:103BC000196822F0706221F0010119601A619A6887
:103BD000012822F400429A60D4F848212FD042F400
:103BE000044202289A6004BF4FF400625A60596888
:103BF000D4F85851D4E9542641F0007141F4004101
:103C000059603243D868D4F85C1142EA0522D4F8EE
:103C1000605120F400402943D860DA6019601A68C6
:103C2000002042F0010220211A60C4F8840184F8C7
:103C30008111C4F8700184F882011EB070BD42F495
:103C400000429A60D3E703F0FF055C2207A82946EB
:103C5000CDE90255CDE9045584F8805106950BF065
:103C600011FCD4F840311D4A9342A2D1802307A809
:103C70001495079306F05CFA054650BB184E194898
:103C8000F36C43F00203F364F36C03F0020301935B
:103C90004FF44063019A029312220123CDE90323DA
:103CA0004FF0030C02A90423CDE905C306F0C2FFBF
:103CB000B36D43F48003B365B36D03F480030093E5
:103CC00029462120009BFFF79DFD212007F046FAA1
:103CD0006DE707F07BFF00BFB400002000580040F4
:103CE00000100240000400482DE9F041654C94F8B2
:103CF0002030012B00F0C28021680122022384F8C9
:103D0000202084F821308E680278056A16F040067B
:103D100016BFC678C670B605092A09D900230A3A23
:103D2000D2B2092A03F10103F9D842EA0312D2B24E
:103D30004378092B4FEA024209D900270A3BDBB23C
:103D4000092B07F10107F9D843EA0713DBB290F812
:103D500002E0BEF1090F4FEA03280DD90027AEF1AA
:103D60000A0E5FFA8EFEBEF1090F07F10107F6D8C1
:103D70004EEA071E5FFA8EFE90F824C0BCF1090FD0
:103D80000DD90027ACF10A0C5FFA8CFCBCF1090FCD
:103D900007F10107F6D84CEA071C5FFA8CFC43696F
:103DA00047681D432E43324348EA0203826AC669CC
:103DB000CA2553204D6243EA0E0E4862B2F5807F59
:103DC0004EEA0C638A6846EA070639D022F400728C
:103DD0008A60CA68D2B262F42072CA60656A04E07E
:103DE000606A401BB0F57A7F20D8CA6812F00202E0
:103DF000F6D00B628E648B6843F400738B608B6823
:103E000043F400538B60204B1A6842F480221A60FE
:103E10009A68FF2642F48022012500209A604E62B3
:103E200084F8200084F82150BDE8F0810323FF20AE
:103E300084F820204862184684F82130BDE8F081DB
:103E400022F480728A60CA68D2B262F4C072CA6018
:103E5000656A04E0606A401BB0F57A7FE6D8CA68FC
:103E600012F00102F6D0CB614E648B6843F480738C
:103E70008B608B6843F480538B60C4E70220BDE8FD
:103E8000F08100BFB40000200004014008B5114BD0
:103E9000DA6822F08002DA609A68920603D4FCF7AE
:103EA00097F988B908BD9A6822F020029A60FCF759
:103EB0008FF918B1084B032083F82100054A936855
:103EC00043F02003936008BD034B032083F82100D7
:103ED00008BD00BF00280040B40000200E490A6859
:103EE000D06810F0400001D0002070474FF0FF3341
:103EF00030B4D3604C6A032509E003280AD04B6A2A
:103F00001B1BB3F57A7F84BF81F821500320D3684F
:103F10005B06F2D530BC7047B40000200B4A30B4C9
:103F2000411E00F18B054FF0FF3011F8014F0823BF
:103F30006040C4074CBF82EA50004008013BF8D102
:103F40008D42F2D1C04330BC704700BF2083B8ED32
:103F50001C4991F82030012B32D030B40C68532327
:103F600001200225CA2281F8215081F820006262D6
:103F70006362A36823F48073A360A36823F480536F
:103F8000A360486A04E04A6A121AB2F57A7F0DD833
:103F9000E36813F00103F6D00020FF2201236262E0
:103FA00081F8200081F8213030BC7047FF200322C7
:103FB000606281F8203081F82120104630BC7047C3
:103FC00002207047B4000020F0B4314B314E1B6822
:103FD000056882B000248DF80340746A776A03EBA9
:103FE0008303C4F16404C3EBC30322441B0D02FB2F
:103FF00003F30193AB6819420AD12CE0019C019BA9
:10400000013B0193AB68002C08BF0022194222D06B
:10401000B1F5C06F05D12B7BDBB28DF803309DF875
:104020000330736ADB1B9A42E8D86B68426823F05E
:10403000E003B2F5827F6B601AD0836AB3F5005F4C
:104040000DD00122002380F85D2080F85C30032031
:1040500002B0F0BC7047002002B0F0BC70472B6883
:1040600023F400532B602B6843F400532B60E8E7E4
:104070008368B3F5004F02D0B3F5806FDDD12B68B4
:1040800023F040032B60836AB3F5005FD9D1E6E7E4
:1040900000000020B400002070B4294D294B6A6A4A
:1040A0001B6804686E6AC2F16402114483B0C3F3F2
:1040B000CB3301FB03F30193A3681A060DD56B6A9A
:1040C0009B1B8B420DD2019A019B013B0193A3687C
:1040D000002A08BF00211B06F1D4002003B070BCE9
:1040E00070476368426823F0E003B2F5827F636043
:1040F00016D0836AB3F5005F09D00122002380F84F
:104100005D2080F85C30032003B070BC70472368EA
:1041100023F400532360236843F400532360ECE747
:104120008368B3F5004F02D0B3F5806FE1D1236807
:1041300023F040032360836AB3F5005FDDD1E6E737
:10414000B400002000000020A0B110B50446406D6E
:1041500018B1FCF7B7FE00236365A06D18B1FCF73A
:10416000B1FE0023A365E06D18B1FCF7ABFE0023A0
:10417000E36510BD704700BF024B034ADB6B034988
:1041800000201847B4000020D0500108844D0108D9
:10419000024B034ADB6B034900201847B4000020A0
:1041A000E0500108844D010818B1044B02689A429E
:1041B00000D0EDE780F86010704700BF02B1371300
:1041C0002DE9F04F85B020B1074B02689A420646B0
:1041D00012D0FFF7DDFF054B054ADB6B05490020D8
:1041E00005B0BDE8F04F184702B13713B400002006
:1041F0007C560108844D0108C74CFEF791FF94F8E6
:104200002830012B40F27F84E36BC44AC44902206A
:10421000984794F82830012B40F275847368E56B59
:10422000C04ABF490220A84794F82830012B40F229
:104230006A8496F84430BC4FDFF83C83BB4AB849E7
:10424000E56B002B14BF3B4643460220A84794F879
:104250002830012B40F2578496F84530B44AB049D3
:10426000E56B002B14BF3B4643460220A84794F859
:104270002830012B40F2478496F84630E56BA84978
:10428000013BDBB2042B96BFAA4AAB4B02EB830384
:104290004FF0020098BFD3F8D039A84AA84794F845
:1042A0002830012B40F22F84B6F84830E56BA44A41
:1042B0009B490220A84794F82830012B40F2238420
:1042C000D6ED137A9FED9F7A9FED9E6ADFED9E6A91
:1042D000E56B9349F5EEC07AF1EE10FA48BFF1EEC6
:1042E000677A77EE877A4CBF984B994BBCEEE77AAA
:1042F000F5EEC07AF1EE10FA17EE102A4CBFB1EECF
:10430000677AB0EE677A37EE067A0092BCEEC77A2B
:10431000904AB8EE477A022077EEC77A67EEA67A1F
:10432000FCEEE77ACDED017AA84794F82830012B0E
:1043300040F2E983D6ED147A9FED827A9FED816A8F
:10434000DFED816AE56B7649F5EEC07AF1EE10FAA1
:1043500048BFF1EE677A77EE877A4CBF7B4B7C4B98
:10436000BCEEE77AF5EEC07AF1EE10FA17EE102AFD
:104370004CBFB1EE677AB0EE677A37EE067A0092FC
:10438000BCEEC77A744AB8EE477A022077EEC77A55
:1043900067EEA67AFCEEE77ACDED017AA84794F8AD
:1043A0002830012B40F2AF83B6F85430E56B6B4AEE
:1043B0005B490220A84794F82830012B40F2A383E0
:1043C000B6F85630E56B664A55490220A84794F87E
:1043D0002830012B40F2978396F85830E56B50490E
:1043E000022B96BF534A544B02EB83034FF002005B
:1043F00098BFD3F8E4395B4AA84794F82830012BDA
:1044000040F28183D6ED177A9FED4E7A9FED4D6A8B
:10441000DFED4D6AE56B4249F5EEC07AF1EE10FA38
:1044200048BFF1EE677A77EE877A4CBF474B484B2F
:10443000BCEEE77AF5EEC07AF1EE10FA17EE102A2C
:104440004CBFB1EE677AB0EE677A37EE067A00922B
:10445000BCEEC77A444AB8EE477A022077EEC77AB4
:1044600067EEA67AFCEEE77ACDED017AA84794F8DC
:104470002830012B40F2478396F860302A4FDFF84E
:10448000F8803A4A2649E56B002B14BF3B46434669
:104490000220A84794F82830012B40F2348396F884
:1044A0006130334A1E49E56B002B14BF3B4643463F
:1044B0000220A84794F82830012B40F2248396F874
:1044C00062302C4A1649E56B002B14BF3B4643462D
:1044D0000220A84794F82830012B40F21483D6ED2F
:1044E000197A9FED187A9FED176ADFED176AE56B71
:1044F0000B49F5EEC07AF1EE10FA48BFF1EE677A9B
:1045000077EE877A4CBF114B114BBCEEE77AF5EE94
:10451000C07AF1EE10FA31E0B40000201051010829
:10452000844D01082C510108F85001083851010848
:1045300054510108F009010808510108745101089B
:1045400088510108BD370635002474498458010894
:10455000F0600108A0510108B8510108CC510108D0
:10456000E4510108F05101080C52010824520108DD
:1045700040520108605201080051010817EE102A4C
:104580004CBFB1EE677AB0EE677A37EE067A0092EA
:10459000BCEEC77AD04AB8EE477A022077EEC77AE7
:1045A00067EEA67AFCEEE77ACDED017AA84794F89B
:1045B0002830012B40F2A782E36BC84AC849022089
:1045C000984794F82830012B40F29D82338AE56B9E
:1045D000C44AC3490220A84794F82830012B40F26E
:1045E0009282B37CC04FDFF83483C04ABC49E56B8C
:1045F000002B14BF3B4643460220A84794F82830BE
:10460000012B40F28082F37CB94AB549E56B002B5F
:1046100014BF3B4643460220A84794F82830012B9C
:1046200040F27182337DB34AAD49E56B002B14BF74
:104630003B4643460220A84794F82830012B40F21D
:104640006282D6ED067A9FEDAC7A9FEDAB6ADFED24
:10465000AB6AE56BA249F5EEC07AF1EE10FA48BFFD
:10466000F1EE677A77EE877A4CBFA54BA54BBCEE8F
:10467000E77AF5EEC07AF1EE10FA17EE102A4CBF89
:10468000B1EE677AB0EE677A37EE067A0092BCEE4A
:10469000C77A9D4AB8EE477A022077EEC77A67EE6E
:1046A000A67AFCEEE77ACDED017AA84794F8283097
:1046B000012B40F22882D6ED077A9FED8F7A9FED8D
:1046C0008E6ADFED8E6AE56B8549F5EEC07AF1EE14
:1046D00010FA48BFF1EE677A77EE877A4CBF884BC5
:1046E000884BBCEEE77AF5EEC07AF1EE10FA17EEE1
:1046F000102A4CBFB1EE677AB0EE677A37EE067AD1
:104700000092BCEEC77A814AB8EE477A022077EE73
:10471000C77A67EEA67AFCEEE77ACDED017AA84774
:1047200094F82830012B40F2EE81D6ED087A9FED07
:10473000727A9FED716ADFED716AE56B6849F5EE9B
:10474000C07AF1EE10FA48BFF1EE677A77EE877A19
:104750004CBF6B4B6B4BBCEEE77AF5EEC07AF1EEDB
:1047600010FA17EE102A4CBFB1EE677AB0EE677AF6
:1047700037EE067A0092BCEEC77A654AB8EE477A01
:10478000022077EEC77A67EEA67AFCEEE77ACDEDE7
:10479000017AA84794F82830012B40F2B481D6ED75
:1047A000097A9FED557A9FED546ADFED546AE56B07
:1047B0004B49F5EEC07AF1EE10FA48BFF1EE677A98
:1047C00077EE877A4CBF4E4B4E4BBCEEE77AF5EE58
:1047D000C07AF1EE10FA17EE102A4CBFB1EE677AEC
:1047E000B0EE677A37EE067A0092BCEEC77A494A95
:1047F000B8EE477A022077EEC77A67EEA67AFCEE2B
:10480000E77ACDED017AA84794F82830012B40F2E1
:104810007A81D6ED0A7A9FED387A9FED376ADFED1F
:10482000376AE56B2E49F5EEC07AF1EE10FA48BF13
:10483000F1EE677A77EE877A4CBF314B314BBCEEA5
:10484000E77AF5EEC07AF1EE10FA17EE102A4CBFB7
:10485000B1EE677AB0EE677A37EE067A0092BCEE78
:10486000C77A2D4AB8EE477A022077EEC77A67EE0C
:10487000A67AFCEEE77ACDED017AA84794F82830C5
:10488000012B40F24081D6ED0B7A9FED1B7A9FED14
:104890001A6ADFED1A6AE56B1149F5EEC07AF1EE9E
:1048A00010FA48BFF1EE677A77EE877A4CBF144B67
:1048B000144BBCEEE77AF5EEC07AF1EE10FA17EE83
:1048C000102A4CBFB1EE677AB0EE677A37EE067AFF
:1048D0000092BCEEC77A23E0785201089452010896
:1048E000844D0108B8520108F8500108DC52010853
:1048F000FC52010818530108BD37063500247449DD
:1049000084580108F0600108345301085C53010821
:1049100084530108B4530108DC5301080051010815
:10492000884AB8EE477A022077EEC77A67EEA67A11
:10493000FCEEE77ACDED017AA84794F82830012BF8
:1049400040F2E180D6ED0C7A9FED8A7A9FED896A7C
:10495000DFED896AE56B7C49F5EEC07AF1EE10FA7D
:1049600048BFF1EE677A77EE877A4CBF774B784B8A
:10497000BCEEE77AF5EEC07AF1EE10FA17EE102AE7
:104980004CBFB1EE677AB0EE677A37EE067A0092E6
:10499000BCEEC77A6F4AB8EE477A022077EEC77A44
:1049A00067EEA67AFCEEE77ACDED017AA84794F897
:1049B0002830012B40F2A780D6ED0D7A9FED6D7A5D
:1049C0009FED6C6ADFED6C6AE56B5F49F5EEC07ACE
:1049D000F1EE10FA48BFF1EE677A77EE877A4CBFB6
:1049E0005A4B5B4BBCEEE77AF5EEC07AF1EE10FA6B
:1049F00017EE102A4CBFB1EE677AB0EE677A37EE49
:104A0000067A0092BCEEC77A534AB8EE477A022083
:104A100077EEC77A67EEA67AFCEEE77ACDED017AFB
:104A2000A84794F82830012B6DD9D6ED0E7A9FED6A
:104A3000517A9FED506ADFED506AE56B4249F5EE21
:104A4000C07AF1EE10FA48BFF1EE677A77EE877A16
:104A50004CBF3E4B3E4BBCEEE77AF5EEC07AF1EE32
:104A600010FA17EE102A4CBFB1EE677AB0EE677AF3
:104A700037EE067A0092BCEEC77A384AB8EE477A2B
:104A8000022077EEC77A67EEA67AFCEEE77ACDEDE4
:104A9000017AA84794F82830012B34D9D6ED0F7A43
:104AA0009FED347A9FED336ADFED336AE56B26497B
:104AB000F5EEC07AF1EE10FA48BFF1EE677A77EEC4
:104AC000877A4CBF214B224BBCEEE77AF5EEC07AD9
:104AD000F1EE10FA17EE102A4CBFB1EE677AB0EE85
:104AE000677A37EE067A0092BCEEC77A1C4AB8EEB7
:104AF000477A022077EEC77A67EEA67AFCEEE77A6D
:104B0000CDED017AA847356C9DB194F82830012B82
:104B100012D9E36B134A0C4902209847356C1DB13A
:104B2000114B2A689A4229D0E36B104A1049FFF7CB
:104B300056BB05B0BDE8F08F0B4B2A689A42F3D103
:104B4000F1E000BF04540108844D010884580108B5
:104B5000F060010828540108485401087054010805
:104B600098540108C45401080FB03713EC4C0108E5
:104B7000E44C0108BD3706350024744994F8283008
:104B8000012B40F2D080D5ED117A1FED067A1FED92
:104B9000076A5FED076AE66BB849F5EEC07AF1EE99
:104BA00010FA48BFF1EE677A77EE877A4CBFB44BC4
:104BB000B44BBCEEE77AF5EEC07AF1EE10FA17EEE0
:104BC000102A4CBFB1EE677AB0EE677A37EE067AFC
:104BD0000092BCEEC77AAC4AB8EE477A022077EE74
:104BE000C77A67EEA67AFCEEE77ACDED017AB04798
:104BF00094F82830012B40F29680D5ED127A9FED83
:104C0000A37A9FEDA26ADFEDA26AE66B9B49F5EEFF
:104C1000C07AF1EE10FA48BFF1EE677A77EE877A44
:104C20004CBF974B974BBCEEE77AF5EEC07AF1EEAE
:104C300010FA17EE102A4CBFB1EE677AB0EE677A21
:104C400037EE067A0092BCEEC77A924AB8EE477AFF
:104C5000022077EEC77A67EEA67AFCEEE77ACDED12
:104C6000017AB04794F82830012B5CD9B5F84C3064
:104C7000E66B894A81490220B04794F82830012B1D
:104C800051D995F84E30854FDFF84082844A7B49F0
:104C9000E66B002B14BF3B4643460220B04794F816
:104CA0002830012B3FD995F84F307E4A7349E66B87
:104CB000002B14BF3B4643460220B04794F82830EF
:104CC000012B30D995F85330E66B6C49022B96BF17
:104CD000754A764B02EB83034FF0020098BFD3F87E
:104CE000E439734AB04794F82830012B1BD995F862
:104CF0005430E66B6149022B96BF6B4A6B4B02EB5B
:104D000083034FF0020098BFD3F8E439694AB047F3
:104D100094F82830012B06D9E66B95F85230664A94
:104D200056490220B04795F85230DFF8B8B1DFF8A5
:104D30004CA1DFF8B49103952E464FF0000898453A
:104D4000BFF4F7AE94F82820012A40F2928043463F
:104D5000E56B5A4651460220A84794F82830012BAB
:104D600040F284807368E56B4A4651460220A847AA
:104D700094F82830012B79D93389E56B4F4A514695
:104D80000220A84794F82830012B6FD97389E56B6E
:104D90004B4A51460220A84794F82830012B65D988
:104DA000B389E56B474A51460220A84794F828305A
:104DB000012B5BD9B37BE56B434A51460220A847E0
:104DC00094F82830012B51D9F37B344F3F49404AA6
:104DD000E56B002B18BF39460B4602205146A84709
:104DE00094F82830012B41D9337C3849394AE56B96
:104DF000002B18BF39460B4602205146A84794F8AD
:104E00002830012B32D9707C3049244BE56B324A73
:104E1000002808BF0B4651460220A84794F82830C6
:104E2000012B23D9F37CE56B013BDBB2042B96BF4E
:104E30001D4A1E4B02EB8303514698BFD3F8D0396D
:104E4000264A0220A84794F82830012B0ED9B37CBB
:104E5000E56B052B96BF144A144B02EB83035146B6
:104E600098BFD3F8F0391E4A0220A847039B93F855
:104E7000523008F10108103661E700BFE44C010828
:104E800084580108F0600108D8540108BD37063580
:104E9000002474490C520108CC510108F850010853
:104EA000F05401080C550108F009010808510108E7
:104EB000F0510108245501084055010880550108AA
:104EC0009C550108B8550108D45501080051010846
:104ED000F05501080C5601082856010844560108EF
:104EE00060560108545501086455010808B518B109
:104EF000054B02689A4204D0FFF74AF99FED030A76
:104F000008BD90ED170A08BD02B13713000000007C
:104F100040B338B50268144B9A42044603D0BDE84A
:104F20003840FFF729B9C56A1DB1104B2A689A426B
:104F30000FD00F4B0F4ADB6B0F4900209847A06A38
:104F4000FCF76AF8002323602046BDE83840FBF7F1
:104F5000B9BF2846FFF7F8F800232B602846FBF777
:104F6000B1FFECE7FFF708B901B1371303B137130D
:104F7000B4000020A44C01089456010808B3124B59
:104F800002689A4210B5044603D0BDE81040FFF70E
:104F9000FFB8006C18B10D4B02689A420CD00C4B54
:104FA0000C4ADB6B0C490020984700232360204605
:104FB000BDE81040FBF786BF00230360FBF782FFCC
:104FC000F3E7FFF7E5B800BF02B137130FB03713AF
:104FD000B4000020EC4C0108E44C01082DE9F04736
:104FE00082B01D4643F44053BDF82840ADF8003070
:104FF00000278A4691466946012303228046ADF880
:105000000270ADF80470FBF787FFBDF9046004FA85
:105010000AF1714001EA090445F4805540463B46D7
:10502000694674400222ADF80050ADF80240FBF72B
:1050300073FF02B0BDE8F08730B583B041F4405152
:1050400014460025ADF80010012303226946ADF88F
:105050000250ADF80450FBF75FFFBDF80430238029
:1050600003B030BDF0B585B00024012907461646CF
:10507000ADF80E4038D0022933D0224B2249DD6BE7
:10508000224A03462046A84721460DF10E02384623
:10509000FFF7D2FFBDF80E30738003F00705012D36
:1050A000358024D013F0060F0BD16DB9154A009747
:1050B000D46B1549164A2846A0472C46204605B011
:1050C000F0BD023D012DF9D90E4A0097D46B0E496F
:1050D000104A0020A04700210C462046318005B030
:1050E000F0BD32210124D0E70C463321CDE7054A3B
:1050F0000097D46B0449084A0020A04700242046AA
:1051000005B0F0BDB4000020D0560108B456010827
:10511000E85601084C57010818570108F0B583B04C
:105120000024012907461646ADF8064019D0022989
:1051300009D01A4B1A4ADD6B1A4903462046A84784
:10514000204603B0F0BD46210DF106023846FFF7B8
:1051500073FFBDF80650842475B1BEB9012003B0B9
:10516000F0BD45210DF106023846FFF765FFBDF899
:1051700006508324002DF0D1084B0B4ADC6B094903
:1051800028463B46A047284603B0F0BD3846214696
:105190000022FBF711FF3046D3E700BFB400002028
:1051A000B4560108D05601088057010810B582B0E6
:1051B000044601AA0121FFF755FF204600220121E4
:1051C000FFF7ACFFBDF80430022B08D00549064AB2
:1051D000CC6B06490020A047002002B010BD012082
:1051E00002B010BDB4000020B4570108FC570108FC
:1051F00070B582B00DF106020E4600241C21054652
:10520000ADF80640FFF718FFBDF8062012F4006263
:105210000CD128461B21FBF7CFFE284646F400623E
:105220001B21FBF7C9FE012002B070BD044B054AEB
:10523000DE6B054920462B46B047204602B070BDC4
:10524000B40000201C580108D05601082DE9F04F89
:10525000324F2DED028B97F82830012BA3B0064674
:1052600004D9FB6B2E4A2F49022098472E49DFF8BC
:10527000C0B0DFF8B0A0782204A80AF0E9FB012250
:10528000D5213046FBF798FE04AC0DF18808A588BF
:10529000B4F80690A9444D452EDA08EE106A06E0EF
:1052A000BDF80E2098470135ADB2A94522DD18EEB4
:1052B000100A29460DF10E02FFF7BEFEA36818EE94
:1052C000100A2946002BEBD197F82830012B5A46BB
:1052D00018EE103A51464FF00200E4D9BDF80EC066
:1052E000CDF804C0266800960135FE6BADB2B0471C
:1052F000A945DCDC18EE106A0C34A045C7D197F83C
:105300002830012B04D9FB6B084A06490220984734
:1053100023B0BDEC028BBDE8F08F00BFB4000020CD
:105320004C580108E04A0108F8130108E458010844
:10533000D058010870B582B003220E4600210D46F8
:105340000446009240F24913FFF748FE204640F21F
:105350004913042202210095FFF740FE204640F247
:105360004913102204210095FFF738FE204640F231
:105370004913202205210095FFF730FE00952046B5
:1053800040F249134FF47F520621FFF727FE0EB972
:1053900002B070BD20464AF6C042312102B0BDE8DD
:1053A0007040FBF709BE00BF30B583B00025294629
:1053B00000957B23FF220446FFF710FE01212046C3
:1053C00000918B230222FFF709FE009520468B23D4
:1053D00080220721FFF702FE03B030BD70B582B016
:1053E0000DF10602002437210546ADF80640FFF70F
:1053F00023FEBDF8063003F0C003B3B90DF1060279
:1054000000241C212846ADF80640FFF715FEBDF824
:1054100006301B0515D50E4B0E4ADE6B0E49204695
:105420002B46B047204602B070BD094B93F82820A8
:10543000002AE3D0DC6B094A07492B460120A0472C
:10544000DCE72846FFF7B0FF012002B070BD00BFC7
:10545000B40000204C590108D05601082059010819
:105460002DE9F04FADF5117D07469B9C0D46164684
:1054700000214FF4E2721FA899460AF003F811A820
:105480003822002109F0FEFF94F8C5A1BAF1000FFF
:105490000CD0734B734ADB6B7349002098474FF075
:1054A000000840460DF5117DBDE8F08F0DF11C0898
:1054B00009ABCDF800801FAA31462846FCF778F9E1
:1054C0000028ECD0414695F84B2009A811ABFBF71A
:1054D000B3FC80460028E2D09C99BDF850200A8099
:1054E0009D9ABDF8543013801FA906AB05AA20462B
:1054F000FAF78AFEBDF81820BDF814309A4238D267
:105500001FA94FF4E27220460AF0A2FAB5F848301B
:105510003BBB0122334695F84B1084F8C62133F883
:10552000262BA4F8C82184F8C51184F8C4A104F579
:10553000E57206F1560C1D6858689968DF68D760F7
:105540001033634515605060916002F11002F2D192
:10555000B6F85630A4F8FA3140460DF5117DBDE895
:10556000F08F95F84EA0BAF1000A18BF4FF0010A6B
:10557000CFE706AA37213846ADF818A0FFF75CFD43
:10558000BDF8183013F0C00B12D006AB05AA1FA946
:105590002046FAF739FEBDF81830BDF814B0029372
:1055A0009B4520D9384601228021FBF705FDA7E75E
:1055B00006AA31213846ADF818B0FFF73DFDBDF819
:1055C00018204AF6C0439A42DFD0254B93F8282092
:1055D000002A3FF464AFDC6B244A25493B46012096
:1055E000D846A0475DE7029B9A980233494604AA31
:1055F000A3EB0B0905ABFBF70BFC0598CDF80CA052
:105600001FFA89F9484528BF48460590DDF80890FB
:10561000A24605E0059883441FFA8BFBD94511D3B8
:105620000690049906AB5A461FA8FBF783F9044677
:105630000028EFD0069B9A9A4FEA5B013846FBF7A9
:10564000CBFCE7E7A1463846012280215446DDF82D
:105650000CA0FBF7B1FCB9F1000F3FF420AF4FE70E
:10566000B40000207C5901085C4C0108BC590108B9
:10567000E05901082DE9F04FADF50F7D0C461546B8
:1056800000214FF4E27207461DA89A46DDF86492A5
:1056900005AE09F0F7FE382200210FA809F0F2FE4E
:1056A000294620461DAA07AB0096FCF781F830B9C1
:1056B0004FF0000840460DF50F7DBDE8F08F94F8DF
:1056C0004B20314607A80FABFBF7B6FB0028EFD005
:1056D0009A99BDF848200A809B9ABDF84C301380F7
:1056E000989802AA002603AB5146CDE90266FBF763
:1056F0008FFB3846FFF772FEC0B1039840F6DD1B02
:1057000032460299049004AB1DA8FBF713F9710807
:10571000049B989A80463846FBF75EFC0398064443
:10572000B6B25E4509D8B8F1000FE9D1234B244A3F
:10573000DB6B244900209847BAE7B8F1000FF5D099
:1057400060239899009352461F4B3846FBF710FE92
:105750004FF4E2721DA948460AF07AF9B4F84820DD
:1057600022B194F84E301A1E18BF012201212B4697
:1057700094F84B0089F8C61133F8261BA9F8C81114
:1057800089F8C50189F8C42109F5E57105F15607C5
:105790001C6858689A68DE68CE601033BB420C60A3
:1057A00048608A6001F11001F2D1B5F85630A9F8CD
:1057B000FA3140460DF50F7DBDE8F08FB4000020B2
:1057C000F85901085C4C0108701401082DE9F04FEC
:1057D0002DED028BADF21C7DCDE9041203931B78F5
:1057E00004460A2B13D8DFE813F023000B007400E3
:1057F000BF005D0133024703D8043C05AA0523001E
:10580000FFF7D4FC002840F05686039B1B78B94E66
:10581000F46BB94AB9490020A04700231C46039AFB
:10582000204613700DF21C7DBDEC028BBDE8F08F9D
:10583000B04EDDF848078C22002109F023FED6ED9A
:10584000117ADFEDAF5ADFEDAF6AF8EE677AB6EEA8
:10585000006A85EEA77AF4EEE67A37EE067AF1EE84
:1058600010FABCEEC77A17EE103A9FB200F3BB8570
:105870009FEDA57AF4EEC77AF1EE10FA00F1B38548
:10588000A7F110039BB2EF2B40F2D2869FED9F7AD7
:10589000DFED9F6A77EE877A37EE877ABCEEE76AAC
:1058A000BCEEC77A16EE108AB8EE477A77EEC77A62
:1058B00067EEA67AFCEEE77A17EE905ACDE90085FE
:1058C000944BF46B944A95490020A047039B1B78A6
:1058D0009EE7FFF76BFC0546002896D0049941230C
:1058E00000222046FBF776FD0021038C0793A0F1F0
:1058F000020A8B468E464FF6FF781EE030F9117093
:105900003AF9119007F57A72A7EB09079F42C0F2A6
:105910006585674500F3628582EAE273A3EBE27373
:105920009BB2434505D24FEA860B98461FFA8BFB84
:10593000AE460F2E00F02D8701314B1E03FB03F303
:10594000C3EBC3035A0002F5167CC83B8EB2002994
:10595000D4D1B0F9003003F57A73002BB8BF5B42A5
:105960009BB24345DFD3E7E7FFF720FC00283FF475
:105970004CAF0499002220232046FBF72BFDB0F901
:1059800000200546012116460027134635F9022F4F
:10599000C3F5487313449BB2B3F5C86F3FF635AFF8
:1059A000B242A8BF0F4601F10101A8BF1646202947
:1059B000EBD1072F00F2E687002307F10802D21A85
:1059C000002A00F0F08746A9D51800EB450506919E
:1059D00000EB430030F9026B07EE106A03FB03F69D
:1059E00006EE903A07EE906AB8EEC77AF8EE677A5C
:1059F000F8EE666A854281ED007AC1ED017AC1ED6B
:105A0000026A03F1010301F10C01E3D106982EA90A
:105A1000FAF7C8FF00283FF4F8AE9DED2E6AB5EE08
:105A2000406AF1EE10FA3FF4F0AEDDED2F6AF5EECC
:105A3000406AF1EE10FA3FF4E8AE9DED307AB1EE37
:105A4000477AC7EE267AF5EEC07AF1EE10FAFFF645
:105A5000DCAEF1EE666A86EE867AB5EEC07AF1EEDD
:105A600010FA7FF5D2AEB7EE007A77EE877AFCEEC9
:105A7000E77A17EE903A9AB23F2AC3F34E033FF605
:105A8000C4AEDDF8482783F01003D38020464FF4DE
:105A90004571FFF7ADFB04460423002C7FF4BFAE35
:105AA00000F09CBCFFF782FB00283FF4AEAE502311
:105AB000204604990022FBF78DFC00F1A003069319
:105AC000DDF848370A3307EE904A4FF0300B1C469A
:105AD000DFF84C90B0F900204FF0000847F6FF7E49
