:020000040800F2
:10000000000001200DE900084DCE000849CE00088F
:1000100045CE000841CE00083DCE0008000000009B
:1000200000000000000000000000000035CE0008C5
:1000300039CE00080000000031CE000821CE0008B3
:100040005DE900085DE900085DE90008DDCD000814
:100050005DE900085DE900085DE900085DE9000868
:100060005DE90008C9CD00085DE900085DE9000808
:10007000BDCD0008B1CD00085DE900085DE90008CC
:10008000A5CD000899CD00085DE900085DE90008EC
:100090005DE900085DE900085DE900085DE9000828
:1000A0005DE900085DE900085DE900085DE9000818
:1000B0005DE9000800000000000000005DE90008A4
:1000C0005DE9000879CD00085DE900085DE90008F8
:1000D0005DE900085DE90008A5CA00085DE90008BF
:1000E00091CA000891D5000800000000000000003F
:1000F0000000000000000000000000000000000000
:10010000000000005DE90008000000005DE9000853
:1001100000000000000000005DE900085DE9000843
:100120005DE900085DE900085DE900085DE9000897
:100130005DE9000800000000000000000000000071
:100140005DE900085DE900085DE9000800000000C5
:100150005DE900085DE900085DE900085DE9000867
:100160005DE900085DE900085DE9000800000000A5
:100170005DE900085DE900080000000000000000E3
:100180005DE900085DE900085DE900080000000085
:1001900010B5054C237833B9044B13B10448AFF3C1
:1001A00000800123237010BD90000020000000009B
:1001B0003817010808B5034B1BB103490348AFF3D7
:1001C000008008BD000000009400002038170108DE
:1001D00009490A68D36823F0A003D360486A04E0A1
:1001E0004B6A1B1AB3F57A7F04D8D3689B06F7D500
:1001F0000020704703207047AC000020028843882D
:1002000043EA02430B607047DFF880C02DE9F04FEE
:10021000023802390CF1E2090CF1E40B4FF0000A4C
:1002200040F6DE1830F8025F31F8024FA54220D0C8
:100230009CF800400BEBC404658825B36768002672
:1002400007EB850E47F6FF7557F8044BA4B2A5429D
:1002500028BF2546A64238BF2646BE45F4D17600C3
:10026000B6B26D00B24538BFB246ADB2A84528BFA0
:10027000A8460CF1010CCC45D4D1A2F80080A3F81B
:1002800000A0BDE8F08F4FF6FE75EFE750170108AC
:100290002DE9F04F054687B0002405EB410E029092
:1002A0000592104604910393AEF1120EAA1EA446C5
:1002B0000194A246A346012740F2EE2914E0BBF1C7
:1002C000000F2ED1534532DD9A460124019E76421D
:1002D000B342BCBFA8EB050301938C4538BF8C46E5
:1002E000964500F1020027D0558A32F8021F6B1A9A
:1002F00003F50046B6F5803F38BF038088462CBF23
:10030000002711884B45DADC564E9A45B8BF9A460D
:10031000B342DBDA002C0ABF0027A3464FF0010BE3
:10032000D4E7534505DD9A465C460027CEE7012415
:10033000CCE75C460027C9E72FB94FF0000B5846C1
:1003400007B0BDE8F08F002CF7D0BBF1000FF4D060
:10035000049A059ECDF810C00023CDF814A0A2F198
:100360001C08123699469E461F469C469A4636F908
:10037000023F03EB830203EB4203344630460A217B
:1003800030F9025D34F9022F01FB053301FB023322
:100390000139F5D1734561DC4B4501DA9946BA461E
:1003A00001374745E3D14CF250339E4560465446F1
:1003B000DDF810C0DDF814A0BFDD2B4B9945BCDA89
:1003C000BAF1000FB9D0019B002BB6D0029B119A55
:1003D0001B884FEACC0CDB0042B1634504D2D94301
:1003E00051446144B1FBFAF1119A1160109A002A4C
:1003F000A5D0039A002AA2D0024602990E3231F803
:100400001210B3EBC10F4FEAC10005D2DB435344D6
:100410000344B3FBFAF3D21A2046029B0E3033F8A2
:100420001030BCEBC30F4FEAC30106D9019C631E19
:1004300063445B1AB3FBF4F3C01A002AFFF67DAFE6
:100440000028FFF67AAF82423FF777AF109BA0EB10
:10045000020AC3F800A0039B1A6070E79E46BC46E0
:100460009EE700BF12FDFFFFB03CFFFF704700BFDB
:1004700070B4124E124D00F1BC04002143680B44CD
:10048000024640F8043F12689A1AB24209DD50F859
:10049000042CA3F5C9237E3BA1F5C92103607E3955
:1004A0009A1AAA4206DA03F5C9237E3301F5C92157
:1004B00003607E318442E1D170BC70473F24030069
:1004C000C1DBFCFF07EE900ADFED1A6A9FED1A7A96
:1004D000F8EEE77A67EEA67AF4EEC77AF1EE10FA54
:1004E00001D5012920D09FED157AF4EEC77AF1EEFF
:1004F00010FA17D4B1EE0C7AF4EEC77AF1EE10FAD6
:1005000016D49FED0F7AF4EEC77AF1EE10FA0DD4FF
:100510009FED0C7AF4EEC77AF1EE10FA4CBF04208E
:100520000520704701207047002070470320704766
:10053000022070470AD7233B666646403333A34008
:1005400033334B41000094410138C0B204289DBFB1
:10055000034B03EB800090ED000A9FED020A704709
:10056000C41F01080000000070B1012809D008B5BF
:10057000074B084A9B6B0849002098479FED070AE4
:1005800008BDB0EE000A7047B1EE000A704700BF28
:10059000AC00002058570108705701080000000007
:1005A000D0ED007AF5EEC07AF1EE10FA10B50446FF
:1005B0005CD40120D4ED017AF5EEC07AF1EE10FAA8
:1005C00008D52E4B2E4A9B6B2E4900209847D4ED20
:1005D000017A002094ED007AB4EEE77AF1EE10FA99
:1005E00008DD264B284A9B6B264900209847D4ED0E
:1005F000017A0020B3EE077AF4EEC77AF1EE10FA32
:1006000006DD1E4B214A9B6B1E49002098470020A7
:10061000D4ED037ABAEE047AF4EEC77AF1EE10FA6A
:100620001CD49FED1B7AF4EEC77AF1EE10FA15DCBC
:10063000D4ED087AF5EEC07AF1EE10FA06D4B7EEF2
:10064000007AF4EEC77AF1EE10FA06DD0B4B114A90
:100650009B6B0C4900209847002010BD074B0E4AA9
:100660009B6B0849002098470020E1E7034B0B4AA9
:100670009B6B04490020984700209BE7AC000020BA
:10068000C8570108A4570108E0570108FC570108A2
:1006900000000C42505801082458010888570108EE
:1006A00008B5FFF751FF9FED1A7AC0EE077AB5EE55
:1006B000007A67EE877AFCEEE77A17EE903A98B206
:1006C00011B1884228BF0846182817D8A0B11822AF
:1006D000B2FBF0F300FB03F3D31A9BB243B90CE077
:1006E000B2FBF0F300FB03F3C3F118039BB223B199
:1006F000013880B20028F3D1012008BD054BA3FBCF
:100700000030000900EB4000C00080B208BD00BF0F
:100710000AD7233BABAAAAAA0379022B30B413D180
:10072000D0F89850D0F8A440D0F8C820D0F8D430F1
:100730000D440C440A440B44C0F89C50C0F8A84037
:10074000C0F8CC20C0F8D83043794BB9D0F8B030DD
:10075000D0F8BC200B441144C0F8B430C0F8C0102D
:1007600030BC704708B518B1064B02689A4207D0F2
:10077000054B064A9B6B064900209847002008BDA0
:10078000407908BDE1AFA10FAC00002080580108FE
:100790009C58010808B518B1094B02689A4207D065
:1007A000084B094A9B6B094900209847002008BD67
:1007B0000079A0F10200B0FA80F0400908BD00BF46
:1007C000E1AFA10FAC000020805801089C5801083F
:1007D0002DE9F04FB1F1010A85B043D04FF0000987
:1007E00084469046CE466E46BAEB0E0E33D00025B8
:1007F0002F4618E0B4EEE66AF1EE10FA4CBF012382
:1008000000230135ADB22F465BB19BE80F0086E8AF
:100810000F0094E80F008BE80F0096E80F0084E8C3
:100820000F00754517D20CEB07140CEB071B1034A7
:100830009BED007A9BED026AD4ED007AD4ED026A5A
:10084000B8F1000FD6D1B4EEE77AF1EE10FACCBFD2
:1008500001230023D5E709F101091FFA89F9D145E0
:10086000CE46C1D305B0BDE8F08F00BF5FEA510CA2
:100870001DD0F0B40CF1FF3C1FFA8CF3013900F1EC
:10088000080C0CEBC30C8AB2034600EBC2011D68D6
:100890000F684E685C6843F8087B013A634543F88B
:1008A000046C92B20D604C60EFD1F0BC70477047A1
:1008B000F0B4BDF91040BDF8187005EE104ABDF84F
:1008C0001440002B00F08680002F00F08380013F51
:1008D0005E1EBFB2B6B204EE104A02EB470702EB4F
:1008E000460601F1FF3C023ADDE90741F7EE004A16
:1008F000FEEE003A0FE0F8EEC57A67EE807AC4EDBE
:10090000007A03680B60B24204F1040401F10401AF
:1009100060D0BA425ED032F8023F002BEBD05D1CB3
:10092000634500EB8505EED207EE903A15ED026ABD
:10093000D5ED005A55ED016AF8EE677A35EEE67AA4
:1009400037EEE43A76EE655A76EEC66A65EEA75A59
:1009500077EEA42A27EE037A77EEA77A37EE257A88
:1009600062EEA65A77EEE47A37EE257AF8EE445A2C
:1009700027EE237AB24267EE877A37EE072A76EEC1
:10098000E77A63EE076AF1EE671AC1EE822A04F194
:10099000040401F1040166EE836A27EE227A36EE42
:1009A000666A23EE273A27EE227A65EEA26A67EEA0
:1009B000A27AF8EEC55A77EE277A36EE436A36EE1B
:1009C000A57A76EE277A27EE007A04ED017A41EDDA
:1009D000017A9ED1F0BC704707EE900ADFED196AEC
:1009E0009FED197AF8EE677A67EEA67AF4EEC77A89
:1009F000F1EE10FA01DC02207047F5EE006A60EEBD
:100A0000266AB7EE006A86EEA77AB4EEC67AF1EEF1
:100A100010FA15DDBCEEC77A17EE103A9BB2B1EEB4
:100A2000007A20EE070AB6EE007A20EE070A80EE82
:100A3000277AFCEEC77A17EE900A184480B2704706
:100A40000123ECE70AD7233BACC52737431EDBB2B3
:100A5000042B10B5044697BF1448DFED155A00EB80
:100A60008303D3ED005A032A02D0B0EE650A10BD0D
:100A70002046FFF715FE02462046FFF765FD1046AB
:100A8000FFF7AAFF07EE902ADFED0A6A07EE100AC9
:100A9000F8EE677AB8EE477A67EEA67A67EE877A5D
:100AA00075EEA75AB0EE650A10BD00BFD81F010849
:100AB000000000000AD7233B30B5857A027C01890B
:100AC00083B0044628460192FFF7C0FF019A012037
:100AD000B0EE405AFFF7BAFFD4ED017AF4EEC07AD7
:100AE000F1EE10FA05DC94F8243013B1002003B0C5
:100AF00030BDD4ED007AF4EEC57AF1EE10FAF5D5FA
:100B0000681E18BF0120F2E700B583B0019119B942
:100B1000012003B05DF804FBFFF716FDDDED017A5F
:100B20009FED077AF8EE677A67EE877A80EE277A8C
:100B3000BCEEC77A17EE103A98B203B05DF804FB2A
:100B40000AD7233BF8B51E4607460D46FFF7DCFFE4
:100B500011FB00F4A4B20AB16400A4B2032E01D0C8
:100B60002046F8BD3846FFF7EFFC2846FFF734FF74
:100B700015FB004084B22046F8BD00BF91ED007A1D
:100B800092ED006AD2ED016AD1ED014A67EE065A94
:100B900026EE244A67EE267A66EEA44A002B42D05F
:100BA000013B9BB22DED028BD0ED001A90ED012A96
:100BB000D0ED022A90ED033AD0ED043A02EBC303E4
:100BC00004E0D2ED036A92ED026A083221EE865A01
:100BD00021EEA67A35EE255A37EE277A62EE065ACE
:100BE00062EE267A75EE845A77EEA47A23EE058AB1
:100BF00023EE850A22EE866A63EE070A23EE871A41
:100C000062EEA66A9A4275EEC85A36EE404A77EE10
:100C1000E07A76EEC14A82ED005A82ED017AD0D1B7
:100C2000BDEC028B70477047024B034A9B6B034934
:100C300000201847AC000020B8580108D45801081B
:100C400038B520B10E4B02689A42054603D0FFF733
:100C5000EBFF002038BDB0F84430002BF9D0002461
:100C600003E0B5F844309342F3D9A3B20233013420
:100C700055F82300FFF78EFDA2B20028F1D038BD51
:100C800052D1C0AC024B034A9B6B0349002018476A
:100C9000AC000020F45801080C59010808B518B13F
:100CA000064B02689A4203D0FFF7ECFF002008BD14
:100CB000406D003818BF012008BD00BF30D1C0AC66
:100CC00008B518B1064B02689A4203D0FFF7DAFF65
:100CD000002008BD006D003818BF012008BD00BF0E
:100CE00030D1C0AC08B590F8403013B9BDE8084029
:100CF000D4E7FFF7E5FF80F00100C0B208BD00BFF8
:100D000010B518B1074B04689C4203D0FFF7BAFF37
:100D1000002010BD8368046923440B60436B13609B
:100D2000012010BD30D1C0AC836910B50446BBB101
:100D30000D4B93F840204AB963697BB10A4B0B4ACB
:100D40009B6B0B4900209847002010BD9B6B094A04
:100D50000749012098476369002BEFD1012010BD9E
:100D6000C369002BE4D1E7E7AC0000205859010823
:100D70003C59010820590108D0E90F23816B006913
:100D8000184700BF00688368184700BFFAE700BF34
:100D900070B40169B0F8422090F8383031F8122070
:100DA000032B08BF82F4004240F2E51303FB02F379
:100DB0001B0C826CA3F589739BB21380828F31F870
:100DC00012204AB1B0F8402031F81220012A03D98C
:100DD000C26C0124147002E0C26C00241470C48F31
:100DE000428F31F8145031F81240B0F9441040F2FB
:100DF000E51202FB05F2120CC2F5897213441BB214
:100E0000002BB8BF5B42D0E914651BB2A4F101020C
:100E100000689942B2FA82F24FEA5212ACBF002344
:100E20000123327042682B7070BC104770B50446C5
:100E3000806978B1E36943B10F4B93F8402022B148
:100E40009B6B0E4A0E49012098472068BDE8704010
:100E500083681847084D0B4AAB6B09499847E3690B
:100E60003BB195F8403023B1AB6B044A04490120F3
:100E70009847002070BD00BFAC000020AC590108AD
:100E80009C590108805901080068C368184700BFD1
:100E9000FAE700BFF8E700BF2DE9F047C26DD0F8D0
:100EA000188006690023A8F8023004461D46137016
:100EB00000F14C07994657F8043B03B3B3F838C028
:100EC000B3F89000B3F89210B3F8D82006EB4000C6
:100ED00006EB410106EB420206EB4C0CC3E91301A1
:100EE000C3F8A420C3F814C088F800501868D3F8D9
:100EF000DC20416883F8E490C3F8E020884701359E
:100F0000EDB2042DD7D12068BDE8F04743681847FB
:100F1000704700BF704700BF704700BF704700BFF9
:100F200052B101EB8202043850F8043F4B801B0C95
:100F30000B8004319142F7D1704700BF30B583B0C8
:100F400000EB42000D4601A91C46FFF757F9019A34
:100F500022F00F0204B12A430092014601226846A2
:100F6000FFF7DEFF03B030BD2DE9F04F87B0BDF8CD
:100F70004070DDF844A003EBC7077B8883B381464C
:100F80000E4601EB020800254FF0010B7A6852F87B
:100F90002540620092B2B242C4F301701DD34245B3
:100FA0001BDA01280CD0022836D0E8B1324B334A84
:100FB0009B6B334900209847002007B0BDE8F08FB5
:100FC000BAF10003A2EB060218BF012392B2C4F3E8
:100FD00003414846FFF7B2FF7B880135AB42D5D8C5
:100FE000012007B0BDE8F08FC4F344530BFA03FCB3
:100FF000921BE24591B21ED30CF1FF331E4A0193BE
:10100000CDF800A0946B1F4A03900B461C49A047E3
:10101000039807B0BDE8F08F921BBAFA8AF35B0918
:1010200092B2C4F303414846FFF788FF7B8801353D
:10103000AB42ABD8D4E709EB410004A90393FFF717
:10104000DDF8039B4FF0FF32C3F12003C4F30444E7
:1010500022FA03F3049AA34022EA03020AFA04F4F0
:101060000146144305A801220594FFF759FF7B8828
:101070000135AB428AD8B3E7AC000020005A010822
:10108000F4590108BC5901082DE9F04FC2F51D665D
:101090009A461B68164C0E36B34298BF9EB2154B4B
:1010A000054688BFB6B2500803EB800083B01746F0
:1010B00072088846023DFFF733FF04F1E10904F1AD
:1010C000E40B7D2301E014F8013F35F8022F394687
:1010D000CDE9003240465B463246FFF745FF4C45BE
:1010E00001D00028EFD1CAF8006003B0BDE8F08F4E
:1010F00050170108A44101082DE9F04F02EB420C02
:1011000000EB8C0C8DB000268346824680466746F5
:10111000B14603A84FEA890586469FED577A4346B4
:101120006AB19C192C44D4ED007A1C46D4ED006AB7
:101130000C3367EEA67ABB4237EE277AF1D104353D
:101140000C2DAEEC017AE8D109F10109B9F1030FD8
:1011500000F1100008F10408A6F1040607F10407E5
:10116000D8D19DED046ADDED055ADDED086A6846CB
:101170000BF10C04DFED407A53463AB11D4695ED74
:10118000007A0C33634577EE877AF7D10AF1040AC7
:10119000A245E0EC017A0CF1040CEBD1DDED037A11
:1011A000F5EE407AF1EE10FA10D0B7EE007A87EE45
:1011B000274ADDED077A66EE044A26EE245A77EEDA
:1011C000C57AF5EE407AF1EE10FA06D10020002340
:1011D000CBF800300DB0BDE8F08FC7EE272A65EEE2
:1011E000843A25EEA47A66EE237A9DED0B5A76EECC
:1011F000E77A36EEC77A67EEA27A65EEA36A75EEF5
:10120000666A27EE275A76EEC56AF5EE406AF1EE79
:1012100010FADBD09DED005A9DED013A9DED022ABA
:1012200064EE854A63EE853A73EE644A012067EE08
:10123000A47A002372EE677A77EEE33AC3EEA67AD9
:1012400027EE277AC1ED027A34EEC77A65EEA75A07
:1012500067EE227A26EE276AC1ED017A35EE466AFC
:1012600076EE655A25EE844A81ED004ACBF80030CF
:101270000DB0BDE8F08F00BF000000000028B8BF2F
:10128000404270B4BABF00B20124002400293FDB01
:10129000884238DB0022034668B30846002643F63E
:1012A00028450004B0FBF3F1A9424AD946F2D633EF
:1012B000994236D948F67203994244D94AF64943CD
:1012C000994242D94DF2A303994240D94FF24B7350
:1012D000994298BF052025D94FF24C7548F2332327
:1012E0004CF2A340491B03FB01F100EB114016B186
:1012F000C0F5C9301F3014B1C0F549303F3002B1DC
:10130000404270BC70470B46C1B912480A46F2E72A
:10131000494209B288424FF00102BCDA0B46164638
:10132000BDE701200C4B03EBC00503EB8003D5F8B0
:10133000A008D3F8D438D5F89C58D3E7002201266A
:10134000ADE70020EEE70220ECE70320EAE7042007
:10135000E8E700BF1F920100501701082DE9F04F88
:101360001E4EDFF88480814615460FCE91B002AC48
:101370000FC40FCE0FC40FCE0FC496E8030098F829
:101380004030012B84E8030007D9D8F83840144ACC
:10139000144900954B460220A047DFF850B0DFF813
:1013A00044A002AC10AE02E00834B44213D0A388CB
:1013B0001D42F9D098F84030012B5A464B46514611
:1013C0004FF00200F0D9276800970834D8F8387039
:1013D000B847B442EBD111B0BDE8F08F402001080E
:1013E000905A0108AC5A0108AC000020C05A01080C
:1013F00030B50A4C94F84050012D85B00BD9CDE999
:1014000001120346A1F58C7080B20090A46B044ACF
:1014100004490220A04705B030BD00BFAC00002049
:10142000D45A0108AC5A010830B50346A1F1620450
:10143000104814F0010FA5B285B090F840400CD1CF
:10144000012C08D9CDE901126D080095846B0A4A78
:101450000A490220A04705B030BD012CFBD9CDE9D7
:1014600001126D080095846B054A04490220A047CB
:1014700005B030BDAC000020FC5A0108AC5A010890
:10148000345B010830B5094C94F84050012D83B00D
:1014900009D97D3989B2CDE900120346A46B044A0B
:1014A00004490220A04703B030BD00BFAC000020BB
:1014B0006C5B0108AC5A010810B5084991F840402E
:1014C000012C82B008D902F00F0200928C6B044A02
:1014D000044903460220A04702B010BDAC00002022
:1014E0009C5B0108AC5A010830B5094C94F8405097
:1014F000012D83B009D92C3989B2CDE900120346F8
:10150000A46B044A04490220A04703B030BD00BFC9
:10151000AC000020BC5B0108AC5A010830B50C4C93
:1015200094F84050012D83B010D91146094DA46B99
:10153000094A11F4006F03460848C1F30A0118BFB5
:101540002846CDE9000106490220A04703B030BD7E
:10155000AC000020EC5B0108F45B0108E45B0108CF
:10156000AC5A010810B4084C248D490864088C4218
:1015700028BF0C46023C24F00104043010601C60BB
:101580005DF8044B704700BFAC000020F8B506883A
:10159000002A14BF4FF480524FF40052B6F59C6FEE
:1015A00038BF4FF49C66B24205460F461C4623D214
:1015B000134B144A9B6B1449002098474FF0000EC0
:1015C0001249134A134BE360C4E901120FCD2036D0
:1015D00076004FF0000CA4F802C004F1300C24F89F
:1015E000106B0FC495E80F0007C497E80300238031
:1015F0008CE803007046F8BD4FF0010EE0E700BF35
:10160000AC000020085C0108285C01080100020011
:1016100003001B001C0020000368D0F8E820C0F87D
:10162000F0205A681846104738B5064DEB6A9847BF
:10163000044608B1204638BDAB6B034A03499847BE
:10164000204638BDAC0000203C5C01084C5C010821
:10165000DFF864C02DE9F047DCF83C501DB12B46A3
:10166000BDE8F047184712B35200A1F10208A2F1F9
:1016700002090E469A4607464944444634F8025F3A
:101680006DBA8C422580F9D1DCF8344038463146B9
:10169000A047BAF1000F01D1BDE8F0874E4438F8F9
:1016A000023F5BBAB045A8F80030F8D1F4E7BDE8D6
:1016B000F047DCF834301847AC00002070B5012545
:1016C00084B041F4A0430446164603A92A4601A863
:1016D000ADF808300196ADF80A50FFF721FC20461E
:1016E00002A900230422FFF7B3FF04B070BD00BFBE
:1016F0002DE9F04782B01D4643F44053BDF8284021
:10170000ADF8003000278A4691466946012303223E
:101710008046ADF80270ADF80470FFF799FFBDF98F
:10172000046004FA0AF1714001EA090445F48055A5
:1017300040463B46694674400222ADF80050ADF881
:101740000240FFF785FF02B0BDE8F08730B583B0F7
:101750000025294600957B23FF220446FFF7C8FF9A
:101760000121204600918B230222FFF7C1FF009543
:1017700020468B2380220721FFF7BAFF03B030BD3C
:10178000F0B40C4D2F8D9E1CB7EB460F05D2AB6B02
:10179000094A0A49F0BC00201847144641F4A04108
:1017A000013B11805380214626F000420023F0BC0B
:1017B0004EE700BFAC0000205C5C01087C5C0108C7
:1017C0002DE9F84F164C0A9E278D043A043F520823
:1017D0007F0897420D468146984628BF174601F17B
:1017E000040A0024331BBB4228BF3B466FEA8441F6
:1017F0005A1E6FEA91419B466A8029805A0008EB85
:10180000440150461C440FF0F7F80BF1020200238C
:1018100029464846FFF71CFFA642E3D8BDE8F88FEB
:10182000AC0000202DE9F04F02EBC30689B07388AD
:10183000129F4BB38046894600254FF0010B736819
:1018400053F82540C4F3017001280CD0022833D08E
:10185000F0B1344B344A9B6B344900209847002048
:1018600009B0BDE8F08FA3B2194659F8232022F041
:101870000F0217B1C4F3034422434046FFF71EFF93
:10188000738801359D42DAD3012009B0BDE8F08F9D
:10189000C4F3445A0BFA0AF39F4216D3214A009725
:1018A000013B019321490390A3B2946B204AA047C6
:1018B000039809B0BDE8F08FA3B2194659F8232068
:1018C00022F00F02002FD8D1D4E7A3B243F4204C6A
:1018D00003930522012305A9ADF81800CDF81A00DD
:1018E0004046ADF814C0ADF816B0FFF7B1FE04A93C
:1018F0000DF11A00FEF782FCCAF1200A4FF0FF3307
:10190000C4F3044423FA0AFA049B03990AFA04FA7A
:1019100023EA0A0207FA04F422434046FFF7CEFE08
:10192000AEE700BFAC000020C85C0108F459010814
:10193000905C010810B4002492ED037A1C605C6096
:101940009C60DC60002942D0DFED247A4C1E10FA46
:1019500084F402EB0414F0EE676A02EB0012B0EEBE
:10196000676A00E00246D2ED005A36EE256A02F1BF
:10197000100083ED006AD2ED015A76EEA56AC3ED40
:10198000016AD2ED025A77EEA57AC3ED027AD2ED62
:10199000035AF4EE475AF1EE10FAC8BFB0EE657A7A
:1019A0009442DFD105EE901AF8EE655A83ED037A82
:1019B00086EE255A5DF8044B86EEA56A87EEA57A79
:1019C00083ED005A83ED016A83ED027A7047DFED03
:1019D000037AF0EE676AB0EE676AE3E700000000A2
:1019E0002DE9F04F2DED0C8B82469DB090F84E40C6
:1019F00090F84C000C90042CBAF848000A9005911D
:101A000090461F461AD8DAED107AF5EEC07AF1EE5C
:101A100010FA00F1E9819AF85630DFF8C090002BF7
:101A200000F0EB819AF84B30002B00F0E681274A5A
:101A3000D9F8383026490020984707E0DFF89C9015
:101A4000244AD9F83830224900209847DAED117A33
:101A500099ED117AF5EEC07AF1EE10FAB8EE478AF8
:101A600040DDC8EE278AF6EE007A78EEA78A0A9B58
:101A7000002B3CD107939AF84A300193002B3ED1BA
:101A80009AF85030022B41F0EA809AF84E40012C2F
:101A900000F0C6820024329A019B1471A8F8AC4170
:101AA000002B32D09AF84F30012B00F0AD87022B7B
:101AB00000F09987002B00F0B587D9F83830064A36
:101AC000034900209847002301931EE0345D01087C
:101AD0000C5D0108F05C0108F05D0108AC0000201D
:101AE000000000000A9B5FED028A002BC2D09AF82A
:101AF0004E3007939AF84A300193002BC0D0329AA7
:101B0000002313710193A8F8AC31059C002C4AD036
:101B10002389B4F88610B4F88420B4F88200A8F8B9
:101B200004109B00B4F88810A8F802209BB203F1BF
:101B30003002A8F800006088A8F80610A188A8F86C
:101B4000080092B2E088A8F80A106189A8F80C0091
:101B50005F2A208CA8F80E10618CA8F81210A8F843
:101B6000100040F22282C649A1FB0201890901EB63
:101B70004101A2EB411189B200201A4605460B46ED
:101B800001210324A8F814300023A8F81620A8F88F
:101B90001810A8F81C50A8F81E00A8F82010A8F8E3
:101BA0001A40A8F822300199002201237A80BA81D4
:101BB0007B81002901F0438015460692039207F1CC
:101BC0000E0308F13E029FEDAFAADFEDAFAADFEDF5
:101BD000AF9A9FEDAF9ACDF808A0D346CDF81090FC
:101BE00008F146060992CDF82080BA469946079A30
:101BF000EBB29A4200F25881099A0023A9F800300A
:101C0000A9F8083022F815300135042D09F1020930
:101C10000BF1100B06F15606E9D157460A9AB9891D
:101C20007B89BDF81800DDF82080DDF81090DDF824
:101C300008A0029011FB02F189B20B449BB25A1C1E
:101C40001FFA82FEB8F8ACC1BCF1010F04D1039AAF
:101C50000A9800FB02F203929AF85220BAF8540054
:101C60009AF853509AF85640A8F89E21039A4FF6D6
:101C7000FF7B5A454FEA500628BF5A460338A8F85A
:101C8000A801033E0298A8F8AA6185F0010592B266
:101C9000A8F8A651A8F8A001A8F8A421B981BB8092
:101CA000A7F806E0002C00F06081413340213B8022
:101CB00039810124059BA8F8C04113B19B89A8F87C
:101CC000C231019B002B40F05A81329ADAED105A52
:101CD000002313600C9BA8F8B2310A9B012B40F241
:101CE0004881BAF848300122023BA8F8AE31A8F882
:101CF000B0219FED687A9FED686A28EE077AF1EED1
:101D0000007AC7EE066A68EE277AF5EE405A87EE4B
:101D1000867AC8EE067AB6EE006A76EE866A37EE06
:101D2000067AFCEEE66A77EE867A16EE902ABCEE2C
:101D3000C77AF1EE10FAFCEEE77AA8F8B82117EEB0
:101D4000102A14BF01230023A8F8B621A8F83830C0
:101D500017EE902A019BA8F8B421002B00F0F18027
:101D6000F5EE405AF1EE10FA0CD0C8EE257A37EEB7
:101D7000866AFCEEC67A17EE903A1A0CA8F83C3048
:101D8000A8F83A20DAED117A9AF84A309AF84B20FE
:101D9000A8F83030F5EE407AF1EE10FA14BF0123C6
:101DA0000023A8F83220A8F82A3008D0FCEEE87A00
:101DB00017EE903A1A0CA8F82E30A8F82C209AF8B2
:101DC00051300198A8F8BE31012140F2FF7240F66F
:101DD0000103A8F82410A8F8BA21A8F8BC311DB056
:101DE000BDEC0C8BBDE8F08FDFF8B8902B4AD9F82A
:101DF00038302B490020984728E69AED117AD9ED22
:101E0000116AB5EEC07AF1EE10FAB8EE668A16DD08
:101E1000C8EE078AF6EE007A78EEA78A00F1F9801C
:101E200018EE900A0CF046F9012908BF002880F04E
:101E3000F0809AF84A30002B40F0E28008E000F190
:101E4000E6809AF84A30002B40F0CD80DFED0F8A13
:101E50009AF84F109AF850200A98002814BF20468C
:101E600000209142079000F2FD83002B40F0038791
:101E7000022A00F0FC86329A1371A8F8AC3111E600
:101E8000ABAAAAAA2549123ECDCC4C3E00000000C8
:101E90008FC2753D0000964300247449205D0108FF
:101EA0000C5D0108AC000020099A012322F81530CE
:101EB000029BBBF8082093F84C8040F2FF1140F2DF
:101EC000FF33B8F1000F18BF0B46E2B19A421AD89F
:101ED0009BF80D30002B6CD19BF80F309BF80E0057
:101EE000002840F05383012B00F0B280DDF8109001
:101EF0004F4AD9F838304F49DDF820805746DDF891
:101F000008A098470CE0DDF810904B4AD9F838301B
:101F10004849DDF8208000205746DDF808A09847A2
:101F20000A9AB9897B89BDF81800029011FB02F169
:101F300089B20B449BB25A1C1FFA82FE0022019206
:101F400080E6DAED117A9AF84A309AF84B20A8F830
:101F50003030F5EE407AF1EE10FA14BF0123002381
:101F6000A8F83220A8F82A3029E73C81A7F800E039
:101F7000A0E60023A8F8AE31A8F8B031B9E69AF887
:101F80004D10072927D82D4B9FED2D9A0B4493F820
:101F90004C39A8F8A231329B83ED009A079B002BA5
:101FA00040F03284DAED105A94E603200125002136
:101FB000E7E59BF80F30022B90D1DDF81090214A15
:101FC000D9F838301B49DDF8208000205746DDF86D
:101FD00008A09847A4E7329ADAED105A002313605C
:101FE0000023019376E6B5EE407AF1EE10FA05D1C2
:101FF000F5EE407AF1EE10FA40F08385DFED108ABD
:10200000D9F83830104A0B49002098472FE5DFED0A
:102010000C8AD9F838300D4A06490020984726E541
:102020009AF80F30013B012B3FF635AD32E500BF8A
:102030006C5E01080C5D0108305E01085017010854
:1020400000000000405E0108745D0108605D010849
:10205000B84BBBF8067003EB8000182FD0F8283976
:102060000E93BBF804300D9340F2128307EB870305
:1020700003EB031303EB032307EB4303C3F3CC028C
:1020800042EA43339BB240F6AA22934200F2D8823E
:10209000A94BA3FB07231B090F93013B9BB214938E
:1020A0005C23109318230B930D98002840F04B8469
:1020B000049BA24A9B6BA2499847B8F1000F00F01D
:1020C000CF824FF000080222DBF800300E9919444D
:1020D0000C4601F5C3430D99283311FB02F2481E4B
:1020E0004CF2503192B28B420D9207FB004707D958
:1020F000049B944A9B6B9249002098474FF000083C
:1021000007F5C34328334CF25032934207D9049B5E
:102110008D4A9B6B8A49002098474FF00008002C9D
:10212000C0F26983894BE11783FB0423C1EBA3034E
:102130001AB2002FC0F25583844B83FB0730FB1784
:10214000C3EBA0000E9300B2804B83FB043C92B221
:10215000C1EBAC01801A01EB41010F9B1592B4EB6E
:10216000C10182B2B2FBF3F203B202F10102169393
:102170004FF018000B9BB0FBF3F01FFA82FE00F14A
:1021800029830FFA81FC89B2704B0B9A83FB0734C9
:102190000E9BC3EBA40303EB4303B1FBF2F402FB7E
:1021A0001414A2B2B7EBC3030E9200F10D831AB25E
:1021B00019929BB2013882B20E9C0B981A9212FBB4
:1021C0000040BEF1010F80B200F08E82C41A0E9B57
:1021D00018BF01248B4214BF01230023AEEB03027E
:1021E000A2EB0402A3B2119497B2179340F0848239
:1021F0000023189313931B930E9B89009B00B187B8
:10220000F387B8F1000F00F058829BF80E30052BD1
:1022100000F23884474A02EB4303B3F83C395A08CA
:10222000A3F14A00D91E033A80B2143B92B289B29C
:102230000F901293159B1698B186C3F129040F9B3A
:10224000F2861C4423B215931B1A292BA4B207DC77
:10225000049B3F4A9B6B3A49002098474FF0000887
:10226000129B159A934207DC049B3A4A9B6B3449B4
:10227000002098474FF000080F9B3387109B74870E
:102280002C2B40F261820023A6F85030A6F8523081
:10229000A6F85430149BA6F84E30189BA6F8483088
:1022A000002F00F035820123A6F84A30139B179ABD
:1022B000A6F84C20002B00F0F9831B9BA6F84230B7
:1022C0001A9BA6F84430119B002B00F0EB83199B5E
:1022D0000E9A9C1A0B9B94FBF3F4A6F846407A1EC8
:1022E00097B2A6F84070B8F1000F3ED09BF80A30C4
:1022F000172B00F2BF81092B00F29A83C3F1090367
:102300001522738032800599002900F0748172884B
:102310009BF80F3001EB4202013B9289B280042B03
:1023200000F2B084DFE813F018002601180109015B
:10233000290000BF50170108ABAAAAAAB85E01087D
:102340000C5D0108045F0108185F0108ABAAAA2A06
:102350004C5F01086C5F0108059B9A8C04210023E7
:10236000082A7385318540F227815746DDF82080A1
:10237000DDF808A0DDF81090D2E54FF00008C64661
:1023800043464FF4F0504FF478544FF4F86202276C
:102390004FF00B0C0821B281F281029AA6F82AC0F4
:1023A0003785318134827181708292F84D20B8F185
:1023B000000F00F00F81002B00F00C81022A00F2C8
:1023C0000C81C1490A4492F84829B282059A002A30
:1023D00061D006F114020020012130831182059999
:1023E0000E93C86E0B908C6EDDF82CC0D1F8648013
:1023F0000F940027394604EB1743A3EB08037345FA
:1024000088B2674401F1010180F209840F29F2D1F9
:102410000E9B08460599CF6FD1F878C0D08007EBA6
:10242000870405200CEB1441C91A00F1010E3C444D
:1024300040F196831FFA8EF01428F3D1DDF8109046
:10244000A24AD9F83830A249DDF82080002057464A
:10245000DDF808A0984763E59B490A4492F84C29A7
:10246000B282059ABAB10022328306F11402B8F1A1
:10247000000F40F07781A6F82480A6F81A80A6F80D
:102480001680A2F80880A2F80E80A2F80A80A6F8AA
:10249000208000235382BBF808009BF80B20328673
:1024A000012800F0C9800121831EF185B3859BF8C6
:1024B0000D10BAF80C30F18081F0010171860D9990
:1024C000A9F80030A9F808100B449BF80F10AAF8DF
:1024D0000C300129338D6CD002290CBFB0EE496A53
:1024E000B0EE696A01339BB207EE103ABBF80430D4
:1024F000B8EE477A07EE903AF1EE006A27EE267AB8
:10250000F8EE677A06EE900A67EE277AF8EE666ACA
:10251000069B67EEA67A194667EE867A002B08BFFF
:10252000114667EE8A7A039B0691FCEEE77A17EE76
:10253000902A13440393FFF767BB4FF00008C64689
:1025400043464FF4C0604FF460644FF4E0720227DA
:102550004FF0060C08211EE74FF00008C646434620
:102560004FF400704FF4C064C02202274FF0040CF7
:10257000082110E700204FF40074402203274FF099
:10258000020C08214FF0960EFA2304E7581EC0B241
:1025900004287FF65DADDDF810904E4AD9F838304A
:1025A0004B49DDF8208000205746DDF808A0984709
:1025B000B6E4B0EE6A6A95E74021328172814FF449
:1025C0000070029A7382B181F181308292F84D20BD
:1025D00098469E46072A7FF63FAFDDF810903E4AA8
:1025E000D9F838303A49DDF8208000205746DDF828
:1025F00008A0984794E49BF80F30059AB280013BFD
:10260000042B00F23F8301A252F823F02126000898
:1026100075250008592500083B2500087B23000884
:102620004FF000084046C446C64643464FF4007487
:10263000402204270221AEE60023F385B38536E766
:10264000049B264A9B6B224900201490044698471D
:102650000123CDE90F340B93B8F1000F7FF431ADB6
:10266000042231E5D9F838301D4A1949002098472D
:10267000FFF701BADDF810901A4AD9F8383014493A
:10268000DDF8208000205746DDF808A0984747E491
:10269000002FD5D01823B3FBF7F307FB03F3C3F1E7
:1026A00018039BB21493002BCAD17B1E9B009BB2D4
:1026B000109301230B970F93F6E46C2312933623A8
:1026C0000F933D227D21B5E550170108BC5F01083D
:1026D0000C5D0108945E01089C5F0108A45E01087E
:1026E000A05D0108845F01088C4200F09B820022FB
:1026F0001792184617461192019B1393A0EB0C00FA
:102700000B9B90FBF3F00123189383B21B9373E5AB
:10271000179BA6F84C30139BA6F84A70002B00F0CC
:10272000C9811B9BA6F842300023A6F84430119BB8
:10273000002B00F0A381199B0E9A9C1A0B9B94FB13
:10274000F3F4A6F84640CCE5109B1E2B40F289819D
:10275000A3F11E020F23A6F85420A6F85030A6F8C5
:10276000523097E501211182002B7FF438AED380DF
:1027700053801381D38153811F4605990024D1F8DA
:102780005CE0D1F86080214602E016293FF456AEA5
:102790000EEB1440C01B1FFA81FC444401F10101FF
:1027A000F3D4BCF1000F0CD05BB90CF1FF339BB23A
:1027B00008FB03F80EEB1848A7EB08084045C8BF14
:1027C0009C46A6F820C064E603F1180422B2A3B226
:1027D0001992EFE401F1180C1FFA8CF10FFA8CFC3E
:1027E000D2E4CF4BF843A3FB00306FEA1010FB1785
:1027F00000B20E93A8E4CA4BE243A3FB02236FEAA4
:1028000013131AB2E11794E4BCF1010F00F06881D0
:1028100007EE902A9FEDC3AAB8EE67CAB7EE089AF2
:10282000F2EE02CAD9ED117A9FEDBF0AF8EE679A6F
:1028300080EE290A0CF09CF99AF85030022B69EED0
:10284000809A00F23A81B94A9AF84E1002EB83005E
:1028500090ED00DAD0ED03BA002900F0FD81019A75
:10286000DFEDBEDAB24E9FEDB3BADFEDB3AA0027BB
:102870003D463AE04FF0300B08240AEB05039B7B02
:10288000052B47D8AD4931F8133007EE903AF8EEF2
:10289000677A89EEA77A55449AF84E302889A98834
:1028A00000FB044402346400A4B20137FDB2AB4221
:1028B00007EE904A87EE2A6AF8EE677A07EE10BABA
:1028C000F8EE476A87EE867AC6EE865A07EE901AC9
:1028D000F8EE677A67EE277A77EEA57A77EE8A7A4E
:1028E00077EE897A7DEEA7DA3FD90AEB05132D0141
:1028F000DB7B052B18D8022BBCD8012B1FD0022B59
:1029000012D10AEB05034FF03C0B9B7B052B4FF0DC
:102910000A04B7D98A4AD9F838308A49002098473A
:10292000F0EE4B7A0022B4E73246D9F838308549C8
:10293000002098474FF0180B042400229DE74FF029
:10294000480B0C2499E7B8F1000F40F0C6809BF8C3
:102950000C30002B00F0E080049B7B4A9B6B794994
:10296000404698470422FFF7AFBBB2B3DFED777A5A
:10297000DFED716A9FED767ADAED105A329B89EEBF
:10298000A75AF1EE0C7A85EE266A2CEE27CA7BEE6A
:102990008DBACCEE067AB0EE006A77EEACCA7CEE69
:1029A000ADDA7DEEABBA6BEE877A77EE867A77EEAC
:1029B000ABBAC6EEAB7AF4EEE75AF1EE10FAC3ED1D
:1029C000007A7FF787A9FDEEE77AD9F83840614AA7
:1029D0005C4917EE903A0020A0470023DAED105A28
:1029E0000193FFF777B90023A8F82630A8F828301C
:1029F0009AF85030012B10D0022B2BD013B3D9F8FA
:102A00003830554AFFF75CB80022A8F82630A8F8FD
:102A100028209AF85030012BEED1C8F834300193B9
:102A2000FFF773B80123A8F82630A8F82830DFE7AD
:102A3000102B94BFC3F11E03C3F117030022338090
:102A4000728060E44FF00113C8F834300123019321
:102A5000FFF75BB80023C8F8343001230193FFF778
:102A600054B8109B0F2B42D90F3B0F22A6F85230BF
:102A70000023A6F85020A6F854300BE4119BA6F8CA
:102A800046302EE4049B2E4A9B6B2E49002098472B
:102A90006C23129336230F933D227D214FF00008C3
:102AA000FFF7C8BB119BA6F8463018E4139BA6F8A5
:102AB000423005E4A6F8427036E6D9F83830264AA6
:102AC0002049002098479AF84E30002B85D0DFED42
:102AD00023BA0022B0EE6BDAC2E60222FFF7F4BAA4
:102AE000B0EE49AAF0EE49CAB0EE49CA9AE6002310
:102AF000109AA6F85020A6F85230A6F85430FFF7E6
:102B0000C9BB9AF84F109AF85020DFED148A914211
:102B10007FF476AAFFF7A0B9DDF80480A0E500BF36
:102B2000ABAAAAAA9A999D41F902154FA4200108BF
:102B3000945E010800000043002474498C200108C1
:102B4000405F01080C5D0108CC5E010800002043D5
:102B50000AD7233CE85F0108105E0108000000006E
:102B600005280BD000F1FF3E1FFA8EFE07FB0EF486
:102B70000CEB14441C1BA142C8BF704600210C463C
:102B800050801181D181084605991296096F0E91E6
:102B900005990E9E496FCDE9101202E016283FF408
:102BA0004DAC06EB1442D21A1FFA80FE0C4400F121
:102BB0000100F3D41146DDE91126BEF1000F0FD05C
:102BC0000EF1FF3080B21190DDE9100400FB04F437
:102BD0000E9800EB1440119C181A8142C8BFA646FB
:102BE000A2F80AE0718B0B9800FB01F001460F98E8
:102BF00000EB1141B1EB08043FF520ACF08B1099CC
:102C0000B6F816E001FB00F1084607FB0EF10E9F37
:102C10000CEB114107EB104008440719ADE50E9B82
:102C2000FFF7F8BB98420CBF012700270FD1002304
:102C3000CDE91733119313931B93FFF7DDBA019A74
:102C400002924FF0020E11460392FEF7FBBF0022E4
:102C50001792184611924FE55FED40DA86E6329BF7
:102C60001A46019B1371A8F8AC31FEF74EBF012341
:102C70000193FEF70CBF329A00231371A8F8AC3110
:102C8000FEF710BFDDF81090DDF82080D9F838305D
:102C9000084A094900205746DDF808A098475623FE
:102CA00003FB05830022A3F87020A3F86E20FFF732
:102CB00037B900BF945E01080C5D010808B5114BDF
:102CC0009FED110A2DED028B93ED118AB8EE488A23
:102CD00080EE080A0BF04CFF28EE000AB3EE088ADB
:102CE00020EE080AB7EE007AC7EE007ABDEC028B40
:102CF0009FED060A67EE807AB6EE000A27EE800A9C
:102D000008BD00BFAC000020F902154FC2F38E4D84
:102D1000F8B505462DED028B0E461F467AB91032E6
:102D2000012035F81230089A07EE903ABDEC028B7C
:102D3000F8EE677AC7ED007A33681360F8BDB0EE3D
:102D4000408AFFF7BBFF002195F81DE0B5F828C0C9
:102D5000E86A0A4605EB420301319C8F14FB0CF430
:102D600010FA84F307EE903AF8EEE77A67EE807A8D
:102D7000B4EEE78AF1EE10FA0CD4CAB29645E9D265
:102D80000A4B0B4A9B6B0B4900209847BDEC028B0A
:102D90000020F8BD002AF3D0013AD2B2032AEFD8BE
:102DA000AB185B7E06EB8306B9E700BFAC000020E2
:102DB000086001089C58010800B52DED048BF5EE64
:102DC000C00A83B0F1EE10FA01900BD82A4B2B4ABF
:102DD0009B6B2B4900209847002003B0BDEC048B6F
:102DE0005DF804FB0846B0EE419AF0EE608AF0EE22
:102DF000409AFDF7B9FBDDED017ADFED220AF8EE2E
:102E0000E77AB0EE408A67EEA00AB7EE000A0BF050
:102E100057FE0BF05BFFB0EE407AB0EE680AF0EEC2
:102E2000478A0BF053FFB0EE401AB2EE040A68EE88
:102E3000006A26EEA87A77EE297A37EEC18A78EE14
:102E4000490AC0EE800A0BF077FF40F2FF13F6EE5E
:102E5000007A30EE270ABCEEC00A10EE102A90B2BB
:102E6000012838BF0120984228BF184603B0BDECA6
:102E7000048B5DF804FB00BFAC0000202C6001084F
:102E8000A45701080AD7233B10B582B0049C0094D4
:102E9000044607F039FF08B902B010BD204602B061
:102EA000BDE8104007F0D0BDABB1013B70B59BB29F
:102EB000161D154600EBC10406EB830694ED000ACF
:102EC000D4ED010A0DF06AFBA5EC010AB54204F14C
:102ED0000804F3D170BD70472DE9F041064682B079
:102EE00015461F4693B15C1EA4B24FF6FF7C04F159
:102EF000090301EBC4029BB2013C05EBC303A4B27E
:102F0000106852685A6064451860F0D107F10800F3
:102F10004FEA470C80B21FFA8CFC07F1120807F148
:102F2000090205EBC0000CF1100C1FFA88F892B2F0
:102F30002B4605F14804AE4695ED137AD5ED127A8D
:102F400093ED156AD3ED146A37EE077A77EEA77A18
:102F500037EE467A77EEE67A8EED117ACEED107A7C
:102F6000ACEB020190ED017AD0ED007A89B205EB6D
:102F7000C10191ED016AD1ED006A37EE077A77EE73
:102F8000A77A37EE467A77EEE67A083305EBC20188
:102F90009C4202F10102AEF1080E81ED017AC1ED11
:102FA000007A92B2C8D196ED037AD6ED047A96ED06
:102FB000005AD6ED016A96ED026AB7EE004A77EE46
:102FC000045A67EE854A77EEA53A27EE057A84EE35
:102FD000235A43462A466946304636EE646A36EE40
:102FE000C77A65EE855A67EEC57A65EE865A67EE52
:102FF000877A26EE056A27EE057A77EEA57A37EE10
:10300000067ACDED017A8DED007AFDF7B7FD4146E8
:103010002846FDF72BFC2A46434669463046FDF715
:10302000ADFD41462846FDF721FCFA00214602B0DD
:10303000BDE8F0410DF0EEBC2DE9F04F2DED088B11
:1030400095B0B0F866409DF898500295804640795A
:10305000B8F830A00692039301EB840400284CD00A
:10306000D8F874300893BAF1000F3AD00AF1FF3162
:103070008AB2194608319FEDD86A01EBC2010234C9
:103080001A46B4F9003007EE103A34F9023CB8EEB3
:10309000C77A07EE903A67EE066AF8EEE77A82EDB5
:1030A000017A77EEA67A083242ED027A914204F173
:1030B0000404E6D1BAF1090F15D9089A534611460E
:1030C00008F14800FFF708FFD8F87420B8F8383046
:1030D000B8F83A10104615B0BDEC088BBDE8F04FBB
:1030E000E2E64FF0000ABD49BD4A8C6BBD490A209B
:1030F000009053460020A047E6E70AF101064FEA98
:10310000860C01220AAB03EB82030132086843F804
:10311000040C0B2A6144F5D1DFEDB38ADFEDB39ADD
:103120009FEDB39A9FEDAC8ADDF8189004960AAD36
:1031300014AFA34609E0002E40F0E88089ED008A34
:103140000435AF4209F104091BD0B5F90040B5F9C7
:103150000260002CEFD007EE904AB8EEE70A07EEC7
:10316000906AF8EEE77A87EE800A0DF039FB002CC2
:10317000C0F2D2800435AF4209F1040909ED010A19
:10318000E3D1029B049E5C4683B198ED177ADFED94
:10319000997A069A27EE277A02F12801D2ED007A71
:1031A00077EE277AE2EC017A9142F7D1039B002B6C
:1031B00040F0DC80D8F87430D8F8C020D8F8B4904B
:1031C00008930792BAF1000F8BD00AF1010B1FFA96
:1031D0008BF128329FED808ACDF8248004914FF046
:1031E000000B0592F2EE048ACDF808A09846DDE9BE
:1031F00006A79FED799A0BF101023B465E461FFA46
:1032000082FB4F46F0EE499A5D46994668E09AED9A
:10321000000AD9ED007A77EEC07A27EE880A78EEB8
:10322000670A30EE080AF4EE400AF1EE10FA80F177
:10323000C7800DF0CFF907EB8601F0EE60AAB1F977
:10324000023007EE103AB8EEC77A37F9263067EE4B
:10325000087A77EE081A0BEE103AF4EE671AF1EEE0
:1032600010FAB8EECBBAB0EE40AA80F1C78037EEC4
:103270008BBA71EE881A2BEE0A7A21EEAA6A6BEEEF
:103280002A7A61EE8A6A37EE466A77EEA66AB4EE6B
:10329000666AF1EE10FA80F1868034F9253004EB8D
:1032A000850107EE103AB1F9023007EE903AB8EE18
:1032B000C77AF8EEE77A37EE467A77EEE67A79EE75
:1032C000879A39EE279A049B1D44029B1E44059B56
:1032D00009F104094B45ADB2B6B20AF1040A20D097
:1032E000039B002B93D034F9253004EB850107EEC6
:1032F000103AB1F9023007EE903AB8EEC77AF8EE1C
:10330000E77A79EE879A39EE279ADCE7CCBF89ED28
:10331000009AC9ED009A13E7002E22DB30EE280A4E
:1033200028E789EE280AB94689EEA89A60EE087A5D
:1033300070EE080AF4EE607AF1EE10FA6DD6029B98
:1033400039EE279A70EE880A5B4588ED009AC8ED41
:10335000010A08F108087FF44AAFDDF824809A4694
:10336000A8E630EE680A89ED000AE9E60025524633
:10337000314602E0B8F83020511C11FB05F189B24A
:10338000481BD8F8B430013180B289B2920004EB06
:103390008101013503EB80000DF02EFB0A2DE9D1F0
:1033A000B8F830A006E7B0EE4B1AF0EE6A0AB0EEBD
:1033B0004A0A0AF025FDB0EE406AF0EE606A6CE75A
:1033C000B0EE670AFFEE001AB0EE481ADFED020A0F
:1033D0000AF016FD2DE700BF00000000AC00002041
:1033E0004460010878600108DB0F4940DB0FC9BF6A
:1033F000DB0FC93FCDCC4C3D00000000F7EE001ABA
:103400005FED030AB0EE470AB0EE481A0AF0F8FC86
:10341000F0EE407AF0EE601A29E75FED090AF7EE68
:10342000001AB0EE481A0AF0EBFCF0EE407A86E79C
:10343000F8B595692B78B5F802E0144602EB430322
:103440000F46B3F8446063690146720003EB4E0017
:103450000DF0E0FAE26D698813780E446E8003B9CE
:103460003B791370F8BD00BF08B52DED028B07EE58
:10347000901AFDF769F89FED2D7AF8EE677A30EE35
:10348000000A67EE877AB0EE008A80EE270A0BF01A
:10349000D1FA30EE088AB6EE000A28EE000A0BF0E8
:1034A000C9FABCEEC07AFCEEC87A17EE103AB7EE55
:1034B000006A70EE465A98B217EE903AC6EE256A48
:1034C00099B280B3002213469FED197A07EE903A25
:1034D000F8EE677A013267EEA67A93B267EEA77AC2
:1034E000834237EE277AF1D338EE408AF7EE007A3E
:1034F00038EE678A091A0029C7EE886A0EDD0023B4
:103500005A1C07EE903AF8EE677A93B267EEA67A05
:103510008B4267EEA77A37EE277AF1DBBDEC028BA0
:10352000B0EE470A08BD9FED027ADDE70AD7233BDC
:10353000000000002DE9F04F2DED068B0446027CC3
:1035400090ED008A8BB00D4601890120FDF77EFACF
:10355000B4EEC08AF1EE10FA40F1C58094F8243040
:103560000093002B40F0CF802046FDF7A5FA0646D9
:10357000002840F03181074694F80AB0B4F808906A
:10358000227C58464946FDF761FA94ED018AB4EE73
:10359000C80AF1EE10FA40F1A98094F82430C7F17E
:1035A000040A5FFA8AFA1BB9BBF1010F00F0298106
:1035B000F0EE400A94ED000A0BF082FAB4EEC08AF5
:1035C000F1EE10FA00F1F580C7F105085FFA88F80E
:1035D000B8F1010F40F2ED8007EE908AF8EE677ABD
:1035E000B7EE007A77EEC77A78EE406A002286EE70
:1035F000A77A134608F1FF310AA800EB820207EE12
:10360000903AF8EE677A013367EE877A9BB277EEED
:10361000807A994242ED057A1A46EDD80AAB03EB5F
:10362000880303ED068A49465846FDF739F8814676
:1036300001465846FFF718FF0BF1FF33DBB2042BAE
:1036400094BF814A9FED819A9FED818A01959CBF2D
:1036500002EB830393ED009A182303FB07F3EA18A8
:10366000643382F8768005EB030805AB82F862B01C
:103670002546F0EE408AA2F860904FF0000B1C4601
:103680005FFA8BF2524580F0CF81D4ED006A95ED60
:10369000030A94ED017AC7EE087A04340BF1010BAA
:1036A00086EE887AFCEEE77ABCEEC77A17EE903A9F
:1036B00098B217EE103AB0FBF9F010FB09F09AB28D
:1036C00000B2B2FBF9F212FB09F2A8F8002028F8C8
:1036D000020FB0EE491AA97CF0EE680AFFF76CFB06
:1036E000A8F80800CCE7002300933DE7BBF1010FE9
:1036F0007ED0009B03B1012606F001000BB0BDECAB
:10370000068BBDE8F08F0120FCF7CAFF0646014694
:103710000120FFF7A9FE012031462E80A870F0EEAF
:10372000408AFDF7F1F980462046FDF7C5F916FB02
:1037300008F7BFB208B17F00BFB2227C2189012007
:10374000FDF784F9F0EE400A94ED010A0BF0D6F98A
:10375000DFED3F6A9FED3F1AC8EE267A0223AB7574
:1037600080EE267AFCEEE77ABCEEC77A17EE903A46
:103770009AB217EE103AB2FBF6F298B2A2EB080337
:10378000B0FBF6F010FB06F217FA82F713FB06F017
:10379000A880EF80A17C94ED030A10B2F0EE680AD5
:1037A000FFF70AFB95F8C030E881013385F8C03097
:1037B000DAE6294B294A9B6B2949002098470020CB
:1037C00095F8C130013385F8C130009B002B92D1B0
:1037D000002E90D106468FE7A37A013B042B00F21E
:1037E0008B81DFE813F011000E010801FF001B00C0
:1037F00094F82430C7F1040A5FFA8AFA002B7FF4A8
:10380000D7AE94ED000AD9E6002795F8C1303E1EE8
:103810003B4485F8C13018BF0126ADE6052340F2D0
:1038200001328DF81630ADF814200323013B002738
:10383000019305F16003CDE902359FED05AADFEDA7
:1038400003AA3E46B9469DE0BC20010800000000E6
:103850000AD7233BCDCC3441AC0000209060010856
:10386000A4570108D4ED018AF4EEE80AF1EE10FA4B
:1038700040F1A88094F82460002E40F0C880F0EE5B
:10388000499A002F40F0C380F0EE480AB0EE680A73
:103890000BF034F951464046F0EE408AFCF700FF49
:1038A000014605464046FFF7DFFD08F1FF32D2B280
:1038B000042A9EBF944B03EB820292ED001A5146FC
:1038C0005A464FF0010088BFB0EE6A1AF0EE400A87
:1038D000FDF7BCF8B4EEC09AF1EE10FA40F19E800C
:1038E000002E00F09B800122B4EEE88AF1EE10FA7F
:1038F00029465B4640464CBF01260026FDF722F9CB
:10390000324684465B4640466646FDF71BF988EE24
:103910008A7A029A07EB470302EBC30A22F8335074
:1039200002238AF816308AF802800137FFB2C9EE06
:103930008A7ABCEEC77AFCEEE77A17EE103A17EEF9
:10394000902A9BB2B3FBF5F313FB05F39BB292B243
:10395000B2FBF5F212FB05F51844AE1BAAF80600FF
:10396000AAF80460A17C94ED030A18B2FFF724FAC8
:10397000AAF80E00019B09F101091FFA89F999457E
:103980004E464FD20AAB4B4494F810B013F8148C47
:10399000B4F808A0404651465A46FDF757F80AAB1E
:1039A0001E445A4616F8130CF0EE400AFDF74EF886
:1039B00094ED009AB4EEC90AF1EE10FAB0EE408A26
:1039C0003FF750AF94F82460002ED3D1002FD1D10F
:1039D000B4EEC98AF1EE10FACCDDD4ED018AF0EE36
:1039E000499A51E7042340F201328DF81630ADF8C0
:1039F000142003231AE740F20133ADF814300223F8
:103A000014E740F20123ADF8143002230EE7B0EEC4
:103A1000490A0BF055F8F0EE409A35E73A1E18BF08
:103A2000012261E7039DF0E62C46019D4FF0180E40
:103A30000EFB075E9EF87680B8F1020F32D907EBD5
:103A4000470C4FEA8C00022105EBCC0C08E0013159
:103A500089B29CF87680414524D2B8F1020F21D971
:103A6000431805EB4302B2F964A0B2F962309A45FB
:103A70000A46ECD108F1FF38414510D20B4602440A
:103A800000EB030A05EB420201339BB205EB4A0A45
:103A9000B2F96620AAF8642043451A46EFD38EF89F
:103AA0007680D6E72046FDF707F894F80A80237C55
:103AB0000193024649464046FDF744F8019B0446FF
:103AC00000224046FDF73EF8182202FB07520C2365
:103AD00092F876C0B2F864100CF1FF3C03FB07C704
:103AE00005EB47070C1BA2F86440B7F86430184494
:103AF000A7F86400012063E6044B054A9B6B054967
:103B000000209847002780E6BC200108AC00002078
:103B1000945E0108A457010810B52DED028B82B008
:103B20000191FCF711FDDFED327AB4EEE70AF1EE18
:103B300010FA04DC002002B0BDEC028B10BDDDEDFC
:103B4000017A9FED2C7ADFED2C6AF8EE677AB6EEFB
:103B5000008A67EE877A144687EE807A27EE080A95
:103B6000F0EEC07AF4EEE67AF1EE10FA36DCDFED34
:103B7000237A30EE000A20EE270A0AF013FF20EE27
:103B8000007AF7EE007A37EEC77ADFED1D5AB1EE14
:103B9000C75A37EEC06AC5EE256AF8EE005A36EE0F
:103BA000A77A26EE088A77EEE67A20EE250AC7EE97
:103BB000876AC6EE075AC8EE077A80EE076A0120C8
:103BC000C4ED007AC4ED015AC4ED027A84ED036AB3
:103BD000C4ED046A02B0BDEC028B10BDF7EE006AC2
:103BE000B0EE006AF0EE667AF0EE465AE7E700BF04
:103BF000ACC527370AD7233BDEFFFF3EDB0F49402A
:103C0000F304B53F2DE9F04F2DED028B044689B04A
:103C100008468A461746994607F038FD0021834634
:103C20005046CDF800B007F013F883456BD93B1D23
:103C30009FED398A0193064604F55C74314650467F
:103C400007F036FC31460546504607F075FC014644
:103C50002846FCF759FF03AA80462846FFF75CFF79
:103C6000002851D0A4F55C723D463B46B2F90210E3
:103C700007EE101A32F9041BB8EEC77A07EE901A55
:103C800067EE086AF8EEE77AA24277EEA67A83ED4D
:103C9000017AC3ED007A03F10803E7D1DC233A4649
:103CA000394603A8FFF718F9C8F16E035B001FFA45
:103CB00083FB41465B463A463846FFF7F5F8BBF1D1
:103CC000000F26D0019B9FED147A0BF1FF3292B2C8
:103CD00003EB8202F5EC017A67EEA77AAA4237EE8F
:103CE000277AF7D107EE90BAF8EE677A009BC7EE15
:103CF000276A0136F6B2B34204F55C74F1EEE67A57
:103D0000E9EC017A9AD8012009B0BDEC028BBDE83C
:103D1000F08F9FED017AE5E70000000070B50D46D9
:103D20008EB001210023044609AA0846CDE90933D3
:103D3000CDE90B330D93FFF7EFFE9FED2B6A204685
:103D400004F1C8022B462C46B0F9021007EE101AF7
:103D500030F9041BB8EEC77A07EE901A67EE066AD0
:103D6000F8EEE77A904277EEA67A83ED017AC3ED1A
:103D7000007A03F10803E7D109A832232A4629462D
:103D8000FFF7AAF82A46002132232846FFF78CF8CD
:103D900000219FED157A0A46F4EC017AF4EEC77A19
:103DA000F1EE10FA8BB201F10101C4BFB0EE677AF7
:103DB0001A463229F0D1ADF81A2007AA012304923D
:103DC00008AE6FF01D02CDE90023CDE902369FED6C
:103DD000070A002428460DF11A020894FCF768FD32
:103DE0009DED080A0EB070BD000000000AD7233B0D
:103DF0002DE9F04FBDB0CDE9002306460D4607F092
:103E00008DFC044688B10435012E284611D1FCF7FB
:103E1000C7FBC222074600210BA80CF0E3FD002FD0
:103E200040F09E80204607F061FC00203DB0BDE8D8
:103E3000F08FFCF7B5FB0026ADF8EC600028F1D060
:103E400028460BA9FFF776FB0028EBD09DF8EC3055
:103E5000002BE7D09DF84230BDF930A0BDF93250BB
:103E6000012BDFD9AA45DDDA0A212046BDF83A70D8
:103E7000BDF82C909DF82E8007F07CFA0221204698
:103E800007F01EFC32463146204607F0DDFB324685
:103E90000121204607F0B6FB32460121204607F0FB
:103EA0006DFB32460421204607F024FB324639469A
:103EB000204607F0DBFA32460F21204607F092FA3F
:103EC00032460121204607F06BFA32460121204696
:103ED00006F0E0FE32460221204606F097FEA5EBF2
:103EE0000A031A0499B29DD4B1FBF9F60122514696
:103EF000204607F0A9FB31460122204607F082FB4D
:103F000049460122204607F039FB0122414620465E
:103F100007F0F0FA39460122204607F0A7FA0122FD
:103F20000521204607F05EFA01221146204607F0DF
:103F300037FA41462846FCF7C5FA012201462046D9
:103F400006F064FE4699204606F04EFF054600281E
:103F50003FF468AF009B1C60019B01201D6065E77A
:103F600028460BA9FFF7E6FA00283FF45BAF9DF85F
:103F7000ED30002B3FF456AF0023314620461D465E
:103F8000039307F0F7F99DF8EDC09DF80C309C45C0
:103F900074D9182202FB03F73CABDE19643E0FCE46
:103FA0000DF1140EAEE80F0060370BABDA1996E88E
:103FB0000300937D92F802A00BAE8EE8030036F862
:103FC000079023B92946204607F07AFB2AE7013BF0
:103FD00013F0FF0F5FFA83FB4CD0032DF2D80BF1E7
:103FE000FF3B1FFA8BFB0DF11A0303EB4B0302930C
:103FF00006AE01E0042DE5D0B6F900B036F9027F37
:10400000A7EB0B0399B21B042A462046DAD4B1FB76
:10401000F9F8318907F02AFA2A465946204607F06E
:1040200013FB2A464146204607F0ECFA2A46494649
:10403000204607F0A3FA2A465146204607F05AFACE
:104040002A460A21204607F0CDF92A4601212046BA
:1040500007F0A6F951463846FCF734FA2A460146DD
:10406000204606F0D3FD029B0135B342EDB2C1D12B
:104070009DF8EDC0039B0133039386E72946204654
:1040800007F01EFB5EE700BF2DE9F04F2DED028B20
:1040900089B0CDE906120646059307F03FFB0446BA
:1040A000002800F0B380012107F064F9304607F0E2
:1040B000EDFA0021034630461D46049306F0C8FD84
:1040C000291A8246C9B2204607F0FAFA554540F24D
:1040D000918006EB0A134FF0000B00933FE0774D01
:1040E000774AAB6B7749002098473A460121204632
:1040F00007F044FA3A460021204607F0A5FA3A466E
:10410000DC21204607F07EFA18EE101A3A462046C7
:1041100007F0ACF93A464146204607F063F93A46C3
:104120004946204607F03CF901993A46204606F0F8
:10413000B1FD02993A46204607F0DCF903993A4668
:10414000204606F063FD009B10330AF1010A00933C
:10415000049B5FFA8AFA53450BF1010B4AD0514692
:10416000304607F061F95FFA8BF708EE100A002E6F
:1041700079D03368544A934256D0504D504AAB6B75
:1041800050490020984733684FF000084E4A934248
:1041900000F08280494D4A4AAB6B4A49002098475B
:1041A0005146304606F054FD5146034630460193D1
:1041B00007F07EF94FF0000902903368424A9342BB
:1041C00029D03E4DAB6B3E4A3E4900209847002324
:1041D000039323683C4A934281D1BBF1030F03D977
:1041E00006F004FD002880D004EB0B134FF0000212
:1041F000DA737AE70599204606F0F6FD05460028B1
:1042000056D0069B1C60079B01201D6009B0BDECC9
:10421000028BBDE8F08FBAF1030F41D906F0E6FC3E
:1042200000283DD10390D4E7BAF1030F3CD906F042
:10423000DDFC3368002837D1234A93428046A9D158
:1042400006F0D4FC814610B1009B93F810905146C3
:10425000304606F0FDFC514603463046019307F018
:1042600027F90290A9E7154D154AAB6B1549304661
:104270009847AB6B124A134930469847514630462F
:1042800006F0E6FC514603463046019307F010F96C
:10429000B0460290B14695E7BAF1030FD4D9CFE703
:1042A000009B9B7C039394E7009A92F80E806DE745
:1042B000204607F01BFA2846A8E700BFAC00002004
:1042C000B4600108CC6001080FB037132DE9F04F3E
:1042D0002DED048B90F838308DB007900393002BB0
:1042E00000F0E7800798828F0469C38FB0F84C50C4
:1042F00034F91210099502465B00408F0890019333
:10430000002D00F0D6801046526C836CB0F84E50F1
:10431000B0F840B0DFED708ADFF8C8810A95D31895
:10432000029300220901DB4305920B91049391460D
:10433000B6EE009A029A6949134681FB0331D317FE
:10434000C3EBA10101EB4101B2EBC101029A48BFED
:104350001831002A09B2C0F2B580604880FB020221
:10436000C3EBA20212B20B9B120482FB0356002D78
:1043700076F1000304DA4FF6FF73ED1846F10006FC
:10438000089B19442A0C34F9111042EA0642A2EBA8
:10439000011207EE902AF8EEE79A69EEA89AB0EEBD
:1043A000690A0AF0FFFAB0EE408AB0EE690A0AF034
:1043B00005FCBBF1000F6BD0079A136DB2F842A059
:1043C00093F800E006930020054647F6FF7709E0E2
:1043D000DDF80CE0E25201351FFA85FCE34550445C
:1043E000718052D9019A09EB50039BB202EB83030F
:1043F000E618E25E07EE902AB6F9022006EE902A51
:10440000F8EEE77AF8EEE66A27EE887A26EE806A1A
:1044100067EE807A66EE886A37EE467A77EEA67A9D
:10442000B5EEC07AF1EE10FAF5EEC07A4CBF37EE79
:10443000497A37EE097AF1EE10FA4CBF77EEC97A75
:1044400077EE897ABDEEC77AFDEEE77A17EE10CAED
:1044500017EE901A17EE102AC445B8BF42464145E0
:10446000B8BF4146BA42A8BF3A46B942A8BF39468A
:10447000BEF1000FAED19445AAD117EE90CABCEBA5
:10448000010E18BF4FF0010EA4E7069B83F800E071
:10449000059B029A01331FFA83F911460593049A8A
:1044A0000A9B1944D31A0493099B02914B453FF68A
:1044B00041AF079B186843680DB0BDEC048BBDE8A5
:1044C000F04F1847049B1A46054BA3FB02326FEAD4
:1044D000121212B247E700BF00008037ABAAAA2A27
:1044E000ABAAAAAA0080FFFF38B5524B93F8202050
:1044F0000021012A83F8481000F08D801A685321AA
:104500000225CA20012483F8215083F820405062FC
:104510005162916821F480619160D168C9B261F4FF
:104520009061D160D168490664D51F2151619168BD
:10453000414821F0070141F003019160016841F415
:1045400080110160816841F480118160916841F4BB
:10455000804191609168FF2441F480610120916065
:10456000546283F8210093F84810002283F8202039
:1045700000295BD172B6BFF34F8FBFF36F8F93F8F3
:10458000482002B930BF62B6BFF34F8FBFF36F8FC1
:1045900093F84820002AEDD093F820200021012A2A
:1045A00083F8481037D01868532201240225CA2105
:1045B00083F8215083F8204041624262826822F4ED
:1045C00080628260826822F4804282605C6A04E0D9
:1045D000596A091BB1F57A7F1FD8C26812F004022C
:1045E000F6D0FF2401220021446283F8201083F8D2
:1045F000212038BD5C6AD16811F0040195D1586A58
:10460000001BB0F57A7FF6D9FF240320546283F8AB
:10461000201083F8210008F051FCFF24032144629C
:1046200083F8202083F8211008F048FC83F8482004
:10463000B9E700BFAC000020000401400F49104A58
:10464000486A13691B0704D50D4B1869C0F3C000F5
:1046500070474B6A1B1AB3F57A7FF5D272B61369AD
:104660001B0700D430BF62B6BFF36F8F13691B07FF
:10467000EFD5034B1869C0F3C0007047AC000020B1
:1046800000040048154BDB68C3F3022310B4C3F1E8
:1046900007041A1D042C28BF0424062A4FF0FF32F9
:1046A00002FA04F28CBF033B002321EA0201994085
:1046B000431C0AD000F1604000F561400901C9B215
:1046C00080F800135DF8044B7047044B0901C9B230
:1046D00083F823105DF8044B704700BF00ED00E045
:1046E000F0B40568294F064601E0581C06D1EC6974
:1046F00031EA0400F9D10020F0BC7047786A801AD2
:10470000834227D333B328684407F0D5E86900050E
:10471000EDD54FF400632B6255E8003F23F4D073CE
:1047200045E80032002AF7D1326802F1080353E865
:10473000003F23F0010302F1080040E800310029A6
:10474000F3D12023B36786F87410F3670320C6F80B
:104750008030D1E755E8003F23F4D07345E80032BC
:10476000002AF7D1326802F1080353E8003F23F032
:10477000010302F1080040E800310029F3D12023B1
:10478000B36786F874100320F367B5E7AC00002028
:10479000224A03460068904230B43BD8204A21495F
:1047A000214C1C640244A1FB0212120992005A64BB
:1047B000022283F8252001689D68D3E9052421F4AD
:1047C000FF4121F070012A430A43224342F0800254
:1047D000B5F5804F026014D0196C134A914208BF9E
:1047E00012495A6C18BF124902F01C000F240A68C3
:1047F000844022EA04020A605A680C68824022431C
:104800000A6000200122D86383F8240083F8252061
:1048100030BC7047074A0349074CC2E7070402400F
:10482000F8FFFDBFCDCCCCCC00000240A800024078
:10483000A8040240F8FBFDBF000402402DE9F04748
:10484000724CD4F870C088B0BCF1000F5CD1236DFD
:10485000B3F5827F01D0C4F868C094F8A930E16C48
:10486000002203F0FF056267002B59D0022384F871
:10487000A9300B68A26D23F04003B2F5E06F0B6026
:1048800046D800F0B9804FF4805700206067D4E923
:104890001436E56DD4F864E006F4044603F482733C
:1048A000334305F002052B43256E02F4706805F0D2
:1048B0000105D4F880202B43D4E91A6502F00802E0
:1048C00042EA08024FEA1E480EF4007E08F004088F
:1048D00043EA0E0306F0380642EA0802334305F0C5
:1048E00080050CF0100C42EA0C0C2B4303434CEAFD
:1048F0000707002001220B604F60C4F8AC0084F869
:10490000A92008B0BDE8F0870023C4E91733A4E765
:10491000B2F5706F76D1636F002703F40050B6E7ED
:104920003B4B84F8A8509942CDE90355CDE9055594
:1049300007959BD103F560434FF0E00C1A6E354E9E
:1049400042F480521A661A6E02F480520292029A5F
:10495000DA6C42F00102DA64DB6C059503F00103C6
:1049600001930322052303A902274FF09040CDE9CC
:1049700003C7CDE90623DDF804E007F0CDFC264BA4
:10498000C4F8B8504FF001094FF0800A30464FF498
:1049900080784FF48067C4E92C39C4E93355C4E901
:1049A00030A8C4F8BC50C4F8C870FFF7F1FE034645
:1049B00050BB06F148051949C4F8A4601022643EB2
:1049C0002846C4E9413AC4E94473C4F8FC90C4F8E9
:1049D0000C81C4F81831C4F8D860C4F8F810C4F8D1
:1049E0000021FFF7D5FE78B9E16CD4F870C0C4F8A7
:1049F000A050C4F8206139E7636F4FF4805703F487
:104A0000005044E7002740E708F058FAAC000020C7
:104A1000003001405C0100201C00024030000240D8
:104A200070B54D4C94F881319EB0002B4BD0D4F82A
:104A30004031D4F84421D4F84C01242184F8811168
:104A4000196822F0706221F0010119601A619A68F8
:104A5000012822F400429A60D4F848212FD042F471
:104A6000044202289A6004BF4FF400625A605968F9
:104A7000D4F85851D4E9542641F0007141F4004172
:104A800059603243D868D4F85C1142EA0522D4F860
:104A9000605120F400402943D860DA6019601A6838
:104AA000002042F0010220211A60C4F8840184F839
:104AB0008111C4F8700184F882011EB070BD42F407
:104AC00000429A60D3E703F0FF055C2207A829465D
:104AD000CDE90255CDE9045584F8805106950BF0D7
:104AE00081FFD4F840311D4A9342A2D1802307A808
:104AF0001495079306F08CFE054650BB184E1948D6
:104B0000F36C43F00203F364F36C03F002030193CC
:104B10004FF44063019A029312220123CDE903234B
:104B20004FF0030C02A90423CDE905C307F0F4FB01
:104B3000B36D43F48003B365B36D03F48003009356
:104B400029462120009BFFF79DFD212007F078FEDC
:104B50006DE708F0B3F900BFAC000020005800403A
:104B600000100240000400482DE9F041654C94F823
:104B70002030012B00F0C28021680122022384F83A
:104B8000202084F821308E680278056A16F04006ED
:104B900016BFC678C670B605092A09D900230A3A95
:104BA000D2B2092A03F10103F9D842EA0312D2B2C0
:104BB0004378092B4FEA024209D900270A3BDBB2AE
:104BC000092B07F10107F9D843EA0713DBB290F884
:104BD00002E0BEF1090F4FEA03280DD90027AEF11C
:104BE0000A0E5FFA8EFEBEF1090F07F10107F6D833
:104BF0004EEA071E5FFA8EFE90F824C0BCF1090F42
:104C00000DD90027ACF10A0C5FFA8CFCBCF1090F3E
:104C100007F10107F6D84CEA071C5FFA8CFC4369E0
:104C200047681D432E43324348EA0203826AC6693D
:104C3000CA2553204D6243EA0E0E4862B2F5807FCA
:104C40004EEA0C638A6846EA070639D022F40072FD
:104C50008A60CA68D2B262F42072CA60656A04E0EF
:104C6000606A401BB0F57A7F20D8CA6812F0020251
:104C7000F6D00B628E648B6843F400738B608B6894
:104C800043F400538B60204B1A6842F480221A6070
:104C90009A68FF2642F48022012500209A604E6225
:104CA00084F8200084F82150BDE8F0810323FF2020
:104CB00084F820204862184684F82130BDE8F0814D
:104CC00022F480728A60CA68D2B262F4C072CA608A
:104CD000656A04E0606A401BB0F57A7FE6D8CA686E
:104CE00012F00102F6D0CB614E648B6843F48073FE
:104CF0008B608B6843F480538B60C4E70220BDE86F
:104D0000F08100BFAC0000200004014008B5114B49
:104D1000DA6822F08002DA609A68920603D4FBF720
:104D200057FA88B908BD9A6822F020029A60FBF70A
:104D30004FFA18B1084B032083F82100054A936805
:104D400043F02003936008BD034B032083F8210048
:104D500008BD00BF00280040AC0000200E490A68D2
:104D6000D06810F0400001D0002070474FF0FF33B2
:104D700030B4D3604C6A032509E003280AD04B6A9B
:104D80001B1BB3F57A7F84BF81F821500320D368C1
:104D90005B06F2D530BC7047AC0000202DE9F04F27
:104DA000254C85B00026CDE90266B4F82880019232
:104DB0008946002B3AD04FEA58088346A8F10408E8
:104DC0009A460D461F4626E0019B48F200019A19BB
:104DD0002980631E4FF00001E9806A80AB80620089
:104DE000002105F108000BF0FDFD2946012358467E
:104DF000221DFCF72DFC02AB03CB26446960286022
:104E000009EB460559F81600696802AB564503C31D
:104E1000A7EB04070AD2B845444628BF3C46B8452C
:104E2000D2D200E0013CE307FCD4CDE709F1080051
:104E300005B0BDE8F08F00BFAC00002038B50546D6
:104E4000FCF7F2FB044618B12A4600210BF0CAFD1C
:104E5000204638BD1C4991F82030012B32D030B4A7
:104E60000C68532301200225CA2281F8215081F8C1
:104E7000200062626362A36823F48073A360A36866
:104E800023F48053A360486A04E04A6A121AB2F518
:104E90007A7F0DD8E36813F00103F6D00020FF22DB
:104EA0000123626281F8200081F8213030BC704714
:104EB000FF200322606281F8203081F82120104613
:104EC00030BC704702207047AC000020F0B4314B7A
:104ED000314E1B68056882B000248DF80340746A67
:104EE000776A03EB8303C4F16404C3EBC303224476
:104EF0001B0D02FB03F30193AB6819420AD12CE0AE
:104F0000019C019B013B0193AB68002C08BF002270
:104F1000194222D0B1F5C06F05D12B7BDBB28DF8E1
:104F200003309DF80330736ADB1B9A42E8D86B6844
:104F3000426823F0E003B2F5827F6B601AD0836A87
:104F4000B3F5005F0DD00122002380F85D2080F8CA
:104F50005C30032002B0F0BC7047002002B0F0BC0F
:104F600070472B6823F400532B602B6843F40053E5
:104F70002B60E8E78368B3F5004F02D0B3F5806F8C
:104F8000DDD12B6823F040032B60836AB3F5005F0B
:104F9000D9D1E6E700000020AC00002070B4294D14
:104FA000294B6A6A1B6804686E6AC2F16402114484
:104FB00083B0C3F3CB3301FB03F30193A3681A0659
:104FC0000DD56B6A9B1B8B420DD2019A019B013B55
:104FD0000193A368002A08BF00211B06F1D400201A
:104FE00003B070BC70476368426823F0E003B2F519
:104FF000827F636016D0836AB3F5005F09D0012217
:10500000002380F85D2080F85C30032003B070BC82
:105010007047236823F400532360236843F400534C
:105020002360ECE78368B3F5004F02D0B3F5806FDF
:10503000E1D1236823F040032360836AB3F5005F66
:10504000DDD1E6E7AC00002000000020024B034A5F
:105050009B6B034900201847AC000020D460010876
:105060000C590108704700BF30B583B041F480543B
:1050700015460023022201A9ADF80440ADF8065000
:10508000FCF7E6FA03B030BD30B583B041F44051CF
:1050900014460025ADF80010012303226946ADF83F
:1050A0000250ADF80450FCF7D3FABDF80430238069
:1050B00003B030BD70B582B00DF106020024372177
:1050C0000546ADF80640FFF7DFFFBDF8063003F0F8
:1050D000C003B3B90DF1060200241C212846ADF827
:1050E0000640FFF7D1FFBDF806301B0515D50E4B66
:1050F0000E4A9E6B0E4920462B46B047204602B012
:1051000070BD094B93F84020002AE3D09C6B094AFC
:1051100007492B460120A047DCE72846FCF716FB91
:10512000012002B070BD00BFAC000020306101085A
:1051300018610108EC600108B1B101440B4A30B4B8
:105140004D1E411E4FF0FF3011F8014F0823604003
:10515000C4074CBF82EA50004008013BF8D1A94285
:10516000F2D1C04330BC7047084670472083B8ED89
:105170002DE9F04F2DED048BA5B00024CDE91344AB
:10518000159431B1914698460A68A14B9A428A46D5
:1051900007D0FBF777FD002025B0BDEC048BBDE800
:1051A000F08F16AA83461AA950461A941694FBF754
:1051B000A7FD1A9B329A93420FD8169B349A9A42B3
:1051C00016D2944DAB6B944A944900209847002026
:1051D00025B0BDEC048BBDE8F08F8E4D904AAB6BD3
:1051E0008E4920469847169B349A9A42EAD3D2E7D2
:1051F0009AF81430052B00F2BF83DFE813F060014A
:105200001F01BF008B0021000600824B93F8402055
:105210004AB19B6B834A8149012098479AF8143020
:10522000052B40F05B81DAF8304033982146FFF7D8
:1052300083FF339A1051369A012318461370ABE757
:10524000329A4146584605F039FB03900028A2D017
:105250009AF84030002B40F0F181DAF8640013AA8C
:10526000414605F06FFCDAF8083143B19AF8402066
:10527000002A40F0EC810AF1C00113A89847DAF83F
:105280000C209AF840300692159ADAF83C6009EE44
:10529000102A1846002B40F0D781DAF81820DAF8E7
:1052A0002C1007913399B6F844308A180B92002BD2
:1052B00000F08F81CDF81080CDE908BA9FED5A8AB1
:1052C000DFED5A8ACDF828900027804606E0B6F830
:1052D00044200137BBB29A4240F27281BDB2AB1C8E
:1052E00056F823402046FBF755FA0028EFD0204619
:1052F000FBF738FA8045EAD124B123684C4A93423F
:1053000000F0F280434B4B4A9B6B4B49002098477F
:10531000002041E7329A4146584605F0CFFA00286E
:105320003FF439AFDAF8600013AA414605F00AFCF1
:10533000DAF808311BB113A80AF1A4019847DAF88A
:105340002030DAF80C20339CDAF8541015982344F6
:105350004244FEF757FC00283FF41DAFDAF83C004A
:10536000FBF76EFC002800F0D6829AF84030002B44
:1053700000F0CE82012B3BD000213BE0329A414627
:10538000584605F09BFA00283FF405AFDAF85C00B8
:1053900013AA414605F0D6FBDAF808311BB113A871
:1053A0000AF188019847DAF81830DAF80C20339CB3
:1053B000DAF85010159823444244FEF723FC0028E5
:1053C0003FF4E9AE5046FBF769FC0446002840F084
:1053D0004A81DAF83C00FBF733FC002800F0A58294
:1053E0009AF84030002B00F09382012B40F0C282EB
:1053F000DAF85410329B00934A4643465846FDF76C
:1054000043FD00283FF4C7AE04238AF8143065E05A
:1054100030D1C0ACAC000020786101080C59010803
:1054200060610108B461010800000000ACC52737C5
:10543000E1AFA10F805801089C580108329A4146FB
:10544000584605F03BFA00283FF4A5AEDAF85800BC
:1054500013AA414605F076FBDAF808311BB113A810
:105460000AF16C019847DAF80C10359BBAF838400D
:105470001598414403EB8404FEF750FCBAF83A5007
:10548000359884ED000AA900FFF756FE359B43F8D6
:1054900025005046FBF714FC002800F0DE80329B0C
:1054A0000093DAF8481043464A465846FDF7ECFCAC
:1054B00000283FF470AE02238AF814300EE0329BCD
:1054C0000093DAF8441043464A465846FDF7DCFCA0
:1054D00000283FF460AE01238AF81430012025B083
:1054E000BDEC048BBDE8F08F06EB8505E26FEB6940
:1054F0000592069A296B206FD4F888501344049AB9
:105500001344079A1144059A18441A442B44339DB6
:105510006067C4F88C302944C4F880202046FBF72B
:10552000FBF8237E002B7DD1657925BB94F86D3087
:105530000BBB282229461AA80BF054FA012319EEB6
:10554000101A1AAA20460095FDF776FDB4F8C4207B
:10555000D4F8C00092001AA90BF04EFA6379012228
:1055600084F86D2043BB94F86C30002B7FF4AFAE11
:1055700000230393ABE62379022B00F084802822DA
:1055800000211AA80BF02EFA002300931AAA19EE94
:10559000101A2046FDF750FDCB4B93F84020012A0E
:1055A00004D99B6BC94ACA490220984763791BB941
:1055B00094F86D30002BD6D12379022BD8D1D2E7C5
:1055C000DDE908BA9AF84030DDF82890DDF810805F
:1055D000184603465344039A83F841205046FBF78C
:1055E00081FB0AEB000393F841300BB98AF84000C5
:1055F0009AF8413023B19AF84230002B40F099815B
:105600009AF84030002B40F07D81DAF85010329B40
:1056100000934A4643465846FDF736FC00287FF47F
:10562000FDADB8E5627915460AB984F86D20237995
:10563000022B00F03D810023237676E7012B0CBF7F
:10564000DAF8680000200AE6DAF8202027E6012AC6
:105650000CBF0AF1DC0100210FE65046FBF71EFBF0
:1056600000283FF498AD329B0093DAF84C10434683
:105670004A465846FDF708FC00283FF48CAD03234A
:105680008AF814302AE794F86C90B9F1000F7FF48F
:1056900076AF282249461AA801250BF0A3F94B46FC
:1056A00019EE101A00951AAA2046FDF7C5FCCDE99F
:1056B0001699CDE918996379002B00F01E8194F8B2
:1056C0001DB01FFA8BF3BBF1000F00F05181013BBD
:1056D00004F11A000B9D10FA83F004F1190216A9C7
:1056E00012F8013B05EB830390421B6841F8043B31
:1056F000F6D1238F1093002B00F02F81D4F8CCC06B
:10570000626FD4F8D8E0059203F1FF3A1FFA8AFAE3
:105710000CF10400114600EB8A0915464FEA8A0A8B
:105720006346724691ED007AD3ED007A77EE877A80
:10573000E3EC017AF1EC017A92ED007A67EEA77A58
:10574000994577EE877AE2EC017AEBD1B4F86A30CA
:105750000C93012B40F2A0800C9A531E9BB207EED3
:10576000903A07EE102AF8EE677AF8EE476A059A43
:10577000D4F89C300E93C6EEA75A04325244DCEDA6
:10578000007A87EEA67A84460430A3EC017ABEEC58
:10579000016AC6EE267A27EE077A77EEC77AF0EE30
:1057A000E77A67EEA57AB1EEE77AA5EC017AAA422C
:1057B000E5D1D4F8A820B4F83AE00D921FFA8BF3A3
:1057C000BBF1000F68D0013B9BB204F13E0909EB2D
:1057D0004309059BDDF840A01196043304F13C0019
:1057E0004FF0000C0F9303E081450CF1040C52D0F4
:1057F00030F8025FA5EB0E0292B29245F4D330F876
:10580000026CA6EB0E039BB2934280F0A38016A914
:1058100001EB0C0B013AAEEB060111440F9A9BED24
:10582000006ADFED2C5A13FA81F102EB8101059A2F
:1058300002EB830B0E9A26EE066A02EB83035A46AE
:10584000F2EC017AB3EC017A67EEA77AF0EEC76A60
:1058500077EEC67AF5EEC07AF1EE10FAF4EEE86A69
:10586000D8BFF0EE487AF1EE10FA05DDF1EEE76A06
:10587000C6EE877A75EEA75A8A42E1D1AD1BADB26A
:1058800007EE905AF8EE677A0D9B85EEA77A63448F
:1058900083ED007AA8E7119E0C9AA38A9B1AB3FAAB
:1058A00083F35B09013284F86C30A4F86A207DE64A
:1058B000208FD0B1D4F8CC20D4F8D810013880B2E1
:1058C000131D03EB800008E0AC0000209C61010880
:1058D0009C580108000000000433834282ED008AD6
:1058E000A1EC018A1A46F7D16279012100231546FD
:1058F000A4F86A1084F86C309DE60B9B1B68169325
:10590000AB46F6E6012B0CBFDAF8541000217EE618
:10591000DAF850106EE505218AF81410DAF828300C
:105920003399BDF85020CA5278E405238AF8143020
:1059300079E405238AF814305046FBF7C1F9DAF808
:1059400028303399BDF8502080F001008AF84000DB
:10595000CA5263E45FED215A90E7B4F86A300C93C1
:10596000012B99D9D4F89C300E93636F059320E7EF
:105970009B46BEE621463DE5034B044A9B6B04492A
:1059800000209847002007E4AC000020F4610108E3
:105990000C590108F0B585B00024012907461646C8
:1059A000ADF80E4038D0022933D0224B22499D6BEE
:1059B000224A03462046A84721460DF10E023846EA
:1059C000FFF762FBBDF80E30738003F00705012D71
:1059D000358024D013F0060F0BD16DB9154A00970E
:1059E000946B1549164A2846A0472C46204605B018
:1059F000F0BD023D012DF9D90E4A0097946B0E4976
:105A0000104A0020A04700210C462046318005B0F6
:105A1000F0BD32210124D0E70C463321CDE7054A01
:105A20000097946B0449084A0020A04700242046B0
:105A300005B0F0BDAC000020186101081462010837
:105A4000306201089462010860620108F0B583B019
:105A50000024012907461646ADF8064019D0022950
:105A600009D01A4B1A4A9D6B1A4903462046A8478B
:105A7000204603B0F0BD46210DF106023846FFF77F
:105A800003FBBDF80650842475B1BEB9012003B0F4
:105A9000F0BD45210DF106023846FFF7F5FABDF8D5
:105AA00006508324002DF0D1084B0B4A9C6B09490A
:105AB00028463B46A047284603B0F0BD384621465D
:105AC0000022FFF7D1FA3046D3E700BFAC00002038
:105AD0001462010818610108C862010810B582B09B
